:10000000D8580020010B0000F90B0000F90B00008C
:1000100000000000000000000000000000000000E0
:10002000000000000000000000000000811000003F
:100030000000000000000000B1110000F9110000F4
:10004000F90B0000F90B0000F90B0000F90B0000A0
:10005000F90B0000F90B0000F90B0000F90B000090
:10006000F90B0000454700005D47000075470000A0
:100070008D470000A5470000BD470000F90B0000B8
:10008000F90B0000F90B0000F90B0000F90B000060
:10009000F90B00000000000000000000F90B000058
:1000A000F90B0000F90B0000F90B0000F90B000040
:1000B0000000000010B5064C2378002B07D1054B3B
:1000C000002B02D0044800E000BF0123237010BDC4
:1000D000E401002000000000C0630000084B10B5E0
:1000E000002B03D00749084800E000BF0748036819
:1000F000002B00D110BD064B002BFBD09847F9E731
:1001000000000000E8010020C0630000C0630000A0
:100110000000000080B582B000AF104B1B68002BC0
:1001200012D1EFF310837B607B68002B09D172B68C
:10013000BFF35F8F0A4B00221A700A4B01221A701C
:1001400002E0084B00221A70044B1B685A1C034B38
:100150001A60C046BD4602B080BDC0460002002005
:10016000000000200402002080B500AF0B4B1B688C
:100170005A1E0A4B1A60094B1B68002B0AD1084B08
:100180001B78DBB2002B05D0064B01221A70BFF39F
:100190005F8F62B6C046BD4680BDC04600020020EB
:1001A000040200200000002080B584B000AF0200EF
:1001B000FB1D1A700F23FB18FA1D1278D2091A7052
:1001C0000E23FB18FA1D127852091A700D4BBB60F2
:1001D0000F23FB181B78002B0FD10F23FB181B7864
:1001E0009B0010229446BC446344083B1A680E23CB
:1001F000FB181B78DB01D31800E000231800BD4674
:1002000004B080BD0044004180B582B000AF020060
:10021000FB1D1A70FB1D1B781800034B9847030049
:100220001800BD4602B080BDA901000080B582B0B3
:1002300000AF78607B6800221A707B6801225A70D8
:100240007B6800229A70C046BD4602B080BD0000A7
:1002500080B584B000AF0200FB1D1A70BB1D0A1CE4
:100260001A70FB1D1B7818000D4B98470300FB60AC
:10027000FB1D1B781F22134001229A401300BB6014
:10028000BB1D1B78002B03D0FB68BA689A6102E0A3
:10029000FB68BA685A61C046BD4604B080BDC0461E
:1002A0000902000080B582B000AF3B1D18000E4B64
:1002B00098473B1D01221A703B1D190017200B4B5C
:1002C0009847012117200A4B98473B1D00221A70BE
:1002D0003B1D01225A703B1D19003720034B9847E4
:1002E000C046BD4602B080BD2D0200001D030000C7
:1002F0005102000080B582B000AF78607B68802238
:100300001A707B6800225A707B6801229A707B68A1
:100310000022DA70C046BD4602B080BD80B584B010
:1003200000AF02003960FB1D1A700C23FB18180087
:10033000104B98470C23FB1880221A703B681A78E0
:100340000C23FB185A703B685A780C23FB189A70E0
:100350003B689A780C23FB18DA700C23FA18FB1D03
:100360001B7811001800044B9847C046BD4604B0E6
:1003700080BDC046F5020000B90A000080B582B019
:1003800000AF78607B6800221A70C046BD4602B09C
:1003900080BDF0B58DB000AFB860F9603A607B60A9
:1003A000002300243B627C6200230024BB61FC61CB
:1003B0003F23FB6253E0FB6A203B002B04DB01225E
:1003C0009A4013007B610BE0FB6A2022D31A0122C2
:1003D000DA4013000021FA6A91400A0013437B615E
:1003E0000122FB6A9A4013003B61BB69FC69DB1880
:1003F0006441BB61FC61BB683A691A401500FB6847
:100400007A691A4016002B00334307D0BB690122DA
:100410001343BB61FB6900221343FB617A68FB69EC
:100420009A4219D87A68FB699A4203D13A68BB6943
:100430009A4211D8B969FA693B687C68C91AA24125
:100440000B001400BB61FC613A6A3B6913433B62D9
:100450007A6A7B6913437B62FB6A013BFB62FB6A3E
:10046000002BA8DA3B6A7C6A18002100BD460DB05B
:10047000F0BD80B586B000AFF860B9607A60162331
:10048000FB1800221A80BB683B61BB685A08FB68F6
:100490009A4201D2402326E0BB685B083B610AE038
:1004A0003A69FB68D31A3B611623FB181A88162396
:1004B000FB1801321A803A69FB689A42F0D216237F
:1004C000FB181622BA181288013A1A801623FB1854
:1004D0001B88FF2B01D9402305E07B681622BA1840
:1004E00012881A8000231800BD4606B080BD0000A7
:1004F000F0B5A1B000AFF864B9647A644322BA18C9
:100500001370002300243B677C6700230024BB6634
:10051000FC6600230024BB67FC6700237B6658232E
:1005200040229446BC4463441A78FB6C5A43BB6C2B
:100530009A4201D94023B3E04323FB181B78002BD8
:100540003DD1582340229446BC4463441B78DBB21F
:100550003B6100237B61FB6CBB600023FB60524C62
:10056000BA68FB6838697969A04703000C001B0072
:10057000FB650023BB65BB6C3B6000237B60B86DF3
:10058000F96D3A687B68494CA04703000C003B6753
:100590007C67002101223B6F7C6FC91AA2410B00CE
:1005A0001400BB66FC66BB6E1B0CFA6E16041E4381
:1005B000BB6E1D043300BB670023FB676AE0432367
:1005C000FB181B78012B65D1FB6C3B6300237B631D
:1005D000582340229446BC4463441B78DBB2BB6280
:1005E0000023FB62304CBA6AFB6A386B796BA04718
:1005F00003000C00BB65FC65BB6C3B6200237B62A7
:10060000BB6DFC6D1A002300386A796A274CA0473D
:1006100003000C007B667A6E80239B019A4201D90D
:1006200040233DE0BB6CBB610023FB61B969FA6903
:100630000B005B0F1000C000F863F86B1843F86301
:100640000B00DB00BB63BB6DFC6D1A002300B86BB5
:10065000F96B164CA04703000C00BB65FC65BB6D35
:10066000FC6DD9B27B6EDBB2DB00DAB2172340201F
:100670008446BC4463448A1A1A7017234022944665
:10068000BC4463441B785B031A007B6E1343BB6757
:100690000023FB67BB6FFC6F9AB27B6C1A80002350
:1006A0001800BD4621B0F0BDCD53000093030000FB
:1006B00080B584B000AF0200FB1D1A70BB1D0A1C80
:1006C0001A701A4B1B7801225340DBB2002B03D166
:1006D000BB1D1B78002B1BD00C23FB181800144BE0
:1006E00098470C23FB18FA1D12781A700C23FB187C
:1006F000190013200F4B984713200F4B98470B4BB3
:10070000FA1D12785A70094B01221A70002308E072
:10071000064B5B78FA1D12789A4201D1002300E063
:100720001D231800BD4604B080BDC046080200204D
:100730007D030000494F00008D4F000080B582B05E
:1007400000AF78600A00FB1C1A707B684D4A934228
:100750003FD04C4A934206D84B4A93420FD04B4A63
:10076000934221D089E04A4A934200D15BE0494A52
:10077000934200D16CE0484A93423FD07DE0FB1C9D
:100780001B78012B0AD002DC002B05D075E0022B70
:1007900006D0032B06D070E0404B6FE0404B6DE07D
:1007A000404B6BE0404B69E0FB1C1B78012B0AD0EF
:1007B00002DC002B05D060E0022B06D0032B06D014
:1007C0005BE003235AE0394B58E0394B56E0394B94
:1007D00054E0FB1C1B78012B0AD002DC002B05D057
:1007E0004BE0022B06D0032B06D046E0324B45E00F
:1007F000324B43E0324B41E0324B3FE0FB1C1B7875
:10080000012B0AD002DC002B05D036E0022B06D0EB
:10081000032B06D031E02C4B30E02C4B2EE02C4B40
:100820002CE02C4B2AE0FB1C1B78012B0AD002DCAD
:10083000002B05D021E0022B06D0032B06D01CE0B4
:10084000254B1BE0254B19E0254B17E0254B15E008
:10085000FB1C1B78012B0AD002DC002B05D00CE01E
:10086000022B06D0032B06D007E01F4B06E01F4BE0
:1008700004E01F4B02E01F4B00E000231800BD46C0
:1008800002B080BD0010004200080042000C00428F
:1008900000180042001C0042001400420300040043
:1008A0000300050003000600030007000300010029
:1008B00003001E0003001F000300080003000900DE
:1008C00003000A0003000B000300100003001100E6
:1008D000030012000300130003000C0003000D00CE
:1008E00003000E0003000F000300160003001700B2
:1008F000030018000300190090B58BB000AF7860BA
:100900000C23FB180F4A13CA13C313CA13C30023C3
:100910007B620EE00C23FB187A6A9200D3581A000F
:100920007B689A4202D17B6ADBB206E07B6A0133C4
:100930007B627B6A052BEDD900231800BD460BB006
:1009400090BDC0466C5E000080B584B000AF020070
:10095000FB1D1A700F23FB18FA1D1278D2091A70AA
:100960000E23FB18FA1D127852091A700D4BBB604A
:100970000F23FB181B78002B0FD10F23FB181B78BC
:100980009B0010229446BC446344083B1A680E2323
:10099000FB181B78DB01D31800E000231800BD46CC
:1009A00004B080BD0044004180B588B000AFF8605D
:1009B000B9607A600023FB617B68DB7801225340D9
:1009C000DBB2002B35D07B681B78802B0BD0FB690A
:1009D000802252021343FB617B681B781B061A00BE
:1009E000FB691343FB617B685B78002B03D07B685A
:1009F0005B78022B10D1FB69802292021343FB61CA
:100A00007B689B78002B04D0FB698022D2021343C1
:100A1000FB61FB68BA685A607B685B78012B03D086
:100A20007B685B78022B07D1FB69224A1340FB618C
:100A300002E0FB68BA685A60BB681B041B0CBB6110
:100A4000BB681B0C7B61BA69FB691343A022D2050A
:100A50001A43FB689A627A69FB691343D022120633
:100A60001A43FB689A627B68DB7801225340DBB251
:100A7000002B1AD0FA698023DB0213400AD07B686E
:100A80009B78012B03D1FB68BA689A6102E0FB688E
:100A9000BA685A617B685B78012B03D07B685B780E
:100AA000022B02D1FB68BA689A60C046BD4608B006
:100AB00080BDC046FFFFFBFF80B584B000AF0200E1
:100AC0003960FB1D1A70FB1D1B7818000A4B9847F4
:100AD0000300FB60FB1D1B781F22134001229A407C
:100AE0001300BB603A68B968FB681800034B98476D
:100AF000C046BD4604B080BD49090000A9090000F8
:100B000080B582B000AF2F4B7B602F4B3B607A6883
:100B10003B689A420CD007E03B681A1D3A607A683D
:100B2000111D796012681A603A68284B9A42F3D313
:100B3000274B3B6004E03B681A1D3A6000221A60B4
:100B40003A68244B9A42F6D3234B7B60234B7A6856
:100B5000FF218A439A60224A90235B000221D150F0
:100B6000204AD37803218B43191C02230B43D370F3
:100B70001C4AD3780C218B43191C08230B43D370D8
:100B8000194A937B30218B43191C20230B43937309
:100B9000154A937B0C218B43191C08230B43937339
:100BA000114A937B03218B43191C02230B4393733C
:100BB0000E4A536880210B4353600D4B98470D4BF1
:100BC0009847FEE7C063000000000020E401002019
:100BD000E4010020D43800200000000000ED00E017
:100BE00000700041005000410048004100400041B9
:100BF000215400002151000080B500AFFEE7000045
:100C000080B584B000AF78600A4B1B68002B02D11E
:100C1000084B094A1A60074B1B68FB60054B1A68B2
:100C20007B68D218034B1A60FB681800BD4604B0FD
:100C300080BDC0460C020020D858002080B584B08A
:100C400000AF78600023FB607B68002B01D172B697
:100C5000FEE70820114B98470300BB60BB68002BE0
:100C600001D172B6FEE7BB68002B12D00C4B98473F
:100C7000BB687A681A60BB6800225A60094B1B681F
:100C8000BA685A60074BBA681A60074B9847012345
:100C9000FB60FB681800BD4604B080BD81120000F7
:100CA000411100000C0000206511000080B588B0E3
:100CB00000AFF860B9607A600123FB613D4B1B68AF
:100CC000002B44D13B4B3C4A1A603AE0394B1B683D
:100CD0001B681B68BB61BB691800384B9847030051
:100CE0007B61FA687B69D3181B78202B05D0FA68E2
:100CF0007B69D3181B78002B1ED17A69B969FB6810
:100D000018002F4B9847031E16D12A4B1B681B68EF
:100D10001B7B5BB2002B19DBFB681800294B984743
:100D200003001A00234B1B681B681B7B5BB29A42B3
:100D30000CD00023FB6109E01E4B1B685A681D4B59
:100D40001A601C4B1B68002BC0D100E0C046194B39
:100D50001B68002B0CD0FB69002B09D17A681A495B
:100D6000BB681800194B9847124B00221A601CE010
:100D7000104B1B68002B10D00E4B1B681B689B6828
:100D8000FA687968B86898470300FB61FB69002B33
:100D90000BD1084B00221A6007E07A680C49BB6847
:100DA00018000A4B98470023FB61FB691800BD46F9
:100DB00008B080BD1002002004000020F956000099
:100DC00007570000350E0000BC5E000029570000E8
:100DD000145F000080B586B000AFF860B9607A603B
:100DE000114B1B68002B02D10F4B104A1A600E4B9F
:100DF0001B681B685968BA68FB6818000C4B984759
:100E0000094B1B685A68084B1A60074B1B68002B7C
:100E100002D100237B6101E001237B617B69180023
:100E2000BD4606B080BDC04614020020040000206C
:100E30002957000080B584B000AF78600F23FB18FD
:100E400000221A700023BB6018E07B681B78202BFF
:100E50000FD1BB68012B0ED00F23FB181B785BB2A0
:100E6000DBB20133DAB20F23FB181A700123BB6027
:100E700001E00023BB607B6801337B607B681B78EB
:100E8000002BE2D1BB68012B09D10F23FB181B7883
:100E90005BB2DBB2013BDAB20F23FB181A700F23EF
:100EA000FB181B785BB21800BD4604B080BD80B54E
:100EB00082B000AF78607B6808331A007B685A60A4
:100EC0007B68012252429A607B6808331A007B6873
:100ED000DA607B6808331A007B681A617B6800223D
:100EE0001A60C046BD4602B080BD80B582B000AF7A
:100EF00078607B6800221A61C046BD4602B080BDA2
:100F000080B584B000AF786039607B685B68FB6057
:100F10003B68FA685A60FB689A683B689A60FB68AD
:100F20009B683A685A60FB683A689A603B687A68DE
:100F30001A617B681B685A1C7B681A60C046BD46F4
:100F400004B080BD80B584B000AF786039603B6884
:100F50001B68BB60BB68013303D17B681B69FB6006
:100F60000CE07B680833FB6002E0FB685B68FB60B9
:100F7000FB685B681A68BB689A42F6D9FB685A68D6
:100F80003B685A603B685B683A689A603B68FA68FD
:100F90009A60FB683A685A603B687A681A617B68B5
:100FA0001B685A1C7B681A60C046BD4604B080BDF1
:100FB00080B584B000AF78607B681B69FB607B689C
:100FC0005B687A6892689A607B689B687A68526806
:100FD0005A60FB685A687B689A4203D17B689A68BA
:100FE000FB685A607B6800221A61FB681B685A1E06
:100FF000FB681A60FB681B681800BD4604B080BD22
:1010000080B584B000AFF860B9607A60FB68043BDB
:10101000FB60FB68802252041A60FB68043BFB60A3
:10102000BA68FB681A60FB68043BFB60084AFB680F
:101030001A60FB68143BFB607A68FB681A60FB6807
:10104000203BFB60FB681800BD4604B080BDC04675
:101050005510000080B582B000AF00237B60074BC5
:101060001B68013301D072B6FEE772B6C0467B68DA
:10107000002BFCD0C046BD4602B080BD1000002051
:1010800080B500AFC046BD4680BD00000000000036
:101090000B4A13681868203080F30988022080F317
:1010A0001488BFF36F8F3FBCAE4608BC04BC62B669
:1010B0001847C046C046C046C046C046C046C046A7
:1010C00000310020C046C04680B500AF0E4B0E4A2E
:1010D0001268FF2109040A431A600B4B0A4A12687E
:1010E000FF2109060A431A60084B9847084B002263
:1010F0001A60084B9847084B9847084B98470023BD
:101100001800BD4680BDC04620ED00E03912000049
:101110001000002091100000FD2300005510000079
:1011200080B500AF054B802252051A60BFF34F8F88
:10113000BFF36F8FC046BD4680BDC04604ED00E0E2
:1011400080B500AF72B6064B1B685A1C044B1A6080
:10115000BFF34F8FBFF36F8FC046BD4680BDC04603
:101160001000002080B500AF094B1B68002B01D197
:1011700072B6FEE7064B1B685A1E054B1A60044BFD
:101180001B68002B00D162B6C046BD4680BDC0467C
:1011900010000020EFF3108072B67047C0461800B0
:1011A00080F310887047C046000000000000000077
:1011B000EFF309800E4B1A6820381060F0C04446E7
:1011C0004D4656465F46F0C008B572B601F016F9B6
:1011D00062B60CBC116808681030F0C8A046A94679
:1011E000B246BB4680F309882038F0C81847C0468D
:1011F00000310020C046C04680B582B000AF0A4B27
:10120000984703007B60094B9847031E03D0084BA7
:10121000802252051A607B681800064B9847C0462A
:10122000BD4602B080BDC046951100008922000075
:1012300004ED00E0A1110000B0B500AF0B4B00229F
:101240001A600B4B00221A600A4C00200A4B984788
:101250000A4BFA22910098470300013B2360034B9D
:1012600007221A60C046BD46B0BDC04610E000E08F
:1012700018E000E014E000E0714E0000B5520000FC
:1012800080B584B000AF78600023FB607B680722E4
:10129000134004D07B680722934308337B60194BCB
:1012A0009847194B1B68002B05D1184B0722934315
:1012B0001A00154B1A60164B1A687B68D318154A2A
:1012C000934213D8124B1A687B68D218104B1B68D4
:1012D0009A420BD90C4B1A680D4B1B68D318FB6054
:1012E0000B4B1A687B68D218094B1A600A4B984757
:1012F000FB68002B01D1094B9847FB681800BD46DD
:1013000004B080BD21210000FC300020200200201C
:10131000F8300020D72E000039210000855200004F
:1013200080B582B000AF78607B68002B01D072B6C8
:10133000FEE7C046BD4602B080BD000080B500AFEC
:10134000034B1B68034AD31A1800BD4680BDC04634
:10135000F8300020D82E000080B584B000AF78604F
:1013600039607B68FB60FB68002B01D172B6FEE739
:10137000234B9847FB681A68FB68D96BFB681B6CAA
:101380004B43D218FB685A60FB6800229A63FB68E3
:101390001A68FB689A60FB681A68FB68DB6B591E69
:1013A000FB681B6C4B43D218FB68DA60FB68442275
:1013B000FF219954FB684522FF2199543B68002B7B
:1013C0000DD1FB681B69002B13D0FB68103318008C
:1013D0000C4B9847031E0CD00B4B984709E0FB6859
:1013E00010331800094B9847FB6824331800074B4B
:1013F0009847074B984701231800BD4604B080BDAD
:10140000411100005D25000021110000AF0E000019
:101410006511000090B58BB002AFF860B960FB1D9C
:101420001A70FB68002B01D172B6FEE7BB68002B77
:1014300002D10023FB6103E0FB68BA685343FB6100
:10144000FB69543318000C4B98470300BB61BB6920
:10145000002B0CD0BB6954337B61FB1D1C787A696F
:10146000B968F868BB6900932300044CA047BB69C6
:101470001800BD4609B090BD811200008114000023
:1014800080B584B000AFF860B9607A601A00FB1CC8
:101490001A70BB68002B03D1BB69BA691A6002E0FD
:1014A000BB697A681A60BB69FA68DA63BB69BA68B3
:1014B0001A64BB6901211800064B9847BB69FA1CE6
:1014C000502112785A54BB6900229A64C046BD4626
:1014D00004B080BD5913000080B58AB000AFF86039
:1014E000B9607A603B6000237B62FB683B623B6AC9
:1014F000002B01D172B6FEE7BB68002B03D13B6A1B
:101500001B6C002B01D1012300E00023002B01D133
:1015100072B6FEE73B68022B03D13B6ADB6B012B03
:1015200001D1012300E00023002B01D172B6FEE7B8
:10153000534B9847031E02D17B68002B01D1012336
:1015400000E00023002B01D172B6FEE74D4B984717
:101550003B6A9A6B3B6ADB6B9A4202D33B68022B75
:101560002DD13A68B9683B6A1800474B9847030089
:10157000FB613B6A9B6C002B0AD03A683B6A110006
:101580001800424B9847031E15D0414B984712E074
:101590003B6A5B6A002B09D03B6A243318003D4B41
:1015A0009847031E07D03A4B984704E0FB69002B8D
:1015B00001D0374B9847384B984701235CE07B6854
:1015C000002B03D1344B9847002355E07B6A002B56
:1015D00006D11423FB181800304B984701237B6277
:1015E0002D4B98472E4B9847264B98473B6A4422F1
:1015F0009B5C5BB2013303D13B6A442200219954C6
:101600003B6A45229B5C5BB2013303D13B6A4522B6
:1016100000219954204B98473A1D1423FB181100C0
:101620001800204B9847031E1FD13B6A18001E4B21
:101630009847031E12D03B6A10337A6811001800D5
:101640001A4B98473B6A1800194B9847194B984713
:10165000031E00D07AE70E4B984777E73B6A1800E5
:10166000134B9847134B984770E73B6A1800104B91
:101670009847104B984700231800BD460AB080BD1C
:101680009528000041110000791900007D1C000020
:10169000211100005D250000651100001D260000DD
:1016A0002121000045260000CD1B0000C5240000BC
:1016B000A91A00003921000080B588B000AFF86099
:1016C000B9607A603B60FB68BB61BB69002B01D1EC
:1016D00072B6FEE7BB68002B03D1BB691B6C002B05
:1016E00001D1012300E00023002B01D172B6FEE7F7
:1016F0003B68022B03D1BB69DB6B012B01D10123BA
:1017000000E00023002B01D172B6FEE72D4B984775
:1017100003007B61BB699A6BBB69DB6B9A4202D3A6
:101720003B68022B42D11323FB18BA694521525C56
:101730001A703A68B968BB691800234B984713239D
:10174000FB181B785BB2013324D1BB699B6C002B67
:101750000ED03A68BB69110018001C4B9847031E55
:1017600021D07B68002B1ED07B6801221A601AE012
:10177000BB695B6A002B16D0BB6924331800144B7D
:101780009847031E0FD07B68002B0CD07B6801228A
:101790001A6008E01323FB181B780133DBB259B23F
:1017A000BB69452299540123FB6101E00023FB61E1
:1017B0007B691800074B9847FB691800BD4608B0C5
:1017C00080BDC04695110000791900007D1C000005
:1017D0005D250000A111000080B58AB000AFF8605F
:1017E000B9607A6000237B62FB683B623B6A002B36
:1017F00001D172B6FEE7BB68002B03D13B6A1B6CBC
:10180000002B01D1012300E00023002B01D172B68F
:10181000FEE74C4B9847031E02D17B68002B01D199
:10182000012300E00023002B01D172B6FEE7464BF6
:1018300098473B6A9B6BFB61FB69002B1AD0BA6827
:101840003B6A11001800414B9847FB695A1E3B6ADE
:101850009A633B6A1B69002B08D03B6A103318005F
:101860003B4B9847031E01D03A4B98473A4B984759
:10187000012362E07B68002B03D1374B984700239C
:101880005BE07B6A002B06D11423FB181800334B56
:10189000984701237B62304B9847314B98472A4B3E
:1018A00098473B6A44229B5C5BB2013303D13B6A9D
:1018B0004422002199543B6A45229B5C5BB2013370
:1018C00003D13B6A452200219954234B98473A1D86
:1018D0001423FB1811001800224B9847031E1ED139
:1018E0003B6A1800204B9847031E11D03B6A2433F3
:1018F0007A68110018001D4B98473B6A18001C4B72
:1019000098471C4B9847031E91D1124B98478EE77E
:101910003B6A1800164B9847164B984787E73B6A77
:101920001800134B9847134B98473B6A18000E4B0F
:101930009847031E00D17AE700231800BD460AB07D
:1019400080BDC0469528000041110000591A0000D2
:101950005D25000021110000651100001D2600001A
:101960002121000045260000991B0000C52400002D
:10197000A91A00003921000080B586B000AFF860D8
:10198000B9607A6000237B61FB689B6B3B61FB68FD
:101990001B6C002B0ED1FB681B68002B4ED1FB6823
:1019A0005B6818002A4B984703007B61FB680022A4
:1019B0005A6043E07B68002B19D1FB689868FB688C
:1019C0001A6CBB681900234B9847FB689A68FB6840
:1019D0001B6CD218FB689A60FB689A68FB685B68AE
:1019E0009A422BD3FB681A68FB689A6026E0FB6872
:1019F000D868FB681A6CBB681900164B9847FB68DF
:101A0000DA68FB681B6C5B42D218FB68DA60FB6823
:101A1000DA68FB681B689A4207D2FB685A68FB6861
:101A20001B6C5B42D218FB68DA607B68022B05D125
:101A30003B69002B02D03B69013B3B613B695A1C6F
:101A4000FB689A637B691800BD4606B080BDC0463E
:101A5000CD2800007D54000080B582B000AF7860D2
:101A600039607B681B6C002B18D07B68DA687B6858
:101A70001B6CD2187B68DA607B68DA687B685B680D
:101A80009A4203D37B681A687B68DA607B68D968FE
:101A90007B681A6C3B681800024B9847C046BD46ED
:101AA00002B080BD7D54000080B584B000AF786086
:101AB000344B98470F23FB187A684521525C1A7003
:101AC00022E07B689B6C002B09D07B68002118000A
:101AD0002D4B9847031E0FD02C4B98470CE07B688A
:101AE0005B6A002B17D07B6824331800284B98477B
:101AF000031E01D0254B98470F23FB181B78013B91
:101B0000DAB20F23FB181A700F23FB181B785BB295
:101B1000002BD6DC00E0C0467B684522FF219954AB
:101B20001C4B9847174B98470E23FB187A684421A3
:101B3000525C1A7014E07B681B69002B17D07B681D
:101B400010331800124B9847031E01D00F4B9847D3
:101B50000E23FB181B78013BDAB20E23FB181A7018
:101B60000E23FB181B785BB2002BE4DC00E0C046C0
:101B70007B684422FF219954064B9847C046BD46D6
:101B800004B080BD411100007D1C0000F126000062
:101B90005D2500006511000080B584B000AF78605D
:101BA000084B98477B689B6B002B02D10123FB609D
:101BB00001E00023FB60044B9847FB681800BD461A
:101BC00004B080BD411100006511000080B584B0F3
:101BD00000AF7860094B98477B689A6B7B68DB6B3A
:101BE0009A4202D10123FB6001E00023FB60044B19
:101BF0009847FB681800BD4604B080BD4111000045
:101C00006511000080B586B000AFF860B9607A60F9
:101C1000FB687B61154B98477B6944229B5C5BB2F8
:101C2000013303D17B694422002199547B69452209
:101C30009B5C5BB2013303D17B694522002199543F
:101C40000B4B98477B699B6B002B06D17B69243338
:101C50007A68B9681800074B98477B691800064BEB
:101C60009847C046BD4606B080BDC0464111000041
:101C70006511000009250000A91A000080B586B092
:101C800000AF786039607B689B6C3B6100237B61AF
:101C90003B69002B01D172B6FEE73B699A6B3B6949
:101CA000DB6B9A4201D372B6FEE73B699A6B3B69E4
:101CB000DB6B9A422AD20F23FB183A694521525C0A
:101CC0001A703A68391D3B691800134B9847030096
:101CD0007B610F23FB181B785BB201330DD13B698D
:101CE0005B6A002B12D03B69243318000B4B9847DA
:101CF000031E0BD001237B6108E00F23FB181B7828
:101D00000133DBB259B23B69452299547B69180013
:101D1000BD4606B080BDC046791900005D250000B3
:101D200090B58DB004AFF860B9603B60BB1D1A8000
:101D3000BB1D1B889B0018001D4B984703007B614F
:101D40007B69002B10D05420194B98470300FB618E
:101D5000FB69002B03D0FB697A691A6306E07B6993
:101D60001800144B984701E00023FB61FB69002B2E
:101D700016D0BB1D1A883C68B968F8680023039325
:101D8000FB6902937B6B01933B6B009323000A4C2E
:101D9000A047FB691800094B98470123BB6102E08B
:101DA00001235B42BB61BB691800BD4609B090BD11
:101DB0008112000021130000C11D0000D11E00008F
:101DC00080B586B000AFF860B9607A603B60BB6AEE
:101DD000186B7B689B001A00A521394B9847BB6A9A
:101DE0001A6B7B6837498C4663449B00D3183B6170
:101DF0003B69072293433B613B690722134001D0B3
:101E000072B6FEE700237B6113E0BA687B69D318E2
:101E10001878BA6A34217B69D3185B18021C1A70CF
:101E2000BA687B69D3181B78002B06D07B69013315
:101E30007B617B69072BE8D900E0C046BB6A3B2287
:101E4000002199543B6A042B01D904233B62BB6AED
:101E50003A6ADA62BB6A3A6A5A64BB6A00229A64D6
:101E6000BB6A04331800184B9847BB6A1833180034
:101E7000154B9847BB6ABA6A1A613B6A0522D21AA7
:101E8000BB6A9A61BB6ABA6A5A62BB6A0022DA64A8
:101E9000BB6A5022002199543A68F9683B691800DE
:101EA0000A4B98470200BB6A1A607B6A002B02D07B
:101EB0007B6ABA6A1A60C046BD4606B080BDC0469D
:101EC0008F540000FFFFFF3FEB0E000001100000E9
:101ED00080B582B000AF78602B4B98472B4B1B68C6
:101EE0005A1C2A4B1A602A4B1B68002B09D1284B1D
:101EF0007A681A60254B1B68012B10D1254B984737
:101F00000DE0254B1B68002B09D1214B1B68DA6AB9
:101F10007B68DB6A9A4202D81D4B7A681A601F4BB5
:101F20001B685A1C1D4B1A601C4B1A687B68DA63CD
:101F30007B68DA6A1A4B1B689A4203D97B68DA6AB3
:101F4000174B1A607B68DA6A13009B009B189B0092
:101F5000144A9A187B68043319001000124B9847F2
:101F6000124B98470C4B1B68002B08D0084B1B6882
:101F7000DA6A7B68DB6A9A4201D20D4B9847C04609
:101F8000BD4602B080BDC04641110000D8310020DE
:101F9000003100202D270000E4310020F431002022
:101FA000E031002004310020010F00006511000025
:101FB0002111000080B584B000AF78602B4B9847AA
:101FC0007B68002B02D12A4B1B6800E07B68FB601A
:101FD000FB6804331800274B9847FB689B6A002B6B
:101FE00004D0FB6818331800224B9847FB681A1D71
:101FF000214B11001800214B9847FB6850229B5C35
:10200000DBB2012B03D1FB685022002199541C4BF9
:1020100098471C4B1B68002B05D0144B98471A4B54
:102020009847174B9847124B1B68FA689A4218D189
:10203000144B1B68002B08D0144B1B68002B01D0DD
:1020400072B6FEE7124B98470BE00B4B1A68114B28
:102050001B689A4203D1064B00221A6001E00E4B26
:102060009847C046BD4604B080BDC046411100003F
:1020700000310020B10F0000C4310020010F00002A
:1020800065110000E43100204D28000000320020DE
:1020900021110000D8310020FD23000090B585B04B
:1020A00002AF16491648174B0193002300930023F3
:1020B0006422154CA04703007B607B68012B03D191
:1020C000124B984703007B607B68012B0DD172B6E1
:1020D0000F4B012252421A600E4B01221A600E4B26
:1020E00000221A600D4B984704E07B68013301D150
:1020F00072B6FEE7C046BD4603B090BD745F0000F7
:1021000005270000FC310020211D0000412A0000AD
:10211000F8310020E4310020DC310020C91000003B
:1021200080B500AF034B1B685A1C024B1A60C046B7
:10213000BD4680BD0032002080B584B000AF0023D2
:10214000FB600023BB603A4B1B68002B01D172B6C9
:10215000FEE7384B9847364B1B685A1E344B1A60C3
:10216000334B1B68002B5BD1334B1B68002B57D0C4
:102170002FE0324BDB68DB68FB60FB68183318002C
:102180002F4B9847FB68043318002D4B9847FB688A
:10219000DA6A2C4B1B689A4203D9FB68DA6A294B2E
:1021A0001A60FB68DA6A13009B009B189B00264AA2
:1021B0009A18FB68043319001000244B9847FB68F9
:1021C000DA6A234B1B68DB6A9A4202D3214B012255
:1021D0001A601A4B1B68002BCBD1FB68002B01D077
:1021E0001D4B98471D4B1B687B607B68002B0FD0F5
:1021F0001B4B9847031E02D0164B01221A607B68C6
:10220000013B7B607B68002BF2D1144B00221A60EB
:10221000104B1B68002B03D00123BB60114B984768
:10222000114B9847BB681800BD4604B080BDC0463E
:102230000032002041110000D831002098310020E8
:10224000B10F0000E031002004310020010F000038
:1022500000310020EC3100204D280000E831002042
:1022600089220000211100006511000080B582B0B4
:1022700000AF044B1B687B607B681800BD4602B052
:1022800080BDC046DC31002080B586B000AF0023A1
:102290007B614C4B1B68002B00D083E04A4B1B68D2
:1022A00001333B61484B3A691A603B69002B17D1F7
:1022B000464B1B681B68002B01D072B6FEE7434BF0
:1022C0001B68FB60424B1A68404B1A60404BFA682F
:1022D0001A60404B1B685A1C3E4B1A603E4B984795
:1022E0003E4B1B683A699A424ED3384B1B681B68B9
:1022F000002B01D1012300E00023002B04D0374B39
:10230000012252421A603FE0304B1B68DB68DB68F9
:10231000BB60BB685B687B603A697B689A4203D2AA
:102320002E4B7A681A602FE0BB68043318002C4BE0
:102330009847BB689B6A002B04D0BB681833180011
:10234000274B9847BB68DA6A264B1B689A4203D929
:10235000BB68DA6A234B1A60BB68DA6A13009B0019
:102360009B189B00204A9A18BB6804331900100080
:102370001E4B9847BB68DA6A1D4B1B68DB6A9A42A2
:10238000B3D301237B61B0E7194B1B68DA6A1649A6
:1023900013009B009B189B005B58012B07D901235E
:1023A0007B6104E0134B1B685A1C124B1A60124BE2
:1023B0001B68002B01D001237B617B691800BD469F
:1023C00006B080BD00320020DC31002090310020BA
:1023D00094310020F03100204D280000F831002019
:1023E000B10F0000E031002004310020010F000097
:1023F00000310020E8310020EC31002080B582B0AF
:1024000000AF2A4B1B68002B03D0294B01221A6016
:1024100048E0274B00221A60264B1B681A68254BA0
:102420001B681B6B9A4208D8224B1A68214B1B6809
:10243000343319001000204B9847204B1B687B60F9
:1024400007E07B68002B01D172B6FEE77B68013B99
:102450007B601B497A6813009B009B189B005B58AC
:10246000002BEED07A6813009B009B189B00144A47
:102470009B183B603B685B685A683B685A603B68E6
:102480005A683B6808339A4204D13B685B685A68D3
:102490003B685A603B685B68DA68064B1A60074B1A
:1024A0007A681A60C046BD4602B080BD0032002086
:1024B000EC310020003100209D520000E03100206E
:1024C0000431002080B582B000AF786039607B684D
:1024D000002B01D172B6FEE7084B1B6818331A00B7
:1024E0007B6811001800064B98473B6801211800D3
:1024F000044B9847C046BD4602B080BD0031002065
:10250000450F00008D29000080B584B000AFF86051
:10251000B9607A60FB68002B01D172B6FEE70C4B04
:102520001B6818331A00FB6811001800094B984704
:102530007B68002B02D001235B42BB607A68BB68DA
:1025400011001800044B9847C046BD4604B080BD3A
:1025500000310020010F00008D29000080B584B0FB
:1025600000AF78607B68DB68DB68BB60BB68002B12
:1025700001D172B6FEE7BB68183318001F4B9847AD
:102580001F4B1B68002B1DD1BB68043318001B4B6D
:102590009847BB68DA6A1B4B1B689A4203D9BB6831
:1025A000DA6A184B1A60BB68DA6A13009B009B1842
:1025B0009B00154A9A18BB68043319001000134B8E
:1025C000984707E0BB6818331A00114B1100180038
:1025D0000E4B9847BB68DA6A0E4B1B68DB6A9A425F
:1025E00005D90123FB600C4B01221A6001E0002396
:1025F000FB60FB681800BD4604B080BDB10F000051
:1026000000320020E031002004310020010F0000E2
:102610009831002000310020EC31002080B582B0DC
:1026200000AF7860054B1A687B681A60044B1A6823
:102630007B685A60C046BD4602B080BDF0310020C4
:10264000DC31002080B586B000AF786039607B68EF
:10265000002B01D172B6FEE73B68002B01D172B6A8
:10266000FEE71E4B98471E4B1B683B617B685B680F
:102670003A69D31AFB603B681B68013302D100231F
:102680007B6124E07B681A68164B1B689A4207D06E
:102690007B685A683B699A4202D801237B6116E045
:1026A0003B681A68FB689A420CD93B681A68FB6859
:1026B000D21A3B681A607B6818000B4B98470023BE
:1026C0007B6104E03B6800221A6001237B61074BB9
:1026D00098477B691800BD4606B080BD41110000D7
:1026E000DC310020F03100201D26000065110000C3
:1026F00080B500AF024B01221A60C046BD4680BDC6
:10270000EC31002080B582B000AF7860044B984770
:10271000044B1B68012BF9D9034B9847F6E7C046D9
:10272000B9270000043100202111000080B582B0DB
:1027300000AF00237B600CE07A6813009B009B18BD
:102740009B00144A9B181800134B98477B68013371
:102750007B607B68042BEFD9104B18000E4B984719
:102760000F4B18000C4B98470E4B18000A4B98471C
:102770000D4B1800084B98470C4B1800064B984718
:102780000B4B064A1A600B4B054A1A60C046BD4601
:1027900002B080BD04310020AF0E0000683100207F
:1027A0007C31002098310020AC310020C431002061
:1027B000903100209431002080B582B000AF1AE043
:1027C000114B9847114BDB68DB687B607B680433F7
:1027D00018000F4B98470F4B1B685A1E0D4B1A6081
:1027E0000D4B1B685A1E0C4B1A600C4B98477B68AC
:1027F00018000B4B9847084B1B68002BE0D1C046D4
:10280000BD4602B080BDC04641110000AC31002081
:10281000B10F0000D8310020C03100206511000048
:102820002528000080B582B000AF78607B681B6B04
:102830001800054B98477B681800034B9847C04623
:10284000BD4602B080BDC0462113000080B582B0F5
:1028500000AF0E4B1B681B68002B01D1012300E069
:102860000023002B04D00A4B012252421A6008E0D8
:10287000064B1B68DB68DB687B607B685A68044B2F
:102880001A60C046BD4602B080BDC04690310020EF
:10289000F831002080B582B000AF0A4B1B68002BD6
:1028A00002D101237B6008E0074B1B68002B02D19B
:1028B00002237B6001E000237B607B681800BD463B
:1028C00002B080BDE43100200032002080B584B029
:1028D00000AF78607B68BB600023FB607B68002BE7
:1028E00044D0254B1B68BA689A4201D072B6FEE705
:1028F000BB689B6C002B01D172B6FEE7BB689B6C7A
:102900005A1EBB689A64BB68DA6ABB685B6C9A4201
:102910002CD0BB689B6C002B28D1BB6804331800FB
:10292000164B9847BB685A6CBB68DA62BB68DB6AB7
:102930000522D21ABB689A61BB68DA6A104B1B6821
:102940009A4203D9BB68DA6A0D4B1A60BB68DA6A2F
:1029500013009B009B189B000A4A9A18BB6804331B
:1029600019001000084B98470123FB60FB68180012
:10297000BD4604B080BDC04600310020B10F00004C
:10298000E031002004310020010F000080B584B048
:1029900000AF78603960214B1B68FB60204B1B68DF
:1029A000043318001F4B98477B6801330BD13B68F9
:1029B000002B08D01A4B1B681A1D1B4B1100180066
:1029C0001A4B984726E0FA687B68D318BB60144B13
:1029D0001B68BA685A60BA68FB689A4209D2144BFD
:1029E0001A680F4B1B68043319001000114B9847ED
:1029F00010E0114B1A680A4B1B68043319001000D1
:102A00000C4B98470D4B1B68BA689A4202D20B4B8D
:102A1000BA681A60C046BD4604B080BDDC310020F3
:102A200000310020B10F0000C4310020010F000070
:102A300094310020450F000090310020F831002033
:102A400090B585B002AF00237B600E4B98470E4BCC
:102A50001B68002B0BD00D490D480E4B0193022330
:102A60000093002380220C4CA04703007B607B680E
:102A7000002B01D172B6FEE77B681800BD4603B09B
:102A800090BDC046892F0000343200207C5F0000DA
:102A9000C12B000038320020211D000090B589B004
:102AA00000AFF860B9607A603B600023FB61FB68AF
:102AB000002B01D172B6FEE71E4B1B68002B33D0F2
:102AC0001023FB18BA681A601023FB187A685A6042
:102AD0001023FB18FA689A60BB68052B1ADC164BAA
:102AE00098470300022B0AD1124B18683A6B102347
:102AF000F9180023114CA0470300FB6114E00D4BB3
:102B000018681023F918002300220C4CA04703007A
:102B1000FB6109E0074B18683A681023F918002395
:102B2000074CA0470300FB61FB691800BD4609B0D4
:102B300090BDC0463432002095280000D914000012
:102B4000B916000090B587B002AF78603960184BB5
:102B50001B68DB68DB68FB60FB6804331800154BFF
:102B60009847FB68DB69012B19D1FB689A697B6880
:102B7000D1187B683A68F8680F4CA047031E0ED046
:102B80007A68F86800230093002300210B4CA047CB
:102B90000300BB60BB68002B01D172B6FEE7FB6887
:102BA0005B6AFA6810009847C046BD4605B090BD04
:102BB0002C320020B10F0000292D00009D2A0000BA
:102BC00080B584B000AF7860084B98470823FB18A5
:102BD0001800074B98470300FB60BA68FB681100B8
:102BE0001800044B9847044B9847EFE75D520000EC
:102BF000A12C0000FD2B0000B12D000080B584B099
:102C000000AF786039601E4B98470823FB18180006
:102C10001C4B98470300FB60BB68002B29D13B6825
:102C2000002B0CD17A68FB689A4208D8164B98475B
:102C3000FA687B6811001800144B98471BE03B684A
:102C4000002B06D0124B1B681B685A425341DBB263
:102C50003B60104B18687A68FB68D31A3A68190011
:102C60000D4B9847084B9847031E04D10B4B9847D0
:102C700001E0054B9847C046BD4604B080BDC04644
:102C800021210000E12C000039210000452B00002B
:102C90003032002034320020051C000021110000D9
:102CA00080B584B000AF78600C4B1B681B685A423B
:102CB0005341DBB21A007B681A607B681B68002BEB
:102CC00005D1064B1B68DB681B68FB6001E0002335
:102CD000FB60FB681800BD4604B080BD2C320020AC
:102CE00080B584B000AF78600C4B98470300FB6060
:102CF0000B4B1B68FA689A4205D20A4B98477B68CF
:102D000001221A6002E07B6800221A60044BFA6814
:102D10001A60FB681800BD4604B080BD6D2200003B
:102D20003C320020C92E000080B586B000AFF860AC
:102D3000B9607A603B6000237B61FB68BA685A60C7
:102D4000FB68FA681A61BA687B689A4212D87A6896
:102D50003B68D21AFB689B699A4202D301237B61CC
:102D60001BE0104B1A68FB680433190010000E4B6F
:102D7000984712E07A683B689A4206D2BA683B6884
:102D80009A4202D301237B6107E0084B1A68FB6873
:102D9000043319001000044B98477B691800BD46A6
:102DA00006B080BD30320020450F00002C320020DC
:102DB00090B58BB002AF68E00823FB181B68002BAE
:102DC00063DB0823FB189B68FB61FB695B69002BD5
:102DD00004D0FB6904331800334B98473B1D18009F
:102DE000324B98470300BB610823FB181B68092B73
:102DF0004AD89A002E4BD3181B689F460823FB180D
:102E00005A68FB699B69D1180823FB185B68BA698B
:102E1000F869284CA047031E37D0FB695B6AFA6942
:102E200010009847FB69DB69012B2ED10823FB18A2
:102E30005A68FB699B69D218F86900230093002344
:102E400000211D4CA04703007B617B69002B1CD136
:102E500072B6FEE70823FB185A68FB699A61FB69A2
:102E60009B69002B01D172B6FEE7FB699A69BB69C9
:102E7000D118BB69BA69F8690E4CA04705E0FB6937
:102E800018000E4B984700E0C0460D4B1B68082207
:102E9000B918002218000B4B9847031E8CD1C0466E
:102EA000BD4609B090BDC046B10F0000E12C000046
:102EB000845F0000292D00009D2A000021130000DE
:102EC00034320020D917000090B589B002AF3EE03F
:102ED000284B1B68DB681B687B61264B1B68DB6823
:102EE000DB683B613B6904331800234B98473B691F
:102EF0005B6A3A69100098473B69DB69012B26D170
:102F00003B699A697B69D318FB60FA687B699A42CE
:102F10000ED93B69FA685A603B693A691A61154BE8
:102F20001A683B69043319001000144B98470EE0EF
:102F30007A6938690023009300230021104CA047D0
:102F40000300BB60BB68002B01D172B6FEE7094BE2
:102F50001B681B68002BBBD1064B1B687B60094BB1
:102F60001A68044B1A60074B7A681A60C046BD465F
:102F700007B090BD2C320020B10F0000450F0000BB
:102F80009D2A00003032002080B500AF104B9847DA
:102F9000104B1B68002B15D10F4B18000F4B984797
:102FA0000F4B18000D4B98470E4B0B4A1A600E4BF7
:102FB0000B4A1A6000220C2105200C4B9847020096
:102FC000044B1A600A4B9847C046BD4680BDC046B8
:102FD000411100003432002004320020AF0E000006
:102FE000183200202C32002030320020151400004E
:102FF0006511000080B500AFBFF34F8F034B044A4B
:10300000DA60BFF34F8FC046FDE7C04600ED00E039
:103010000400FA0580B500AF004B9847F52F00007B
:1030200080B586B000AF7860834B1800834B98471B
:10303000834B1800814B98471723FB1800221A7006
:10304000804B1800804B98470C23FB1818007F4BCF
:1030500098470C23FB181B780A2B04D00C23FB1871
:103060001B780D2B31D17A4B1800774B9847794B51
:1030700000221A70784B00221A707849784B63222C
:103080001800784B9847764B632200219954764973
:10309000724B82221800754B984703003B61724BBC
:1030A000812200219954704B1800674B98473B6967
:1030B000002BECD11723FB1800221A70674B6422F7
:1030C000002118006A4B9847B5E0624B1B78002B33
:1030D00059D0614B1B78032B0CD85F4B1B785A1CC3
:1030E000D1B25D4A11701A000C23FB181978614B9C
:1030F000995405E0574B00221A70574B00221A7062
:10310000554B1B78012B9FD95B4A5A4B1100180075
:103110005A4B9847031E2FD05949504B1B22180079
:10312000584B98474D4B1800474B98471723FB18AF
:1031300000221A70494B6422002118004C4B98471A
:103140004749464B63221800464B9847434B1800AB
:103150004D4B98470300622B06D8414B18004A4B51
:1031600098470300DAB200E063221723FB181A70B5
:103170003A4B1800344B9847364B00221A70364BA6
:1031800000221A7060E70C23FB181B780D2B00D16E
:103190005AE70C23FB181B78082B04D00C23FB18D0
:1031A0001B787F2B1CD10823FB18384A12681A6041
:1031B0000823FB181800244B98471723FB181B788B
:1031C000002B37D01723FB181A781723FB18013A66
:1031D0001A701723FB181B78204A0021D15429E0CC
:1031E0000C23FB181B781B2B06D11A4B01221A70DB
:1031F000194B00221A7027E71723FB181B78632B43
:103200000ED81723FB181B780C22BA181178134A12
:10321000D1541723FB181A781723FB1801321A70A0
:103220000C23FB1800225A700C23FB181800064BC5
:10323000984709E7C04607E7586000003D0C0000CA
:1032400068600000AC5F0000D137000091320000E0
:103250003C6000005032002051320020B832002083
:1032600054320020295700001C330020AD0C000010
:103270008F540000A033002040600000BD560000C5
:103280004460000079560000F95600004C600000D0
:1032900080B582B000AF78600020034B9847C046ED
:1032A000BD4602B080BDC046B51F000090B587B0D6
:1032B00000AFF860B9607A601723FB181B221A7000
:1032C0001723FB181B78084A08480F21084CA04711
:1032D000064AB968FB681800054B98470023180098
:1032E000BD4607B090BDC04650600000403200208F
:1032F0001556000080B584B000AFF860B9607A6000
:10330000034B984700231800BD4604B080BDC0465B
:103310001530000080B582B000AF78607B681B7C00
:10332000002B0BD07B689B685A1C7B68D968104BBC
:10333000100098470B001A007B689A607B685B68F6
:103340005A1C7B68D9680A4B100098470B001A007A
:103350007B685A607B685A687B689B68D31A5A42BC
:103360005341DAB27B681A74C046BD4602B080BDD4
:10337000C153000080B582B000AF78607B68002246
:103380001A747B689B685A1C7B68D968054B1000CF
:1033900098470B001A007B689A60C046BD4602B091
:1033A00080BDC046C153000080B584B000AF7860D6
:1033B00039601420094B98470300FB60FB687A686A
:1033C0001A60FB683A68DA60FB681800044B98479B
:1033D000FB681800BD4604B080BDC04669540000BB
:1033E000E533000080B582B000AF78607B680022D2
:1033F0005A607B6800229A607B6800221A74C0467B
:10340000BD4602B080BD000080B582B000AF7860DC
:103410000A00FB1C1A707B681A687B685B68D3180B
:10342000FA1C12781A707B681800034B9847C04644
:10343000BD4602B080BDC0461533000080B584B0E3
:1034400000AF7860396001235B42FB607B68180045
:103450000D4B984703001A0001235340DBB2002BA9
:103460000DD07B681A687B689B68D3181A783B6814
:103470001A707B681800054B98470023FB60FB68B7
:103480001800BD4604B080BD9134000075330000C3
:1034900080B582B000AF78607B681B7C012253400E
:1034A000DBB2002B07D07B685A687B689B689A4226
:1034B00001D1012300E000231A1C01231340DBB2D9
:1034C0001800BD4602B080BDB0B582B000AF0200AA
:1034D0003960FB1D1A70FB1D1B787F2B28D82F4CE1
:1034E000FB1D1B785BB29B082C49FA1D127852B267
:1034F0009208C03292005258F91D09780800032141
:103500000140C900FF2088400100C94311403A68CA
:103510009201FF201040FA1D1278150003222A4064
:10352000D200904002000A43C0339B001A5131E0A0
:103530001B4CFB1D1B781A000F231340083B9908F6
:10354000174AFB1D1B7818000F230340083B9B08FC
:1035500006339B00D31804331B68FA1D1278100041
:1035600003220240D200FF2090400200D2431A40C2
:103570003B689B01FF201840FB1D1B781D000323A7
:103580002B40DB00984003001A438B1D9B00E3187F
:1035900004331A60C046BD4602B0B0BD00E100E091
:1035A00000ED00E080B582B000AF0200FB1D1A7094
:1035B000064BFA1D127811001F220A40012191408A
:1035C0000A001A60C046BD4602B080BD00E100E0BE
:1035D00080B584B000AF78607B681B68FB60FB68D7
:1035E000DB695A1E9341DBB21800BD4604B080BDB2
:1035F00080B582B000AF7860C0467B681800044B8D
:103600009847031EF9D1C046BD4602B080BDC046F2
:10361000D135000080B582B000AF78607B68802231
:10362000D2051A607B6800225A607B68FF221A81EB
:103630007B6800229A727B680022DA727B6896228D
:1036400092011A627B682422012199547B68252209
:10365000012199547B682622002199547B682722F6
:10366000002199547B6800229A627B688822520369
:10367000DA607B682C22002199547B682D2200217E
:1036800099547B6800221A637B6800225A637B6826
:1036900000229A637B680022DA637B6800225A6109
:1036A0007B6800221A827B680022DA767B6800221F
:1036B0001A767B6800221A777B6800225A767B682C
:1036C00013229A767B6800225A77C046BD4602B024
:1036D00080BD000080B584B000AF78607B681B6857
:1036E000FB607B681B681800094B984703001800B3
:1036F000084B98477B681800074B9847FB681B6886
:1037000002221A43FB681A60C046BD4604B080BD61
:1037100001470000A5350000F135000080B582B0FA
:1037200000AF78600A00FB1C1A707B6831229B5C3A
:103730005AB2FB1C1B78012199400B005BB213436A
:103740005BB2D9B27B6831229954C046BD4602B003
:1037500080BD000080B500AF80239A00114B11009E
:103760001800114B98470200104B1A6080239A00F2
:103770000F4B110018000C4B984702000D4B1A60BC
:103780000D4B98470D4B98470A210D200C4B98473D
:103790000C490D4B012218000C4B9847C046BD4602
:1037A00080BDC046B0360020A9330000A8340020F8
:1037B000B0340020B4380020153900008D390000E5
:1037C000C9340000AC34002024340020A942000099
:1037D00080B584B000AF78607B68002B2AD00023CE
:1037E000FB600BE0154B18687A68FB68D3181B78F0
:1037F0001900134B9847FB680133FB607B68180086
:10380000104B98470200FB689A42EBD80E4B0121FF
:1038100018000E4B9847031E0CD1084B1B680C4A2E
:10382000110018000B4B98470949074B012218005B
:10383000094B9847C046BD4604B080BDB43800204F
:1038400009340000F956000024340020F142000041
:10385000B13800203D3400006142000080B584B0E2
:1038600000AF7860084B9847084B1B687A681100D6
:103870001800074B98470300FB60064B9847FB680E
:103880001800BD4604B080BD21210000A8340020EE
:103890003D3400003921000080B582B000AF020045
:1038A000FB1D1A70034BFA1D12781A70C046BD46F4
:1038B00002B080BDB03800200EB480B585B000AF36
:1038C0000200FB1D1A700F4B1B78FA1D12789A42EA
:1038D00010D32023FB18BB60BA68F9690A4B1800A3
:1038E0000A4B984702000F23FB181A70064B18006A
:1038F000074B9847C046BD4605B080BC08BC03B026
:103900001847C046B03800205834002085570000C2
:10391000D137000080B590B000AF3B001800144BC9
:1039200098473B00E12252021A623B00C4229203F4
:10393000DA603B00012252421A633B0001225242EC
:103940005A633B000B4A9A633B000B4ADA63C0465A
:103950003A000A490A4B18000A4B9847031EF7D150
:10396000074B1800084B9847C046BD4610B080BDB5
:103970001536000003002A0003002B000018004247
:1039800024340020653E0000D536000080B500AF2D
:103990000C490D4B002218000C4B98470C490A4B60
:1039A00001221800094B9847074B00211800094BCA
:1039B0009847054B01211800064B9847C046BD4665
:1039C00080BDC0464D3A000024340020194200005A
:1039D000D93900001D37000080B584B000AF786091
:1039E000134B1800134B9847134B1A68104B1B7856
:1039F00019001000114B98470D49114B0122180076
:103A0000104B98470C23FB1818000F4B98470A4B94
:103A10001A68074B1B7819001000084B98470B23B6
:103A2000FB181800084B9847C046BD4604B080BD3F
:103A3000AC340020D1370000A83400200934000045
:103A400024340020A94200005D38000080B582B017
:103A500000AF7860094B1B68094A11001800094B38
:103A600098470300013305D00549074B0122180090
:103A7000064B9847C046BD4602B080BDB438002012
:103A8000B13800203D3400002434002061420000A1
:103A900080B582B000AF78607B6800221A70C046A3
:103AA000BD4602B080BD000080B582B000AF02000C
:103AB0003960FB1D1A70FB1D1B78012B0AD0022BED
:103AC0000FD0002B14D10E4B0D4A91693A680A436E
:103AD0009A610FE00A4B0A4AD1693A680A43DA61EF
:103AE00008E0074B064A116A3A680A431A6201E085
:103AF000172300E000231800BD4602B080BDC04679
:103B00000004004080B582B000AF78607B688022FE
:103B10001A707B6800225A707B6801229A707B6859
:103B20000022DA70C046BD4602B080BD80B500AF4D
:103B3000054B9B78DBB21A00022313405A1E9341B7
:103B4000DBB21800BD4680BD0020004180B584B0C6
:103B500000AF78607B681B68FB60FB68DB695A1EFE
:103B60009341DBB21800BD4604B080BD80B582B081
:103B700000AF7860C0467B681800044B9847031E6E
:103B8000F9D1C046BD4602B080BDC0464D3B0000E5
:103B9000B0B58CB002AF786039607B681B68BB61E0
:103BA0007B681B681800A94B984703007B617B6901
:103BB00014333B6100237B6200233B620A23FB1822
:103BC00000221A801F23FB1800221A701E23FB18E4
:103BD00010221A703B681B8A8022D20193421CD0AB
:103BE0008022D201934206DC002B0DD0802292016C
:103BF000934224D035E0C022D201934228D08022C3
:103C00001202934212D02CE01F23FB1800221A70DC
:103C10001E23FB1810221A7023E01F23FB1800221A
:103C20001A701E23FB1808221A701AE01F23FB18B3
:103C300000221A701E23FB1803221A7011E01F23A2
:103C4000FB1801221A701E23FB1810221A7008E0BC
:103C50001F23FB1801221A701E23FB1808221A705A
:103C6000C0463B681A683B68DB681A433B685B697F
:103C700013433A68128A13433A68127E12021343BE
:103C80003A682621525C520713437B621D23FB18BE
:103C900000221A703B685B68FB60FB68002B1ED03B
:103CA0008022520593424FD13B6827229B5C012220
:103CB0005340DBB2002B46D03B681D6A3B69DBB248
:103CC0001800634B984701001D23FC180A23FB18BA
:103CD0001A0028005F4B98470300237033E03B68CD
:103CE00027229B5C002B14D03B68186A3B68996ABA
:103CF0001D23FC181F23FB181D780A23FA181E2306
:103D0000FB181B7800932B00534DA847030023702A
:103D10001AE03B681D6A3B69DBB218004C4B9847C0
:103D20001D23FC181F23FB1819780A23FA181E23D9
:103D3000FB181B7800930B0001002800464DA84794
:103D40000300237000E0C0461D23FB181B78002BE6
:103D500003D01D23FB181B7873E03B685B7E002BB0
:103D600003D03B689A7EBB699A730A23FB181A88B2
:103D7000BB699A817A6AFB6813437B623B6827229E
:103D80009B5C01225340DBB2002B03D07B6A0422F0
:103D900013437B623B685B7E9A023B681B7F5B023E
:103DA0001A433B685B7F1B021A433B6824215B5C20
:103DB0005B041A433B6825215B5C1B0413433B6295
:103DC0003B689B7A1A003B6A13433B623B68DB7A91
:103DD0001A003B6A13433B623B681B89FF2B0BD0E5
:103DE0007B6A8022520413437B623B681B891A0062
:103DF0003B6A13433B6208E03B68DB7E002B04D048
:103E00007B6A8022D20413437B623B682C229B5C3A
:103E1000002B03D1114B9847031E03D07B6A8022ED
:103E200013437B627B6818000D4B9847BB693A6A65
:103E30005A607B6818000A4B9847BB697A6A1A6017
:103E400000231800BD460AB0B0BDC046F908000006
:103E50006D50000073040000F10400002D3B0000D1
:103E60006D3B000090B593B000AFF860B9607A6028
:103E70003B23FB1800221A70FB68BA681A60FB68C3
:103E80001B687B63FB681B681800864B9847030020
:103E90003B633B6B0233FB623B6B1433BB627B6B5C
:103EA0001B680122134001D00523F6E07B6B1B68E1
:103EB0000222134001D01C23EFE00122FB6A9A404A
:103EC000130019000220784B98472423FB18180090
:103ED000764B98477B682D229A5C2423FB181A7036
:103EE000BB6ADBB22422BA1811001800704B984745
:103EF000BB6ADBB218006F4B98477B682D229B5C36
:103F0000002118006C4B98477B68DA7AFB685A717D
:103F10007B6824229A5CFB689A717B6825229A5CF4
:103F2000FB68DA717B68DA7EFB681A727B681A7F3D
:103F3000FB685A723B23FC187A68FB681100180072
:103F40005E4B9847030023703B23FB181B78002B24
:103F500003D03B23FB181B789FE02023FB1818009D
:103F6000574B98472023FB1800225A702023FB1838
:103F700000229A707B681A6B1023FB181A607B680A
:103F80005A6B1023FB185A607B689A6B1023FB183E
:103F90009A607B68DA6B1023FB18DA604723FB1802
:103FA00000221A702CE04723FB181A781023FB1804
:103FB0009200D3583B643B6C002B09D14723FB187C
:103FC0001A78BB68110018003E4B984703003B6409
:103FD0003B6C01330DD03B6CDAB22023FB181A7016
:103FE0003B6C1B0CDBB22022BA1811001800364BB8
:103FF00098474723FB181A784723FB1801321A7099
:104000004723FB181B78032BCDD90023FB630AE061
:10401000FA68FB6B02339B00D318043300221A604A
:10402000FB6B0133FB63FB6B052BF1D9FB680022B3
:104030009A62FB6800225A62FB680022DA85FB68FC
:1040400000229A85FB68302200219954FB683122B6
:1040500000219954FB68322200219954FB683322D5
:1040600000219954FB681B682722BC1818000D4BCF
:10407000984703002370154A2723FB181B7811006B
:104080001800134B98472723FB181A78114B9200FE
:10409000F968D1503B23FB181B781800BD4613B0BC
:1040A00090BDC046F9080000A93A0000913A00000E
:1040B000494F00008D4F0000B1060000913B000009
:1040C000053B00003D070000B90A00004143000025
:1040D00095460000B838002080B500AF024B9847E5
:1040E000C046BD4680BDC0461501000080B500AF8A
:1040F000024B9847C046BD4680BDC04669010000DE
:1041000080B584B000AF78607B681B68FB60FB689B
:10411000DB695A1E9341DBB21800BD4604B080BD76
:1041200080B582B000AF7860C0467B681800044B51
:104130009847031EF9D1C046BD4602B080BDC046B7
:104140000141000080B586B000AFF860B960BB1DCA
:104150001A80FB681B687B610F4B9847FB68DB8DFF
:104160009BB2002B03D00D4B9847052310E0FB6852
:10417000BA1D1288DA85094B9847FB68BA689A62BB
:10418000FB683322052199547B6901229A7500232B
:104190001800BD4606B080BDD9400000ED400000CB
:1041A00080B586B000AFF860B960BB1D1A80FB68AF
:1041B0001B687B61164B9847FB689B8D9BB2002B5D
:1041C00003D0144B984705231EE0FB68BA1D1288E4
:1041D0009A85104B9847FB68BA685A62FB6832228E
:1041E000052199547B6904229A75FB681B7A002B80
:1041F00002D07B6920229A75FB685B7A002B02D083
:104200007B6908229A7500231800BD4606B080BD60
:10421000D9400000ED40000080B584B000AFF860E8
:10422000B960FB1D1A70FB1D1B78FA6802339B00F6
:10423000D3180433BA681A60FB6830229B5C5AB208
:10424000FB1D1B78012199400B005BB213435BB24D
:10425000D9B2FB6830229954C046BD4604B080BD37
:1042600080B584B000AFF860B960BB1D1A80BB1D7B
:104270001B88002B01D1172310E0FB68DB7901229A
:104280005340DBB2002B01D01C2307E0BB1D1A8872
:10429000B968FB681800034B984703001800BD4637
:1042A00004B080BD4541000080B584B000AFF86027
:1042B000B960BB1D1A80BB1D1B88002B01D11723C1
:1042C00010E0FB689B7901225340DBB2002B01D048
:1042D0001C2307E0BB1D1A88B968FB681800034B54
:1042E000984703001800BD4604B080BDA1410000FE
:1042F00080B584B000AF78600A00FB1C1A70FB1C0C
:104300001B78002B02D0012B07D00DE00F23FB18E8
:104310007A683221525C1A700BE00F23FB187A681E
:104320003321525C1A7004E00F23FB1817221A7015
:10433000C0460F23FB181B781800BD4604B080BD93
:1043400080B588B000AF0200FB1D1A70FB1D1A7803
:10435000A34B9200D358BB61BB691B687B61BB69EF
:104360001800A04B98477B691B7EDAB21223FB181A
:104370001A807B699B7DDBB29AB21223FB18122153
:10438000791809880A401A80BB6930229B5CBA6997
:104390003121525C1340DAB21023FB181A80122329
:1043A000FB181B880122134044D0BB69DB8D9BB2F4
:1043B000002B3CD0BB699B6A1B78DAB21C23FB182C
:1043C0001A80BB699B6A5A1CBB699A62BB695B799C
:1043D000012B13D1BB699B6A1B78DBB21B021AB29B
:1043E0001C23FB1800215B5E13431AB21C23FB182D
:1043F0001A80BB699B6A5A1CBB699A621C23FB1812
:104400001B88DB05DB0D9AB27B691A85BB69DB8DE6
:104410009BB2013B9BB2BA69191CD185002B09D113
:104420007B6901221A757B6902229A7502E07B6919
:1044300001221A751223FB181B880222134011D087
:104440007B6902221A75BB6933220021995410231B
:10445000FB181B880122134004D0BB69DB68BA69D2
:10446000100098471223FB181B880422134000D128
:10447000BDE0BB699B8D9BB2002B00D1B4E07B6992
:104480005B8B9BB2DAB21F23FB183F210A401A70E4
:104490001F23FB181B780822134007D01F23FB188B
:1044A0001F22BA18127808218A431A701F23FB189A
:1044B0001B78002B50D01F23FB181B7802221340BF
:1044C00007D0BB6932221A2199547B6902225A8390
:1044D00036E01F23FB181B780422134007D0BB696A
:1044E00032221E2199547B6904225A8328E01F231B
:1044F000FB181B780122134007D0BB69322213211D
:1045000099547B6901225A831AE01F23FB181B78F8
:104510001022134007D0BB693222422199547B6993
:1045200010225A830CE01F23FB181B782022134013
:1045300006D0BB693222412199547B6920225A83DB
:104540001023FB181B880422134050D0BB695B6901
:10455000BA69100098474AE07B691B8D9AB20E2316
:10456000FB18D205D20D1A80BB695B6A0E22BA18FD
:104570001288D2B21A70BB695B6A5A1CBB695A6254
:10458000BB695B79012B0DD1BB695B6A0E22BA183E
:104590001288120A92B2D2B21A70BB695B6A5A1CB4
:1045A000BB695A62BB699B8D9BB2013B9BB2BA69E6
:1045B000191C9185002B1AD17B6904221A75BB69DD
:1045C0003222002199541023FB181B880222134029
:1045D0000DD0BB691B69BA691000984707E0C04657
:1045E000B8380020214100007B6904221A7512238B
:1045F000FB181B881022134010D07B6910221A75FB
:104600007B6910221A761023FB181B881022134096
:1046100004D0BB69DB69BA69100098471223FB1804
:104620001B882022134010D07B6920221A757B69D9
:1046300020221A761023FB181B880822134004D06E
:10464000BB699B69BA69100098471223FB181B8845
:104650000822134010D07B6908221A757B69082252
:104660001A761023FB181B882022134004D0BB6944
:104670001B6ABA6910009847C046BD4608B080BDA5
:1046800080B582B000AF0200FB1D1A70C046BD4667
:1046900002B080BD80B584B000AF02003960FB1D60
:1046A0001A70134B1B7801225340DBB2002B15D03C
:1046B0000023FB600CE00F4BFA6892000E49D150CA
:1046C0000E4BFA6892000021D150FB680133FB6069
:1046D000FB68052BEFD9064B01221A70FB1D1A78D7
:1046E000044B92003968D150C046BD4604B080BD2D
:1046F000A4330020A833002081460000B8380020F1
:1047000090B585B000AF78600823FB180B4A11689C
:10471000196092889A800F23FC187B681800084B58
:104720009847030023700F23FB181B780822BA1840
:10473000D35C5BB21800BD4605B090BD7860000048
:10474000F908000080B500AF034B1B6800209847B4
:10475000C046BD4680BDC046A833002080B500AF2E
:10476000034B5B6801209847C046BD4680BDC046EC
:10477000A833002080B500AF034B9B680220984708
:10478000C046BD4680BDC046A833002080B500AFFE
:10479000034BDB6803209847C046BD4680BDC0463A
:1047A000A833002080B500AF034B1B690420984755
:1047B000C046BD4680BDC046A833002080B500AFCE
:1047C000034B5B6905209847C046BD4680BDC04687
:1047D000A833002080B582B000AF78607B680122EA
:1047E0005A607B6800225A707B6806221A707B68C8
:1047F00000221A727B6800225A72C046BD4602B07F
:1048000080BD80B582B000AF78607B6803221A70EB
:104810007B6800225A707B6801229A70C046BD46B0
:1048200002B080BD80B582B000AF0200FB1D1A70DF
:10483000034AFB1D1B781372C046BD4602B080BD03
:104840000004004080B582B000AF0200FB1D1A706A
:10485000BB1D0A1C1A70FB1D1B78012B08D0022BF4
:104860000BD0002B0ED10B4ABB1D1B7853720BE0F3
:10487000084ABB1D1B78937206E0064ABB1D1B78D5
:10488000D37201E0172300E000231800BD4602B0F8
:1048900080BDC0460004004080B582B000AF020079
:1048A000FB1D1A70084AFB1D1B780F210B40D9B263
:1048B00053680F20014049001E2083430B4353607F
:1048C000C046BD4602B080BD0040004180B500AF8B
:1048D000C046044BDB6810221340FAD0C046BD46E8
:1048E00080BDC0460008004080B500AF0C4B0222DE
:1048F0009A840C4B98470A4A0B4B9B68D362084A30
:10490000094B5B689362064B00229A84054B9847DB
:10491000034A054B1B689BB29384C046BD4680BDCD
:1049200000080040CD480000C033002080B582B0B0
:1049300000AF0200FB1D1A70FB1D1B78082B41D82D
:104940009A00234BD3181B689F46224B1B693AE001
:10495000214B1B6A9B059B0FDBB21A001F4BD340F8
:1049600031E080231B022EE080231B022BE0194B39
:104970005B6928E0174B1B680222134001D100231A
:1049800021E0174B9847134B1B6824221340042B3C
:1049900009D10020134B984702000E4B9B681B0463
:1049A0001B0C53430FE0104B0DE00B4A5023D35C1C
:1049B000DBB21A000423134001D1002303E0054BAE
:1049C000DB6800E000231800BD4602B080BDC04691
:1049D00080600000C03300200008004000127A0010
:1049E000CD4800006D500000006CDC0280B584B042
:1049F00000AF78601A4B1B6AFB607B681B781A1C3F
:104A000003231340DAB20D23FB1803210A401000E0
:104A10001A7803218A43111C021C0A431A707B680E
:104A20009A780C23FB18D0011A787F210A40111CB8
:104A3000021C0A431A707B685A780C23FB18012168
:104A40000A4090011A7840218A43111C021C0A4333
:104A50001A70034BFA681A62C046BD4604B080BDA6
:104A60000008004080B582B000AF0200FB1D1A7044
:104A7000FB1D1B78082B3BD89A00214BD3181B68D1
:104A80009F46204B1F4A126A02210A431A620023E2
:104A900031E01C4B1B4A926902210A439A6129E0CA
:104AA000184A184B1B8A9BB202210B439BB21382FC
:104AB00020E0144A134B9B8A9BB202210B439BB20A
:104AC000938217E0104B1B6802221A430E4B1A60A8
:104AD0000E4B98470EE00B4A0A494423CB5CDBB2ED
:104AE00002210B43D9B24423D15403E0002302E056
:104AF000172300E000231800BD4602B080BDC04669
:104B0000A460000000080040C0330020E948000015
:104B100080B582B000AF3B0001221A7000237B6099
:104B200009E07B68DBB23A0011001800054B98479A
:104B30007B6801337B607B68242BF2D9C046BD467D
:104B400002B080BD494F000080B5A0B000AF274B38
:104B5000C222D2009A600020254B9847254B9847E7
:104B60007C23FB181800244B98477C23FB18002259
:104B70001A707C23FB1801229A707C23FB180022F8
:104B80005A707C23FB1818001C4B984706201C4BBE
:104B900098471C4B984700201B4B9847002100204A
:104BA0001A4B984700210120184B984700210220FA
:104BB000164B98473B1D1800154B98473B1D062286
:104BC0001A703B1D01225A603B1D00221A723B1DC8
:104BD00000225A723B1D190000200E4B98470020FE
:104BE0000D4B9847C046BD4620B080BD0008004030
:104BF00099480000114B000003480000ED490000F7
:104C0000654A0000C14C00002548000045480000EE
:104C1000D5470000F14C0000154E000080B582B071
:104C200000AF02003960FB1D1A70FB1D1B78012BC1
:104C30000AD0022B0FD0002B14D10E4B0D4A9169D4
:104C40003A680A439A610FE00A4B0A4AD1693A6806
:104C50000A43DA6108E0074B064A116A3A680A43D8
:104C60001A6201E0172300E000231800BD4602B0DD
:104C700080BDC0460004004080B500AF024B98479D
:104C8000C046BD4680BDC0461501000080B500AFDE
:104C9000024B9847C046BD4680BDC0466901000032
:104CA00080B500AF054B5B78DBB25BB2002B01DA5D
:104CB000012300E000231800BD4680BD000C004029
:104CC00080B500AF08210020074B9847074B012211
:104CD0001A70C046054B1B78DBB21A000123134043
:104CE000F8D1C046BD4680BD1D4C0000000C004000
:104CF00080B586B000AF02003960FB1D1A70FB1D45
:104D00001B787B61FB1D1B783B613B681B781B029A
:104D10001A007B6913437B613B685B78002B04D0EE
:104D20007B698022D20213437B613B685B7A002B54
:104D300004D07B698022120313437B613B685B686C
:104D4000012B2CD93B685A683B685B68013B1340D8
:104D50001AD10023FB600223BB6005E0FB6801332E
:104D6000FB60BB685B00BB603B685A68BB689A42EB
:104D7000F4D8FB681B023A6913433B617B698022CC
:104D8000520313437B610AE03B685B681B023A698C
:104D900013433B617B698022920213437B613B6832
:104DA0001B7A002B04D07B698022920313437B6122
:104DB000C046134B9847031EFBD1124B9847124A2B
:104DC000FB1D1B781370C0460D4B9847031EFBD18B
:104DD0000E4B3A699A60C046094B9847031EFBD1B7
:104DE0000A4B0A4A51688022520211407A690A43EA
:104DF0005A60074B9847C046BD4606B080BDC046C6
:104E0000A14C0000794C0000080C0040000C004050
:104E10008D4C000080B582B000AF0200FB1D1A70FF
:104E2000C0460E4B9847031EFBD10D4B98470D4AC9
:104E3000FB1D1B781370C046084B9847031EFBD11F
:104E4000094B094A5268802149020A435A60074BBC
:104E50009847C046BD4602B080BDC046A14C000088
:104E6000794C0000040C0040000C00408D4C000008
:104E700080B586B000AF0200FB1D1A70C0462A4BF9
:104E80009847031EFBD1294B9847294AFB1D1B78E5
:104E90001370C046244B9847031EFBD1254B5B681B
:104EA000DB04DB0EDBB21800234B984703007B6169
:104EB0001F4AFB1D1B7813701E4B5B68DB02DB0F68
:104EC000DAB21323FB181A701C4AFB1D1B781370EF
:104ED000C046154B9847031EFBD1164B9B681B021F
:104EE0001B0C9BB2FB60164B98471323FB181B78D7
:104EF000002B09D1FB68012B06D9124BF9687869A0
:104F0000984703007B610AE01323FB181B78002BF2
:104F100005D0FB6801337A69DA4013007B617B6955
:104F20001800BD4606B080BDA14C0000794C0000C1
:104F3000040C0040000C00402D490000080C00400B
:104F40008D4C0000B552000080B584B000AF020067
:104F50003960FB1D1A70FB1D1B78FB603B681B78DA
:104F60001B021A00FB681343FB60FB1D1B78180033
:104F7000044B9847044BFA6892B25A80C046BD462B
:104F800004B080BDD54F0000000C004080B582B059
:104F900000AF0200FB1D1A700A4B98470A4AFB1D1E
:104FA0001B7813700949094B5B889BB28022D201A0
:104FB00013439BB24B80064B9847C046BD4602B098
:104FC00080BDC046794C0000020C0040000C00403F
:104FD0008D4C000080B584B000AF0200FB1D1A703C
:104FE0001C4B98471C4AFB1D1B7813701B4B5B889E
:104FF0001B051B0FDBB2FB60184A538818490B4096
:105000005380164A154B5B889BB216490B409BB2E6
:105010005380C046114B5B889BB21A008023DB0192
:105020001340F7D10D4AFB68DBB2191C0F230B406C
:10503000D9B25388081C0F210140080208490B40CF
:10504000191C031C0B435380074B9847C046BD46B1
:1050500004B080BD794C0000020C0040000C004000
:10506000FFF0FFFFFFBFFFFF8D4C000080B584B055
:1050700000AF0200FB1D1A700D4B98470D4AFB1D37
:105080001B7813700C4B5B881B051B0FDAB20F23C8
:10509000FB181A70094B98470F23FB181B78180050
:1050A000074B984703001800BD4604B080BDC046BA
:1050B000794C0000020C0040000C00408D4C0000B8
:1050C000714E000080B500AFC046BD4680BD0000F7
:1050D00080B500AF064B9847064B9847064B98475C
:1050E000064B9847064B9847C046BD4680BDC04614
:1050F000494B0000A5020000C5500000C55000004B
:10510000C550000080B500AF044B01221A70BFF3F8
:105110005F8F62B6C046BD4680BDC046000000201D
:1051200090B589B000AF1B4B98471B4B98471B4B62
:1051300098471B4B18001B4B98473B1D1A4A13CA34
:1051400013C313CA13C312681A600020174B984781
:105150003A1D174B19000020164B98470320134B9C
:105160009847154B19000020124B9847134B3722D4
:10517000190004200F4B9847114B190003200D4BC9
:105180009847104B190000200A4B98470E4B984740
:10519000FEE7C046D1500000553700000551000021
:1051A000C8600000D13700006C6100009938000031
:1051B000E8600000B9380000EC6000000C610000FD
:1051C00034610000446100009D20000090B583B070
:1051D00002AF174B98470300164A17484021174C57
:1051E000A047154B1800164B984780235A001549C5
:1051F0001548164B0193042300930023144CA04739
:105200000300012B03D0134B18000D4B9847084B9C
:1052100098470300104A08484021084CA047064B15
:105220001800074B9847C046BD4601B090BDC04628
:105230003D13000088610000D8330020155600009F
:10524000D1370000AC61000021300000183400208C
:10525000211D0000B8610000E461000080B582B04B
:1052600000AF7860044B1800044B9847044B9847F4
:10527000C046BD4602B080BD04620000D1370000C8
:10528000CD51000080B500AF024B1800024B98478B
:10529000FEE7C0460C620000D137000080B500AFC9
:1052A000024B1800024B9847FEE7C04638620000E8
:1052B000D1370000002243088B4274D303098B428C
:1052C0005FD3030A8B4244D3030B8B4228D3030CD6
:1052D0008B420DD3FF22090212BA030C8B4202D378
:1052E0001212090265D0030B8B4219D300E0090AA0
:1052F000C30B8B4201D3CB03C01A5241830B8B42A9
:1053000001D38B03C01A5241430B8B4201D34B0391
:10531000C01A5241030B8B4201D30B03C01A5241F6
:10532000C30A8B4201D3CB02C01A5241830A8B427B
:1053300001D38B02C01A5241430A8B4201D34B0264
:10534000C01A5241030A8B4201D30B02C01A5241C8
:10535000CDD2C3098B4201D3CB01C01A524183097C
:105360008B4201D38B01C01A524143098B4201D3B6
:105370004B01C01A524103098B4201D30B01C01AE1
:105380005241C3088B4201D3CB00C01A524183085B
:105390008B4201D38B00C01A524143088B4201D388
:1053A0004B00C01A5241411A00D2014652411046E8
:1053B0007047FFE701B5002000F006F802BDC046C7
:1053C0000029F7D076E770477047C046F0B5CE4663
:1053D000474615042D0C2E0080B50704140C3F0C15
:1053E0009946030C7E435D43674363437F19340C46
:1053F000E4199C46A54203D980235B029846C44425
:105400004B46514343433604360C250C2404654473
:10541000A4195918491920000CBC90469946F0BDB2
:1054200070B500260C4D0D4C641BA410A64209D18A
:10543000002600F0B5FF0A4D0A4C641BA410A642DA
:1054400005D170BDB300EB5898470136EEE7B300C5
:10545000EB5898470136F2E7AC630000AC630000FC
:10546000AC630000B063000010B5034B0100186886
:1054700000F060F810BDC04614000020002310B5F5
:105480009A4200D110BDCC5CC4540133F8E703004C
:105490008218934200D1704719700133F9E7000078
:1054A00070B50500002910D00C1F2368002B00DA0E
:1054B000E418280000F092F91D4A1368002B05D16A
:1054C00063601460280000F08AF970BDA34209D916
:1054D000216860188342F3D118685B684118216025
:1054E000EEE713005A68002A01D0A242F9D91968E0
:1054F0005818A0420BD12068091858181960824228
:10550000E0D110685268411819605A60DAE7A04289
:1055100002D90C232B60D5E721686018824203D1A1
:10552000106852684118216062605C60CAE7C0463A
:105530001C340020032370B5CD1C9D4308350600A4
:105540000C2D1ED20C25A9421DD8300000F046F9C2
:10555000254A14682100002919D1244C2368002B06
:1055600003D1300000F044F820602900300000F042
:105570003FF8431C2CD10C233000336000F02FF98E
:1055800003E0002DDFDA0C233360002070BD0B68D0
:105590005B1B1AD40B2B03D90B60CC18256003E0DE
:1055A0008C420ED163681360300000F018F92000BF
:1055B00007220B30231D9043C31AE7D05A42E25012
:1055C000E4E74B6863600C00EEE70C004968C2E753
:1055D0000323C41C9C43A042E0D0211A300000F0F9
:1055E00007F8431CDAD1C6E71C3400202034002021
:1055F000002370B5064C050008002360FBF700FB94
:10560000431C03D12368002B00D02B6070BDC04623
:10561000D03800200CB430B5164B9DB00C1E1D6860
:1056200008DA8B2301202B6040421DB030BC08BC3F
:1056300002B01847822302A99B008B8100230290AD
:1056400008619C4200D0631E8B604B6101235B426A
:10565000CB81209A21AB2800019300F023F9431C51
:1056600001DA8B232B60002CDFD00023029A137009
:10567000DBE7C046140000200EB410B59DB002A9AF
:10568000029008610B4882248860486101204042F2
:105690001FABC881084804CBA400006801938C812B
:1056A00000F000F90023029A13701DB010BC08BC72
:1056B00003B01847FFFFFF7F14000020F8B5070074
:1056C0000E003C7800F06AF803220019437813407A
:1056D000012B00D12034357800F060F80322401906
:1056E00043781340012B00D12035601B03D10137D3
:1056F0000136002DE5D1F8BD0023C25C0133002A3C
:10570000FBD1581E7047002330B59A420AD0013AA7
:10571000C45CCD5CAC4204D19A4202D00133002C6F
:10572000F6D1631B180030BD70B50400002A00D10B
:1057300070BD0D78561E631C25700131002D05D1FA
:10574000A4189C42F4D01D700133FAE71C0032000B
:10575000ECE7000030B59BB00091049108496D461C
:1057600002910591012182244942E981A400694600
:10577000AC8100F097F80023009A13701BB030BD85
:10578000FFFFFF7F10B513000A0001000248006808
:10579000FFF7E0FF10BDC04614000020044B1B685B
:1057A0001B6A002B00D1034BEC3318687047C046CE
:1057B000140000207800002082B0002900D101A947
:1057C000101E06D0002B06D013780B601078431EF5
:1057D000984102B0704702204042FAE77047704794
:1057E000F0B58E6885B007000C00039201939E42CD
:1057F00039D890238A89DB001A4234D003250969FD
:1058000023685B1A0293636902985D43EB0F5D198D
:10581000019B6D1001331B18AB4200D91D005305CD
:1058200032D529003800FFF785FE061E09D10C236A
:105830003B6040230120A28940421343A38105B06D
:10584000F0BD029A2169FFF719FEA389144A1A4094
:1058500080231343A381029B2661F61826606561AD
:10586000019EED1AA560019BB34200D21E003200DA
:105870000399206800F0B9FAA36800209B1BA3607D
:1058800023689E192660DAE72A00380000F0BFFA84
:10589000061EE0D121693800FFF702FEC7E7C046C7
:1058A0007FFBFFFFF0B59FB0029005938B890F003F
:1058B00016001B0611D50B69002B0ED14021FFF7F6
:1058C00039FE38603861002805D10C23029A01386E
:1058D00013601FB0F0BD40237B61002306AD6B61F8
:1058E00020336B761033AB7634002378002B47D10E
:1058F000A31B04930DD0A31B320039000298FFF7BD
:105900006FFF431C00D1B5E06A69049B9446634471
:105910006B612378002B00D1ACE0012200235242BE
:105920006A6002A95432521801342B60EB60AB60FC
:105930001370AB65584E05222178300000F04AFA0A
:10594000621C002820D12968CB0604D5532302AE5F
:1059500020309B1918700B0704D553232B2002AE5F
:105960009B19187023782A2B16D000200A21099B36
:105970002278303A092A55D9002815D0099313E026
:10598000252BB5D00134B0E70123801B8340296863
:1059900014000B432B60CDE7059B181D1B68059079
:1059A000002B39DB0993140023782E2B0BD163785D
:1059B000621C2A2B3ED1059B02341A1D1B680592DE
:1059C000002B34DB0793354E21780322300000F0A2
:1059D00001FA002806D04023801B83402A68013446
:1059E00013432B60217806222D48661C297600F08F
:1059F000F1F9002846D02B4B002B2FD12968059BAD
:105A00000722C90528D59B189343083305936B6972
:105A1000039A9B186B6167E75B42EB6002230B43C1
:105A20002B60C0E74B4301349B180120A0E7012302
:105A30005B42C7E7002314000A201A006B6021783C
:105A40003039092903D9002BBDD00792BBE7424367
:105A5000013452180123F2E70733D5E705AB009371
:105A60003A00114B2900029800E000BF0390039B0D
:105A70000133CCD1BB890B985B0600D429E7012008
:105A8000404226E705AB00933A00074B29000298F5
:105A900000F07AF8EAE7C046696200006F62000031
:105AA0007362000000000000E1570000F7B5150028
:105AB00001938A680B6900900C00934200DA13008E
:105AC00022002B6043321278002A01D001332B6070
:105AD00023689B0602D52B6802332B6006272368B8
