:020000021000EC
:1020000068510020396901001D6901001D69010046
:1020100000000000000000000000000000000000C0
:102020000000000000000000000000007523010017
:102030000000000000000000512401009524010070
:102040001D6901001D6901001D6901004550010065
:10205000514D01001D6901001D6901001D6901004C
:102060001D6901006D5401007D5401008D54010073
:102070009D540100AD540100BD540100ED68010004
:10208000FD6801000D6901003522010045220100B3
:102090005522010000000000000000001D69010041
:1020A0001D6901001D6901001D6901001D69010014
:1020B0000000000010B5064C2378002B07D1054B1B
:1020C000002B02D0044800E000BF0123237010BDA4
:1020D0007400002000000000209A0100084B10B599
:1020E000002B03D00749084800E000BF07480368F9
:1020F000002B00D110BD064B002BFBD09847F9E711
:102100000000000078000020209A0100209A0100C1
:1021100000000000024B1A78104318707047C04648
:102120009000002070B51C4B98471C4901201C4BA7
:1021300098471C4E1A4C09E01B49A0471B49012037
:10214000A0471B4D0020A8470228FBD10020B04724
:102150000128F1D00028F9D116490130104B9847D9
:10216000154C8C22920000212000144B984721002E
:102170000020134B98470B2807D012490120084B29
:1021800098470120104B984770BD0B220F490A3821
:10219000034B9847F8E7C046513C0100AC90010062
:1021A000ED3A010085430100E49001000C9101002B
:1021B000713C01004091010094000020578801000B
:1021C00091800100949101001521010064910100AA
:1021D00070B58000164BC45823689D7B227E637EB9
:1021E00013401D40EB0706D4AB070BD4EB0610D40D
:1021F000AB0615D470BD2000A36898470123226860
:102200009373F1E72000E3689847022322689373F1
:10221000ECE7200023699847102322689373E7E7CF
:10222000200063699847236820229A73E2E7C0463A
:10223000102C002010B50020014B984710BDC0465F
:10224000D121010010B50120014B984710BDC046B7
:10225000D121010010B50220014B984710BDC046A6
:10226000D121010003000833436001225242826001
:10227000C36003610023036070470023036170475C
:1022800043684B609A688A609A68516099600861F7
:10229000036801330360704730B50C6802000832F0
:1022A000631C02D1026904E01A0053681D68AC4245
:1022B000FAD253684B6099608A6051600861036884
:1022C0000133036030BD03694268816891608268B0
:1022D000416851605A68904206D0002202611A6833
:1022E000013A1A601868704782685A60F5E7000082
:1022F00082B000230193064B1B68013301D072B6F4
:10230000FEE772B6019B002BFCD002B07047C046BE
:10231000000000200000000000000000000000009D
:102320000B4A13681868203080F30988022080F374
:102330001488BFF36F8F3FBCAE4608BC04BC62B6C6
:102340001847C046C046C046C046C046C046C04604
:10235000DC29002010B5031F802464041C60043BAA
:102360001960043B02491960143B1A60403810BDE3
:10237000F12201007047000070B5134B1968FF226D
:1023800012040A431A601968FF2212060A431A60EF
:102390000E4D00242C600E4B1C6000200D4B984706
:1023A000FA2189000C4B984701380C4B1860072321
:1023B0002B600B4B1C600B4B98470B4B98470B4B00
:1023C0009847002070BDC04620ED00E010E000E01E
:1023D00018E000E0316601008584010014E000E0AF
:1023E0000000002021230100AD310100F122010095
:1023F00080225205014B1A607047C04604ED00E090
:1024000072B6044A136801331360BFF34F8FBFF3F2
:102410006F8F704700000020064B1B68002B01D116
:1024200072B6FEE7013B034A1360002B00D162B68F
:102430007047C04600000020EFF3108072B670476E
:1024400080F31088704700000000000000000000CA
:10245000EFF309800E4B1A6820381060F0C0444634
:102460004D4656465F46F0C008B572B600F09EFE77
:1024700062B60CBC116808681030F0C8A046A946C6
:10248000B246BB4680F309882038F0C81847C046DA
:10249000DC29002010B5074B98470400064B9847ED
:1024A000002803D080225205044B1A602000044B00
:1024B000984710BD392401008D2F010004ED00E084
:1024C0004124010070B50400430702D007239C4358
:1024D0000834134B9847134B1B68002B12D0124B38
:1024E0001B68E418114A944213D8A34211D20D4A32
:1024F0001568ED180C4B1C600D4B9847002D0AD049
:10250000280070BD07220B4B08339343054A136024
:10251000E5E7074B9847084B98470025F0E7C0468A
:10252000712F0100C4020020D829002007270000D5
:10253000AD300100C80200205D840100002801D0F8
:1025400072B6FEE77047000010B50400034B9847D1
:10255000A46B034B98476042604110BD0124010009
:102560001924010070B504001600856B026C002A66
:102570000BD100202368834204D16068164B984732
:10258000002363600135A56370BD002E0ED1806805
:10259000124B9847A368226C94466344A3600020C2
:1025A00062689342EED32368A360EBE7C0680B4BED
:1025B0009847236C5B42E268D218E26021688A4245
:1025C00003D2626894466344E3600020022ED9D1AE
:1025D0008542D7D0013DD5E70934010021880100AB
:1025E00070B582B001900A00846C002C05D0A16BFC
:1025F000E36B994203D372B6FEE772B6FEE7A16BB6
:1026000000268B4202D8300002B070BD4523E55C45
:102610006DB201A920000A4B984706006B1C0AD135
:10262000636A002BEFD020002430064B9847002827
:10263000E9D00126E7E701356DB24523E554E2E72D
:1026400065250100CD32010010B50C00026C002A96
:102650000BD0C3689B18C36041688B4201D30368E9
:10266000C360C1682000014B984710BD218801005C
:10267000F8B50700254B98474523FC5C64B2002C55
:102680001CDD234E234D0BE07B6A002B16D0380057
:102690002430A84700280ED1013C64B2002C0DD094
:1026A000BB6C002BF0D000213800B0470028F3D0DD
:1026B000194B9847F0E7184B9847EDE7FF22452361
:1026C000FA54164B9847114B98474423FC5C64B26C
:1026D000002C14DD3B69002B11D03D0010350D4E50
:1026E00006E0013C64B2002C09D03B69002B06D007
:1026F0002800B0470028F4D0074B9847F1E7FF22A5
:102700004423FA54054B9847F8BDC0460124010004
:10271000E1250100CD320100DD3301001924010063
:1027200070B504000D00002821D0174B984722688F
:10273000216CE36B4B43D01860600020A063A26063
:102740005B1AD318E360FF234422A3540132A3543D
:10275000002D11D12369002B05D0200010300B4B28
:102760009847002805D10A4B9847012070BD72B6E2
:10277000FEE7084B9847F6E720001030064DA847C3
:1027800020002430A847EEE701240100CD320100EB
:1027900019240100F12301006522010070B5060033
:1027A0000D00002801D172B6FEE7080070434C30DE
:1027B0000A4B9847041E0ED0002D03D003004C3363
:1027C000036000E02060E663256401212000044BE3
:1027D00098470023A364200070BDC046C5240100B3
:1027E00021270100F0B5CE46474680B585B00400EC
:1027F0000F0001921D0000280CD000290CD0022DE2
:102800000FD04E4B9847002810D1019B002B11D0C0
:1028100072B6FEE772B6FEE7036C002BEFD072B61D
:10282000FEE7E36B012BECD072B6FEE70026444BCB
:1028300098464CE00026FAE72A0039002000414B78
:102840009847A36C002B0FD0290020003E4B9847DF
:10285000002801D03D4B98473D4B9847012005B0DB
:102860000CBC90469946F0BD636A002B08D020004E
:102870002430384B98470028EED0344B9847EBE78C
:102880000028E9D0314B9847E6E7314B98470020C4
:10289000E5E72F4B984701A902A82F4B984700283E
:1028A00044D1274B9847A36B9946E66B284B984732
:1028B000B14535D1200010300199284B98472000B0
:1028C000274B9847274B9847002826D00126C0471A
:1028D000A36BE26B9342AFD3022DADD0019B002BD3
:1028E000D3D0002E02D102A81F4B9847184B98470F
:1028F0001E4B9847124B98474423E35C5BB201336D
:1029000002D100224423E2544523E35C5BB201334D
:10291000BFD100224523E254BBE70C4B9847D5E7D3
:1029200020000F4B98470F4B9847CFE720000C4BE8
:1029300098470C4B9847002091E7C046E9330100C7
:102940000124010065250100E1250100F1230100BA
:1029500019240100CD3201006D33010069320100FC
:1029600071260100AD30010055330100712F0100C7
:10297000F0B583B00400019116001D00002812D0AC
:10298000019B002B11D0022D14D0284B98470090AA
:10299000A36BE26B9A422FD800250098244B9847EE
:1029A000280003B0F0BD72B6FEE7036C002BEAD03E
:1029B00072B6FEE7E36B012B1AD072B6FEE7636ACC
:1029C0000125002BE9D0200024301A4B984700281D
:1029D000E3D0002E0AD001233360DEE77B1C5BB21C
:1029E0004522A3540125D8E70125D6E70125D4E7E0
:1029F0000E4B98470090A36B4523E75C7FB22A00FB
:102A0000019920000C4B98477B1CE7D1A36C002B4D
:102A1000D5D029002000094B984701250028BCD0BB
:102A2000002EE1D001233360B7E7C046392401000E
:102A300041240100CD32010065250100E12501009E
:102A4000F0B5C64600B584B004000F00019200281E
:102A50000AD000290AD0424B984700280BD1019B8D
:102A6000002B0CD072B6FEE772B6FEE7036C002BAB
:102A7000F1D072B6FEE700263A4B98462FE00026CA
:102A8000FAE739002000384B9847013DA5632369D8
:102A9000002B07D020001030344B9847002801D07D
:102AA000334B9847334B9847012004B004BC904601
:102AB000F0BD304B98470020F7E702A82E4B98470F
:102AC00016E000224423E2541DE000224523E25494
:102AD0001EE02000294B9847294B98470126C04704
:102AE000A56B002DCDD1019B002BE2D0002EE4D0B0
:102AF000204B9847234B98471A4B98474423E35C55
:102B00005BB20133DDD04523E35C5BB20133DCD043
:102B1000184B984701A902A81B4B9847002813D1CE
:102B200020001A4B98470028D3D020002430019968
:102B3000174B98472000114B9847114B9847002896
:102B4000CCD10B4B9847C9E720000C4B98470C4B56
:102B5000984720000D4B98470028BFD00020A4E7DD
:102B6000E93301000124010049260100CD320100B2
:102B7000F1230100192401005533010071260100E1
:102B8000AD300100712F01006D33010049250100B6
:102B90006932010070B504000D001600114B984712
:102BA0004423E35C5BB201330DD04523E35C5BB2AD
:102BB00001330CD00C4B9847A36B002B0BD020009B
:102BC0000A4B984770BD00224423E254EDE70022EF
:102BD0004523E254EEE72000243032002900044B64
:102BE0009847ECE701240100192401007126010037
:102BF00095320100084B1B681B68002B07D0064B61
:102C00001B68DB68DB685A68044B1A607047012256
:102C10005242024B1A60F9E7E0290020902A002076
:102C2000F0B5D6464F464646C0B5144B9946144BB0
:102C30009846144F144B9A464B461B68002B16D0EF
:102C4000C047FB68DD68281DD047104A1368013B68
:102C500013600A4C2368013B23600D4B9847286B97
:102C60000C4EB0472800B0472368002BE8D10A4B30
:102C70001B68012BE0D9094B9847DDE7502A00205B
:102C800001240100C42A0020C72201004C2A002090
:102C9000192401003D250100E8290020F12301004D
:102CA00070B504000D00174B1E68174B18680430F0
:102CB000164B9847631C13D03419134B1B685C6088
:102CC000A64216D8124B18680F4B19680431114BE5
:102CD0009847114B1B689C4212D20F4B1C600FE0AF
:102CE000002DE9D0084B196804310C480C4B98476B
:102CF00006E00C4B1868044B19680431054B9847E3
:102D000070BDC046D82A0020DC290020C72201005F
:102D1000E029002099220100902A0020B02A0020FA
:102D200081220100E4290020F0B5C64600B584B038
:102D300001900D000293970038005B4B9847061EE8
:102D400000D181E04C20584B9847041E00D178E018
:102D50000663381F30180723984380462A782D339E
:102D6000E2542B78002B0DD00135230035332000A1
:102D70003C302A781A702A78002A03D001350133B2
:102D80008342F6D100223B23E2540A9F042F00D94C
:102D90000427E762E76300262664231D03931800D7
:102DA000424DA84720001830A84724610523DB1BAB
:102DB000A361646266644823E654029A019940461E
:102DC0003B4B984720600B9B002B00D01C60394B7D
:102DD0009847394A136801331360384B1B68002B3E
:102DE00035D0374B1B68002B07D1344B1B68DB6A8F
:102DF000E26A934201D8314B1C60324A13680133B6
:102E00001360E36A304A1268934201D92E4A136074
:102E10009800C01880002D4B181803992C4B984728
:102E20002C4B9847264B1B680120002B05D0234BC9
:102E30001B68DA6AE36A9A4231D304B004BC904654
:102E4000F0BD3000244B984701204042F5E71B4B72
:102E50001C601368012BD0D11C4F38001F4EB047A7
:102E600038001430B04738002830B04738003C30C4
:102E7000B04738005030B047194B98461800B0475B
:102E8000184F3800B0471848B0471848B04718489E
:102E9000B047184B42461A60174B1F60ADE7174BFF
:102EA00098470120C9E7C046C52401007B220100E4
:102EB00055230100012401004C2A0020DC290020B8
:102EC000AC2A00205C2A0020602A0020E82900208B
:102ED00081220100192401003D2501006522010025
:102EE000642A0020782A0020982A0020C42A002082
:102EF000B02A0020E0290020E4290020F12301006D
:102F000010B582B0114B019300230093FA225200B6
:102F10000F491048104CA047012803D0431C13D080
:102F200002B010BD0D4B98470128F7D172B60122AF
:102F300052420B4B1A6002320A4B1A6000220A4BB3
:102F40001A600A4B9847EBE772B6FEE78C2A00201E
:102F5000B8910100212C0100292D01002D3501001F
:102F6000902A0020AC2A0020D82A002079230100D2
:102F7000024A1368013313607047C046582A002084
:102F8000014B18687047C046D82A0020F0B583B0BE
:102F9000384B1B68002B60D1374B1D6801351D6015
:102FA000002D12D1354B1B681B68002B01D072B667
:102FB000FEE7324A1168324B186810601960314AD6
:102FC000136801331360304B9847304B1B68002463
:102FD0009D4233D30024294F3B681B68002B29D026
:102FE000264B1B68DB68DE6873689D4232D3331D55
:102FF00001931800264B9847B36A002B03D030008A
:103000001830234B9847F36A224A1268934201D939
:10301000204A13609800C01880001F4B18180199AF
:103020001E4B98471E4B1B68F26ADB6A9A42D3D349
:103030000124D1E701225242144B1A60184B1B683D
:10304000DA6A93009B189B00134A9B58012B09D9FD
:10305000012407E00D4A1360F0E7124A13680133B8
:1030600013600024104B1B68002B00D001242000AB
:1030700003B0F0BD582A0020D82A0020E029002003
:10308000E4290020942A0020F52B0100902A00203A
:10309000C7220100602A0020E829002081220100C7
:1030A000DC290020542A0020DC2A0020F8B5304B0F
:1030B0001B68002B01D172B6FEE72E4B98472C4BB4
:1030C0001A68013A1A601B680024002B03D12A4BAE
:1030D0001B68002B03D1294B98472000F8BD284DD1
:1030E0002F002B68002B22D0FB68DC6820001830F2
:1030F000244B9847261D3000224B9847E36A224A0A
:103100001268934201D9204A13609800C0188000C9
:103110001E4B181831001E4B98471E4B1B68DB6A6C
:10312000E26A9A42DDD301221B4B1A60D9E7002CD8
:1031300001D01A4B98471A4B1C68002C0ED0194F1F
:10314000154E012502E0013C002C04D0B8470028B0
:10315000F9D03560F7E70022114B1A600E4B1B685F
:103160000024002BB7D0104B98470134B3E7C0467A
:10317000582A0020012401004C2A002019240100B3
:10318000982A0020C7220100602A0020E829002098
:1031900081220100DC290020DC2A0020F52B01001F
:1031A000542A00208D2F0100F123010010B5284B77
:1031B0001B68002B25D10022264B1A60264B1A686B
:1031C0001B6812681B6B9A4205D8234B1868196854
:1031D0003431224B9847224B1B689A00D218920038
:1031E00020495258002A10D1002B08D0013B9A00E8
:1031F000D21892005258002A07D1002BF6D172B68D
:10320000FEE70122134B1A6010BD16489A00D11830
:10321000890041184C6864684C60D21892000832EA
:10322000821894420BD09A00D21892000D498A1845
:103230005268D168084A1160094A1360E4E760687F
:103240009A00D218920007498A185060EBE7C046EE
:10325000582A0020DC2A0020DC290020718401008B
:10326000602A0020E829002010B50C00002801D1B8
:1032700072B6FEE7044B19681831044B98470121D8
:103280002000034B984710BDDC2900209922010043
:10329000A12C010070B50C00150000280DD0084BC2
:1032A00019681831074B9847002D01D0012464425A
:1032B00029002000044B984770BD72B6FEE7C04657
:1032C000DC29002081220100A12C010070B5C36817
:1032D000DC68002C27D0250018352800154B9847AE
:1032E000154B1B68002B20D1251D2800114B98473A
:1032F000E36A124A1268934201D9104A1360980097
:10330000C01880000E4B181829000E4B98470E4B22
:103310001B68E26ADB6A00209A4203D901220B4B48
:103320001A60013070BD72B6FEE729000848054BEF
:103330009847ECE7C7220100582A0020602A0020A5
:10334000E829002081220100DC290020DC2A00205D
:10335000982A0020034B1B680360034B1B684360E3
:103360007047C046942A0020D82A002070B5060075
:103370000D0000281BD000291BD0134B9847134B7E
:103380001A6871682B68581C1CD011480068346892
:10339000844202D001248A4205D2521A9A420AD3A8
:1033A00000232B6001240B4B9847200070BD72B6A0
:1033B000FEE772B6FEE79B1A2B603000064B98477B
:1033C0000024F0E70024EEE701240100D82A0020C1
:1033D000942A002019240100553301000122014BD9
:1033E0001A607047DC2A0020054B1B680120002B67
:1033F00004D0044B18684342584140007047C0460F
:10340000AC2A0020582A002070B5041E2CD0184B7E
:103410001B68984201D072B6FEE7036C002B01D105
:1034200072B6FEE7013B0364C26AC16B8A421DD0DB
:103430000020002B17D1251D28000E4B9847E36B69
:10344000E3620522D21AA2610B4A1268934201D9A3
:10345000094A13609A00D3189B000848C018290035
:10346000074B9847012070BD0020FCE70020FAE7D9
:10347000DC290020C7220100602A0020E829002062
:103480008122010010B54160006191420BD8D21A2F
:10349000012483699A4211D2011D094B1868094B16
:1034A000984700240AE09A4202D20124994205D2A8
:1034B000011D054B1868034B98470024200010BDE0
:1034C000E42A002099220100E02A002070B50E4B6A
:1034D00098470E4B1B68002B02D00D4B984770BDD0
:1034E0000C4D28000C4EB0470C4C2000B0470C4B44
:1034F0001D600C4B1C6000220C2102200A4B9847D7
:10350000024B1860E9E7C04601240100142B00209B
:1035100019240100E82A002065220100FC2A00206D
:10352000E02A0020E42A00209D27010010B582B087
:103530000A4B98470A4B1B68002B0DD0094B01938F
:10354000022300930023802207490848084CA04723
:10355000002801D002B010BD72B6FEE7CD340100E4
:10356000142B0020182B0020E8910100993601004F
:10357000292D010030B585B004001D00002814D0AD
:10358000134B1868002821D0019102920394052959
:1035900015DC104B9847022809D00D4B1868002302
:1035A000002201A90C4CA0470EE072B6FEE7084BC2
:1035B00018680023089A01A9074CA04704E00023DB
:1035C0002A0001A9054CA04705B030BD0020FBE74B
:1035D000142B0020E9330100E527010071290100C7
:1035E000F0B5D6464F464646C0B582B08046234B1E
:1035F00098478246224B1B68984217D300234246C5
:1036000013601F4B52461A60504602B01CBC9046D5
:103610009946A246F0BD002300933A000021200005
:10362000184CA047002804D172B6FEE7164D174B80
:1036300099462B681A68002A17D0DB681F68DC6877
:10364000261D3000C8472000636A9847E369012BB4
:10365000EFD1A369FB189F42DDD2636024610A4B5E
:10366000186831000A4B9847E3E70A4A0649106890
:1036700008601360012342461360C2E7812F0100F6
:10368000102B002075350100E02A0020C722010020
:1036900099220100E42A0020F0B589B0534B9847E5
:1036A000534F544B1B681A68002A0ED0DB681C6805
:1036B000514B984705A8514B98470500059B002B97
:1036C0005FD1844236D900220FE04B4B984705A8C2
:1036D0004A4B98470500059B002B52D1484B1B686D
:1036E0001B685A425A41D2B20024611B454B1868EC
:1036F000454B9847454B984700283FD0414D444C97
:10370000002205A92868A0470028CAD0059B03937A
:10371000002BF5DB079E7369002B01D0301DB847E5
:1037200004A8364B9847059B092BE9D89B00394ADA
:10373000D3589F46354B98472E4B1B68DB68DE6895
:10374000301D2B4B9847F369012B03D0736A30006F
:103750009847D3E7B369E11823002A0030002E4DC3
:10376000A8470028F2D00023009322000021300057
:103770002A4CA0470028E9D172B6FEE7284B9847AB
:10378000BCE7224B9847B9E7069BB269944663446D
:103790001900069B020030001F4CA0470028AED045
:1037A0003000736A9847F369012BA8D1069BB16971
:1037B0008C4663441A000023009300213000174C0C
:1037C000A04700289BD172B6FEE70699B161002997
:1037D00006D041180300020030000F4CA0478EE7CE
:1037E00072B6FEE730000F4B984788E79D830100D3
:1037F000C7220100E02A0020712F0100E1350100FD
:10380000E42A0020142B0020952B0100AD3001008C
:10381000412A0100C0910100853401007535010085
:10382000F12301003D25010010B50400037C002BAD
:1038300005D08368581CE168074B9847A16063680E
:10384000581CE168044B98476160A368591A4A42C2
:103850004A41227410BDC0469185010070B5050033
:103860000C001420044B98470560C460002343609B
:103870008360037470BDC0460D88010010B50368F5
:1038800042689954014B984710BDC0462938010041
:10389000027C0023002A05D1436880681B1A584225
:1038A0004341DBB21800704770B504000D000A4BAD
:1038B000984700280DD12368A2689B5C2B700023D9
:1038C0002374A368581CE168044B9847A16000204A
:1038D00070BD01204042FBE7913801009185010055
:1038E00010B5064C2178064B1868064B9847012204
:1038F00021000548054B984710BDC046D42C002038
:10390000D02C00207D3801009C2C0020C95F0100D4
:1039100010B5064B18680649064B9847431C04D05F
:10392000012203490448054B984710BDDC300020B4
:10393000D8300020A93801009C2C0020A95F01008C
:1039400030B591B08025AD0029003648364CA047EF
:10395000364B186029003648A047364B1860802344
:10396000DB05009300230193FF2269460A810022B0
:103970008B72CB72012124206C46215401302154DA
:1039800025316354013163540A9305316354013185
:10399000635405932382E37622762277627613239B
:1039A000A3766277E1235B020893C4239B0303930E
:1039B00001235B420C930D931F4B0E931F4B0F93F0
:1039C0001F4D204C6A4620492800A0470028F9D105
:1039D0001B4D2C6820001D4B98471F2318401E3B91
:1039E00083401B4A13602A68D369002BFCD12368EB
:1039F000022213432360124C002216492000164D68
:103A0000A847012215492000A8473122A35C0321C1
:103A10000B43A354303A12492000124B984711B07F
:103A200030BDC046D82E00205D380100D02C0020CB
:103A3000D82C0020DC30002003002A0003002B00DB
:103A40009C2C0020C15B0100001800423D54010085
:103A500000E100E011390100915F0100E13801004F
:103A6000D42C0020C95F0100F0B5C64600B50500A2
:103A7000144B98470024002D12D0134E134F144BB3
:103A8000984603E0295D3868C04701342800B047F4
:103A90008442F7D301210F480F4B9847002804D0E8
:103AA0000E4B984704BC9046F0BD0D4C074B186870
:103AB00021000C4B98470122210006480A4B9847E9
:103AC000EEE7C046712F0100DD890100DC300020E7
:103AD0007D3801009C2C0020E95F0100AD30010021
:103AE000D8300020A9380100A95F01000EB430B51C
:103AF00082B00A4B1B78834204D902B030BC08BCA8
:103B000003B0184706AB0193054C059A7F212000AE
:103B1000044DA8472000044B9847EEE71C2B0020DB
:103B20001C2C0020418A0100693A010010B5064BA7
:103B300019688B7F5A1E9341DBB24A7B09680348A0
:103B40000078034CA04710BD202B0020482B0020FC
:103B5000D547010010B50423002801D0180010BD7E
:103B60000E4B9B7A033B012B0DD900220C4B1A7094
:103B70000A4C0C4B1C600C4B9847A37A023B5842F2
:103B80004341DBB2EAE7054B02229A72074A1A6008
:103B900001225A7300229A77E7E7C046242B0020BF
:103BA000482B0020202B00202D3B0100801A06000E
:103BB000F8B5094D094F0A4E00210A48B847041EBE
:103BC00007D0B047FF23034203D0013D002DF3D1BE
:103BD00000242000F8BDC046410D0300194A010031
:103BE000314A01000D1B000010B582B00C4B1B6860
:103BF000198909040123009310220A480A4CA0479E
:103C0000002801D102B010BD054B18680E3001210B
:103C1000064B98470028F5D0054B9847F2E7C04679
:103C2000202B00200911080089480100B54A010035
:103C3000414B010010B5044B1B78002B00D010BD88
:103C40000020024B9847FAE7482B00202948010042
:103C500010B50422034B9A72FB32034B1A70034BCC
:103C6000984710BD242B0020482B0020D54601008A
:103C7000F0B5C64600B588B0CB4B98470400012884
:103C800006D0CA4B9847200008B004BC9046F0BD4F
:103C9000C74B1B680122DA7200221A731A81C54BC6
:103CA0009847002188204001C34B9847002807D13E
:103CB000BF4B1B6803229A72BC4B98470324E2E770
:103CC000D5214900BD48BC4B98470026002825D186
:103CD000B74B1B68DB7ADB0700D5EBE1B44B1B6805
:103CE000DA7A09231340012B0FD180218900B448CF
:103CF000B14B98470028DBD0AD4B1B68DB7ADB0764
:103D000003D5B04B98470028D2D0AF4B9847A84B6B
:103D10001B6800229A72A54B9847B4E7AB4B9847B3
:103D2000431C00D1C4E10005000DD5235B00013622
:103D30009842BDD1CCE70021A5489F4B9847002869
:103D400019D19B4B1B680222DA72002188204001A6
:103D5000994B98470028ABD09E4D974F9B4E002122
:103D60009D48B8470028A3D0B047C3077DD5013D83
:103D7000002DF4D19CE7954B9847430005D58C4B1B
:103D80001A68D37A08210B43D372002193488A4BD7
:103D9000984700288CD0864B1B68DB7ADA0700D462
:103DA000A4E18F4B9847002882D0814B1A68537C3E
:103DB0000721194089008B480858FA21890041439E
:103DC0005B061B0F9B0088481B584B431360937B7B
:103DD0009B0900D03CE1917D8911537D9B00107DB2
:103DE000800203430B43107EC011D17D490008437C
:103DF0001B051B0D01330721014002318B40D07C94
:103E00000F2101408B409B0A5360118909047748B8
:103E1000694B9847002800D14AE701230093082204
:103E200000217348734DA847002800D140E70121C5
:103E300006A8714B9847002800D139E76F4B984787
:103E4000002800D134E706AB1B780F221340012B6A
:103E500000D119E1002B00D109E1022B00D118E1BA
:103E6000534B1B6810221A7305E100215848524B2E
:103E70009847002800D11BE7544B9847C023DB0527
:103E800018408023DB05984205D1494B1A68D17A46
:103E900008230B43D37200215048474B9847002812
:103EA00000D105E74E4B9847002800D100E7404B72
:103EB0001A68937B9B061B0F022B00D1A8E007D941
:103EC000032B00D1A7E0042B04D14023137303E09C
:103ED000012B66D012231373537C5906090F8900F6
:103EE000072003409B003F481858FA239B00434398
:103EF000434809584B431360917D8911537D9B00C2
:103F0000107D800203430B431B051B0D3D498B4273
:103F10000FD0107EC011D17D49000143013307202D
:103F2000014002318B40D17C083001408B409B0A1C
:103F30005360137B3F2B7BD900210091012380220A
:103F4000920031482B4DA847002800D1B0E600254B
:103F50002E4E05A8B047002800D1A9E60135ADB224
:103F6000322DF6D1124B19688A7D92114B7D9B0040
:103F7000097D89020B4313431B051B0D214A934204
:103F800054D1224E06A8B047002800D190E6013552
:103F9000ADB2352DF6D9064B1A68069B5B08536007
:103FA00044E01423137397E7553B0100353C0100AF
:103FB000202B002051480100194A0100085500003B
:103FC00010110000B13B01002D3B0100314A0100FE
:103FD0003A050000EF1B0000011100003B1100003A
:103FE000E93B0100309201004C92010037110000C2
:103FF0003311080089480100B54A0100414B010016
:10400000F0910100FF0F0000081108003D4A010077
:104010002223137360E7302313735DE706A8364B42
:104020009847002800D143E60135ADB27F2DF5D980
:10403000802189003148324B9847002800D137E66B
:10404000304B9847002800D132E62F4B98475EE668
:10405000D07D937D1B02517D09040B4303439B02DA
:104060005B08802189008C4663445360CDE6274B72
:104070001B6810221A73254B1B68DB7A0922134038
:10408000012B00D038E630E6204B1B681A221A7349
:10409000F1E706AB9B78DB09012B04D11B4B1B68B6
:1040A00030221A73E7E7194B1B6820221A73E2E7E4
:1040B00000260DE6731E9E41B3070393144D104F67
:1040C000B846144E00211448B847002800D138E6FD
:1040D00003991248C047002800D132E6B047C30711
:1040E00000D428E6013D002DECD12AE60922134038
:1040F000012B00D009E6F8E53D4A0100101100004F
:10410000194A0100B13B01002D3B0100202B00208A
:10411000EF1B0000314A0100371100002911000097
:1041200010B5064B98470023002801D0180010BD99
:10413000034B9847034B1B68DB7AF7E7553B0100BD
:10414000353C0100202B002010B5064B984700237A
:10415000002801D0180010BD034B9847034B1B6883
:104160005B68F7E7553B0100353C0100202B002040
:104170000020704770B582B00E001500164B9847AE
:10418000041E02D0200002B070BD144B98470028D6
:1041900017D0012D19D91248124B1B68DB7A1B0767
:1041A00000D47602012300932B008022920031007C
:1041B0000D4EB04700280AD00C4B1D800C4B1D80C3
:1041C000E0E70C4B98470534DCE70B48E4E7094B84
:1041D00098470524D6E7C046553B0100B13B010096
:1041E00012111000202B002089480100442B0020D0
:1041F000462B0020353C01001111080010B50C00C1
:10420000074B9847002804D10022064B1A8005303E
:1042100010BD044A13881C1B14800020F8E7C04618
:10422000B54A0100442B002010B50400144B9847F8
:104230000523002801D1180010BD002C10D0002249
:10424000104B1A80104B1B88012B0FD000210F48F8
:104250000F4B984700280DD00E4B98470023EAE7F4
:10426000084B1A880023002AECD0E4E7094B984752
:104270000023E0E700210548054B9847ECE7C046DE
:10428000414B0100442B0020462B00200C31000044
:10429000194A0100353C010070B582B00E001500CE
:1042A000114B9847041E16D1012D17D90F48104BFA
:1042B0001B68DB7A1B0700D47602012300932B00D6
:1042C0008022920031000B4EB047002808D00A4BE4
:1042D0001D800A4B1D80200002B070BD0848E6E733
:1042E000084B98470524F6E7553B0100199110004B
:1042F000202B002089480100442B0020462B002061
:1043000018910800353C010010B50C00074B984788
:10431000002804D10022064B1A80053010BD044A43
:1043200013881C1B14800020F8E7C046454B010091
:10433000442B002010B504000E4B9847052300289D
:1043400001D1180010BD002C0AD000220A4B1A809F
:104350000A4B1B88012B09D0094B98470023F0E733
:10436000054B1A880023002AF2D0EAE7044B98474D
:104370000023E6E7C54B0100442B0020462B00201C
:10438000353C010010B504000F4B9847012819D0A7
:10439000002803D0022810D0012010BD0B4B1B5D5C
:1043A0000220002BF9D12000094B9847030003207D
:1043B0001840434258414000EFE70022034B1A5592
:1043C0000220EAE70320E8E7713C01004C2B0020C3
:1043D0002141010010B50020014B984710BDC04697
:1043E0008543010070B504000D00044B9847400060
:1043F000013828602000024B984770BD49410100F8
:104400008543010010B501000020014B984710BD05
:10441000E543010010B50020014B984710BDC04690
:104420007141010010B5140001220C4B984700287F
:1044300004D0023843425841013010BD0121200010
:10444000074B984703000120002BF6D10020054BB5
:104450009847431E9841C0B2EFE7C046754101003E
:10446000FD4101002942010010B50A0001000020B1
:10447000014B984710BDC0462544010010B51400FB
:1044800001220C4B9847002804D00238434258417F
:10449000013010BD01212000074B98470300012087
:1044A000002BF6D10020054B9847431E9841C0B21F
:1044B000EFE7C0469942010009430100354301007E
:1044C00010B50A0001000020014B984710BDC046FE
:1044D0007D44010000B583B06B46D91DFF230B70EE
:1044E00001220B480B4B98470B4B1B88012B0AD022
:1044F000FC226B469A7101226B46991D0448054BBC
:10450000984703B000BDFE226B469A71F3E7C046A0
:10451000502B002025590100942B0020F0B583B0CA
:104520006B46DC1DFF232370124E01222100300058
:10453000114DA847FF23012221003000A847FF2387
:10454000012221003000A8470C4C6B46DD1D094EAE
:10455000094F2B78FF2B09D0FF23012229003000BF
:10456000B847013C002CF4D1002000E0012003B04A
:10457000F0BDC046502B00205D570100400D0300E8
:1045800070B582B0144B1C88012C23D0134B1988B2
:10459000134B1868134B98470123844202D9180023
:1045A00002B070BD6B46DC1DFF2323700E4E01224E
:1045B000210030000D4DA847FD232370012221006A
:1045C0003000A8470A4B9847031EE8D10521094A45
:1045D0001170E4E70123E2E7942B00208C2B0020EC
:1045E0009C2B002085840100502B002025590100C0
:1045F0001D450100932B0020F0B583B000226B46CF
:10460000DA71144C6B46DD1D134E144FFF2301224B
:1046100029003000B8472B780F22190091430A1E59
:1046200009D0FE2B13D0013C002CEFD104220C4BFF
:104630001A7000200CE05B0704D00732084B1A7098
:10464000002005E00B22064B1A70002000E001203C
:1046500003B0F0BD20A10700502B00205D570100E2
:10466000932B002030B583B001A901235B420B805E
:10467000144D02222800144B98476B46DC1DFF2383
:10468000012221002800114DA84722781123134050
:10469000012B05D001220E4B1A70002003B030BD53
:1046A0001E231A40042A0BD00A2A04D1023A084BCE
:1046B0001A700020F2E70A22054B1A700020EDE77D
:1046C0000120EBE7502B0020255901005D57010028
:1046D000932B002070B590B000232D4A137002ACCC
:1046E000012525700393049323746374A574E57402
:1046F00023752422A354183A002108A8254B984773
:1047000080235B02E360244BA362244BE362244BCF
:104710002363244B6363244BA361244E220024496A
:104720003000244B984734682000234B98471F23C0
:1047300018408540214B1D603268D369002BFCD1A5
:1047400023680222134323601D4A00235370937091
:104750001C49087810701C4C20706370A37001A96C
:1047600001224A708B700A70184B98472278D10941
:104770000023002904D15309DB0115498C46634409
:104780001F21114001228A409A6110B070BDC046BD
:10479000932B002057880100020010000200110036
:1047A0000200120002001300801A0600502B0020A5
:1047B000000C0042855501003D54010000E100E07D
:1047C000A02B002004000020902B0020294E010087
:1047D00000440041F8B5070000220D4B1A700C0090
:1047E0000C4B994200D91C000B4D0C4E01E0E30824
:1047F000E41A21002800B0471728F8D07900CF1913
:104800000749C91901220448064B9847F8BDC0461C
:10481000932B002080969800502B0020CD5401004F
:10482000902B00203158010010B50022044B1A7063
:1048300041000818034909180348044B984710BD64
:10484000932B0020902B0020502B0020315801008A
:1048500070B582B0FF226B46DA710022074B1A70E6
:104860000A24074E074D01226B46D91D3000A84788
:10487000013CE4B2002CF6D102B070BD932B0020B5
:10488000502B002025590100F0B5C64600B586B072
:10489000804600920193FF220F2302A884466344BE
:1048A0001A700022534B1A7004AB3F32404602404C
:1048B000402002431A700A0E5A700A0C9A700A0AB3
:1048C000DA7019710027002304A90822092411E0D5
:1048D0007600F6B20138C0B2002808D05B00DBB227
:1048E0001D0075402D06F3D56340DBB2F0E70137BC
:1048F000052F02D07E5C1000F0E75B00012213431D
:1049000004AC63713C4E01220F2102AB9C46614412
:1049100030003A4FB847062221003000B84702ABBA
:10492000D91DFF230B7001223000354EB0470724FC
:1049300002ABDE1D304F324DFF2301223100380023
:10494000A84733785AB2002A0BDA013CE4B2002CB3
:10495000F2D10222274B1A70002006B004BC904608
:10496000F0BD284A13601A071AD45A071DD4012231
:1049700093431FD143469B0420D443469B0525D433
:1049800043465B052BD4204B6A4612881A801F4B86
:104990006A4692881A8000221D4B1A600120DCE7CB
:1049A0000622144B1A700020D7E70922114B1A7007
:1049B0000020D2E70F4B1A700020CEE7154B984726
:1049C0000028DAD103220B4B1A70C6E70D490023E9
:1049D0000B60FF3301220848094EB047D0E7094E6B
:1049E000FF23042231000448054FB84733681BBA3F
:1049F0003360C8E7932B0020502B0020255901007D
:104A00005D570100982B00208C2B0020942B002058
:104A10009C2B00201D45010010B582B0002300939F
:104A20000022024CA04702B010BDC04689480100D8
:104A3000014B18687047C046982B002010B584B011
:104A400001900022144B1A70144B1988144B1868EB
:104A5000144B9847002903D1134B9847002810D0D6
:104A6000FF23042201A91148114CA0470C4B1A68DE
:104A7000101D1860094B19880A4B9847012000291E
:104A800001D004B010BDFF23022203A90748084C3F
:104A9000A0470120F5E7C046932B00208C2B002077
:104AA0009C2B002091850100F9450100502B00202E
:104AB0005D570100F0B5DE4657464646C0B582B0A8
:104AC00083460022174B1A704C1EA4B2002926D030
:104AD0000026154B9A46154FD0478046002817D020
:104AE0003A885B469919FF231148124DA8473B8825
:104AF000F618114A11688C4663441360FF230222A2
:104B000001A90B48A847013CA4B20C4B9C42E3D13D
:104B1000404602B01CBC90469A46A346F0BD012315
:104B20009846F5E7932B0020F94501008C2B0020D7
:104B3000502B00205D5701009C2B0020FFFF000040
:104B400001207047F0B5C64600B580460022154BDF
:104B50001A700025144F154E00E021004C1EA4B21F
:104B600000291BD0B8473288434659191048114BC9
:104B700098473388ED18104A11688C4663441360D7
:104B80000E4B984700280AD0002CE6D00C4B9847D3
:104B90000028E2D10522034B1A7000E0012004BC7A
:104BA0009046F0BD932B0020D54401008C2B0020B3
:104BB000502B0020255901009C2B00206546010048
:104BC0001D45010010B5054B9847002803D105226B
:104BD000034B1A7010BD034B9847FBE71D450100BE
:104BE000932B00208145010030B5084B1C68084A12
:104BF000002580214902013807D3002CFBD05460E6
:104C0000956013680B42FCD0F5E730BD080000202A
:104C100010E000E010B50123002801D0180010BDFD
:104C2000014B98470300F9E7D543010010B5012374
:104C3000002801D0180010BD0800024B984703005F
:104C4000F8E7C0460544010043425841C0B27047EE
:104C500010B50123002801D0180010BD014B984762
:104C60000300F9E71544010010B50C0001230028EA
:104C700001D0180010BD11002000024B984703001E
:104C8000F7E7C0466944010010B50C000123002875
:104C900001D0180010BD11002000024B98470300FE
:104CA000F7E7C046C14401000C4B1B68002B06D13E
:104CB000EFF31083002B07D00022094B1A70074A2C
:104CC000136801331360704772B6BFF35F8F002221
:104CD000044B1A700132024B1A70F0E7A42B00202B
:104CE000A82B00200C000020084B1A68013A1A601B
:104CF0001B68002B09D1064B1B78002B05D0012225
:104D0000044B1A70BFF35F8F62B67047A42B00206C
:104D1000A82B00200C000020F0B583B001AC0125C9
:104D200065700027A770257021001720064EB04738
:104D300080221204054B9A6127706570210037208C
:104D4000B04703B0F0BDC046294E01000044004109
:104D500070B50022104B1A70002310491F25104E09
:104D60000D4C0AE00D4908E023780133DBB22370D3
:104D70000F2B10D800211F2BF4D928001840012236
:104D8000824008691042EFD00A619B009B59002BBA
:104D9000EAD09847E8E770BDE030002000180040F6
:104DA000E4300020044A137802210B431370537837
:104DB0005BB2002BFBDB70470018004000B583B0EE
:104DC000124A936940210B43936101A900230B70A0
:104DD00005200F4B984705200E4B98470E4A137835
:104DE00001210B43137053785BB2002BFBDB0B4BA1
:104DF00019004031002204C39942FCD11022084B13
:104E00001A60084B984703B000BDC046000400403C
:104E100049670100BD66010000180040E430002031
:104E200000E100E0A54D010000B583B001AB802298
:104E30001A700A785A704A789A708A78DA7019006B
:104E4000014B984703B000BD41680100016808228A
:104E5000054B1A600268937A5BB2002BFBDB0B8870
:104E6000022213430B80704700E100E010B5026896
:104E7000082480230749CC5001688B7A5BB2002B51
:104E8000FBDBC12393711372138802218B431380C0
:104E900010BDC04600E100E070B504000568074B96
:104EA00098470023238263822268937A5BB2002BA7
:104EB000FBDB2B88012213432B8070BD6D4E01005C
:104EC00010B5CB88C2889A1A92064B799B050C794B
:104ED000640423438C782403234313430279002A78
:104EE00005D1CA78002A02D08022520213434878A2
:104EF00080010A781043184310BD10B58B0EC4888A
:104F00001B19D3808B011B0F53718B02DB0E1371A6
:104F10000379002B0CD10B041B0F9370CB03DB0F19
:104F2000D37088093F23184050701940117010BD8C
:104F3000CB03DB0E9370F4E710B50A0003684179E8
:104F4000002906D0598849040BD519690A4B98479E
:104F500010BD0A4959800468A17A49B20029FBDBD7
:104F6000F3E75988C0242402214359800468A17AB8
:104F700049B20029FBDBE8E7FB4E01000080FFFFA0
:104F800070B50D0014001723012A01D9180070BD57
:104F90000668064B9847B37A5BB2002BFBDBE40054
:104FA0003419A0612B7A23770023EFE7C14E01006B
:104FB00030B583B00500140001601C4A93692021BC
:104FC0000B43936101A902230B700420184B9847EF
:104FD0000420184B98472800174B984723792B71CA
:104FE000E3786B71E388EB80144B1D602A6823889B
:104FF0002179002917D008210B43A178002901D07D
:1050000080210B431380E378002B04D05388802148
:10501000C9010B4353802100083100222800084BAE
:10502000984703B030BD48210B43E6E70004004039
:1050300049670100BD660100994E0100243100203E
:10504000814F010010B50F4B1A681468518A138AFA
:105050001940207AE379034058B2002806DBDB07C9
:1050600003D5CB070AD40123237210BD8B0702D4CA
:1050700080232372F9E7D3689847F9E79368984744
:10508000F1E7C04624310020F0B5DE4657464E46D3
:105090004546E0B587B08046049116001F00002207
:1050A000002300218B463F24012021000096019718
:1050B0005C4603944446059413E02024641A0500DA
:1050C000E540A84614E0009C019D121BAB415C46E4
:1050D0004D462C43A346039C45462C43039401397B
:1050E00025D3202464420C19E7D40500A540A84626
:1050F00004008C40A14692185B4114001D00059EDF
:105100004F463E40B446049E47463E40B246664641
:1051100057463E4303D00600264332002B00009C36
:10512000019D9D42DBD8CED19442D8D8CBE7039BDA
:105130005846190007B03CBC90469946A246AB467B
:10514000F0BD10B5490840230024814202D2180066
:1051500010BD1C00091A631C9BB28842F9D9402378
:10516000FF2CF4D814800023F1E70000F0B583B0E1
:105170000F00160008AA117804004C434022BC42DC
:1051800002D9100003B0F0BD002B14D102000800BA
:105190000021194CA04701003A0000230020174CC1
:1051A000A04700220123121A8B41120C1B041A4340
:1051B00032800022E5E70022012BF9D10A0000230A
:1051C00000210D4CA04702000B0000920193380013
:1051D00000210A4CA047050080239B0140229842F1
:1051E000CFD8790FF800009A019BA047EA00821AF5
:1051F000D2B252032A43DBE77187010089500100D4
:1052000010B582B004000E4B1B78002B07D000298C
:1052100005D10B4B5B78834210D01D200CE001A917
:105220000C701320074B98471320074B9847044BEB
:105230005C7001221A70002002B010BD0020FBE754
:10524000AC2B002049670100BD660100404B98422D
:1052500031D00AD93F4B98424DD03F4B98425AD05B
:105260003E4B984237D0002070473D4B98420CD0BF
:105270003C4B9842F7D1012917D000295DD0022973
:1052800015D0032915D00020EEE7012907D0002909
:1052900051D0022905D0032905D00020E4E7324887
:1052A000E2E73248E0E73248DEE73248DCE73248FE
:1052B000DAE73248D8E7012907D000293FD0022990
:1052C00005D0032905D00020CEE72D48CCE72D4896
:1052D000CAE72D48C8E7012907D0002931D00229A3
:1052E00005D0032905D00020BEE72848BCE72848A0
:1052F000BAE72848B8E7012907D0002923D00229B6
:1053000005D0032905D00020AEE72348ACE72348A9
:10531000AAE72348A8E7012907D0002915D00229C8
:1053200005D0032905D000209EE71E489CE71E48B3
:105330009AE71E4898E71E4896E7032094E71D4821
:1053400092E71D4890E71D488EE71D488CE7C04650
:105350000010004200180042001C004200140042ED
:1053600000080042000C0042030005000300060094
:10537000030007000300010003001E0003001F00DC
:105380000300090003000A0003000B0003001100E2
:10539000030012000300130003000D0003000E00C1
:1053A00003000F000300170003001800030019009A
:1053B00003000400030008000300100003000C00B9
:1053C0000300160030B587B00B4B6A4632CB32C2B1
:1053D00032CB32C2009B83420BD001239A00694634
:1053E0005258824206D00133062BF7D1002007B075
:1053F00030BD0023D8B2FAE78C920100704700005C
:10540000F0B50A4B1B78002B0CD1094F094E0A4D01
:105410000024DE515A1914600433182BF9D10122EB
:10542000024B1A708000024BC150F0BDAE2B002021
:10543000B02B0020FD5301002831002000B583B0BF
:1054400009236A461370013353700133937001339B
:10545000D3700133137101335371034B98476B467B
:10546000185603B000BDC046C553010010B5024B2D
:105470001B680020984710BDB02B002010B5024BD0
:105480005B680120984710BDB02B002010B5024B7F
:105490009B680220984710BDB02B002010B5024B2E
:1054A000DB680320984710BDB02B002010B5024BDD
:1054B0001B690420984710BDB02B002010B5024B8B
:1054C0005B690520984710BDB02B002070B582B0F5
:1054D00005000C0000226B46DA8006683000244B81
:1054E00098471F2318401E3B8340802221498B5040
:1054F0002A68D369002BFCD18F3333753376336838
:105500000222934333602868C369002BFCD11A4BF5
:1055100098471430C0B2194B984701006B469A1D4A
:105520002000174B9847041E03D01724200002B018
:1055300070BD6B4606331B7833732E68F369002BFE
:10554000FCD130000A4B98471F2318401E3B834074
:10555000084A13602A68D369002BFCD13368022201
:10556000134333602A68D369002BFCD1DEE7C046C1
:105570003D54010000E100E0C553010065670100F2
:1055800043510100F0B58BB005000C0016002960F6
:105590000B681C209B0701D50BB0F0BD0B681738BA
:1055A000DB07F9D40800604B9847604A116A871CF2
:1055B0000123BB400B43136209A92427F35D0B7041
:1055C0001430C3B201931800594B98470198594BB6
:1055D0009847F05D0021584B98473378012B38D01D
:1055E0002B000C3329002831002204C38B42FCD14C
:1055F0000023EB62AB620024AB862B863633EC547F
:105600000133EC540133EC54353B6B722C71286838
:10561000454B984707004949494B9847BF00494BBC
:10562000FD502F6804AB80221A705C707F3A9A702C
:10563000DC703378002B02D1002204AB9A70B36A7D
:105640000593F36A0693336B0793736B08930024F7
:105650000BE023680C2213432360C1E738003A4B68
:1056600098470AE00134042C10D0E1B2A30002AA4A
:105670000C201218D0580028F0D0431CF2D004A9F6
:105680000870000CC0B2314B9847EBE733786B7170
:10569000337CAB71B37CEB71337D2B72002202AB98
:1056A000DA803378012B28D07368B2681343F2682C
:1056B0001343317C727C002A03D1254A92789207E9
:1056C00001D580221343B27C002A02D080229202AC
:1056D0001143F27C002A02D0802292001143327DD5
:1056E000002A02D08022920111433A6813433B60A2
:1056F0007B680B437B6000204EE728680A4B984785
:105700001430C0B2134B9847010002AB9A1DB06928
:10571000114B984703001720002B00D03CE702AB49
:1057200006331B783B73BFE7C553010000040040FC
:1057300049670100BD66010001520100F1590100F5
:1057400001540100283100204D5201004168010040
:10575000002000416567010043510100F0B5D646C5
:10576000474680B583B03824055D333C052D02D013
:105770001234002A05D1200003B00CBC90469A4692
:10578000F0BDC479002C44D11C34F4E705682C7EAC
:105790003C42FCD02C7E3C421AD04446AC6217E01E
:1057A0008479012C26D0AD6AECB2A446019C002C71
:1057B0003AD1751CADB264468C558479012C1ED04B
:1057C0002E00013A92B252451FD04479012CDDD00F
:1057D00005682C7E1C42FCD02C7E1C4217D06C8BA2
:1057E000A4460024019464461C42D9D06B831E2435
:1057F0000194D5E7AC6AE405E40DA446D6E7023689
:10580000B6B26446240A4C55DBE7019CB3E710248A
:10581000B1E7013A92B200260127DB05DB0D98467D
:105820000423024CA246D0E7019CA4E7FFFF00003E
:1058300010B544791523012C01D0180010BD047A4D
:105840000023002CF9D1002A58D04B78002B44D0EB
:1058500003681B7EDB0710D40A78D10900230029D6
:1058600004D15309DB012E498C4663441F211140AA
:1058700001228A409A610523DFE70A78D4090023D0
:10588000002C04D15309DB01254CA44663441F249A
:1058900014400122A2405A6103681A7ED20701D542
:1058A0008A789A62C2790023002AC6D1026804214C
:1058B000137E0B42FCD0117E00234907BDD5538BCC
:1058C0005B0701D5042353838379012B02D0936AAC
:1058D0000023B2E7936A0023AFE70A78D1090023D7
:1058E000002904D15309DB010D498C4663441F2173
:1058F000114001228A405A6100239EE70A78D109AB
:105900000023002904D15309DB0105498C46634477
:105910001F21114001228A409A6100238DE7C04671
:1059200000440041F0B5DE4657464E464546E0B5D8
:1059300083B08A463823C45C333B052C02D0123333
:10594000002A4BD1180003B03CBC90469946A246B1
:10595000AB46F0BD0237BFB241465346595C09021F
:105960005B460B4318E08379012B2AD0936A013EF2
:10597000B6B2664527D00268137E2342FCD07B1C5A
:105980009BB298465346DB5D9B4681790129E1D065
:105990006946CB80CB884746117E214202D0DB0589
:1059A000DB0D9362C379002BE1D00268137E2B429A
:1059B000FCD0137E2B42DAD0538B2B42D3D05583AD
:1059C000D1E7936AD3E742790023012ABAD101686B
:1059D00001320B7E1342FCD00023B3E7013A96B2AA
:1059E000002701240425014B9C46C4E7FFFF00006B
:1059F000F8B58000704BC45826683723E75C362220
:105A0000A25C1740337EB57D1D40EB0702D563795C
:105A1000012B1ED06B0711D5738B5B075AD5637AA8
:105A2000012B08D01E223823E254353B6372023327
:105A300033753B074AD4B36A04237383AB0703D59A
:105A40006379012B00D197E06DB2002D00DAA9E057
:105A5000F8BD637A002B22D0637A002BDAD021685C
:105A6000E26A1378DBB2501CE062A079012827D0EB
:105A70009BB2DB05DB0D8B62A38E013B9BB2A38641
:105A8000A38E9BB2002BC5D101333375637A012BF2
:105A9000C0D1E379002BBDD10233B375BAE7474BD0
:105AA0001B88B362638E013B9BB26386638E9BB29D
:105AB000002B01D1013333756379012BCCD0A9E7D9
:105AC0005078000203430232E262D2E72000A36969
:105AD0009847B0E7637A012B28D023689B6ADB05DF
:105AE000DB0DDAB2A16A0A70A26A511CA162A17927
:105AF000012934D0238E013B9BB22386238E9BB297
:105B0000002B00D09AE700223833E254343B33753F
:105B1000637A022B29D0637A002B00D08EE7BB0773
:105B200000D48BE720002369984787E723689B6AA6
:105B3000638E013B9BB26386638E9BB2002B00D0C9
:105B40007CE70433337500223433E254353B63720F
:105B5000FB0700D472E72000E36898476EE71B0A52
:105B60005370A36A0133A362C4E77B0700D465E7DF
:105B700020006369984761E7637A012B00D063E7EF
:105B8000E379002B00D05FE7023333750133637292
:105B900000223533E254FB0700D455E72000E368C8
:105BA000984751E78023337533767B0600D44FE75F
:105BB000636A200098474BE72831002040310020DD
:105BC000F0B5DE4657464E464546E0B591B0050075
:105BD0000C00160029600800BC4B9847020023689F
:105BE0000520DB0706D511B03CBC90469946A2467D
:105BF000AB46F0BD236817309B07F4D4B449086A5C
:105C0000971C0123BB4003430B620FA92D27F35DB3
:105C10000B701432D3B202931800AE4B984702981F
:105C2000AD4B9847F05D0021AC4B9847F37A6B7110
:105C30002423F35CAB712523F35CEB71F37E2B72B1
:105C4000337F6B722B6898461800A04B984714302E
:105C500000220E2306A98C4663441A80328A0292DF
:105C60008023DB019A4200D19EE00FD9C023DB01E3
:105C7000029A9A4200D192E080231B029A4200D0FD
:105C80001FE1032306930023079308E080239B0171
:105C90009A4200D015E1102306930F3B0793336817
:105CA0000593F368039373690493337E9B4626231D
:105CB000F35C9A4673689946002B00D1A0E08023DC
:105CC0005B05994500D184E0737E002B02D0B37E42
:105CD000424693732A68029FD369002BFCD10E338E
:105CE00006AA944663441B8842469381059B039A07
:105CF0001343049A13434A4613431F435B461B0254
:105D00001F4353465B071F432723F35C002B01D13E
:105D100004331F43737E9B02327F52021343727F10
:105D2000120213432422B25C520413432522B25CB4
:105D300012041343B17AF27A114319433389FF2BCA
:105D400000D181E080225204174319432C23F35CD5
:105D5000002B03D1624B9B789B0701D580231F4307
:105D60002A68D369002BFCD1434659602A68D3695D
:105D7000002BFCD143461F600EAB80221A7000221C
:105D80005A70DA709A70336B0A93736B0B93B36B20
:105D90000C93F36B02930D9300270AAE63E0082384
:105DA0000693073B07937AE733680593F3680393F9
:105DB00073690493337E9B462623F35C9A4673688B
:105DC0009946002B18D080235B05994501D000200F
:105DD00025E02723F35C002B00D075E7336A1F0012
:105DE000C0B2404B984701000E2206AB9C4662446D
:105DF00038003D4B984712E0082306930023079391
:105E00002723F35C002B0ED0069B0093079B0E22EA
:105E100006A98C466244B16A306A344FB8470028FC
:105E200000D0E0E650E7336A1F00C0B22D4B984720
:105E30000100069B0093079B0E2206A8844662443D
:105E400038002A4FB847EAE7F37E002B00D17DE700
:105E50008023DB041F4379E72000254B984707E0A8
:105E60000137042F0DD0F9B2BB0098590028F3D0A8
:105E7000431CF5D00EA90870000CC0B21D4B98470A
:105E8000EEE70023EB602B616B61AB61EB612B6292
:105E9000AB626B620022EB85AB853033EA54013391
:105EA000EA540133EA540133EA542868074B98470F
:105EB00004001149114B9847A400114BE5500020F4
:105EC00091E61023069300230793E8E6C5530100EB
:105ED0000004004049670100BD6601000152010055
:105EE0000020004165670100435101006D51010030
:105EF0004D5201004168010005600100015401009C
:105F000028310020F8B506000C00150007680A4B80
:105F10009847F38D9BB2002B03D0084B9847052080
:105F2000F8BDF585054B9847B46205223323F2543A
:105F3000323BBB750020F3E7A94C0100E94C01009E
:105F4000F8B504000D00160007680F4B9847A38DA5
:105F50009BB2002B03D00D4B98470520F8BDA685BA
:105F60000A4B9847656205223223E2542E3BBB75EB
:105F7000237A002B01D02023BB75637A0020002BED
:105F8000ECD00823BB75E9E7A94C0100E94C0100FE
:105F9000931C9B00C31859603021012393401A00C1
:105FA000435C13434354704710B51723002A01D1B3
:105FB000180010BDC4790533002CF9D0014B984767
:105FC0000300F5E7055F010010B51723002A01D192
:105FD000180010BD84790533002CF9D0014B984787
:105FE0000300F5E7415F0100002903D0012905D036
:105FF000172002E03223C05CC0B270473323C05C7C
:10600000C0B2FAE7F8B58000624BC5582C68E36966
:10601000002BFCD1237EA67D1E403023EB5C312279
:10602000AF5C1F40F30722D5EB8D9BB2002B1CD039
:10603000AA6A1378DBB2511CA962697901290ED0D2
:106040009BB2DB05DB0D2385EB8D013B9BB2EB8522
:10605000002B0CD1013323750133A37507E0517870
:1060600009020B430232AA62EBE701232375B3074F
:1060700006D50223237500223133EA54FB071AD4D4
:10608000730765D5AB8D9BB2002B5FD0638BDBB202
:106090001A0714D43F221340002B34D09A0711D58D
:1060A0001A223223EA54303B63837B0750D5280001
:1060B0006B6998474CE02800EB689847E0E7372287
:1060C0001340E9E75A0705D51E223223EA542E3B36
:1060D0006383EAE7DA0705D513223223EA54313B1A
:1060E0006383E2E7DA0605D542223223EA54223BF3
:1060F0006383DAE720221A42D7D021323223EA54CE
:10610000123B6383D1E7238DDB05DB0DDAB2696ACD
:106110000A706A6A511C69626979012910D0AB8DD5
:10612000013B9BB2AB85002B12D1043323750022B7
:106130002E33EA54BB070BD528002B69984707E09C
:106140001B0A53706B6A01336B62E8E70423237503
:10615000F30604D5102323752376FB060ED4B3066D
:1061600004D52023237523763B070BD4330704D5AE
:10617000082323752376BB0608D4F8BD2800EB69F5
:106180009847ECE72800AB699847EFE72B6A2800AF
:106190009847F2E72831002010B5082803D880007E
:1061A0001C4B1B589F46002032E01B4B18692FE008
:1061B0001A4B1B6A9B059B0F1948D84028E0164BC9
:1061C000586925E0144B1B6800209B0720D5134914
:1061D0001022CB681A42FCD00F4B1A6824231340BC
:1061E000042B01D00F4813E000200F4B98470A4BB7
:1061F0009B681B041B0C58430AE05023074AD35CDE
:1062000000205B0704D5044BD86801E08020000221
:1062100010BDC046A4920100C82B00200008004019
:1062200000127A00006CDC026567010070B50C4951
:106230000B6A04788578407801221040800140265E
:10624000B34303432A40D2018020834313430322F4
:10625000224012020348034013430B6270BDC04644
:1062600000080040FFFCFFFFF8B50500C468037D8F
:10627000012B3BD0AB6818012100204B98470F221F
:10628000024003092E78F601697889010E43F6B2BF
:106290001B494427CE551604013B1B051B0D3343F8
:1062A0008B64AB781B03EE78F60033432E79B6008F
:1062B0003343AF7C03263E4033432E8A3604114FCE
:1062C0003E403343EE7C3602E027FF003E4033433E
:1062D0002E7D3601302535402B43CB640F23984368
:1062E000801844432409084BDC60F8BD018A013161
:1062F00049002000014B98470400BBE7858401005A
:10630000000800400000FF07C82B0020082803D821
:106310008000254B1B589F46172044E0234A136AF0
:1063200002210B43136200203DE0204A93690221C1
:106330000B439361002036E01C4A138A02210B4371
:10634000138200202FE0194A938A02210B43938283
:10635000002028E016490B68022213430B60134B00
:106360009A8419000E32CB681A42FCD0104A916808
:106370000E4BD96252689A6200229A841900103238
:10638000CB681A42FCD00A4B1B689BB2074A938425
:10639000002008E0054944228B5C022003438B5413
:1063A000002000E000207047C89201000008004073
:1063B000C82B0020F0B5D6464F464646C0B58CB037
:1063C000C222D200454B9A60454A53681E218B4336
:1063D00018390B435360032201AB1A700024414D5E
:1063E000E0B201A9A8470134252CF9D10BA800255A
:1063F00045700126867005703B4B984706203B4B45
:10640000994698473A4B984701AC6570062323702C
:10641000257265720233636021000120354B984676
:1064200098470120344FB847666065706572032352
:106430009A462370267221000220C0470220B847E6
:1064400065702572657253462370202363602100B6
:106450000420C0470420B8470AA90E700120214B30
:1064600098470120254B984704A845708570C57052
:106470000571234B83600682C57485740570022301
:106480000375204BC360204B98470820C84713482A
:1064900050210322435C1340032BFBD10F494422BC
:1064A000885C833B03438B54184A00231372537256
:1064B0009372D37201A901224A604B700B720833A8
:1064C0000B704A7200200B4B984700200A4B9847EC
:1064D0000CB01CBC90469946A246F0BD0008004096
:1064E00000400041496701002D6201000D63010079
:1064F0001165010035650100ED650100BD66010013
:10650000006CDC0240420F006962010000040040A0
:10651000064A936908210B4393610122044B1A70C8
:1065200019000B781342FCD17047C04600040040AC
:10653000000C004070B5060004000D782D020543E4
:106540004B78002B02D08023DB021D434B7A002BBB
:1065500002D080231B031D434868012810D9431E25
:10656000184234D1022830D90223002201325B00C4
:106570009842FBD812023243140080235B031D4370
:106580000B7A002B02D080239B031D43134A5378C0
:106590005BB2002BFBDB124B9847124B1E700F4A6D
:1065A00053785BB2002BFBDB0C4B9C601A005378DA
:1065B0005BB2002BFBDB094A5368802149020B4088
:1065C0001D435560084B984770BD0022D2E7040276
:1065D000344380239B021D43D2E7C046000C004099
:1065E000A94C0100080C0040E94C010010B5040062
:1065F0000B4A53785BB2002BFBDB0A4B98470A4BE4
:106600001C70074A53785BB2002BFBDB044A5168CD
:1066100080235B020B435360044B984710BDC04678
:10662000000C0040A94C0100040C0040E94C0100A2
:1066300070B504001A4A53785BB2002BFBDB194B90
:106640009847194B1C70164A53785BB2002BFBDB42
:10665000134E7068C004C00E144B98470500124BCF
:106660001C707668F602F60F114B1C700C4A5378BA
:106670005BB2002BFBDB0A4B9C682402240C0D4B05
:106680009847002E07D1012C07D9210028000A4B7A
:106690009847050001E00134E540280070BDC04680
:1066A000000C0040A94C0100040C0040996101005D
:1066B000080C0040E94C01008584010010B504007D
:1066C000064B9847064B1C70064A53888021C90127
:1066D0000B435380044B984710BDC046A94C0100A2
:1066E000020C0040000C0040E94C010010B5040011
:1066F0000F4B98470F4B1C700F4A53881B05180F00
:1067000053880E490B40538053880D490B405380EA
:1067100011008022D2014B881342FCD106494A88DD
:1067200003020648024013434B80064B984710BDB6
:10673000A94C0100020C0040000C0040FFF0FFFFDC
:10674000FFBFFFFFE94C010010B50C7824020443A1
:10675000024B9847A4B2024B5C8010BDED6601006D
:10676000000C004010B50400064B9847064B1C7007
:10677000064B5C882405240F054B98472000054BE9
:10678000984710BDA94C0100020C0040000C0040CD
:10679000E94C01003166010030B5D378002B35D1CA
:1067A0001378802B29D01B0680246402234354785D
:1067B0000225AC4306D19478002C20D18024A40279
:1067C000234341605478013C012C1CD90D042D0C4D
:1067D000A024E4052C431C4384620D0CD024240621
:1067E0002C431C438462D478002C22D15B031CD53B
:1067F0009378012B1ED0416117E00023D7E7C02416
:10680000E4022343DDE70D4C2340DFE741600C0445
:10681000240CA023DB05234383620C0CD0231B062E
:1068200023438362D378002B03D15378013B012BA0
:1068300002D930BD8161F8E78160FAE7FFFFFBFF15
:1068400010B50A00C1090023002904D14309DB0166
:1068500005498C4663441F242040012181401800D3
:10686000024B984710BDC0460044004199670100A3
:106870007047000010B5054B9847054B9847054BEE
:106880009847054B9847054B984710BDB5630100E5
:10689000194D010071680100BD4D010071680100D2
:1068A000F0B5C64600B580000E4BC7583B68DE6A9F
:1068B000BB6B7A6B13401E4000240B4B984602E0E2
:1068C0000434302C0AD04346E5583542F8D03B1901
:1068D0005B68380098473B68DD62F1E704BC90468E
:1068E000F0BDC04644310020EC92010010B50020FC
:1068F000014B984710BDC046A168010010B50120AA
:10690000014B984710BDC046A168010010B5022098
:10691000014B984710BDC046A16801000420714694
:10692000084202D0EFF3098001E0EFF308804169EB
:1069300074E000BE70470000F8B52A4A2A4B9A421C
:1069400011D01A00294B9A420DD2294A03339B1ABF
:106950009B0801339B000022234822498C58845015
:1069600004329A42FAD1234A234B9A420AD2D343A1
:1069700021495B1803218B4304339B18002102C279
:106980009342FCD11D4AFF211D4B8B439360FD397F
:1069900090235B001B4AD1501B4AD3780325AB439D
:1069A00002242343D370D3780C27BB4308263343F8
:1069B000D370164B987B302290432022104398735B
:1069C000997BB943314399739A7BAA4322439A73C3
:1069D0000F4A536880210B4353600E4B98470E4B70
:1069E0009847FEE7209A0100000000207400002074
:1069F00004000020740000206831002000ED00E059
:106A0000002001000070004100500041004800419A
:106A100000400041C5870100718301008EB003680A
:106A20000D9343680C9383680B93C3680A930369BF
:106A300009934369089383690793C36906930A4BD3
:106A40001B680593094B1B680493094B1B68039350
:106A5000084B1B680293084B1B680093074B1B688D
:106A6000019300BE0EB0704728ED00E02CED00E071
:106A700030ED00E03CED00E034ED00E038ED00E00A
:106A80000300064A1268002A04D0044A1068C3189A
:106A9000136070470249014A1160F6E7E02B0020BD
:106AA0006851002030B587B0040001AAA0231B0163
:106AB000138000239370D370FA21C900D180012183
:106AC00011710420107253729372D3721173517347
:106AD000144BD38106231374134D14492800144B0F
:106AE00098472800134B98470120012C01D907B083
:106AF00030BD2000104B98470300032806D120002A
:106B00000D4B984703000120032BF0D0002B06D13A
:106B100020000A4B9847431E98418000E7E7012078
:106B2000E5E7C046DE0700005031002000140040B9
:106B3000B14F01004D4E0100154C0100514C0100B8
:106B400010B5054B9847031E04D00320022B00D03C
:106B5000023810BD0020FCE7154C0100F0B5DE4600
:106B60004F464646C0B584B001900D0014001F008A
:106B7000184B984706000120002E05D104B01CBC1C
:106B800090469946A346F0BD03A90198124B984739
:106B9000B14632007A431219039B01337343042038
:106BA0009A42EBD8002F11D0730298467B1C9B466B
:106BB00001270A4E2A0021000198B047002807D17A
:106BC00001374C4445445F45F4D1D7E70020D5E771
:106BD0000120D3E7494C01002D4C0100694C010014
:106BE000F0B5DE464F464646C0B584B001900D0074
:106BF00014001F00184B984706000120002E05D1F5
:106C000004B01CBC90469946A346F0BD03A9019868
:106C1000124B9847B14632007A431219039B013355
:106C2000734304209A42EBD8002F11D07302984688
:106C30007B1C9B4601270A4E2A0021000198B04781
:106C4000002807D101374C4445445F45F4D1D7E7CC
:106C50000020D5E70120D3E7494C01002D4C01006D
:106C6000894C010010B582B0140001290BD0002915
:106C700020D002290FD00420032902D10123136060
:106C8000002002B010BD01A90E4B9847019B0133B3
:106C900023600020F5E70C4B9847431EDBB2012B25
:106CA00004D9031FFB2201201342EAD100232370E1
:106CB0000020E6E7054B9847002801D00320E0E7D5
:106CC0000020DEE72D4C0100494C0100154C01006D
:106CD00000B583B069460F480F4B98476B4658790B
:106CE00040051B791B0418436B469B78DB02184355
:106CF0006B465B785B0118436B461B785B08184357
:106D00006B46DB88054A944663445B06184303B030
:106D100000BDC04650310020394F010044F8FFFF4C
:106D200010B5002A05D00023CC5CC4540133934233
:106D3000FAD110BD002A05D0030082181970013362
:106D40009342FBD17047020002398369023B002065
:106D5000994203D290784143906A08187047020024
:106D600001000B3100204308C001034310781818BC
:106D7000C0B201328A42F6D17047000010B5002837
:106D800010D002780923002A01D1180010BDC28852
:106D90008A42FAD14078044B98470323C007C017B2
:106DA0000340F2E70923F0E7416B010070B50400EE
:106DB0000A0001003031407801231F4DA84703230A
:106DC000002801D0180070BD1C4BE35C1B021C4A5C
:106DD000A25C1A431B4912B202238A42F2D16733E2
:106DE000E35C1B066822A25C120413436622A25CC9
:106DF00013436722A25C120213431B021B0A124AAE
:106E0000934216D08523E35C1B068422A25C120405
:106E100013438222A25C13438322A25C1202134317
:106E20001B021B0A094A94466344581E8341DBB285
:106E3000C8E70023C6E7C0465D6B01002F020000D3
:106E40002E02000055AAFFFF46415400BABEABFF18
:106E5000F0B5D6464F464646C0B5150003681C78C7
:106E6000303C092C0ED85A783A2A01D000240AE086
:106E7000023303600B20072C05D91CBC90469946B1
:106E8000A246F0BD0024A300C54A9E580E60002E05
:106E900000D1E8E03378002B0DD07078C14B9847D3
:106EA0000300C20707D40020002DE6D05B0700D402
:106EB000DBE00A30E1E700233370E0B27070BA4BD8
:106EC000984703000320DA07D7D4002D02D00730FB
:106ED0005B07D2D400213000B44B98470300002454
:106EE000012800D19AE0032B00D1C0E00D20002B37
:106EF000C3D13C33F25C1202013BF35C13438022AA
:106F000092001BB29342B8D14723F35C1B02BB3AF9
:106F1000FF3AB55C1D430DD15723F55C2D06013BAF
:106F2000F35C1B041D435423F35C1D435523F35CA6
:106F30001B021D43F5614023F25CF270531E0D20CD
:106F4000012B9AD83D23F15CB170002995D04B1EDE
:106F5000194292D14223F35C1B023430305C184357
:106F6000804630810D2043461B0700D085E744232F
:106F7000F35C1B023630305C03430DD15333F35CBA
:106F80001B065220305C000403435020305C034356
:106F90005120305C000203433F20305C00023E275A
:106FA000F75D0743BA460D20002F00D165E76A431D
:106FB00091464246170957444F44BB4200D25CE712
:106FC000D81B7B4B984703000D20002B00D154E7C2
:106FD000784A9A4292415242013277498B4248D8CC
:106FE0000233B361E719B762544434620D2041465D
:106FF000002900D141E74C447462022A2CD15B0085
:107000006E498C4663445B0A0D209D4200D234E7F2
:1070100001235B4233610023F360B6E0F233FF33B8
:10702000F35C0D20002B00D127E7FA23FF33F45C3B
:107030002406013BF35C1B041C43FB235B00F35C55
:107040001C43F823FF33F25C12021443210030008A
:10705000564B9847030046E703215943490801204E
:107060000340CB18CCE70C2007E7002005E7012000
:1070700003E70233B361E719B7625246A2183262DE
:107080000D204246002A00D0F7E65F22B25C1206CD
:107090005E21715C09040A435C21715C0A435D2135
:1070A000715C09020A4372629B00444A944663443D
:1070B0005B0A0D209D4200D2DFE601235B42336173
:1070C0000023F36073716133F35C1B026022B25CD6
:1070D0001A43121972613100303170780123384C33
:1070E000A0470322002850D1364BF25C1202364BE7
:1070F000F35C134335491BB203228B4245D1332342
:10710000F35C1B062F32B25C120413433022B25CD4
:1071100013433122B25C120213432D4903228B42E6
:1071200033D12C4BF35C1B062B4AB25C1204134385
:1071300085229200B25C1343284AB25C12021343C8
:10714000274903228B4220D1264BF35C1B06264A9B
:10715000B25C1204134387229200B25C1343234AA9
:10716000B25C12021343F360214BF35C1B06214A0D
:10717000B25C1204134386229200B25C13431E4A8F
:10718000B25C120213433361032232701B4A13882C
:1071900001339BB21380F3800020F06230716CE603
:1071A000E42B0020416B0100A56A0100AD6D0100D8
:1071B00085840100F50F0000F5FF0000FF010000CD
:1071C0005D6B01002F0200002E02000055AAFFFF98
:1071D0005252614117020000160200001502000021
:1071E000727241611F0200001E0200001D020000B9
:1071F0001B0200001A02000019020000042C0020EB
:10720000F0B5CE4600B582B004000F00C56A8D42CD
:107210003FD00379002B07D10023002F2CD1180079
:1072200002B004BC9146F0BD30239C4684446346C2
:1072300061460193407801232A00174EB04701238D
:107240000028ECD100232371236AE2699446634449
:107250009D42E1D2E678012EDED90F4B9946E369D3
:107260009C466544607801232A000199C847013E85
:10727000F6B2012EF3D1CFE721003031607801332F
:107280003A00064DA84701230028C8D1E762002331
:10729000C5E70023C3E7C046E16B01005D6B010059
:1072A000F8B505000C00012974D90120AB69994299
:1072B00071D22B78022B34D0032B49D0012B02D072
:1072C0000120404267E04E087618710A2B6A9C46FE
:1072D00061442800304B9847002802D001204042EA
:1072E00059E0F305DB0DEB1830331F780136710AD6
:1072F0002B6A9C4661442800274B9847002802D0FF
:107300000120404247E0F605F60DAD1930352878EA
:1073100000023843E30701D500093CE00005000DF9
:1073200039E0090A2B6A9C46614428001A4B9847A9
:10733000002802D0012040422DE06400FF235B00C2
:107340001C402D1930356B781B022878184322E039
:10735000C9092B6A9C46614428000F4B98470028B6
:1073600002D00120404216E0A400FE235B001C4036
:1073700023003033EB18D87800069A7812041043B3
:107380002C193034227810435B781B02184300011B
:10739000000900E00120F8BD01720100F8B5040009
:1073A0000D00E18081680220012903D023689A69D9
:1073B000914200D3F8BD002919D11A78032A13D0BD
:1073C0000022E2601A890220AA42F3D92A0992B265
:1073D0005B6A9B182361236830330F2215406D01CF
:1073E0005D1965610020E5E7596A0029E8D09E78BB
:1073F0003601B54213D3AD1BADB2104F00E01D00F6
:107400002068B8470100431C12D0012812D9236814
:107410009B69984210D2AB1B9BB2B542EFD2E160A0
:107420002068074B98472B099BB218182061D2E7B8
:107430000120BFE70220BDE70220BBE7A1720100E7
:10744000476D0100F0B5C64600B507000C001600F8
:107450000225012902D98369994203D3280004BC7B
:107460009046F0BD0378022B53D0032B63D0022546
:10747000012B02D001233B71F0E74B08984688446A
:107480004346590A036A9C4661443B4B9847051E94
:10749000F0D14346DB05DB0DE2071FD5FB18303387
:1074A00019780F220A403101FF20000101400A43F0
:1074B0001A704446013401233B71610A3B6A9C46C1
:1074C000614438002C4B9847002851D1E405E40D65
:1074D0003609F6B23C1930342670CBE7FB1830334E
:1074E0001E704446013401233B71610A3B6A9C468D
:1074F00061443800204B984700283BD1E405E40D57
:107500003B1930331B780F2293433605360F1E4349
:10751000E0E7090A036A9C466144174B9847051E39
:10752000A8D16300FF2464002340FB1830331E7091
:10753000360A5E709EE7C909036A9C4661440E4B99
:107540009847051E96D1A400FE235B001C40220034
:107550003032BA18D3783C1930341B091B071E434C
:107560002670330A5370330C9370360ED67081E751
:1075700005007FE705007DE701720100F0B5C64612
:1075800000B505008846002907D1C668002E0DD039
:1075900083699E420BD3012609E0264B98470128B8
:1075A0003DD9AB694646984201D23DE00126340000
:1075B000204F0AE021002800B84700280DD0431CC6
:1075C00032D0012830D0B4422DD00134AB699C4276
:1075D000F0D3012E25D90224ECE7174A2100280018
:1075E000164B9847002813D14346002B09D1EC6075
:1075F0002B695A1C1BD0013B2B6101236B712000AE
:1076000012E02200414628000C4B98470028EED09B
:1076100001384242424150420123184304E0012014
:1076200002E0002000E0002004BC9046F0BD2000F5
:10763000FAE7C046A1720100FFFFFF0F4574010089
:10764000F8B5CE46474680B504000D00022001295A
:1076500002D9A369994203D30CBC90469946F8BD60
:10766000134F144B98460123994603E03500A36954
:10767000B342F1D929002000B847061E11D00128D5
:1076800011D0431C11D0002229002000C04700283F
:10769000E2D123695A1CE9D0013323614B4663715F
:1076A000E4E70020D8E70220D6E70120D4E7C0466F
:1076B000A172010045740100F8B5D646474680B571
:1076C00006000D00C4880134A4B20420002C03D1AC
:1076D0000CBC90469A46F8BD3369002BF8D00F27B2
:1076E00027400FD101333361F168002904D1336899
:1076F0001B89A342ECD905E030688378013B22095D
:107700001A4207D0F480336830337F01DF19776184
:107710000020DDE72C4B9847804602204346012B92
:10772000D6D901334BD033689A6990453FD30230A4
:10773000002DCDD0F1681800244B984780460720D3
:107740004346002BC4D00538012BC1D0013801338A
:10775000BED0002130681E4B984703000120002B4B
:10776000B6D130683030802292000021194B984702
:10777000356841462800184B9847E86200250123E8
:107780009A4633689A78AA420ED952461A71002155
:1077900030680F4B9847002813D13268D36A013301
:1077A000D3620135EDB2ECE7DA6A521BDA62434686
:1077B000F36041463068084B98473061A2E70120EA
:1077C00086E7012084E7C046A17201007D750100B3
:1077D00001720100356D0100476D0100F0B5DE4614
:1077E00057464E464546E0B583B0050000215A4B4A
:1077F0009847071E00D09EE0FF2399469A46574BB4
:107800009B461BE00F2B30D05346002B05D12000A8
:10781000534B9847814500D18DE001235B422B8477
:10782000A869C37ADB0700D47DE0FF239A460021D4
:1078300028004C4B9847071E00D07CE02969286837
:10784000D847071E77D16C692678002E00D180E0DA
:10785000E27A3F231340E52E00D177E01207D1D51D
:107860000F2B02D0FF239A46E1E7EF69002FDED00D
:10787000730618D5637B994640239E43EB882B847F
:10788000637B0093FF2292464B45D0D12378BF3AC9
:107890009343013B5A00D218920092469A44012227
:1078A000002399461DE0B245EAD0FF239A46BEE781
:1078B0002D4B984701905346FE2B1FD8012353446C
:1078C000984653465B00D85B274B98470200019BC4
:1078D000834213D1C24601239C46E1444B460D2B03
:1078E00011D0224B4946C95C63185B781B02605C6F
:1078F0001843002ADCD11E4B9842ECD0009B9946DD
:10790000FF239A4693E723785B0606D5002A04D026
:1079100053465B00DB5B002BF0D1013EF3B29A468D
:10792000009B994683E70023E15CC25C91420AD147
:1079300001330B2BF8D1380003B03CBC904699467C
:10794000A246AB46F0BDFF239A4670E7FF239A4656
:107950006DE70427EFE7C0469D7301000172010047
:107960005F6D0100B9760100358301001C930100B1
:10797000FFFF0000F0B5DE4657464E464546E0B5EF
:1079800089B004008769C3699A4605AD0C223900A5
:107990002800A74B9847EB7ADB0700D470E0002360
:1079A000FB72E3610B2205A93800A14B9847012324
:1079B00003AD1E00A04649E0013829184A701B0992
:1079C0009BB2002B07D0210019400A003032392A1F
:1079D000F2D90732F0E77E332B5400280AD03B78E7
:1079E000202B09D000230133984207D0FA5C202ACB
:1079F000F9D109E0030007E0002305E0030003E0FC
:107A0000FA540133072B05D820220728F8D82A5C1E
:107A10000130F5E74046874B984700281CD10136D6
:107A2000B6B2642E15D00B2205A93800804B9847BA
:107A30003300052E0AD951465A08DB0313430A883E
:107A40009B189BB202310A88002AF5D107200F2427
:107A5000B9E70723984606E044468046642E00D1E5
:107A6000A5E0042807D0404609B03CBC90469946A2
:107A7000A246AB46F0BD05ABDB7AFB725346E36131
:107A800005ABDB7A012293469B0711D553461B8831
:107A9000002B1BD000205246013080B243009B5A7D
:107AA000002BF9D119300D21634B984783B29B46C7
:107AB00000212000614B984780460028D3D18246A0
:107AC00000255F4F00265F4B99460BE00020E9E759
:107AD0006B1C9BB29B456DD01D0001212000C84747
