:020000021000EC
:10200000585F0020C5B10100A9B10100A9B10100CC
:1020100000000000000000000000000000000000C0
:10202000000000000000000000000000E52F01009B
:102030000000000000000000C13001000531010077
:10204000A9B10100A9B10100A9B10100ED920100FF
:102050006D8F0100A9B10100A9B10100A9B1010072
:10206000A9B10100159701002597010035970100DE
:1020700045970100559701006597010079B101006E
:1020800089B1010099B10100612D0100712D01009C
:10209000812D01000000000000000000A9B1010036
:1020A000A9B10100A9B10100A9B10100A9B10100C4
:1020B0000000000010B5064C2378002B07D1054B1B
:1020C000002B02D0044800E000BF0123237010BDA4
:1020D0007402002000000000A4330200084B10B579
:1020E000002B03D00749084800E000BF07480368F9
:1020F000002B00D110BD064B002BFBD09847F9E711
:102100000000000078020020A4330200A433020083
:1021100000000000F0B5CE46474680B583B02748A2
:10212000274B98470024274F274B9946244B984626
:102130002DE09730254B984729E02548204B9847BC
:10214000244C254E642221002448B047050000227B
:102150006323E25420001A4B9847002DF2D132221B
:1021600000211E481E4B9847002410E04B461B6878
:1021700000936846C047002C09D0013CE4B200221D
:10218000164B1A5503E06B46D81D0D4B98476B460E
:10219000D81DB847431CCCD06B4607331B780A2B9D
:1021A000CBD00D2BF3D0082BE0D07F2BDED0312C01
:1021B000E9D80A4A13550134E4B2E4E7880F020073
:1021C000F547010079480100840F0200313E01000B
:1021D000DC310200C4020020C92D01009002002061
:1021E0001BFC0100024B1A78104318707047C04660
:1021F0005D03002070B50400426893685268184976
:102200000120184DA84718490120A8472268936863
:10221000D26816490120A8472668F568636898685F
:102220002A001349134B9847002817D1B4682A0095
:10223000114920000F4B984700280BD02A000F4966
:1022400020000C4B9847002808D1802212040C4B28
:102250005A6103E080221204094B9A6170BDC046A6
:10226000E00F0200A5480100E80F0200F00F020095
:10227000F80F020089FF01000010020008100200A0
:102280000044004110B50A4B1A6801321A601B68FD
:10229000282B02D90122064B1A60054B1B68054A00
:1022A0003F210548054CA0470122054B1A7010BD7F
:1022B00084000020101002000000002075FE0100C4
:1022C000B805002010B5014B984710BD7DDA01001C
:1022D00010B5014B984710BD71DA010070B584B09C
:1022E00005000C00FF2213000B40090E0291210C87
:1022F00011400191210A0A40009202000449012084
:10230000044EB04721002800034B984704B070BD2D
:1023100030130200A548010071E6010010B5014B21
:10232000984710BD9DF2010010B582B0154B1B7887
:10233000DA0712D59A0715D55A0718D41B071BD4EC
:1023400011490120114B98470023009301221049A5
:102350001048114CA04702B010BD104901200B4B92
:102360009847F8E70E490120084B9847F3E70D49D5
:102370000120064B9847EEE70B490120034B984795
:10238000E9E7C0465D03002010140200A5480100E3
:102390003C140200A0370020A1EB010060130200F2
:1023A0008C130200B8130200E413020070B586B06B
:1023B0000400012930D0052946D0002901D006B0FB
:1023C00070BD1368002B1CDB25490120254B984765
:1023D000254A0023059304930393029301930092EB
:1023E000224B01212000224CA047002804D0214983
:1023F00001201C4B9847E2E71F490120194B9847E1
:10240000DDE71E4D2A001E490120164B9847290082
:1024100020001C4B9847D2E71278002A0FD11A4EA1
:102420003300023219491A4DA847330002221949D4
:102430002000A847184901200A4B9847BFE71749D1
:102440000120084B9847BAE715490120054B9847EA
:10245000144931228B5C022083438B54AFE7C04682
:1024600014120200A54801004012020030120200BE
:10247000B5DA01004C1202007412020000120200D0
:102480009012020089DA0100F5210100C812020051
:10249000B9DB0100F80F0200D4120200E8120200BA
:1024A0001C13020028030020F0B5D64600B59AB0F0
:1024B0000190029100280DD000290BD0874B1B788A
:1024C0001B0700D5C5E0864B30221A700A325A70BD
:1024D000844C08E084490120844B98471AB004BC1E
:1024E0009246F0BD0400601E03782F2BFAD1804B7A
:1024F0009847012800D8C1E0794FB81C21007D4BD6
:1025000098474122002109A87B4CA04709220021BD
:1025100006A8A04700230593784C0022390020002C
:10252000774B984707002000764B9847002F7DD1C6
:102530006B486F4B9847402878D82E216848724BDB
:102540009847041E3BD06A4B9847070086B2072E77
:1025500021D8210006A8674B98476148644B9847EB
:102560003F043F0CC71B3C2F0AD93C27BF1BBFB2FF
:102570003A005B4909A8654B984701239A4612E047
:102580005749641AA7B22404220C09A85F4B984744
:1025900001239A4607E03C22514909A85B4B984722
:1025A00000239A463C277C1CA4B22D2209ABDA55A5
:1025B0000126E31C09AA94466344039319E03C22D4
:1025C000474909A8514B984700239A463C27EAE718
:1025D0004A4F002209A93800494B984705003800A6
:1025E000484B9847002D17D10136494BB2B29A4259
:1025F0001CD83200474905A8474B984709AB181922
:10260000032205A9414B98475346002BE0D006A969
:102610000398384B9847DBE7314C402200212000DB
:10262000354B984709A92000324B98472C4C220083
:102630003A4901202D4B98470A2221002F48304B60
:102640009847002822D10022354B1A600820354BCC
:1026500098470023099309AB029A01992748324C05
:10266000A047002818D02548264B984720202D4BFE
:1026700098472E4901201D4B98472FE72C490120F0
:102680001A4B98472020274B984727E702002949F3
:102690000120164B984721E7214C236809998C4665
:1026A00063441A002360244D2B68244901200F4EF7
:1026B000B04722682B689A4200D20FE70F48114BAF
:1026C00098471F490120094B9847802212041D4B4F
:1026D0005A611020134B984700E7C0465D03002065
:1026E000400000205D14020060140200A5480100B3
:1026F0007BFF010031FF01001BFC01009005002061
:10270000F9C9010045CE0100D5FF0100ABFF010072
:10271000E703000084140200D9FE01008C140200BB
:10272000F4090020E521010081CB010028150200F9
:10273000B4140200F4140200B40500206415020071
:10274000981502000044004170B51400042907D810
:1027500089002C4B5B589F462B4901202B4B9847F7
:1027600070BD2B490120294B98470420294B9847DD
:10277000F6E71288636828490120244DA84723887A
:10278000C82B0FD16168254B19600022244B1A60B9
:10279000244B9942E4D8A068234B984710201D4B46
:1027A0009847DDE720201B4B9847D9E71168506810
:1027B0001D4B9847237A002BD2D01020154B9847F9
:1027C000CEE7126819490120104B984723680B3354
:1027D000C6D1174B1B781B0706D4154B1B785A071D
:1027E0000BD4144B9847BBE71348144B9847104A37
:1027F000137808218B431370EFE7042293430C4AAC
:102800001370EEE7CC0F020024100200A54801006F
:102810005C100200E521010088100200B4050020D0
:10282000F4090020A6050000A9240100C41002003C
:102830005D030020292301009005002045CE010002
:1028400010B582B02C2803D0322837D002B010BD8A
:102850000B78012B1DD0002BF8D128490120284BE3
:102860009847284A137802218B4313701B0717D40B
:10287000244B1B785A071CD401212348234B98472B
:10288000FF230093224B022207212248224CA0471B
:10289000DCE7224901201A4B9847214B9847D5E79E
:1028A0002048214B9847174A137808218B4313700F
:1028B000DEE704229343134A1370DDE74B780A786E
:1028C000C878019089780091184901200C4CA047E4
:1028D0000220174B9847174B1B78012B0AD016493B
:1028E0000948164B98470028B0D015490120044BE1
:1028F0009847ABE7134B9847A8E7C046401702003C
:10290000A54801005D030020BC0500204DDB01004F
:102910006417020070170200016D01002017020009
:102920001D6D01009005002045CE010078170200C2
:10293000E52101005C0300200012020089DA010099
:10294000A01702002923010070B51C4B98471C49B1
:1029500001201C4B98471C4E1A4C09E01B49A0470C
:102960001B490120A0471B4D0020A8470228FBD18E
:102970000020B0470128F1D00028F9D116490130D4
:10298000104B9847154C8C22920000212000144BCC
:10299000984721000020134B98470B2807D0124975
:1029A0000120084B98470120104B984770BD0B221F
:1029B0000F490A38034B9847F8E7C046214A0100FF
:1029C000F4100200A5480100555101002C1102002D
:1029D00054110200414A01008811020060030020E6
:1029E0001BFC0100C9C90100DC110200E521010046
:1029F000AC11020010B584B001AC2000074B984721
:102A00003723019300236360013323720133E372A0
:102A100021000720024B984704B010BD45900100EB
:102A20005990010010B5002207210448044B984733
:102A300000210720034B984710BDC04685220100A6
:102A4000018F01002D8F0100F0B591B064206E4B15
:102A5000984700226D4B1A706D486E4B984703A83B
:102A60006D4B98476D4C03A920006D4B9847200093
:102A70006C4B984703A86C4B98476C4B0793049496
:102A800003A96B486B4B9847021E1EDB6A496848D6
:102A90006A4B984703AC2000694B9847694BA36089
:102AA00080239B00E360684A22616361674B238057
:102AB000674BA38021006748674B9847021E09DADD
:102AC00066490120664B9847FEE766490120644B42
:102AD0009847FEE764495F48644B9847021E18DB3D
:102AE000634B9847634B9847634B984718220021E4
:102AF0000AA8624B9847624B9847624B0A930AA810
:102B0000614B9847021E09D060490120544B9847F9
:102B1000FEE75F490120524B9847FEE701255D4BD8
:102B20001D705D4B98475D495D485E4B98475E4C14
:102B300022005E4928004A4B9847FA2080005C4BEF
:102B40009847FF2300935B4B0222072120005A4C39
:102B5000A0472E4B1A7830231A420BD1574E2F4DD7
:102B6000574C0020B0472800A047284B1B78302244
:102B70001A42F6D053490120394CA047524901204E
:102B8000A047524B9847FA2080001F4B98470022DD
:102B9000404B1A70404B98474D494E48414B98471F
:102BA0004D492C484D4B9847002802D1434E444D87
:102BB00018E04B4901202A4B9847F7E7494F380066
:102BC000494B9847030000240194022200923A00E6
:102BD00046492048464FB847464B1C700AE0322011
:102BE000094B98470020B0470C48A847414B1B7839
:102BF000002BE3D13423174AD35C002BEFD06421A0
:102C000010003D4B9847EAE7313E01005D0300208C
:102C1000CC150200F5470100E5F40100483700201B
:102C2000F1F401009DF50100FDE40100A60500009E
:102C3000A037002025E5010049270100D9E5010062
:102C400045DA0100F4050020F4070020692D00009A
:102C500070170000BC0500208DD90100301602005D
:102C6000A5480100E8150200AD23010061DA01006A
:102C700049290100F5290100252A01001BFC01005A
:102C8000395A0100412801005D69010098160200CF
:102C9000641602005C030020CD870100DD220100E4
:102CA0001D2301004D88010070170200C4160200A8
:102CB000F959010064170200016D0100896A0100E1
:102CC00025F60100E8160200101702001188010025
:102CD000C5220100D12201000012020089DA0100A0
:102CE000A0170200000000207BFF0100C8120200B4
:102CF0007DDB0100B8050020DDDB010070B5800040
:102D0000164BC45823689D7B227E637E13401D4072
:102D1000EB0706D4AB070BD4EB0610D4AB0615D4E7
:102D200070BD2000A3689847012322689373F1E7E0
:102D30002000E3689847022322689373ECE72000A1
:102D400023699847102322689373E7E7200063699B
:102D50009847236820229A73E2E7C046883800200B
:102D600010B50020014B984710BDC046FD2C010056
:102D700010B50120014B984710BDC046FD2C010045
:102D800010B50220014B984710BDC046FD2C010034
:102D900070B50A00094B1B68002B0AD0074C256848
:102DA0002B685968064B984768682060431E984115
:102DB00070BD0449014B1960F0E7C046FC090020D2
:102DC000ABFF010088000020F0B5DE4657464E46B6
:102DD0004546E0B583B0060000910192394B1B686F
:102DE000002B11D01B689B6832000199009898470E
:102DF000002802D10022334B1A6003B03CBC90463D
:102E00009946A246AB46F0BD2F4C2E4B1C602F4B73
:102E10009946202398462E4B9B462A4B9A460AE019
:102E2000020029003000D84700280DD064685346BE
:102E30001C60002C3ED027683D682800C847335CE2
:102E400042469343F2D1EBE73F7B7FB2002F2DDB6D
:102E50003378002B28D0320000250021012408E01F
:102E600001290AD001356DB2210001321378002BFF
:102E700005D0202BF4D00100F7E72100F5E7012968
:102E80000FD0104B1B68002B14D0AF42AAD0019A70
:102E900010490098104B984700220A4B1A600020F6
:102EA000ABE7013D6DB2ECE70025EAE7054B1B6897
:102EB000002B97D1019A09490098074B98470020A9
:102EC0009BE7C046F8090020880000207BFF010036
:102ED00089FF0100C4170200ABFF01001C180200AB
:102EE000030008334360012252428260C3600361E1
:102EF00000230360704700230361704743684B6001
:102F00009A688A609A685160996008610368013321
:102F10000360704730B50C6802000832631C02D1B0
:102F2000026904E01A0053681D68AC42FAD2536883
:102F30004B6099608A6051600861036801330360E7
:102F400030BD036942688168916082684168516060
:102F50005A68904206D0002202611A68013A1A604B
:102F60001868704782685A60F5E7000082B0002355
:102F70000193064B1B68013301D072B6FEE772B6AF
:102F8000019B002BFCD002B07047C046900000208F
:102F90000B4A13681868203080F30988022080F3F8
:102FA0001488BFF36F8F3FBCAE4608BC04BC62B64A
:102FB0001847C046C046C046C046C046C046C04688
:102FC0001831002010B5031F802464041C60043BEA
:102FD0001960043B02491960143B1A60403810BD67
:102FE0006D2F01007047000070B5134B1968FF2268
:102FF00012040A431A601968FF2212060A431A6073
:103000000E4D00242C600E4B1C6000200D4B984789
:10301000FA2189000C4B984701380C4B18600723A4
:103020002B600B4B1C600B4B98470B4B98470B4B83
:103030009847002070BDC04620ED00E010E000E0A1
:1030400018E000E0D9A8010029F8010014E000E030
:1030500090000020912F0100713E01006D2F0100B2
:1030600080225205014B1A607047C04604ED00E013
:1030700072B6044A136801331360BFF34F8FBFF376
:103080006F8F704790000020064B1B68002B01D10A
:1030900072B6FEE7013B034A1360002B00D162B613
:1030A0007047C04690000020EFF3108072B6704762
:1030B00080F310887047000000000000000000004E
:1030C000EFF309800E4B1A6820381060F0C04446B8
:1030D0004D4656465F46F0C008B572B600F0C8FED1
:1030E00062B60CBC116808681030F0C8A046A9464A
:1030F000B246BB4680F309882038F0C81847C0465E
:103100001831002010B5074B98470400064B98472C
:10311000002803D080225205044B1A602000044B83
:10312000984710BDA9300100113C010004ED00E0FA
:10313000B130010070B50400430702D007239C435F
:103140000834134B9847134B1B68002B12D0124BBB
:103150001B68E418114A944213D8A34211D20D4AB5
:103160001568ED180C4B1C600D4B9847002D0AD0CC
:10317000280070BD07220B4B08339343054A1360A8
:10318000E5E7074B9847084B98470025F0E7C0460E
:10319000F53B0100000A0020143100200727000041
:1031A000313D0100040A002001F80100002801D08F
:1031B00072B6FEE770470000024B1B680248C01A57
:1031C0007047C046143100200827000010B50400E5
:1031D000034B9847A46B034B98476042604110BD76
:1031E000713001008930010070B504001600856B54
:1031F000026C002A0BD100202368834204D160684E
:10320000164B9847002363600135A56370BD002EFF
:103210000ED18068124B9847A368226C9446634491
:10322000A360002062689342EED32368A360EBE7BB
:10323000C0680B4B9847236C5B42E268D218E2608F
:1032400021688A4203D2626894466344E3600020A6
:10325000022ED9D18542D7D0013DD5E79541010055
:10326000E5FB010070B582B001900A00846C002C6F
:1032700005D0A16BE36B994203D372B6FEE772B639
:10328000FEE7A16B00268B4202D8300002B070BD71
:103290004523E55C6DB201A920000A4B9847060062
:1032A0006B1C0AD1636A002BEFD020002430064B40
:1032B00098470028E9D00126E7E701356DB245239C
:1032C000E554E2E7E93101005940010010B50C0076
:1032D000026C002A0BD0C3689B18C36041688B4204
:1032E00001D30368C360C1682000014B984710BD3B
:1032F000E5FB0100F8B50700254B98474523FC5C2A
:1033000064B2002C1CDD234E234D0BE07B6A002BA6
:1033100016D038002430A84700280ED1013C64B2F2
:10332000002C0DD0BB6C002BF0D000213800B04732
:103330000028F3D0194B9847F0E7184B9847EDE772
:10334000FF224523FA54164B9847114B98474423C4
:10335000FC5C64B2002C14DD3B69002B11D03D00F5
:1033600010350D4E06E0013C64B2002C09D03B69DB
:10337000002B06D02800B0470028F4D0074B984710
:10338000F1E7FF224423FA54054B9847F8BDC046A5
:1033900071300100653201005940010069410100AE
:1033A0008930010070B504000D00002821D0174BB2
:1033B00098472268216CE36B4B43D0186060002073
:1033C000A063A2605B1AD318E360FF234422A354D6
:1033D0000132A354002D11D12369002B05D0200008
:1033E00010300B4B9847002805D10A4B9847012015
:1033F00070BD72B6FEE7084B9847F6E72000103024
:10340000064DA84720002430A847EEE771300100A0
:10341000594001008930010061300100E12E0100B6
:1034200070B506000D00002801D172B6FEE7080055
:1034300070434C300A4B9847041E0ED0002D03D029
:1034400003004C33036000E02060E6632564012143
:103450002000044B98470023A364200070BDC046A1
:1034600035310100A5330100F0B5CE46474680B5A1
:1034700085B004000F0001921D0000280CD0002927
:103480000CD0022D0FD04E4B9847002810D1019B35
:10349000002B11D072B6FEE772B6FEE7036C002B6C
:1034A000EFD072B6FEE7E36B012BECD072B6FEE70D
:1034B0000026444B98464CE00026FAE72A003900E3
:1034C0002000414B9847A36C002B0FD0290020000F
:1034D0003E4B9847002801D03D4B98473D4B9847BD
:1034E000012005B00CBC90469946F0BD636A002BE4
:1034F00008D020002430384B98470028EED0344BB9
:103500009847EBE70028E9D0314B9847E6E7314B85
:1035100098470020E5E72F4B984701A902A82F4BB9
:103520009847002844D1274B9847A36B9946E66BF0
:10353000284B9847B14535D1200010300199284BD0
:1035400098472000274B9847274B9847002826D0BC
:103550000126C047A36BE26B9342AFD3022DADD0DF
:10356000019B002BD3D0002E02D102A81F4B9847FD
:10357000184B98471E4B9847124B98474423E35CDF
:103580005BB2013302D100224423E2544523E35CC1
:103590005BB20133BFD100224523E254BBE70C4BA1
:1035A0009847D5E720000F4B98470F4B9847CFE738
:1035B00020000C4B98470C4B9847002091E7C046E1
:1035C0007541010071300100E931010065320100EF
:1035D000613001008930010059400100F9400100CB
:1035E000F53F0100F5320100313D0100E1400100ED
:1035F000F53B0100F0B583B00400019116001D00F9
:10360000002812D0019B002B11D0022D14D0284B82
:1036100098470090A36BE26B9A422FD80025009840
:10362000244B9847280003B0F0BD72B6FEE7036C48
:10363000002BEAD072B6FEE7E36B012B1AD072B60C
:10364000FEE7636A0125002BE9D0200024301A4BE5
:1036500098470028E3D0002E0AD001233360DEE72C
:103660007B1C5BB24522A3540125D8E70125D6E790
:103670000125D4E70E4B98470090A36B4523E75CE8
:103680007FB22A00019920000C4B98477B1CE7D1A0
:10369000A36C002BD5D029002000094B98470125A9
:1036A0000028BCD0002EE1D001233360B7E7C0462C
:1036B000A9300100B130010059400100E931010099
:1036C00065320100F0B5C64600B584B004000F00B5
:1036D000019200280AD000290AD0424B98470028BE
:1036E0000BD1019B002B0CD072B6FEE772B6FEE741
:1036F000036C002BF1D072B6FEE700263A4B9846D9
:103700002FE00026FAE739002000384B9847013DAA
:10371000A5632369002B07D020001030344B984755
:10372000002801D0334B9847334B9847012004B011
:1037300004BC9046F0BD304B98470020F7E702A844
:103740002E4B984716E000224423E2541DE000224D
:103750004523E2541EE02000294B9847294B984707
:103760000126C047A56B002DCDD1019B002BE2D0D7
:10377000002EE4D0204B9847234B98471A4B98478C
:103780004423E35C5BB20133DDD04523E35C5BB2F1
:103790000133DCD0184B984701A902A81B4B98476E
:1037A000002813D120001A4B98470028D3D02000BE
:1037B00024300199174B98472000114B9847114B23
:1037C00098470028CCD10B4B9847C9E720000C4BF9
:1037D00098470C4B984720000D4B98470028BFD0C6
:1037E0000020A4E77541010071300100CD320100D5
:1037F000594001006130010089300100E1400100C1
:10380000F5320100313D0100F53B0100F9400100B6
:10381000CD310100F53F010070B504000D00160028
:10382000114B98474423E35C5BB201330DD0452331
:10383000E35C5BB201330CD00C4B9847A36B002BBD
:103840000BD020000A4B984770BD00224423E2545D
:10385000EDE700224523E254EEE720002430320059
:103860002900044B9847ECE77130010089300100D2
:10387000F532010021400100084B1B681B68002B3A
:1038800007D0064B1B68DB68DB685A68044B1A607C
:10389000704701225242024B1A60F9E71C310020A6
:1038A000CC310020F0B5D6464F464646C0B5144B45
:1038B0009946144B9846144F144B9A464B461B6836
:1038C000002B16D0C047FB68DD68281DD047104A82
:1038D0001368013B13600A4C2368013B23600D4BC6
:1038E0009847286B0C4EB0472800B0472368002B40
:1038F000E8D10A4B1B68012BE0D9094B9847DDE75B
:103900008C3100207130010000320020432F010073
:103910008831002089300100AD31010024310020C0
:103920006130010070B504000D00174B1E68174B85
:1039300018680430164B9847631C13D03419134B86
:103940001B685C60A64216D8124B18680F4B1968AA
:103950000431114B9847114B1B689C4212D20F4BFC
:103960001C600FE0002DE9D0084B196804310C48A9
:103970000C4B984706E00C4B1868044B196804314F
:10398000054B984770BDC046143200201831002006
:10399000432F01001C310020152F0100CC310020E5
:1039A000EC310020FD2E010020310020F0B5C6468C
:1039B00000B584B001900D000293970038005B4B76
:1039C0009847061E00D181E04C20584B9847041EB2
:1039D00000D178E00663381F3018072398438046EB
:1039E0002A782D33E2542B78002B0DD0013523009B
:1039F000353320003C302A781A702A78002A03D008
:103A0000013501338342F6D100223B23E2540A9F61
:103A1000042F00D90427E762E76300262664231DEC
:103A200003931800424DA84720001830A84724618E
:103A30000523DB1BA361646266644823E654029A93
:103A4000019940463B4B984720600B9B002B00D0D0
:103A50001C60394B9847394A136801331360384B5F
:103A60001B68002B35D0374B1B68002B07D1344B1C
:103A70001B68DB6AE26A934201D8314B1C60324A10
:103A8000136801331360E36A304A1268934201D924
:103A90002E4A13609800C01880002D4B1818039907
:103AA0002C4B98472C4B9847264B1B680120002B2A
:103AB00005D0234B1B68DA6AE36A9A4231D304B01B
:103AC00004BC9046F0BD3000244B98470120404292
:103AD000F5E71B4B1C601368012BD0D11C4F38003D
:103AE0001F4EB04738001430B04738002830B04778
:103AF00038003C30B04738005030B047194B98463A
:103B00001800B047184F3800B0471848B047184859
:103B1000B0471848B047184B42461A60174B1F6011
:103B2000ADE7174B98470120C9E7C0463531010082
:103B3000F72E0100C52F01007130010088310020EF
:103B400018310020E8310020983100209C310020FD
:103B500024310020FD2E010089300100AD3101002B
:103B6000E12E0100A0310020B4310020D43100202A
:103B700000320020EC3100201C31002020310020D8
:103B80006130010010B582B0114B01930023009306
:103B9000FA2252000F491048104CA047012803D0C8
:103BA000431C13D002B010BD0D4B98470128F7D12C
:103BB00072B6012252420B4B1A6002320A4B1A6053
:103BC00000220A4B1A600A4B9847EBE772B6FEE7F1
:103BD000C8310020B4180200A5380100AD39010039
:103BE000B9420100CC310020E8310020143200201D
:103BF000E92F0100024A1368013313607047C04681
:103C000094310020014B18687047C04614320020E0
:103C1000F0B583B0384B1B68002B60D1374B1D6863
:103C200001351D60002D12D1354B1B681B68002B20
:103C300001D072B6FEE7324A1168324B1868106044
:103C40001960314A136801331360304B9847304B89
:103C50001B6800249D4233D30024294F3B681B6816
:103C6000002B29D0264B1B68DB68DE6873689D42F9
:103C700032D3331D01931800264B9847B36A002BAB
:103C800003D030001830234B9847F36A224A126859
:103C9000934201D9204A13609800C01880001F4B3E
:103CA000181801991E4B98471E4B1B68F26ADB6A75
:103CB0009A42D3D30124D1E701225242144B1A6015
:103CC000184B1B68DA6A93009B189B00134A9B5899
:103CD000012B09D9012407E00D4A1360F0E7124ACD
:103CE0001368013313600024104B1B68002B00D0B5
:103CF0000124200003B0F0BD9431002014320020D4
:103D00001C31002020310020D03100207938010002
:103D1000CC310020432F01009C31002024310020B1
:103D2000FD2E0100183100209031002018320020B3
:103D3000F8B5304B1B68002B01D172B6FEE72E4B55
:103D400098472C4B1A68013A1A601B680024002B14
:103D500003D12A4B1B68002B03D1294B9847200025
:103D6000F8BD284D2F002B68002B22D0FB68DC68A3
:103D700020001830244B9847261D3000224B9847CE
:103D8000E36A224A1268934201D9204A13609800DC
:103D9000C01880001E4B181831001E4B98471E4B50
:103DA0001B68DB6AE26A9A42DDD301221B4B1A6070
:103DB000D9E7002C01D01A4B98471A4B1C68002CED
:103DC0000ED0194F154E012502E0013C002C04D005
:103DD000B8470028F9D03560F7E70022114B1A6088
:103DE0000E4B1B680024002BB7D0104B98470134B2
:103DF000B3E7C046943100207130010088310020C3
:103E000089300100D4310020432F01009C31002073
:103E100024310020FD2E010018310020183200202E
:103E20007938010090310020113C0100613001001F
:103E300010B5041E0FD0094B1B68002B01D072B6C1
:103E4000FEE7074B984700212000064B9847064B9A
:103E50009847002801D1054B984710BD94310020A8
:103E6000F53B010025390100313D010061300100C1
:103E700010B5284B1B68002B25D10022264B1A6059
:103E8000264B1A681B6812681B6B9A4205D8234B95
:103E9000186819683431224B9847224B1B689A00E6
:103EA000D218920020495258002A10D1002B08D075
:103EB000013B9A00D21892005258002A07D1002BD9
:103EC000F6D172B6FEE70122134B1A6010BD1648F8
:103ED0009A00D118890041184C6864684C60D21867
:103EE00092000832821894420BD09A00D2189200A5
:103EF0000D498A185268D168084A1160094A13604E
:103F0000E4E760689A00D218920007498A18506066
:103F1000EBE7C04694310020183200201831002011
:103F200015F801009C3100202431002070B50500F7
:103F3000244B98472C1E1DD0251D2800224B984746
:103F4000A36A002B03D0200018301F4B984729008C
:103F50001E481F4B98474823E35C012B0DD01D4B97
:103F600098471D4B1B68002B0BD11C4B1B689C42B8
:103F70000ED070BD194B1C68DEE700224733E254B7
:103F8000EDE7104B9847164B9847124B9847ECE7D4
:103F9000114B1B68002B08D0124B1B68002B01D063
:103FA00072B6FEE7104B9847E3E7084B1A680F4BD1
:103FB0001B689A4202D00E4B9847DAE70022074B63
:103FC0001A60D6E771300100432F0100EC31002068
:103FD000FD2E010089300100E83100201831002059
:103FE00079380100943100206130010088310020CF
:103FF000713E010010B50C00002801D172B6FEE739
:10400000044B19681831044B984701212000034BD9
:10401000984710BD18310020152F010025390100E7
:1040200070B50C00150000280DD0084B1968183128
:10403000074B9847002D01D001246442290020003D
:10404000044B984770BD72B6FEE7C0461831002099
:10405000FD2E01002539010070B5C368DC68002C15
:1040600027D0250018352800154B9847154B1B689D
:10407000002B20D1251D2800114B9847E36A124AD6
:104080001268934201D9104A13609800C01880004A
:104090000E4B181829000E4B98470E4B1B68E26A0E
:1040A000DB6A00209A4203D901220B4B1A600130CF
:1040B00070BD72B6FEE729000848054B9847ECE74B
:1040C000432F0100943100209C3100202431002036
:1040D000FD2E01001831002018320020D4310020BC
:1040E000034B1B680360034B1B6843607047C0466B
:1040F000D03100201432002070B506000D000028D9
:104100001BD000291BD0134B9847134B1A687168BA
:104110002B68581C1CD0114800683468844202D0B7
:1041200001248A4205D2521A9A420AD300232B60F4
:1041300001240B4B9847200070BD72B6FEE772B6A3
:10414000FEE79B1A2B603000064B98470024F0E7EF
:104150000024EEE77130010014320020D03100203D
:1041600089300100E14001000122014B1A607047D3
:1041700018320020054B1B680120002B04D0044B93
:1041800018684342584140007047C046E83100205B
:104190009431002070B5041E2CD0184B1B68984237
:1041A00001D072B6FEE7036C002B01D172B6FEE7B8
:1041B000013B0364C26AC16B8A421DD00020002B00
:1041C00017D1251D28000E4B9847E36BE3620522AB
:1041D000D21AA2610B4A1268934201D9094A1360AC
:1041E0009A00D3189B000848C0182900074B98472D
:1041F000012070BD0020FCE70020FAE71831002004
:10420000432F01009C31002024310020FD2E0100AD
:1042100010B54160006191420BD8D21A0124836924
:104220009A4211D2011D094B1868094B9847002486
:104230000AE09A4202D20124994205D2011D054B9F
:104240001868034B98470024200010BD203200203E
:10425000152F01001C32002070B50E4B98470E4BF5
:104260001B68002B02D00D4B984770BD0C4D2800E9
:104270000C4EB0470C4C2000B0470C4B1D600C4B53
:104280001C6000220C2102200A4B9847024B186048
:10429000E9E7C0467130010050320020893001004A
:1042A00024320020E12E0100383200201C32002090
:1042B000203200202134010010B582B00A4B98470B
:1042C0000A4B1B68002B0DD0094B0193022300936E
:1042D0000023802207490848084CA047002801D045
:1042E00002B010BD72B6FEE7594201005032002004
:1042F00054320020E418020025440100AD390100C9
:1043000030B585B004001D00002814D0134B186888
:10431000002821D0019102920394052915DC104B4D
:104320009847022809D00D4B18680023002201A9E4
:104330000C4CA0470EE072B6FEE7084B186800234D
:10434000089A01A9074CA04704E000232A0001A90C
:10435000054CA04705B030BD0020FBE750320020DF
:104360007541010069340100F5350100F0B5D6460C
:104370004F464646C0B582B08046234B984782469A
:10438000224B1B68984217D30023424613601F4BF1
:1043900052461A60504602B01CBC90469946A2464E
:1043A000F0BD002300933A0000212000184CA047E4
:1043B000002804D172B6FEE7164D174B99462B68BC
:1043C0001A68002A17D0DB681F68DC68261D3000D9
:1043D000C8472000636A9847E369012BEFD1A369BE
:1043E000FB189F42DDD2636024610A4B18683100DC
:1043F0000A4B9847E3E70A4A0649106808601360C9
:10440000012342461360C2E7053C01004C32002004
:10441000014301001C320020432F0100152F010031
:1044200020320020F0B589B0534B9847534F544B7E
:104430001B681A68002A0ED0DB681C68514B98472D
:1044400005A8514B98470500059B002B5FD184427E
:1044500036D900220FE04B4B984705A84A4B9847A6
:104460000500059B002B52D1484B1B681B685A4224
:104470005A41D2B20024611B454B1868454B9847FE
:10448000454B984700283FD0414D444C002205A998
:104490002868A0470028CAD0059B0393002BF5DBB2
:1044A000079E7369002B01D0301DB84704A8364B16
:1044B0009847059B092BE9D89B00394AD3589F465A
:1044C000354B98472E4B1B68DB68DE68301D2B4B45
:1044D0009847F369012B03D0736A30009847D3E7FC
:1044E000B369E11823002A0030002E4DA8470028A8
:1044F000F2D0002300932200002130002A4CA04774
:104500000028E9D172B6FEE7284B9847BCE7224B5A
:104510009847B9E7069BB269944663441900069B25
:10452000020030001F4CA0470028AED03000736A54
:104530009847F369012BA8D1069BB1698C46634467
:104540001A000023009300213000174CA0470028D8
:104550009BD172B6FEE70699B161002906D04118D9
:104560000300020030000F4CA0478EE772B6FEE752
:1045700030000F4B984788E79DF60100432F01005C
:104580001C320020F53B01006D4301002032002069
:104590005032002019380100313D0100C5360100BC
:1045A000BC1802001142010001430100613001000A
:1045B000AD31010010B50400037C002B05D08368E9
:1045C000581CE168074B9847A1606368581CE16874
:1045D000044B98476160A368591A4A424A412274C1
:1045E00010BDC04635F9010070B505000C0014205F
:1045F000044B98470560C4600023436083600374E4
:1046000070BDC046BDFB010010B5036842689954F7
:10461000014B984710BDC046B5450100027C002300
:10462000002A05D1436880681B1A58424341DBB217
:104630001800704770B504000D000A4B9847002819
:104640000DD12368A2689B5C2B7000232374A368A0
:10465000581CE168044B9847A160002070BD012000
:104660004042FBE71D46010035F9010010B5064C3C
:104670002178064B1868064B98470122210005480F
:10468000054B984710BDC0464C39002048390020E2
:10469000094601001439002071A2010010B5064B33
:1046A00018680649064B9847431C04D00122034969
:1046B0000448054B984710BD543D0020503D002054
:1046C000354601001439002051A2010030B591B0E7
:1046D0008025AD0029003648364CA047364B18607F
:1046E00029003648A047364B18608023DB0500932D
:1046F00000230193FF2269460A8100228B72CB724C
:10470000012124206C462154013021542531635469
:10471000013163540A9305316354013163540593A5
:104720002382E3762276227762761323A37662775A
:10473000E1235B020893C4239B03039301235B42A1
:104740000C930D931F4B0E931F4B0F931F4D204C3B
:104750006A4620492800A0470028F9D11B4D2C6843
:1047600020001D4B98471F2318401E3B83401B4AC7
:1047700013602A68D369002BFCD1236802221343FB
:104780002360124C002216492000164DA847012232
:1047900015492000A8473122A35C03210B43A354F1
:1047A000303A12492000124B984711B030BDC04634
:1047B000503B0020E94501004839002050390020D5
:1047C000543D002003002A0003002B001439002070
:1047D000699E010000180042E596010000E100E03A
:1047E0009D46010039A201006D4601004C390020B0
:1047F00071A20100F0B5C64600B50500144B9847FC
:104800000024002D12D0134E134F144B984603E092
:10481000295D3868C04701342800B0478442F7D387
:1048200001210F480F4B9847002804D00E4B9847A2
:1048300004BC9046F0BD0D4C074B186821000C4B92
:1048400098470122210006480A4B9847EEE7C046E8
:10485000F53B01007BFF0100543D002009460100AB
:104860001439002091A20100313D0100503D00208B
:104870003546010051A2010010B50400054B9847D0
:10488000054B18682100054B98470400044B9847D6
:10489000200010BDF53B01004839002035460100DD
:1048A000313D01000EB430B582B00A4B1B78834213
:1048B00004D902B030BC08BC03B0184706AB019362
:1048C000054C059A7F212000044DA8472000044B89
:1048D0009847EEE75832002094380020B5010200D6
:1048E000F54701000FB410B502990120024B98471B
:1048F00010BC08BC04B01847A548010010B5064B11
:1049000019688B7F5A1E9341DBB24A7B09680348C2
:104910000078034CA04710BD5C3200208432002098
:10492000A555010010B50423002801D0180010BDC2
:104930000E4B9B7A033B012B0DD900220C4B1A70B6
:104940000A4C0C4B1C600C4B9847A37A023B584214
:104950004341DBB2EAE7054B02229A72074A1A602A
:1049600001225A7300229A77E7E7C046603200209E
:10497000843200205C320020FD480100801A0600CD
:10498000F8B5094D094F0A4E00210A48B847041EE0
:1049900007D0B047FF23034203D0013D002DF3D1E0
:1049A00000242000F8BDC046410D0300E957010076
:1049B000015801000D1B000010B582B00C4B1B68A4
:1049C000198909040123009310220A480A4CA047C0
:1049D000002801D102B010BD054B18680E3001212E
:1049E000064B98470028F5D0054B9847F2E7C0469C
:1049F0005C32002009110800595601008558010059
:104A00001159010010B5044B1B78002B00D010BDCC
:104A10000020024B9847FAE784320020F955010044
:104A200010B50422034B9A72FB32034B1A70034BEE
:104A3000984710BD6032002084320020A554010048
:104A4000F0B5C64600B588B0CB4B984704000128A6
:104A500006D0CA4B9847200008B004BC9046F0BD71
:104A6000C74B1B680122DA7200221A731A81C54BE8
:104A70009847002188204001C34B9847002807D160
:104A8000BF4B1B6803229A72BC4B98470324E2E792
:104A9000D5214900BD48BC4B98470026002825D1A8
:104AA000B74B1B68DB7ADB0700D5EBE1B44B1B6827
:104AB000DA7A09231340012B0FD180218900B448F1
:104AC000B14B98470028DBD0AD4B1B68DB7ADB0786
:104AD00003D5B04B98470028D2D0AF4B9847A84B8E
:104AE0001B6800229A72A54B9847B4E7AB4B9847D6
:104AF000431C00D1C4E10005000DD5235B00013645
:104B00009842BDD1CCE70021A5489F4B984700288B
:104B100019D19B4B1B680222DA72002188204001C8
:104B2000994B98470028ABD09E4D974F9B4E002144
:104B30009D48B8470028A3D0B047C3077DD5013DA5
:104B4000002DF4D19CE7954B9847430005D58C4B3D
:104B50001A68D37A08210B43D372002193488A4BF9
:104B6000984700288CD0864B1B68DB7ADA0700D484
:104B7000A4E18F4B9847002882D0814B1A68537C60
:104B80000721194089008B480858FA2189004143C0
:104B90005B061B0F9B0088481B584B431360937B9D
:104BA0009B0900D03CE1917D8911537D9B00107DD4
:104BB000800203430B43107EC011D17D490008439E
:104BC0001B051B0D01330721014002318B40D07CB6
:104BD0000F2101408B409B0A5360118909047748DB
:104BE000694B9847002800D14AE701230093082227
:104BF00000217348734DA847002800D140E70121E8
:104C000006A8714B9847002800D139E76F4B9847A9
:104C1000002800D134E706AB1B780F221340012B8C
:104C200000D119E1002B00D109E1022B00D118E1DC
:104C3000534B1B6810221A7305E100215848524B50
:104C40009847002800D11BE7544B9847C023DB0549
:104C500018408023DB05984205D1494B1A68D17A68
:104C600008230B43D37200215048474B9847002834
:104C700000D105E74E4B9847002800D100E7404B94
:104C80001A68937B9B061B0F022B00D1A8E007D963
:104C9000032B00D1A7E0042B04D14023137303E0BE
:104CA000012B66D012231373537C5906090F890018
:104CB000072003409B003F481858FA239B004343BA
:104CC000434809584B431360917D8911537D9B00E4
:104CD000107D800203430B431B051B0D3D498B4296
:104CE0000FD0107EC011D17D490001430133072050
:104CF000014002318B40D17C083001408B409B0A3F
:104D00005360137B3F2B7BD900210091012380222C
:104D1000920031482B4DA847002800D1B0E600256D
:104D20002E4E05A8B047002800D1A9E60135ADB246
:104D3000322DF6D1124B19688A7D92114B7D9B0062
:104D4000097D89020B4313431B051B0D214A934226
:104D500054D1224E06A8B047002800D190E6013574
:104D6000ADB2352DF6D9064B1A68069B5B08536029
:104D700044E01423137397E725490100054A010015
:104D80005C32002021560100E9570100085500005F
:104D90001011000081490100FD4801000158010087
:104DA0003A050000EF1B0000011100003B1100005C
:104DB000B94901002C1902004819020037110000FE
:104DC000331108005956010085580100115901009E
:104DD000EC180200FF0F0000081108000D58010038
:104DE0002223137360E7302313735DE706A8364B65
:104DF0009847002800D143E60135ADB27F2DF5D9A3
:104E0000802189003148324B9847002800D137E68D
:104E1000304B9847002800D132E62F4B98475EE68A
:104E2000D07D937D1B02517D09040B4303439B02FC
:104E30005B08802189008C4663445360CDE6274B94
:104E40001B6810221A73254B1B68DB7A092213405A
:104E5000012B00D038E630E6204B1B681A221A736B
:104E6000F1E706AB9B78DB09012B04D11B4B1B68D8
:104E700030221A73E7E7194B1B6820221A73E2E706
:104E800000260DE6731E9E41B3070393144D104F89
:104E9000B846144E00211448B847002800D138E61F
:104EA00003991248C047002800D132E6B047C30733
:104EB00000D428E6013D002DECD12AE6092213405A
:104EC000012B00D009E6F8E50D5801001011000093
:104ED000E957010081490100FD4801005C320020D2
:104EE000EF1B0000015801003711000029110000DC
:104EF00010B5064B98470023002801D0180010BDBC
:104F0000034B9847034B1B68DB7AF7E72549010001
:104F1000054A01005C32002010B5064B984700237B
:104F2000002801D0180010BD034B9847034B1B68A5
:104F30005B68F7E725490100054A01005C32002063
:104F40000020704770B582B00E001500164B9847D0
:104F5000041E02D0200002B070BD144B98470028F8
:104F600017D0012D19D91248124B1B68DB7A1B0789
:104F700000D47602012300932B008022920031009E
:104F80000D4EB04700280AD00C4B1D800C4B1D80E5
:104F9000E0E70C4B98470534DCE70B48E4E7094BA6
:104FA00098470524D6E7C0462549010081490100FC
:104FB000121110005C32002059560100803200208E
:104FC00082320020054A01001111080010B50C00C2
:104FD000074B9847002804D10022064B1A80053061
:104FE00010BD044A13881C1B14800020F8E7C0463B
:104FF000855801008032002010B50400144B9847FA
:105000000523002801D1180010BD002C10D000226B
:10501000104B1A80104B1B88012B0FD000210F481A
:105020000F4B984700280DD00E4B98470023EAE716
:10503000084B1A880023002AECD0E4E7094B984774
:105040000023E0E700210548054B9847ECE7C04600
:105050001159010080320020823200200C31000002
:10506000E9570100054A010070B582B00E00150035
:10507000114B9847041E16D1012D17D90F48104B1C
:105080001B68DB7A1B0700D47602012300932B00F8
:105090008022920031000B4EB047002808D00A4B06
:1050A0001D800A4B1D80200002B070BD0848E6E755
:1050B000084B98470524F6E725490100199110008F
:1050C0005C320020595601008032002082320020DC
:1050D00018910800054A010010B50C00074B9847CD
:1050E000002804D10022064B1A80053010BD044A66
:1050F00013881C1B14800020F8E7C04615590100D6
:105100008032002010B504000E4B9847052300287C
:1051100001D1180010BD002C0AD000220A4B1A80C1
:105120000A4B1B88012B09D0094B98470023F0E755
:10513000054B1A880023002AF2D0EAE7044B98476F
:105140000023E6E7955901008032002082320020DA
:10515000054A010010B504000F4B9847012819D0EB
:10516000002803D0022810D0012010BD0B4B1B5D7E
:105170000220002BF9D12000094B9847030003209F
:105180001840434258414000EFE70022034B1A55B4
:105190000220EAE70320E8E7414A010088320020C4
:1051A000F14E010010B50020014B984710BDC046DC
:1051B0005551010070B504000D00044B98474000A4
:1051C000013828602000024B984770BD194F01003C
:1051D0005551010010B501000020014B984710BD4A
:1051E000B551010010B50020014B984710BDC046D5
:1051F000414F010010B5140001220C4B98470028C4
:1052000004D0023843425841013010BD0121200032
:10521000074B984703000120002BF6D10020054BD7
:105220009847431E9841C0B2EFE7C046454F010082
:10523000CD4F0100F94F010010B50A000100002018
:10524000014B984710BDC046F551010010B5140040
:1052500001220C4B9847002804D0023843425841A1
:10526000013010BD01212000074B984703000120A9
:10527000002BF6D10020054B9847431E9841C0B241
:10528000EFE7C04669500100D95001000551010007
:1052900010B50A0001000020014B984710BDC04620
:1052A0004D52010000B583B06B46D91DFF230B7032
:1052B00001220B480B4B98470B4B1B88012B0AD044
:1052C000FC226B469A7101226B46991D0448054BDE
:1052D000984703B000BDFE226B469A71F3E7C046C3
:1052E0008C320020CD9B0100D0320020F0B583B07D
:1052F0006B46DC1DFF232370124E0122210030007B
:10530000114DA847FF23012221003000A847FF23A9
:10531000012221003000A8470C4C6B46DD1D094ED0
:10532000094F2B78FF2B09D0FF23012229003000E1
:10533000B847013C002CF4D1002000E0012003B06C
:10534000F0BDC0468C320020059A0100400D0300DC
:1053500070B582B0144B1C88012C23D0134B1988D4
:10536000134B1868134B98470123844202D9180045
:1053700002B070BD6B46DC1DFF2323700E4E012270
:10538000210030000D4DA847FD232370012221008C
:105390003000A8470A4B9847031EE8D10521094A67
:1053A0001170E4E70123E2E7D0320020C832002088
:1053B000D832002029F801008C320020CD9B01005A
:1053C000ED520100CF320020F0B583B000226B46D1
:1053D000DA71144C6B46DD1D134E144FFF2301226E
:1053E00029003000B8472B780F22190091430A1E7C
:1053F00009D0FE2B13D0013C002CEFD104220C4B22
:105400001A7000200CE05B0704D00732084B1A70BA
:10541000002005E00B22064B1A70002000E001205E
:1054200003B0F0BD20A107008C320020059A0100D6
:10543000CF32002030B583B001A901235B420B803D
:10544000144D02222800144B98476B46DC1DFF23A5
:10545000012221002800114DA84722781123134072
:10546000012B05D001220E4B1A70002003B030BD75
:105470001E231A40042A0BD00A2A04D1023A084BF0
:105480001A700020F2E70A22054B1A700020EDE79F
:105490000120EBE78C320020CD9B0100059A010032
:1054A000CF32002070B590B000232D4A137002ACAB
:1054B000012525700393049323746374A574E57424
:1054C00023752422A354183A002108A8254B984795
:1054D00080235B02E360244BA362244BE362244BF2
:1054E0002363244B6363244BA361244E220024498D
:1054F0003000244B984734682000234B98471F23E3
:1055000018408540214B1D603268D369002BFCD1C7
:1055100023680222134323601D4A002353709370B3
:105520001C49087810701C4C20706370A37001A98E
:1055300001224A708B700A70184B98472278D10963
:105540000023002904D15309DB0115498C4663442B
:105550001F21114001228A409A6110B070BDC046DF
:10556000CF3200201BFC01000200100002001100DD
:105570000200120002001300801A06008C32002084
:10558000000C00422D980100E596010000E100E0CA
:10559000DC32002094000020CC320020D1900100A9
:1055A00000440041F8B5070000220D4B1A700C00B2
:1055B0000C4B994200D91C000B4D0C4E01E0E30846
:1055C000E41A21002800B0471728F8D07900CF1935
:1055D0000749C91901220448064B9847F8BDC0463F
:1055E000CF320020809698008C3200207597010001
:1055F000CC320020D99A010010B50022044B1A7059
:1056000041000818034909180348044B984710BD86
:10561000CF320020CC3200208C320020D99A0100F9
:1056200070B582B0FF226B46DA710022074B1A7008
:105630000A24074E074D01226B46D91D3000A847AA
:10564000013CE4B2002CF6D102B070BDCF32002094
:105650008C320020CD9B0100F0B5C64600B586B067
:10566000804600920193FF220F2302A884466344E0
:105670001A700022534B1A7004AB3F32404602406E
:10568000402002431A700A0E5A700A0C9A700A0AD5
:10569000DA7019710027002304A90822092411E0F7
:1056A0007600F6B20138C0B2002808D05B00DBB249
:1056B0001D0075402D06F3D56340DBB2F0E70137DE
:1056C000052F02D07E5C1000F0E75B00012213433F
:1056D00004AC63713C4E01220F2102AB9C46614435
:1056E00030003A4FB847062221003000B84702ABDD
:1056F000D91DFF230B7001223000354EB04707241F
:1057000002ABDE1D304F324DFF2301223100380045
:10571000A84733785AB2002A0BDA013CE4B2002CD5
:10572000F2D10222274B1A70002006B004BC90462A
:10573000F0BD284A13601A071AD45A071DD4012253
:1057400093431FD143469B0420D443469B0525D455
:1057500043465B052BD4204B6A4612881A801F4BA8
:105760006A4692881A8000221D4B1A600120DCE7ED
:105770000622144B1A700020D7E70922114B1A7029
:105780000020D2E70F4B1A700020CEE7154B984748
:105790000028DAD103220B4B1A70C6E70D4900230B
:1057A0000B60FF3301220848094EB047D0E7094E8D
:1057B000FF23042231000448054FB84733681BBA61
:1057C0003360C8E7CF3200208C320020CD9B01002F
:1057D000059A0100D4320020C8320020D0320020C7
:1057E000D8320020ED52010010B582B000230093A2
:1057F0000022024CA04702B010BDC046595601001D
:10580000014B18687047C046D432002010B584B0F0
:1058100001900022144B1A70144B1988144B18680D
:10582000144B9847002903D1134B9847002810D0F8
:10583000FF23042201A91148114CA0470C4B1A6800
:10584000101D1860094B19880A4B98470120002940
:1058500001D004B010BDFF23022203A90748084C61
:10586000A0470120F5E7C046CF320020C832002013
:10587000D832002035F90100C95301008C320020D4
:10588000059A0100F0B5DE4657464646C0B582B0DF
:1058900083460022174B1A704C1EA4B2002926D052
:1058A0000026154B9A46154FD0478046002817D042
:1058B0003A885B469919FF231148124DA8473B8847
:1058C000F618114A11688C4663441360FF230222C4
:1058D00001A90B48A847013CA4B20C4B9C42E3D160
:1058E000404602B01CBC90469A46A346F0BD012338
:1058F0009846F5E7CF320020C9530100C832002096
:105900008C320020059A0100D8320020FFFF0000F1
:1059100001207047F0B5C64600B580460022154B01
:105920001A700025144F154E00E021004C1EA4B241
:1059300000291BD0B8473288434659191048114BEB
:1059400098473388ED18104A11688C4663441360F9
:105950000E4B984700280AD0002CE6D00C4B9847F5
:105960000028E2D10522034B1A7000E0012004BC9C
:105970009046F0BDCF320020A5520100C832002071
:105980008C320020CD9B0100D8320020355401001C
:10599000ED52010010B5054B9847002803D10522B0
:1059A000034B1A7010BD034B9847FBE7ED52010003
:1059B000CF3200205153010070B50020084B9847AA
:1059C0000500084CFA218900A047074B18600749D9
:1059D0002800A047064B18600522064B1A6070BDD0
:1059E000D9A8010029F801009800002040420F00CA
:1059F0009C00002010E000E030B5084B1C68084A0D
:105A0000002580214902013807D3002CFBD05460C7
:105A1000956013680B42FCD0F5E730BD980000207C
:105A200010E000E010B5034B1B68002B00D0984736
:105A300010BDC046E032002070B582B00023154A88
:105A4000136001AC01256570A370257021001B2037
:105A5000114EB04721001C20B04721002820B0473C
:105A60000E4B802252055A61802212055A610C4B5E
:105A70001B681D4203D00A4B1B689B0701D4094BCE
:105A800098470122084B1A70BFF35F8F62B600205F
:105A900002B070BDE0320020D1900100004400410E
:105AA00010E000E0B9590100A200002070B5441ECA
:105AB000002804D0024D0120A847013CFBD270BD54
:105AC000F9590100F8B5074C80277F0567618025EB
:105AD0002D0565610120044EB047A7610A20B0473B
:105AE000A561F8BD00440041AD5A010010B584B075
:105AF0000E4B186001AC20000D4B984729230193F1
:105B000000236360013323720133E3722100092013
:105B1000084B9847002209210748084B9847002165
:105B20000920074B984704B010BDC046E032002062
:105B30004590010059900100255A0100018F010094
:105B40002D8F010010B5002804D100210920044B3D
:105B5000984710BD00210920024B9847F9E7C0463D
:105B60004D8F01002D8F010030B591B0304C0E23C8
:105B7000237000236370A37001A901224A708B7007
:105B80000A700E202B4B98472278D1090023002958
:105B900004D15309DB0128498C4663441F2111407D
:105BA000012210008840986102AC22700023039308
:105BB0000493C0218903059123746374A274E27471
:105BC00023752332A354183A002108A81B4B984789
:105BD0001B4BA3621B4BE36201235B4223631A4B03
:105BE00063631A4BA361220019491A481A4B98475C
:105BF00000281AD1174D2C682000184B98471F23F6
:105C000018401E3B8340164A13602A68D369002B54
:105C1000FCD12368022213432360124B98470120D2
:105C2000114B9847002011B030BD06204042FAE7E2
:105C3000583D0020D1900100004400411BFC0100B0
:105C400002000C0002000D0002000F00804F120045
:105C5000001000425C3D00202D980100E5960100F7
:105C600000E100E0C55A0100AD5A0100F0B5DE4682
:105C700057464E464546E0B583B0032800D075E050
:105C80000E684D680C89FF226B46DA71002D27D013
:105C9000002C65D0002E00D175E00023984600232B
:105CA0009B4601223A493B483B4B9847394B9A4621
:105CB00001270422994659464B4259418B46307878
:105CC00053461B68197E3942FCD0197E3942FCD0FC
:105CD0009862197E1142FCD0494689798C4611E0C0
:105CE000002E3AD0002C3ED00023984601339B462C
:105CF0006B46DD1DD5E7604601280DD0986AC0B21D
:105D000000290DD0197E1142FCD0588B0021104281
:105D1000F1D05A831E31EEE7986AC005C00DEFE757
:105D20002870013CA4B25D44434659424B41F618E9
:105D3000002CC4D1174B196802220B7E1342FCD0F1
:105D4000002213491348144B9847002003B03CBC71
:105D500090469946A246AB46F0BD0F204042F5E77B
:105D60000F204042F2E70F204042EFE7832252002B
:105D70000A490B480B4CA0470B48A0470B48A047CB
:105D800001204042E2E7012398466B46DE1D86E78C
:105D9000583D00205C3D0020D99A0100881902007E
:105DA00098190200E5480100AC190200C019020070
:105DB00030B583B001AB00221A709A705A70134D3F
:105DC0002C682000124B98471F2318401E3B83402D
:105DD000802210498B502A68D369002BFCD18F3365
:105DE00023752376236802229343236001A90C20A4
:105DF000094CA04701A90F20A04701A90D20A047E9
:105E000001A90E20A047002003B030BD5C3D00205A
:105E1000E596010000E100E0D1900100002A06D0E3
:105E200082180B780370013001319042F9D170472C
:105E3000002A04D08218017001309042FBD17047D3
:105E400003000278002A07D00020013080B201331D
:105E50001A78002AF9D170470020FCE7024AD3786B
:105E60000133DBB2D3707047983D002070470000CB
:105E700000B583B000220A4B9A700120094B984765
:105E800001A90948094B9847002801D003B000BD7B
:105E90000221019B194301910348054B9847F5E7FF
:105EA000983D0020455B010070100000ED7101007D
:105EB000F971010010B50C4B9B780020002B0DD11F
:105EC000094B5B78002B03D1074B1B78002B06D1C5
:105ED000054A53780133DBB25370002010BD034BE9
:105EE00098470028F4D0F9E7983D0020ED6E0100B6
:105EF000054B5B78002B04D0034A5378013BDBB29F
:105F0000537000207047C046983D002010B50B4BE1
:105F10005B78002B04D0094A5378013BDBB2537005
:105F2000064B5B780020002B03D1044B1B78002B21
:105F300000D110BD024B9847FBE7C046983D0020BA
:105F4000856E0100F0B5DE46574680B589B08346C0
:105F50008A460192009310AB80CB1E8812AB1D883D
:105F60007F220A4007AB5A70187008225A80002F0F
:105F70003DD05A889219AA1892B25A80684B984715
:105F8000041E00D0C0E00023059302AAD38004932E
:105F9000049B5A461A430492049A53461B02134325
:105FA000049307AB5B88049A1B041343049304997E
:105FB0005C485D4B9847041E56D100230493049B14
:105FC00002221343049304995848574B9847041EE0
:105FD0004AD10022059202ABDA8006331B889BB2BD
:105FE000534A934248D8534C534B9A4617E007AB59
:105FF0005A8800998C46624492B25A80BEE70120CA
:10600000D047049B9B0727D502ABDA88013292B2B6
:10601000DA8006331B889BB2454A93422CD804A9E8
:106020004248A047002827D102AB06331B889BB209
:10603000F422FF329342E4D902AB06331B889BB2B1
:1060400001329342DBD83D483D4B9B4698473D4843
:10605000D8473D48D847D2E705A93C48354B984733
:10606000041E09D000230593394B9847200009B03E
:106070000CBC92469B46F0BD059B002B3FD0059B78
:10608000069307A94B889BB24B8006980822314B98
:106090009847041EE8D1069B08330693019B002B0A
:1060A0000BD00698009A19002A4B9847041EDBD1A2
:1060B000069B009A944663440693002F0ED0069BDD
:1060C000009AAD1AED180695069832003900214B5A
:1060D0009847041EC8D1069BF3180693059B9B00A6
:1060E0000493049B02221343049304991A480E4B11
:1060F0009847041EB8D1194B98470400B6E7174BD0
:10610000984703246442B1E79822FF3214491548A6
:106110000B4DA8471448A8470B48A847A6E7C04618
:10612000B55E01008C100000F971010078100000CC
:10613000E7030000ED710100AD5A0100D41C02001C
:10614000E5480100E01C0200C0190200000415002F
:10615000F15E01006D7201006C1000000D5F010026
:10616000E419020098190200F41C0200F0B5CE46B2
:10617000474680B587B00022C84B1A7199469846A9
:106180007CE0C64B059A9A60DF6004AD04222900CA
:106190000598C34B984704006B889BB26B8000281E
:1061A00032D104AB5B889BB29F4204D004AB5B88C6
:1061B000FB1A042B36DC04AB1B78012B4AD004AB52
:1061C0001B78022B76D004AB1B78042B00D18CE01B
:1061D00004AB1B78062B00D1A2E004AB1B78072B85
:1061E00000D1B8E004AB1B78052B00D1CDE08422B0
:1061F0009200AC49AC48AD4CA047AD48A047AD4873
:10620000A0470624644206E1E9225200A549A648B7
:10621000A64DA847A848A847A648A8470120A74BCD
:106220009847F8E0DC22FF329E499F489F4CA047E8
:1062300004A94A8892B20B78DBB249780091390000
:106240009F48A0479B48A04701209C4B98470624A5
:106250006442E0E0914B1B69002B20D08F4B1B69FF
:1062600004AA5078C0B25188059A0832083989B218
:1062700098478A4B9B78002B00D097E04B46DB7801
:10628000002B00D103E143461B79002B00D0FEE038
:10629000824AD378013BDBB2D3708A4EC5E0E82254
:1062A000FF3280498048814CA0478748A0478148F9
:1062B000A047DEE7794B5B69002B0BD0774B5B691E
:1062C00004AA5078C0B25188059A0832083989B2B8
:1062D0009847CEE7F022FF3272497348734CA047CB
:1062E0007A48A0477348A047C3E76C4B9B69002BD3
:1062F0000BD06A4B9B6904AA5078C0B25188059AAA
:106300000832083989B29847B3E7F822FF32654965
:106310006548664CA0476E48A0476648A047A8E776
:106320005E4B5B6A002B0BD05C4B5B6A04AA507817
:10633000C0B25188059A0832083989B2984798E75F
:106340008022920057495848584CA0476148A047BE
:106350005848A0478DE7514BDB69002B0BD04F4BC2
:10636000DB6904AA5078C0B25188059A083208390E
:1063700089B298477DE7584A4A494B484B4CA04759
:106380005648A0474B48A04773E7444B9B6A002BF5
:1063900000D16EE7414B9B6A04AA5078C0B2518885
:1063A000059A0832083989B2984762E74C4A3D4954
:1063B0003D483E4CA04704AB1978C9B25A78D2B2D6
:1063C0004848A0473B48A047474B9847041E22D166
:1063D00054E7464A33493448344CA0474448A04720
:1063E0003448A0470224644215E0424A2D492E4811
:1063F0002E4CA04703994048A0472E48A0470C24A4
:10640000644208E03D4A27492748284DA8473C48B0
:10641000A8472848A8473B4A3B492348234DA8475B
:1064200021003A48A8472348A84703A93848B0475D
:10643000041EE7D1039BDB07D7D500201F4B9847ED
:1064400001230399994303913148324B9847041E25
:10645000E1D10122114B9A70039B9F043F0DB8D0EC
:106460000023059305A92C48164B9847041E00D11C
:1064700087E6E42252000B490B480C4DA8472748F9
:10648000A8470C48A84701200C4B9847C3E70020B9
:1064900007B00CBC90469946F0BDC046983D002020
:1064A00005720100F019020098190200E548010088
:1064B000541B0200C01902004C1A0200455B010087
:1064C000641A0200ED710100A41A0200C81A020049
:1064D000EC1A02000C1B020007020000301B020035
:1064E000160200006C1B0200715E01001D0200001C
:1064F000981B020025020000AC1B02002E020000C7
:10650000C81B020057020000F8190200EC1B020031
:1065100070100000F971010084100000241A0200BC
:1065200070B514001D00002803D0002901D0002AF6
:1065300011D1002D02D0254B984770BD9E229200AC
:1065400023492448244CA0472448A0472448A04776
:106550000C204042F1E7234BDB689A421AD8214BCA
:106560009B68984226D386181E4A9368D2689B1867
:106570009E421FD822001C4B98470028DDD1194AA3
:106580009368D2689B189E4201D0002DD5D00F4B46
:106590009847D2E7A02292000D490E480E4DA84719
:1065A000104BDA6821001148A8470D48A8470C2075
:1065B0004042C2E70E4A06490648074CA0470D482C
:1065C000A0470748A0470C204042B6E7715E010093
:1065D000081A020098190200E54801001C1C02007C
:1065E000C0190200983D0020057201003C1C020009
:1065F00086020000841C020070B5040007281FD822
:106600008300164AD3589F46154B5961002070BD30
:10661000134B19610020FAE7114B99610020F6E74E
:106620000F4B19620020F2E70D4B59620020EEE794
:106630000B4BD9610020EAE7094B99620020E6E79D
:10664000084A094909480A4DA84721000948A847AE
:106650000948A8470C204042D9E7C046C4190200A7
:10666000983D0020BE020000141A02009819020092
:10667000E5480100C81C0200C019020010B52C2218
:1066800000210648064B98470648074B984707499C
:106690000320074B9847002010BDC046983D0020BE
:1066A000315E01005D5E0100ED5A01006D5E01008A
:1066B000F965010030B59FB0040015002C282ED0DC
:1066C0001B283CD006284AD00E2826D0322856D087
:1066D0002F2864D0342800D176E0112800D194E02E
:1066E000132800D1AAE0042800D1B9E0652800D120
:1066F000C8E0092800D1D7E02A2800D1E6E0202808
:1067000000D1F5E02422FF3288498948894DA84705
:1067100021008948A8478948A8471FB030BD0023F9
:10672000042203A92800864CA0470028F5D1854BF8
:106730001B68002BF1D003A92C309847EDE700230C
:10674000082203A928007E4CA0470028E5D17D4BF4
:106750001B68002BE1D003A91B309847DDE701231C
:10676000302203A92800764CA0470028D5D1754BCC
:106770001B68002BD1D003A906309847CDE7002332
:10678000182203A928006E4CA0470028C5D16D4BE4
:106790001B68002BC1D003A932309847BDE76422A3
:1067A000002103A8684B98470023642203A928000E
:1067B000634CA0470028B0D1624B1B68002BACD0C3
:1067C00003A92F309847A8E70023042203A9280033
:1067D0005B4CA0470028A0D15C48564DA847039CBD
:1067E000230AFF200340220C0240210E204000908B
:1067F0005748A8475148A847524B1B68002B00D167
:106800008BE700213420984787E70022514B1A700C
:106810000023043203A92800494CA047002800D0D7
:106820007BE703AB1A784C4B1A70464B1B68002B66
:1068300000D172E703A9113098476EE700232C229C
:1068400003A928003E4CA047002800D065E73D4B37
:106850001B68002B00D160E703A9133098475CE761
:10686000002304221CA92800354CA047002800D092
:1068700053E7344B1B68002B00D14EE71CA90430B2
:1068800098474AE7002304221CA928002C4CA04763
:10689000002800D041E72B4B1B68002B00D13CE7C0
:1068A0001CA96530984738E70123642203A9280012
:1068B000234CA047002800D02FE7224B1B68002B59
:1068C00000D12AE703A90930984726E701230422CB
:1068D00003A928001A4CA047002800D01DE7194B37
:1068E0001B68002B00D118E703A92A30984714E74A
:1068F0000023082203A92800114CA047002800D03B
:106900000BE703AB9A8828000830012303990C4C4D
:10691000A047002800D000E70A4B1B68002B00D1DD
:10692000FBE603A920309847F7E6C046141D020095
:1069300098190200E5480100641D0200C019020018
:1069400021650100E4320020315E0100D41C020008
:10695000441D0200E9320020E8320020F0B58FB07B
:1069600001220F236B441A7000285FD00268314B5C
:106970001A600022304B1A700F2068442F4B984742
:10698000041E02D020000FB0F0BD00202C4B984711
:10699000041E47D12B4901202B4B984704AD2800FA
:1069A0002A4B984704002A4F38002A4EB047AB794B
:1069B0006A792979288C00902748B0472748B04742
:1069C0003800B04726226A441A2169442448B04757
:1069D0002248B0473800B0476B7A2A7AE9792148D3
:1069E000B0471E48B0473800B047042305221321A2
:1069F0001D48B0471948B0473800B0471B4A1C49EA
:106A00001C48B0471548B04723000D33BAD1E822DF
:106A1000FF32194919480F4DA8471948A8470F4890
:106A2000A847AFE70020174B9847ABE70C24644218
:106A3000A8E7C046E4320020E9320020B973010023
:106A40007D660100B5660100F9650100D57201009F
:106A5000D41C0200E5480100241E0200C0190200F7
:106A60004C1E0200681E02008C1E0200A41E0200C2
:106A7000B01E0200BC1E0200201D02009819020078
:106A8000D41E02008174010010B5014B984710BD5F
:106A90006D610100F0B5CE46474680B5A3B00590C4
:106AA0000C0015001F002AAB1B8899462BAB1B78E6
:106AB0009846012A03D0002F3FD0022A49D0631EF6
:106AC0001F2B00D973E04B46013B9BB20D2B03D922
:106AD0004B46FF2B00D077E007AE220005995A20E5
:106AE00002AB9C466044714B9847341946340023EE
:106AF000237044334A46F25243465A1E934167225A
:106B0000B3544123F554032D6AD0022D00D1A2E0E5
:106B1000042D00D1B8E0012D00D0BBE0002302938A
:106B2000019300936C3307AA28210120604CA047F1
:106B300023B00CBC90469946F0BD5E4A5E495F4862
:106B40005F4CA0475F48A0475F48A0470C204042E9
:106B5000EEE738005D4B98474028B0D13B781A00EB
:106B6000303A362A17D80A3A062A14D9473B192B45
:106B700011D97A1C38004030137819003039362981
:106B800009D80A39062906D9473B192B03D90132FE
:106B90008242F1D193E74E4A47494848484CA047C2
:106BA0004C48A0474848A0470C204042C0E78C22F0
:106BB000920041494148424CA0474748A0474248BB
:106BC000A0470C204042B3E7444A3B493B483C4C79
:106BD000A0474348A0473C48A0470C204042A7E7B5
:106BE0003B78013BDBB207AA1370032B16D87A78E7
:106BF000511E07AB59701023110099430B291CD06B
:106C0000384A2D492D482E4CA04707AB59783648B5
:106C1000A0472D48A0470C20404289E794229200CB
:106C200025492648264CA04707AB19782F48A0478E
:106C30002548A0470C2040427AE7B91C162002AB39
:106C40009C466044194B98477B7807AA9446634456
:106C500000229A7062E738001C4B9847431E9BB293
:106C60003F2B05D8421C390007A8104B984755E721
:106C70001F4A11491148124CA0471E48A04712480C
:106C8000A0470C20404253E73E22390007A8074B9B
:106C9000984743E7184A08490848094CA04717484D
:106CA000A0470948A0470C20404241E71D5E010073
:106CB000455F01001A020000301D02009819020011
:106CC000E5480100781D0200C0190200415E010084
:106CD000260200008C1D02009C1D020039020000EB
:106CE000B01D020057020000D81D0200BC1D0200AA
:106CF00066020000F41D020076020000101E020071
:106D000030B583B006AC2488002501950094024C70
:106D1000A04703B030BDC046956A0100002070470F
:106D2000F0B583B080256D000543A5246401084FAC
:106D3000084E29002000B8470023019301A9200034
:106D4000B0470028F5D1019B9D42F2D103B0F0BDC0
:106D5000F9710100ED71010000B583B000230193CA
:106D600001A91148114B9847002801D003B000BD7C
:106D700080214900019B194301910B480C4B984716
:106D80000028F3D101A9D0204001084B98470028E2
:106D9000ECD180214902019B19430191D02040018F
:106DA000034B9847E2E7C04608140000ED7101006C
:106DB000F971010010B582B0284B1C68002C04D07A
:106DC000264B1C68200002B010BD19008020400135
:106DD000234B9847002803D00022204B1A60F1E78C
:106DE00001A920481E4B9847002803D000221B4BC6
:106DF0001A60E7E7194B1B681B4A93420ED01B4AE7
:106E0000934212D01A4A93421CD01449194A0B6873
:106E10001A40A023DB0213430B60D1E7019B012B37
:106E2000F3D0154A0D4B1A60EFE7019B032BECD012
:106E3000042B03D0114A094B1A60E6E7104A074BAE
:106E40001A60E2E70549EC208003054B98470028CB
:106E5000DBD00022014B1A60B4E7C046EC320020C0
:106E6000ED710100F4130000A0021000B002100048
:106E7000F0001000FFFFF0FFA1021000B2021000AE
:106E8000B102100030B583B0164C012501A91020C5
:106E9000A04700281CD1019B2B42F7D101A901304A
:106EA000104B9847002813D101998B0707D502236F
:106EB0009943019101300C4B9847002808D101A952
:106EC0000B20084B9847002802D10199CB0701D429
:106ED00003B030BD0123994301910B30024B984719
:106EE000F6E7C046ED710100F9710100F0B583B01D
:106EF00000230193009301A90B20274B9847041E00
:106F00002ED10199CB0706D4012319430B20234B23
:106F10009847041E24D101A901201F4B9847041E45
:106F20001ED101998B071ED505251B4F1C4E6946A6
:106F30000F20B847041E1ED1009B5B0728D40220F7
:106F4000B047013D002DF2D1AD225200154916483F
:106F5000164CA0471648A0471648A0470424644290
:106F6000200003B0F0BD0223194301200B4B9847CA
:106F7000041ED9D0F4E7A82252000A490A480B4D52
:106F8000A847009A21000C48A8470A48A847E7E705
:106F90000A4B9847E4E7C046ED710100F971010022
:106FA000AD5A0100F01E020098190200E5480100E8
:106FB0003C1F0200C0190200241F0200D57101000D
:106FC000F8B507002C4D2D4C2D4E2800A047002869
:106FD00002DB0120B047F8E72A48284B9847C3074F
:106FE00009D4274E284C254D0120B0472000A84742
:106FF000264B9842F8D1022F20D0032F28D0042FFF
:107000002FD023492348244B98470024234B9847EB
:107010000005000D224B984229D82000214B9847AB
:107020002148224CA0471A492148A0472148A0479F
:1070300021491548184B98470020F8BD1F492048A2
:10704000154CA047802149031248A0470024DDE7E2
:107050001A491B48104CA04700210E48A0470024A5
:10706000D4E70B490B480C4B98478024CEE702200D
:1070700020430C4B9847D3E714100000E171010046
:10708000AD5A0100BC0702000C000C009ED0AD10F0
:10709000541330138C100000F9710100B56D01001C
:1070A0009F030000216D0100D41C0200E54801008F
:1070B000581F0200C0190200612F52EF7DD51C3C01
:1070C000AC07020070B582B0154B0193154B0093CD
:1070D0000238012811D9012464420020124E134DB8
:1070E000009B98420ED00220B0470198A847013C6F
:1070F000002CF5D10520404209E00D4B01930D4BCA
:107100000093E8E7009A074B00209A4201D002B0B2
:1071100070BD00210248084B98470020F7E7C046A1
:107120008C10000036265302AD5A0100E1710100B7
:10713000AC070200C3C15DD7F971010030B583B05F
:107140000023019301A9A0204001124B9847041E7F
:1071500013D11149019B19400191A02040010F4B0F
:107160009847041E12D00E4A0E490F480F4DA847EB
:107170000F48A8470F48A84708E00F4A09490A489E
:107180000A4DA8470A48A8470A48A847200003B064
:1071900030BDC046ED710100FFFBFFFFF97101003A
:1071A00007020000FC1E020098190200E5480100D9
:1071B000081F0200C01902000102000010B5014BB7
:1071C000984710BD695B010010B5014B984710BD91
:1071D000B15D010010B5014B984710BD0D7F010056
:1071E00010B5014B984710BD457F010010B5014B0C
:1071F000984710BD597F010010B5014B984710BD4D
:10720000717F0100F0B5D6464F464646C0B582B004
:10721000804689461500134B1F88083FBBB2019377
:107220001E0004009A421AD90F4B9A46371A434659
:10723000E11A4944019A2000D047002809D1AD1B2A
:107240003919A419B542F2D8AAB249442000064B14
:10725000984702B01CBC90469946A246F0BD00215A
:10726000F2E7C046A00000209D800100F0B5D646A0
:107270004F464646C0B582B0804689461500134B3E
:107280001F88083FBBB201931E0004009A421AD91E
:107290000F4B9A46371A4346E11A4944019A200097
:1072A000D047002809D1AD1B3919A419B542F2D82D
:1072B000AAB249442000064B984702B01CBC904635
:1072C0009946A246F0BD0021F2E7C046A00000208A
:1072D0006981010070B584B0040000230393082283
:1072E000002101A82D4B9847002C44D028220021D2
:1072F00020002B4B984703A92A482B4B984700287E
:107300003AD1039B002B39D0C020800218430822B9
:1073100001A9264B984700282ED1029B1804000C87
:1073200003902ED0C0239B021843282221001F4B1C
:107330009847002820D121790902A2790F231A4009
:107340000A4361790901FF2529400A43E1790902CD
:10735000667A33400B43217A09010D402B43002A02
:1073600012D0002B13D012498B4213D8114B9A42E2
:1073700002D80D3800E0002004B070BD0C2040425F
:10738000FAE70C204042F7E70C204042F4E70C20DB
:107390004042F1E70D204042EEE7C0461BFC0100F1
:1073A000315E010008000C00ED7101000572010062
:1073B000541300005313000070B5002834D0057832
:1073C0006B1E032B00D9012500201E4B9847041E7D
:1073D0002CD11D481D4CA0471D4B984701001D484E
:1073E000A0471D48A0471D4B984728001C4B9847B5
:1073F000041E15D128001B4B9847041E10D1023DD6
:10740000012D0FD9184B9847041E0BD0A72252000C
:10741000164917480D4DA8471648A8470E48A847D3
:10742000154B9847200070BD0125CDE790225200F2
:107430000E490F48054DA8471048A8470648A847D9
:10744000F0E7C046BD710100D41C0200E548010010
:10745000B56D010028200200C0190200897F0100DB
:10746000C16F0100C5700100596D0100701F02005D
:1074700098190200EC1F0200C97101000C200200E3
:1074800070B5194B9847041E0BD10020174B984735
:10749000041E12D1164B9847041E19D1154B98475C
:1074A00009E06622FF3214491448154DA8471548D3
:1074B000A8471548A847200070BDB62252000E49C3
:1074C0000E480F4DA8471148A8470F48A847F2E7B4
:1074D000B922520008490948094DA8470C48A84755
:1074E0000948A847E7E7C0463D710100DD8C01006F
:1074F000C9710100357F01007C1F0200981902004C
:10750000E54801008C1F0200C0190200AC1F0200F8
:10751000D01F020000B585B001AB0190002202929D
:10752000198119000320024B984705B000BDC046E1
:107530006D5C010070B584B008AC257801AC20709A
:107540003F30C4B20E2C00D982E0A0004E4C20582F
:10755000874601AB0A0C5A700A0A9A70D970052145
:107560004A4B1B78002B75D00139C9B281E00B0A58
:10757000DBB2002D07D101AA537001AB9970002234
:10758000DA700521ECE780225242134301AA5370BE
:10759000F3E701AB00225A709A70DA700521DFE739
:1075A00001AB00225A709A70DA700521D8E701AB5E
:1075B000FF225A709A70DA700521D1E701AA080CEF
:1075C0005070080A9070D170190A11715371072117
:1075D000C6E701AA080C5070080A9070D170190C07
:1075E0001171190A517193710821B9E70B0ADBB2C5
:1075F000002D0CD101A8437001AB9970110ED97008
:10760000110C1971110A59719A710821A8E780208B
:107610004042034301A84370EEE701AB080C5870E9
:10762000080A9870D970110E1971110C5971110A4C
:107630009971DA71092193E7902252001449154893
:10764000154CA0471548A0471548A047002317E050
:10765000002315E04E1E01AA95197F23114C5B00F3
:1076600010784340E35C0132AA42F8D15B0001AAE2
:10767000935589B201A80C4B984701230028DBD110
:10768000180004B070BDC04638200200F03200205F
:10769000B420020098190200E5480100B824020055
:1076A000C0190200442102001575010000B585B023
:1076B00001AB002201920290198119000320024BB4
:1076C000984705B000BDC0466D5C0100F0B5C646E8
:1076D00000B582B00700CF282BD003003B33DBB2CC
:1076E000012B26D90B246B46DE1D244B9846012125
:1076F0003000C047051E25D13378BB422ED0013C57
:10770000E4B2002CF3D10B346B46DE1D1B4F01217C
:107710003000B847002823D13378002B2BD0013C10
:10772000E4B2002CF3D10125280002B004BC90463D
:10773000F0BD01216B46D81D104B9847002500284D
:10774000D0D0F1E75C22FF320D490E480E4CA04725
:107750000E48A0470E48A0470025E5E70B24D3E7D5
:107760006A22FF3206490748074CA0470748A0474E
:107770000748A047D8E70125D6E7C046AD76010007
:10778000CC20020098190200E5480100B42602004E
:10779000C0190200F0B5DE4657464E464546E0B5F4
:1077A00097B005009046009320AB18780EAB1D7083
:1077B0002B003F33DAB20E2A00D963E29300CC4AA1
:1077C000D3589F460EAB0A0C5A700A0A9A70D970A9
:1077D00005239946C74B1F78002F00D154E201239F
:1077E0005B429C46E14463E20B0ADBB2012808D00D
:1077F0000EAA53700EAB99700022DA7005239946D9
:10780000E8E78022524213430EAA5370F2E70EAB10
:1078100000225A709A70DA7005239946DAE70EABA7
:1078200000225A709A70DA7005239946D2E70EAB9F
:10783000FF225A709A70DA7005239946CAE70EAB98
:107840000A0C5A700A0A9A70D97000990A0A1A71B9
:10785000597107239946BDE70EAB0A0C5A700A0A04
:107860009A70D97000990A0C1A710A0A5A719971A2
:1078700008239946AEE70B0ADBB2012812D00EAA04
:1078800053700EAB99704246D278DA7042469278C5
:107890001A71424652785A71424612789A710823F8
:1078A000994697E78022524213430EAA5370E8E7A5
:1078B0000EAB0A0C5A700A0A9A70D9704246D278F6
:1078C0001A71424692785A71424652789A714246EB
:1078D0001278DA71092399467CE74B469E1D202ECB
:1078E00044D84B466A46D371D779B74207D23B009A
:1078F0000EA90022CA540133DBB29E42FAD80EAB65
:10790000029306AB039302AB1E81190003207A4B4E
:107910009847002838D1CF2D04D02B003B33DBB261
:10792000012B01D80137FFB206ABDB5D0F2202A9A4
:107930008C46624413709D4232D1BC1CE4B27B1C65
:10794000DBB206AAD05C0F2302AA944663441870E7
:1079500000283CD12B003C33FB22134247D00823A4
:107960002A009A43C22A42D0012029E0F72252007D
:1079700062496348634CA047202231006248A04717
:107980006248A04700201BE0FA22FF325B495C48B6
:107990005C4CA0475E48A0475C48A04700200FE031
:1079A0005C4A56495648574CA0470F2302AA9446B2
:1079B00063441A7829005848A0475448A04700203B
:1079C00017B03CBC90469946A246AB46F0BD534A20
:1079D0004A494B484B4CA0470F2302AA94466344A4
:1079E00019784F48A0474948A0470020E8E70D37DD
:1079F000FBB29A4600220A2706A900E01C00A64214
:107A000056D9631CDBB2085D02090F2A6AD0013F18
:107A100001225345F2D10E3202A98C466244107005
:107A2000002F47DDC42D00D180E0CA2D00D17DE0BC
:107A3000C22D02D00120C82DC2D19E4200D8ACE098
:107A4000009A002A00D11BE142441400404601275D
:107A50003F1A06A93D185A1CD2B2CB5C037096425D
:107A600003D901301300A042F4D12B00009A541B1B
:107A70000120002CA4D08026B601761BB44200D889
:107A80002600B1B243441800264B9847002800D086
:107A900085E0184B1B78002B00D18BE0AA46B2443E
:107AA000A61B0120002E00D18AE71E4FBB46B5E081
:107AB000002A11D19522920010491148114CA0477B
:107AC0000F2302AA9446634419781748A0470F4829
:107AD000A0470120404273E70F2302AA9446634463
