S0160000455345353136204D41494E2046572E7372656393
S214012000D07C0020E1B20200D9B30200D9B30200AD
S21401201000000000000000000000000000000000BA
S21401202000000000000000000000000051A50100B3
S214012030000000000000000071A60100B9A6010022
S214012040D9B30200D9B30200D9B302003174020039
S2140120505D690200D9B30200092E0100D9B302005E
S2140120604D2F0100D57A0200ED7A0200057B0200B1
S2140120701D7B0200357B02004D7B020029B2020067
S2140120803DB2020051B202003D82010051820100C0
S214012090658201000000000000000000912C010094
S2140120A0D9B30200CD2D0100D9B30200D9B3020085
S2140120B00000000010B5064C2378002B07D1054B15
S2140120C0002B02D0044800E000BF0123237010BD9E
S2140120D00003002000000000B8A80300084B10B55C
S2140120E0002B03D00749084800E000BF07480368F3
S2140120F0002B00D110BD064B002BFBD09847F9E70B
S2140121000000000004030020B8A80300B8A80300DC
S2140121100000000080B500AFC046BD4680BD80B55A
S21401212000AFC046BD4680BD80B500AF254B984781
S214012130254B9847AE20254B9847D520234B9847EB
S2140121408020224B9847A820204B98472F201F4BD2
S2140121509847D3201D4B984700201C4B984740209A
S2140121601A4B98478D20194B98471420174B9847C0
S214012170A620164B9847A420144B9847A120134B32
S2140121809847C820114B9847DA20104B98471220E1
S2140121900E4B984781200D4B98478F200B4B984745
S2140121A0D9200A4B9847F120084B9847DB20074B6C
S2140121B098474020054B9847AF20044B9847C046A8
S2140121C0BD4680BD1F21010015210100D12101005E
S2140121D080B584B000AF0200FB1D1A700C23FB18FB
S2140121E000221A700C23FB18FA1D12785A700C4B39
S2140121F03D221A700A4B0C22BA185A60084B02226A
S214012200DA81074B00229A60054B00229A81044B23
S21401221064211800034B9847C046BD4604B080BDF4
S21401222064470020294A010080B584B000AF02004F
S214012230FB1D1A700C23FB1840221A700C23FB1886
S214012240FA1D12785A700C4B3D221A700A4B0C225A
S214012250BA185A60084B0222DA81074B00229A60AC
S214012260054B00229A81044B64211800034B9847C2
S214012270C046BD4604B080BD64470020294A01001F
S21401228080B582B000AF7860034B7A681A60C046AA
S214012290BD4602B080BDC0461C03002090B583B089
S2140122A000AF040008001100FB1D221C1A70BB1DA4
S2140122B0021C1A707B1D0A1C1A70084B1A68FB1D3B
S2140122C01B789B011900BB1D1B78CB18D3187A1DF0
S2140122D012781A70C046BD4603B090BD1C0300209C
S2140122E080B582B000AF0200FB1D1A70BB1D0A1C30
S2140122F01A70074B1A68FB1D1B789B011900BB1D42
S2140123001B78CB18D3181B781800BD4602B080BDC9
S2140123101C030020B0B584B000AF05000C0010000F
S2140123201900FB1D2A1C1A70BB1D221C1A707B1D6E
S214012330021C1A703B1D0A1C1A70FB1D1A787B1DA5
S2140123401B78D318402B05DD7B1DFA1D1278402122
S2140123508A1A1A700F23FB18BA1D1278D2081A703F
S214012360BB1D1A780F23FB181B78DB00D31A01223A
S2140123709A400E23FB181A707B1D1B78002B00D188
S214012380A4E03B1D1B78012B2FD0022B00D195E03A
S214012390002B61D09BE0FA1D7B1D12781B78D318A9
S2140123A0DAB20D23FC180F23FB181B781100180056
S2140123B0484B9847030023700D23FB180D22B918CC
S2140123C00E22BA18097812780A431A70FA1D7B1D74
S2140123D012781B78D318D9B20D23FB181A780F235D
S2140123E0FB18187800233C4CA0477B1D1B787A1DF0
S2140123F0591E1170002BCED169E0FA1D7B1D127893
S2140124001B78D318DAB20D23FC180F23FB181B78A0
S214012410110018002F4B9847030023700E23FB185A
S2140124201B785BB2DB435BB20D22BA18127852B24C
S21401243013405AB20D23FB181A70FA1D7B1D127831
S2140124401B78D318D9B20D23FB181A780F23FB1863
S21401245018780023204CA0477B1D1B787A1D591E37
S2140124601170002BC9D132E0FA1D7B1D12781B7842
S214012470D318DAB20D23FC180F23FB181B781100B2
S2140124801800144B9847030023700D23FB180D22E8
S214012490B9180E22BA18097812784A401A70FA1D2D
S2140124A07B1D12781B78D318D9B20D23FB181A7826
S2140124B00F23FB1818780023074CA0477B1D1B78B9
S2140124C07A1D591E1170002BCED100E0C046BD46C4
S2140124D004B0B0BD8D2A0100ED290100B0B582B06F
S2140124E000AF05000C0010001900FB1D2A1C1A7015
S2140124F0BB1D221C1A707B1D021C1A703B1D0A1C78
S2140125001A703B1D1B78002B18D00FE0BA1D3B1D1F
S21401251012781B78D318D9B21823FB181C787B1DA8
S2140125201A78FB1D18782300064CA0473B1D1B7824
S2140125303A1D591E1170002BE8D100E0C046BD4679
S21401254002B0B0BD1523010090B587B000AF0400FE
S214012550080011003B60FB1D221C1A70BB1D021CEB
S2140125601A707B1D0A1C1A701023FB18BA1D1278EC
S2140125701A700F23FB187A1D12781A703B681A7AA4
S2140125801323FB18D2081A703B681B7A07221340E4
S214012590DBB2002B06D01323FB181A781323FB1883
S2140125A001321A701323FB181B789BB23A68527AD1
S2140125B092B253439AB2FB1D1B783968897A5B1A2B
S2140125C099B20C23FB184A431A803B685A680C23BD
S2140125D0FB181B88D3187B611223FB183A68527AC2
S2140125E01A700E23FB1800221A700B23FB183A6888
S2140125F0127A1A701123FB1800221A7034E0112384
S214012600FB181B7807221340DBB2002B07D10E23E1
S214012610FB187A6912781A707B6901337B610E2385
S214012620FB181B785BB2002B09DA0F23FB1819780D
S2140126301023FB181B78012218001D4B9847102306
S214012640FB181022BA18127801321A700E23FA18E3
S2140126500E23FB181B78DB1813701123FB181A784E
S2140126601123FB1801321A701123FA180B23FB18D9
S21401267012781B789A42C2D30F23FB180F22BA187E
S214012680127801321A701023FB18BA1D12781A70CC
S2140126901223FB181A781223FB18013A1A70122318
S2140126A0FB181B78002B9CD1C046BD4607B090BDD9
S2140126B0F928010090B585B002AF040008001100AA
S2140126C03B60FB1D221C1A70BB1D021C1A707B1D71
S2140126D00A1C1A703B681A7A3B685C7A7B1D19786B
S2140126E0BB1D18780023009323000B4CA0473B68C2
S2140126F01B78002B00D00AE03C687B1D1A78BB1DB6
S2140127001978FB1D18782300044CA047C046C04624
S214012710BD4603B090BDC046DD2401004925010039
S21401272090B587B000AFF860080011007B600B23FE
S214012730FB18021C1A700A23FB180A1C1A701723AE
S214012740FB180B22BA1812781A70FB681B780A2B32
S21401275011D10B23FB181722BA1812781A707B684E
S2140127605A7A0A23FB181B78D318DAB20A23FB1805
S21401277001321A7018E0FB681B780D2B14D0FB6829
S21401278018787C680A23FB181A780B23FB1819782B
S21401279023000B4CA0477B68197A0B23FB180B22EE
S2140127A0BA1812788A181A70FB680133FB60FB6846
S2140127B01B78002BC9D1C046BD4607B090BDC046A8
S2140127C0B526010080B582B000AF0200FB1D1A706D
S2140127D0FB1DFA1D12780F210A401A70FB1D1B788B
S2140127E0502252421343DBB21800034B9847C046AF
S2140127F0BD4602B080BDC046D121010080B582B081
S21401280000AF0200FB1D1A70FB1DFA1D12787F2116
S2140128100A401A70FB1D1B781B09DBB210221343FA
S214012820DBB20233DBB21800064B9847FB1D1B7860
S2140128300F221340DBB21800024B9847C046BD4634
S21401284002B080BDD121010080B582B000AF020088
S214012850FB1D1A70FB1DFA1D12783F210A401A70E3
S214012860FB1D1B7840221343DBB21800024B98472E
S214012870C046BD4602B080BDD121010090B583B0EF
S21401288000AF184B1800184B9847184B9847002074
S214012890174B9847FB1D00221A701AE0BB1D002239
S2140128A01A700CE0BB1D1978FB1D18780123002255
S2140128B0104CA047BB1D1A78BB1D01321A70BB1DF8
S2140128C01B785BB2002BEDDAFB1D1A78FB1D01327B
S2140128D01A70FB1D1B78052BE0D9C046BD4603B018
S2140128E090BDC0462003002081220100292101005D
S2140128F049280100ED29010090B585B000AF04001C
S21401290008001100FB1D221C1A70BB1D021C1A7048
S2140129107B1D0A1C1A70FB1D1B783F2B5DD8BB1D47
S2140129201B782F2B59D80E23FB18BA1D1278D20804
S2140129301A70BB1D1A780E23FB181B78DB00D31AFE
S21401294001229A400D23FB181A700F23FC18FB1D59
S2140129501A780E23FB181B7811001800214B984794
S214012960030023707B1D1B78012B04D0022B1DD086
S214012970002B0BD025E00F23FB180F22B9180D22D0
S214012980BA18097812780A431A701AE00D23FB1850
S2140129901B785BB2DB435BB20F22BA18127852B2D5
S2140129A013405AB20F23FB181A700AE00F23FB18C4
S2140129B00F22B9180D22BA18097812784A401A70EF
S2140129C0C0460F23FB181A78FB1D19780E23FB1837
S2140129D018780023044CA04700E0C046BD4605B069
S2140129E090BDC0468D2A0100ED290100B0B582B028
S2140129F000AF05000C0010001900FB1D2A1C1A7000
S214012A00BB1D221C1A707B1D021C1A703B1D0A1C62
S214012A101A703B1D1B7801225340DBB2002B0DD0F0
S214012A20BB1D1A78FB1D1B7811001800124B984726
S214012A3003001A007B1D1B78934218D07B1D1A7861
S214012A40BB1D1978FB1D1B7818000C4B9847FB1D06
S214012A501B7818000A4B9847BB1D1B781800094BBA
S214012A6098477B1D1B781800074B984700E0C04627
S214012A70BD4602B0B0BDC046E12201009D22010064
S214012A80C5270100FD2701002922010080B582B07B
S214012A9000AF0200FB1D1A70BB1D0A1C1A70BB1D7D
S214012AA01A78FB1D1B7811001800034B984703008A
S214012AB01800BD4602B080BDE122010080B584B099
S214012AC000AF78607B681B68FB60FB685B7EDBB2EF
S214012AD05BB2002B01DA012300E000231800BD469B
S214012AE004B080BD80B584B000AF78607B681B6899
S214012AF0FB60C0467B6818000B4B9847031EF9D154
S214012B00FB681B7BDBB202221343DAB2FB681A7343
S214012B10C0467B681800044B9847031EF9D1C0468F
S214012B20BD4604B080BDC046BD2A010080B584B054
S214012B3000AF78600A00FB1C1A707B681B68FB609C
S214012B40FB68FA1C12789A75C046BD4604B080BD73
S214012B5080B584B000AF0200FB1D1A70FB1D1A7809
S214012B60474B9200D358FB60FB681B681B7EDAB2AA
S214012B70FB681B68DB7DDBB21340DBB2BB60BB6866
S214012B800122134045D0FB681B6801221A76C04615
S214012B90FB6818003B4B9847031EF9D1FB685B693D
S214012BA0991CFA685161FA681268528B92B21A80BF
S214012BB0FB681B8B9BB2013B9BB2FA68191C118305
S214012BC0002B08D0FB685B7F002B22D0FB68180027
S214012BD02D4B98471DE0FB68012118002B4B9847A9
S214012BE0FB681B7FDBB2052B13D1FB6800221A772B
S214012BF0FB68DB7E1A00012313400AD0FB689B7E2C
S214012C001A000123134004D0FB689B68FA68100081
S214012C109847BB680422134014D0FB681B68042243
S214012C201A76FB68DB7E1A00022313400AD0FB6883
S214012C309B7E1A000223134004D0FB68DB68FA6807
S214012C4010009847BB680222134014D0FB681B682B
S214012C5002221A76FB68DB7E1A00042313400AD090
S214012C60FB689B7E1A000423134004D0FB681B6993
S214012C70FA6810009847C046BD4604B080BDC046FD
S214012C8078470020BD2A0100E52A01002D2B01000E
S214012C9080B500AF0020024B9847C046BD4680BDB8
S214012CA0512B010080B582B000AF0200FB1D1A70E7
S214012CB0074AFB1D1B7819001F230B400121994071
S214012CC00B0019008023D150C046BD4602B080BD1E
S214012CD000E100E080B584B000AF0200FB1D1A7071
S214012CE0FB1D1A78374B9200D358FB60FB681B68B4
S214012CF0BB60BB689B79DBB21A00012313400ED080
S214012D00BB6801229A71FB681433002B07D0FB685D
S214012D105B7C002B03D0FB689B6900209847BB684F
S214012D209B79DBB21A000223134047D0BB6802220C
S214012D309A71FB689B899BB2002B33D0FB689A681B
S214012D40FB68DB899BB2591C88B2F968C8815B00B5
S214012D50D3181B889AB2BB689A81FB689B899BB281
S214012D60013B9AB2FB689A81FB689B899BB2002B58
S214012D7018D1FB68202200219954BB6802221A71DF
S214012D80BB6802229A7119200F4B9847FB681433CF
S214012D90002B07D0FB689B7C002B03D0FB68DB690C
S214012DA000209847FB681433002B07D0FB681B7C78
S214012DB0002B03D0FB685B6900209847C046BD46E0
S214012DC004B080BD7C470020A52C010080B500AF73
S214012DD00020024B9847C046BD4680BDD52C010059
S214012DE080B500AF024B9847C046BD4680BDC04681
S214012DF0BD65020080B500AF024B9847C046BD4690
S214012E0080BDC0461166020080B586B000AF494B52
S214012E109847494B1B8C9BB2DAB21723FB180F213C
S214012E200A401A701723FB181A78444B9200D3589D
S214012E303B61414A3B691B780F210B40D9B23F23C6
S214012E40D1543D490F23FB184E228A5C1A703B6908
S214012E501B783B4A1B01D31802331B889BB2BB600D
S214012E603B691B78374A1B01D31802331B889BB278
S214012E707B60BA687B68D21A3B695A610F23FB18DC
S214012E801B780122134016D02B4A4E230121D15420
S214012E903B6910225A743B691B7C1A0001231340BC
S214012EA042D03B695B68002B3ED03B695B683A6960
S214012EB01000984738E00F23FB181B7802221340B6
S214012EC016D01D4A4E230221D1543B6900225A7462
S214012ED03B691B7C1A000223134025D03B699B6883
S214012EE0002B21D03B699B683A69100098471BE08C
S214012EF00F23FB181B780422134015D00E4A4E23CD
S214012F000421D1543B6906225A743B691B7C1A0082
S214012F100423134008D03B69DB68002B04D03B69CF
S214012F20DB683A6910009847074B9847C046BD468C
S214012F3006B080BDE12D010000480041F0040020EC
S214012F4080470020A0040020F52D010080B582B046
S214012F5000AF154B1B697B60144B9B693B60124BA2
S214012F609A683B681A43104B9A60104B104A9A6154
S214012F7008E07B685A687B681B68180090477B6886
S214012F809B687B607B68002BF3D1074BDB683B605B
S214012F90054B9B683A68D2431A40034B9A60C04679
S214012FA0BD4602B080BDC0460C00002000040042B1
S214012FB0FFFF0F0F80B582B000AF02003960FB1D26
S214012FC01A70FB1D1B78012B0AD0022B0FD0002B89
S214012FD014D10E4B0D4A91693A680A439A610FE083
S214012FE00A4B0A4AD1693A680A43DA6108E0074B94
S214012FF0064A116A3A680A431A6201E0172300E09A
S21401300000231800BD4602B080BDC0460004004043
S21401301080B500AF02210220074B9847074B0122DB
S2140130201A70C046054B1B78DBB21A000123134009
S214013030F8D1C046BD4680BDB52F01000004004250
S21401304080B584B000AF78607B681B68FB60FB6866
S214013050DB69072213405A1E9341DBB21800BD46B6
S21401306004B080BD80B582B000AF7860C0467B6892
S2140130701800044B9847031EF9D1C046BD4602B05E
S21401308080BDC0464130010080B584B000AF786095
S2140130907B681B68FB60FB681B681B01DB0FDBB2F0
S2140130A01A000B23FB18511E8A411A700823FB18BD
S2140130B07A68528B1A807B689B8B9AB20823FB181E
S2140130C00821791809888A1A1A807B689B8B9BB21B
S2140130D0013B9AB27B689A830B23FB181B78002B63
S2140130E010D07B68DB7A002B1CD07B689B8B9BB255
S2140130F0012B17D1FB685B688022D2021A43FB685A
S2140131005A600FE07B68DB7A002B0BD07B689B8BC9
S2140131109BB2002B06D1FB685B688022D2021A4361
S214013120FB685A607B689B8B9BB2002B0ED17B6839
S2140131309B7A002B0AD07B6818000E4B9847FB68D9
S2140131405B68C02292021A43FB685A607B681800CB
S214013150084B98477B681A6A0823FB181B88D31804
S214013160FA682821525CD2B21A70C046BD4604B035
S21401317080BDC0466530010080B584B000AF786080
S2140131807B681B68FB60FB685B8B9BB21A000423A1
S214013190134004D07B6825221E21995424E00A237B
S2140131A0FB187A68528B1A807B689B8B9AB20A232B
S2140131B0FB180A21791809888A1A1A807B689B8B62
S2140131C09BB2013B9AB27B689A837B681800084BD6
S2140131D098477B681A6A0A23FB181B88D3181B7842
S2140131E0D9B2FB6828229954BD4604B080BDC046BA
S2140131F06530010080B584B000AF78607B681B68DD
S214013200FB60FB681B7EDBB21A00012313402BD048
S214013210FB6801221A76FB685B8B9BB21A000223BD
S214013220134004D07B682522412199541CE0FB6899
S2140132305B8B9BB21A000423134015D07B682522B2
S214013240182199547B6800229A837B689B7A002B0D
S2140132500AD07B681800134B9847FB685B68C0224E
S21401326092021A43FB685A607B689B8B9AB27B6812
S2140132705A837B6825229B5CDBB2052B0ED17B68CB
S21401328024229B5CDBB2002B04D17B681800064B22
S214013290984703E07B681800044B9847C046BD4634
S2140132A004B080BD6530010079310100893001002C
S2140132B080B584B000AFF860B960FB1D1A70FB1DC5
S2140132C01B78FA6802339B00D3180433BA681A6075
S2140132D0FB681B7EDBB25AB2FB1D1B7801219940AD
S2140132E00B005BB213435BB2DAB2FB681A76C046D8
S2140132F0BD4604B080BD000090B587B000AF7860D1
S21401330039607B681B683B613B685A687B681A6258
S2140133103B685A887B689A837B68242201219954EA
S2140133207B682522052199543B691B681B01DB0F2D
S214013330DBB21A000F23FB18511E8A411A703B6834
S2140133405B7A002B06D03B689A7A7B6811001800DE
S2140133503B4B98470F23FB181B78002B0BD03B6881
S2140133605B88012B07D13B695B688022D2021A4336
S2140133703B695A6005E03B695B68324A1A403B6923
S2140133805A603B681B7A002B45D03B681B885A0065
S2140133903B685B7A9B0313431A0080231B021A4384
S2140133A03B695A621723FC187B681800264B98471E
S2140133B0030023703B695B68224A1A403B695A60E6
S2140133C01723FB181B78002B07D11723FC187B68E3
S2140133D018001E4B9847030023701723FB181B7811
S2140133E0002B14D13B6903229A753B681B881B0A84
S2140133F09BB2782213439BB25A003B685B7A9B03CD
S2140134001343012213431A003B695A6212E0172341
S214013410FB181B780FE03B6903229A753B681B88F3
S2140134205B0001221A433B685B7A9B0313431A0035
S2140134303B695A6200231800BD4607B090BDC046DE
S214013440E9810100FFFFFBFF8B8101002D81010057
S21401345080B582B000AF786039607B689B8B9BB289
S214013460002B01D005230CE07B6801229A727B6851
S2140134700122DA723A687B6811001800034B9847FC
S21401348003001800BD4602B080BDC046F9320100F7
S21401349080B584B000AF786039607B681B68FB60DC
S2140134A03B685B7A002B06D03B689A7A7B681100F2
S2140134B018001E4B9847FB685B681D4A1A40FB685C
S2140134C05A603B685A687B681A623B685A887B6810
S2140134D09A837B682422002199547B682522052142
S2140134E09954FB6803229A753B681B7A002B0DD012
S2140134F03B681B885A003B685B7A9B0313431A00A0
S21401350080231B021A43FB685A6209E03B681B884A
S2140135105A003B685B7A9B0313431A00FB685A62A6
S21401352000231800BD4604B080BDC046E9810100F5
S214013530FFFFFBFF80B582B000AF786039607B6823
S2140135409B8B9BB2002B01D005230CE07B680122EC
S2140135509A727B680122DA723A687B681100180059
S214013560034B984703001800BD4602B080BDC04615
S2140135709134010080B586B000AF0200FB1D1A70C1
S214013580FB1D1A78934B9200D3587B617B691B68AD
S2140135903B613B691B681B01DB0FDBB21A000F2383
S2140135A0FB18511E8A411A700E23FB187A69527E47
S2140135B01A707B691B7EDAB20E23FB180E2179186E
S2140135C009780A401A707B695B8B9BB2002B09D184
S2140135D07B699B8B9BB2002B04D07B6918007E4BCA
S2140135E0984770E07B695B8B9BB2002B39D07B6977
S2140135F09B8B9BB2002B34D17B6925229B5CDBB273
S214013600052B2ED17B6924229B5CDBB2002B28D1B3
S2140136103B6903221A757B6900225A837B6925223E
S214013620002199547B699B7A002B0BD07B6918008B
S2140136306A4B98473B695B68C02292021A433B6912
S2140136405A6002E03B6901221A760E23FB181B78AA
S2140136500122134037D07B69DB687A6910009847EE
S21401366031E07B695B8B9BB2002B2CD07B699B8BFB
S2140136709BB2002B27D03B695B8B9BB21A002023A1
S214013680134011D10F23FB181B7801225340DBB2E4
S214013690002B04D17B699B8B9BB2012B04D07B69E9
S2140136A02522412199540EE07B6924229B5CDBB2E2
S2140136B0002B04D17B691800494B984703E07B69CE
S2140136C01800484B98477B695B8B9BB2002B47D011
S2140136D07B699B8B9BB2002B42D17B6925229B5C2D
S2140136E0DBB2052B3CD17B6924229B5CDBB2012B30
S2140136F036D13B691B7EDBB21A000223134002D08F
S2140137003B6902221A763B6903221A757B690022FD
S2140137105A837B692522002199540E23FB181B78B6
S214013720022213400BD07B6924229B5CDBB2012B67
S21401373005D17B691B697A691000984710E00E2352
S214013740FB181B78012213400AD07B6924229B5C5C
S214013750DBB2002B04D17B69DB687A6910009847DD
S2140137607B6925229B5CDBB2052B2ED07B6925224B
S2140137709B5CDBB2002B28D03B6903221A757B6960
S21401378000225A837B6900229A837B6925229B5CEF
S214013790DBB2412B0ED07B699B7A002B0AD07B696A
S2140137A018000E4B98473B695B68E022D2021A4329
S2140137B03B695A600E23FB181B780422134004D081
S2140137C07B695B697A6910009847C046BD4606B0BA
S2140137D080BDC046445C0020F53101006530010023
S2140137E0793101008930010080B500AFBFF34F8FFA
S2140137F0024B034ADA60BFF34F8FFEE700ED00E0AD
S2140138000400FA0580B500AF024B9847C046BD4696
S21401381080BDC046E937010080B586B000AF78604C
S2140138209A4B18009A4B98479A4B1800984B984712
S214013830994B1800964B9847984B1800944B98470D
S214013840974B1800924B9847964B1800904B984709
S214013850954B18008E4B98471723FB1800221A70B9
S214013860924B1800924B9847032200210120914B5E
S21401387098470200904B1A608F4B1B68002B07D1AC
S2140138808E4B190003208E4B984700208D4B98478E
S2140138900C23FB1818008C4B98470C23FB181B783D
S2140138A00A2B04D00C23FB181B780D2B37D1874B22
S2140138B018007F4B9847864B00221A70854B0022D2
S2140138C01A708549854B31221800854B9847834BE2
S2140138D031220021995483497F4B64221800824B80
S2140138E0984703003B617F4B6322002199547D4B2F
S2140138F018006F4B98473B69002BECD11723FB1838
S21401390000221A70744B322200211800774B984718
S214013910744B642200211800744B9847B5E06C4B39
S2140139201B78002B59D06B4B1B78032B0CD8694B9B
S2140139301B785A1CD1B2674A11701A000C23FB1867
S21401394019786B4B995405E0614B00221A70614B54
S21401395000221A705F4B1B78012B99D9654A644B7C
S21401396011001800644B9847031E2FD063495A4B29
S2140139701B221800624B9847574B18004C4B984730
S2140139801723FB1800221A70534B3222002118000D
S214013990564B98475149504B31221800504B984787
S2140139A04D4B1800574B98470300302B06D84B4B0E
S2140139B01800544B98470300DAB200E0312217236F
S2140139C0FB181A70444B1800394B9847404B00229D
S2140139D01A70404B00221A705AE70C23FB181B780A
S2140139E00D2B00D154E70C23FB181B78082B04D0B1
S2140139F00C23FB181B787F2B1CD10823FB18424A8B
S214013A0012681A600823FB181800294B98471723D9
S214013A10FB181B78002B37D01723FB181A781723AF
S214013A20FB18013A1A701723FB181B782A4A002143
S214013A30D15429E00C23FB181B781B2B06D1244BF1
S214013A4001221A70234B00221A7021E71723FB1854
S214013A501B78312B0ED81723FB181B780C22BA18AB
S214013A6011781D4AD1541723FB181A781723FB180F
S214013A7001321A700C23FB1800225A700C23FB1813
S214013A8018000B4B984703E7C04601E7D4670300CD
S214013A9031830100C467030024680300E467030060
S214013AA0F4670300046803001468030084640300D9
S214013AB055E20100F5A80100D0470020306603005A
S214013AC041E30100E1C601000D3B01005066030021
S214013AD014050020150500204C05002018050020BF
S214013AE0FB51030080050020A1830100134E030053
S214013AF0E4050020546603001551030058660300D0
S214013B00D1500300CB5103006066030080B584B03A
S214013B1000AF78607B6818000C4B98470300FB6089
S214013B200DE00B4B1A6801235B4219001000094B8C
S214013B3098477B681800054B98470300FB60FB68B5
S214013B400133EED0C046BD4604B080BDF1E20100AF
S214013B50D0470020ADB8010080B500AF0A4B002267
S214013B601A600A4B1B68084A11001800084B984750
S214013B70054B1B68002B03D0064B802252051A60AA
S214013B80C046BD4680BDC046E8050020D04700209F
S214013B9025B2010004ED00E0B0B58AB002AFF860CE
S214013BA0B9607A60494B98470300FB611B23FA18FA
S214013BB0FB6911001800464B98471B23FB181B781E
S214013BC0002B64D0434B062200211800424B984735
S214013BD0404AFB6911001800404B98473D4B0022B4
S214013BE09B5E18003E4B9847021C3E4B1A60394BB1
S214013BF002229B5E18003A4B9847021C394B5A60CA
S214013C00344B04229B5E1800354B9847021C354BFB
S214013C109A60344B1A68344B101C98470500314B98
S214013C205A68314B101C984704002E4B9A682E4B4D
S214013C30101C984703002D4AB968F8680193009450
S214013C402B002B4CA047274B1A68274B101C984774
S214013C5003001AB21423FB181A80224B5A68224B0F
S214013C60101C984703001AB21423FB185A801D4BE8
S214013C709A681D4B101C984703001AB21423FB18B0
S214013C809A801423FB1818001A4B984719E01A4A11
S214013C90B968FB681800164B98471423FB180122D5
S214013CA052421A801423FB18022252425A801423CD
S214013CB0FB18032252429A801423FB1818000D4B5E
S214013CC0984700231800BD4608B0B0BD255A01002C
S214013CD011540100EC050020134E03004D54010061
S214013CE0A14C0100F40500201533030064660300AF
S214013CF06D500300757901008866030090B587B0A2
S214013D0000AFF860B9607A601723FB181B221A709F
S214013D101723FB181B78084A08480F21084CA047B0
S214013D20064AB968FB681800054B98470023180037
S214013D30BD4607B090BDC046B0660300040500202E
S214013D406D50030080B584B000AFF860B9607A604A
S214013D500220034B984700231800BD4604B080BDDF
S214013D604179010080B584B000AFF860B9607A602F
S214013D70034B984700231800BD4604B080BDC046DB
S214013D800538010090B587B000AFF860B9607A6079
S214013D901323FB1800221A70FA239A001323FB1828
S214013DA011001800194B984703007B617B69002BB3
S214013DB006D07B69164AB968F868164CA04707E032
S214013DC01323FB181B78144AB968F868114CA047EE
S214013DD01323FB181800114B984703007B617B697E
S214013DE0012B0ED1FB6818000D4B984703001A00F3
S214013DF0FB689A180B4B100019001A231A000A4B7D
S214013E00984700231800BD4607B090BD4142010007
S214013E10046703006D50030018670300A1790100D1
S214013E20CB5103002C670300DD4D030090B58FB026
S214013E3000AFF860B9607A601823FB1800221A7088
S214013E401823FB1800225A701823FB1800221A7038
S214013E501823FB1800225A701C23FB1800221A7024
S214013E601C23FB181422BA189A601C23FB18012283
S214013E70DA811C23FB181822BA185A601C23FB1877
S214013E8001229A812A4B18002A4B984700237B630C
S214013E9042E07B6B284A29480F21294CA047274B33
S214013EA01800244B984700233B632BE07B6BDAB268
S214013EB03B6BDBB2D318DAB21C23FB181A701C2337
S214013EC0FB186422642118001E4B98470300FB620E
S214013ED0FB6A002B0CD11C23FB181B781A4A1748C7
S214013EE00F21174CA047154B1800124B984706E0B8
S214013EF0124B164A1A60114B18000E4B98473B6B33
S214013F0001333B633B6B0F2BD0DD114B1800094B84
S214013F1098477B6B10337B637B6B7F2BB9DD0C4B38
S214013F201800044B984700231800BD460FB090BDFB
S214013F306467030055E2010098670300040500204A
S214013F406D500300014B0100A067030058202000BC
S214013F505066030080B584B000AFF860B9607A603F
S214013F60044B1800044B984700231800BD4604B0C4
S214013F7080BDC046A867030055E2010090B585B034
S214013F8000AF7860064B1868796800230A22054C52
S214013F90A0470300FB60FB681800BD4605B090BD56
S214013FA0000600209DAB010080B582B000AF020084
S214013FB0FB1D1A70064BFA1D127811001F220A40CB
S214013FC0012191400A001A60C046BD4602B080BD7C
S214013FD000E100E080B584B000AF78607B681B68C4
S214013FE0FB60FB68DB695A1E9341DBB21800BD46D5
S214013FF004B080BD80B582B000AF7860C0467B68F3
S2140140001800044B9847031EF9D1C046BD4602B0BE
S21401401080BDC046D53F010080B582B000AF786054
S2140140207B688022D2051A607B6800225A607B6812
S214014030FF221A817B6800229A727B680022DA725C
S2140140407B68962292011A627B6824220121995488
S2140140507B682522012199547B68262200219954E8
S2140140607B682722002199547B6800229A627B682C
S21401407088225203DA607B682C22002199547B68DF
S2140140802D22002199547B6800221A637B68002246
S2140140905A637B6800229A637B680022DA637B6836
S2140140A000225A617B6800221A827B680022DA7637
S2140140B07B6800221A767B6800221A777B680022CA
S2140140C05A767B6813229A767B6800225A77C04616
S2140140D0BD4602B080BD000080B584B000AF7860F8
S2140140E07B681B68FB607B681B681800094B984758
S2140140F003001800084B98477B681800074B984741
S214014100FB681B6802221A43FB681A60C046BD465C
S21401411004B080BD917A0200A93F0100F53F01007D
S21401412080B582B000AF78600A00FB1C1A707B680D
S21401413031229B5C5AB2FB1C1B78012199400B0073
S2140141405BB213435BB2D9B27B6831229954C04645
S214014150BD4602B080BD000080B584B000AF786077
S2140141600023FB60094B1B680C22BA1811001800CB
S214014170074B9847FB68002B03D0064B802252055D
S2140141801A60C046BD4604B080BDC046D847002070
S21401419025B2010004ED00E080B584B000AF786080
S2140141A00023FB60094B1B680C22BA18110018008B
S2140141B0074B9847FB68002B03D0064B802252051D
S2140141C01A60C046BD4604B080BDC046D847002030
S2140141D025B2010004ED00E080B500AF104B984712
S2140141E0104B98470120104B984702000F4B1A605E
S2140141F00322002101200E4B984702000D4B1A6046
S2140142000A4B1B68002B03D00A4B1B68002B03D1FB
S214014210094B1800094B9847C046BD4680BDC046AD
S21401422001430100794301005DAB0100DC4700203A
S214014230F5A80100D84700203468030055E20100C4
S21401424080B584B000AF786039600023FB609623A8
S2140142505B001800214B98470300FB60FB68002BAE
S21401426031D11F4B55221A701D491E4B01221800D1
S2140142701D4B9847031E28D11C4B1B683A6811003A
S21401428018001B4B98470300012B03D003235B4206
S214014290FB601BE01749134B01221800164B984789
S2140142A0124B1B683A6811001800114B984703001F
S2140142B0012B04D10F4B1A787B681A7006E0032392
S2140142C05B42FB6002E0C04600E0C0460B4B9847ED
S2140142D0FB681800BD4604B080BDC046FD43010022
S2140142E0D6470020E0470020F1920200D847002080
S2140142F0ADB80100D447002039930200C543010040
S21401430080B590B000AF3B001800144B98473B00B7
S214014310962292011A623B0080225203DA603B0029
S2140143200F4A1A633B000F4A5A633B00012252426E
S2140143309A633B0001225242DA63C0463A000A49B8
S2140143400A4B18000A4B9847031EF7D1074B180073
S214014350084B9847C046BD4610B080BD19400100C5
S2140143600300220003002300001C0042E047002057
S214014370F58E0200D940010080B500AF0C490D4B07
S214014380002218000C4B98470C490A4B01221800D2
S214014390094B9847074B00211800094B9847054BD6
S2140143A001211800064B9847C046BD4680BDC04651
S2140143B059410100E0470020A992020099410100FD
S2140143C02141010090B583B000AF00237B60094B0B
S2140143D01868002300220021074CA0470300012B88
S2140143E002D014235B427B607B681800BD4603B095
S2140143F090BDC046DC4700209DAB010080B584B06F
S21401440000AF78600023FB60084B1B687A681100D8
S2140144101800074B98470300012B02D01D235B426F
S214014420FB60FB681800BD4604B080BDDC47002079
S214014430ADB8010080B582B000AF0200FB1D1A7056
S214014440064BFA1D127811001F220A4001219140E5
S2140144500A001A60C046BD4602B080BD00E100E019
S21401446080B584B000AF78607B681B68FB60FB6832
S214014470DB69072213405A1E9341DBB21800BD4682
S21401448004B080BD80B582B000AF7860C0467B685E
S2140144901800044B9847031EF9D1C046BD4602B02A
S2140144A080BDC0466144010080B582B000AF78602F
S2140144B07B6864221A607B681B4A5A607B6800220C
S2140144C09A607B6800221A737B6800221A767B68E2
S2140144D0802292031A617B6801225242DA827B684B
S2140144E0012252429A827B680022DA617B680022AE
S2140144F01A627B682422002199547B6800229A6202
S2140145007B682C22002199547B682D220021995426
S2140145107B682E22002199547B68D7221A86C046D2
S214014520BD4602B080BDC046480D000080B584B0CF
S21401453000AF78607B681B68BB600023FB607B680C
S2140145401800144B9847BB681B6802221A43BB68C5
S2140145501A607B681B6818000F4B98470300180009
S2140145600E4B98470CE0FB680133FB607B68DB88E9
S2140145701A00FB689A4203D8BB6810225A8306E0E9
S214014580BB685B8B9BB21A0010231340EBD0BD4671
S21401459004B080BD85440100917A020035440100D3
S2140145A080B582B000AF78600A00FB1C1A707B6889
S2140145B05B7EDBB25AB2FB1C1B78012199400B00D3
S2140145C05BB213435BB2DAB27B685A76C046BD462D
S2140145D002B080BD90B591B000AF0023FB633A23D3
S2140145E0FB1800221A703B1D1800214B98473B1DF3
S2140145F0204ADA613B1D204A1A623B1DFA229200CC
S214014600DA823B23FB1803221A701EE03A23FC18B9
S2140146103A1D1A491A4B18001A4B98470300237083
S2140146203A23FB181B78002B04D13A23FB181B787E
S214014630FB630FE0124B1800134B98473B23FB1804
S2140146401A783B23FB18013A1A703B23FB181B7898
S214014650002BDBD1FB6B002B04D1094B18000B4B55
S214014660984700E0C046FB6B1800BD4611B090BDF0
S214014670A9440100020008000200090000080042E7
S21401468018480020917F0100C58001002D450100DA
S21401469080B584B000AF78600E4B00221A700D4BC7
S2140146A001229A600023FB600B4B1B680C22BA1890
S2140146B011001800094B9847094B00221A70FB6835
S2140146C0002B03D0074B802252051A60C046BD4618
S2140146D004B080BD080600204048002025B2010035
S2140146E00406002004ED00E080B584B000AF7860D9
S2140146F00E4B00221A700D4B01229A600023FB60BC
S2140147000B4B1B680C22BA1811001800094B98476E
S214014710094B00221A70FB68002B03D0074B80223E
S21401472052051A60C046BD4604B080BD080600208A
S2140147304048002025B201000406002004ED00E0F8
S21401474080B584B000AF78600E4B00221A700D4B16
S21401475001225A600023FB600B4B1B680C22BA181F
S21401476011001800094B9847094B01221A70FB6883
S214014770002B03D0074B802252051A60C046BD4667
S21401478004B080BD080600204048002025B2010084
S2140147900406002004ED00E080B500AF1149124B7D
S2140147A000221800114B98470F4B00211800104BA0
S2140147B0984710490C4B012218000C4B98470A4B9E
S2140147C0012118000A4B98470B49074B0222180093
S2140147D0064B9847044B02211800054B9847C046E4
S2140147E0BD4680BD9146010018480020B132010047
S2140147F0A1450100E94601004147010080B582B0AC
S21401480000AF00237B60144B984703007B607B68F6
S214014810002B1AD1114B98470120114B98470200E3
S214014820104B1A600322002101200F4B984702000B
S2140148300E4B1A600B4B1B68002B03D00B4B1B68EF
S214014840002B03D106237B6000E0C0467B6818007E
S214014850BD4602B080BDC046D5450100994701005E
S2140148605DAB010014480020F5A801004048002077
S21401487090B585B000AF78600023FB607B68002BA5
S21401488003D07B685B68002B03D108235B42FB6087
S2140148901FE07B681B789AB2104B1A807B685A68B7
S2140148A00E4B5A607B68DA890C4B5A800B23FC1836
S2140148B00A4A0B4B110018000A4B98470300237055
S2140148C00B23FB181B78002B03D006235B42FB60EF
S2140148D0C046FB681800BD4605B090BD44480020A0
S2140148E0184800203535010090B585B000AF7860D6
S2140148F00023FB607B68002B03D07B685B68002B82
S21401490003D108235B42FB601FE07B681B789AB2E9
S214014910104B1A807B689A680E4B5A607B689A899E
S2140149200C4B5A800B23FC180A4A0B4B110018003B
S2140149300A4B9847030023700B23FB181B78002BA8
S21401494003D006235B42FB60C046FB681800BD46E9
S21401495005B090BD4448002018480020513401009D
S21401496090B583B000AF00237B60094B1868002325
S21401497000220021074CA0470300012B02D014237C
S2140149805B427B607B681800BD4603B090BDC046A5
S214014990144800209DAB010080B584B000AF78605C
S2140149A00023FB60084B1B687A6811001800074B50
S2140149B098470300012B02D01D235B42FB60FB6876
S2140149C01800BD4604B080BD14480020ADB80100F3
S2140149D080B584B000AF78600023FB60044B1A6892
S2140149E07B681A60FB681800BD4604B080BDC046EF
S2140149F04048002080B500AF024B1B781800BD462A
S214014A0080BDC0460406002080B582B000AF02001B
S214014A10FB1D1A70034BFA1D12781A70C046BD466C
S214014A2002B080BD0406002080B584B000AF786077
S214014A3039600023FB600023BB6096235B001800EF
S214014A40284B98470300FB60FB68002B38D10823EE
S214014A50FB181800244B98470300FB60FB68002BEB
S214014A6030D17B681800214B98470300FB60FB6838
S214014A70002B2AD1BB683A68110018001C4B9847D6
S214014A800300012B11D11B4B9847031E11D00020A8
S214014A90194B9847FB68002B03D021235B42FB6030
S214014AA014E003235B42FB6010E003235B42FB60E0
S214014AB00CE0124B98470200FB681343FB6002E0D0
S214014AC0C04600E0C046FB6807E0C0460B4B98476F
S214014AD00200FB681343FB60FB681800BD4604B088
S214014AE080BDC04699490100D149010071480100C5
S214014AF0ADB80100F5490100094A0100614901000C
S214014B0080B586B000AFF860B9607A6000237B613B
S214014B1000233B6196235B001800354B9847030042
S214014B207B617B69002B55D11023FB181800314B94
S214014B30984703007B617B69002B4DD1FB68180009
S214014B402D4B984703007B617B69002B47D13B695E
S214014B507A6811001800294B98470300012B18D1D9
S214014B60274B9847031E06D00020264B9847032361
S214014B705B427B6134E0BB681800234B9847FB68B7
S214014B801800224B984703007B617B69002B04D0F9
S214014B9026E003235B427B6122E03B697A681100D1
S214014BA01800164B98470300012B0AD1144B98475F
S214014BB0031E0AD00020134B984703235B427B61F8
S214014BC00EE003235B427B610AE0114B984703002A
S214014BD07B6102E0C04600E0C0467B6903E0C04658
S214014BE00B4B98477B691800BD4606B080BDC04692
S214014BF099490100D149010071480100ADB8010091
S214014C00F5490100094A010001C60100E948010011
S214014C1061490100B0B586B000AFF86008007A605F
S214014C2019000B23FB18021C1A700823FB180A1C18
S214014C301A80FB685C68FB6898680823FB181D8867
S214014C407A680B23FB1819782B00A04703007B61B9
S214014C507B691800BD4606B0B0BDB0B586B000AFE2
S214014C60F86008007A6019000B23FB18021C1A7002
S214014C700823FB180A1C1A80FB681C68FB689868E6
S214014C800823FB181D887A680B23FB1819782B005C
S214014C90A04703007B617B691800BD4606B0B0BD26
S214014CA080B582B000AF0200BB1D1A80BB1D00227A
S214014CB09A5E064B10009847021C054B0549101CCE
S214014CC09847031C181CBD4602B080BD553303002F
S214014CD0D530030023DB793D90B585B000AF786011
S214014CE00A00FB1C1A700823FA18786801231021A1
S214014CF0124CA0470300FB60FB68002B19D1FB1C7C
S214014D001B7803221340DAB20823FB1803210A405A
S214014D1090001A780C218A43111C021C0A431A704F
S214014D200823FA18786801231021054CA0470300D0
S214014D30FB60FB681800BD4605B090BD154C010030
S214014D405B4C010090B587B000AF78600A00FB1C91
S214014D501A701723FB18FA1C12781A700C23FA180B
S214014D607B6811001800A44B984703003B613B6920
S214014D70002B00D013E10C23FB181B78DB07DB0F9D
S214014D80DAB20C23FB181B789B07DB0FDBB213434D
S214014D90DAB20C23FB181B785B07DB0FDBB213437D
S214014DA0DAB20C23FB181B781B07DB0FDBB21343AD
S214014DB0DAB20C23FB181B78DB06DB0FDBB21343DE
S214014DC0DAB20C23FB181B789B06DB0FDBB213430E
S214014DD0DAB20C23FB181B785B06DB0FDBB213433E
S214014DE0DAB20C23FB181B781B06DB0FDBB213436E
S214014DF0DAB20C23FB185B78DB07DB0FDBB213435D
S214014E00DAB20C23FB185B789B07DB0FDBB213438C
S214014E10DAB20C23FB185B785B07DB0FDBB21343BC
S214014E20DAB20C23FB185B781B07DB0FDBB21343EC
S214014E30DAB20C23FB185B78DB06DB0FDBB213431D
S214014E40DAB20C23FB185B789B06DB0FDBB213434D
S214014E50DAB20C23FB185B785B06DB0FDBB213437D
S214014E60DAB20C23FB185B781B06DB0FDBB21343AD
S214014E70DBB2012B00D092E00B23FA187B681100FD
S214014E8018005E4B984703003B613B69002B00D03E
S214014E9085E00B23FB181B78012B17D002DC002BB7
S214014EA005D076E0022B29D0032B48D071E0FB1CFD
S214014EB01B78002B04D11723FB1801221A706EE011
S214014EC01723FB18FA1C12781A7068E0FB1C1B7873
S214014ED0002B04D11723FB1802221A705FE0FB1C7B
S214014EE01B78012B04D11723FB1802221A7056E0F7
S214014EF01723FB18FA1C12781A7050E0FB1C1B785B
S214014F00002B04D11723FB1803221A7047E0FB1C61
S214014F101B78012B04D11723FB1803221A703EE0DD
S214014F20FB1C1B78022B04D11723FB1803221A70D3
S214014F3035E01723FB18FA1C12781A702FE0FB1CB9
S214014F401B78002B04D11723FB1804221A7026E0C5
S214014F50FB1C1B78012B04D11723FB1804221A70A3
S214014F601DE0FB1C1B78022B04D11723FB1804221F
S214014F701A7014E0FB1C1B78032B04D11723FB18B3
S214014F8004221A700BE01723FB18FA1C12781A7009
S214014F9005E01723FB18FA1C12781A70C0463B6905
S214014FA0002B08D10823FA18786801231021144C25
S214014FB0A04703003B613B69002B18D11723FB1860
S214014FC01B780F221340DAB20823FB1810011A7857
S214014FD00F210A40111C021C0A431A700823FA18F2
S214014FE0786801231021074CA04703003B613B6909
S214014FF01800BD4607B090BD215801007558010044
S214015000154C01005B4C010090B585B000AF78608F
S2140150100A00FB1C1A700823FA187868012311216C
S214015020124CA0470300FB60FB68002B19D1FB1C48
S2140150301B7807221340DAB20823FB1807210A401F
S21401504090181A780E218A43111C021C0A431A7002
S2140150500823FA18786801231121054CA04703009C
S214015060FB60FB681800BD4605B090BD154C0100FD
S2140150705B4C010090B587B000AF78600A00FB1C5E
S2140150801A701723FB18FA1C12781A700C23FA18D8
S2140150907B6811001800A44B984703003B613B69ED
S2140150A0002B00D013E10C23FB181B78DB07DB0F6A
S2140150B0DAB20C23FB181B789B07DB0FDBB213431A
S2140150C0DAB20C23FB181B785B07DB0FDBB213434A
S2140150D0DAB20C23FB181B781B07DB0FDBB213437A
S2140150E0DAB20C23FB181B78DB06DB0FDBB21343AB
S2140150F0DAB20C23FB181B789B06DB0FDBB21343DB
S214015100DAB20C23FB181B785B06DB0FDBB213430A
S214015110DAB20C23FB181B781B06DB0FDBB213433A
S214015120DAB20C23FB185B78DB07DB0FDBB2134329
S214015130DAB20C23FB185B789B07DB0FDBB2134359
S214015140DAB20C23FB185B785B07DB0FDBB2134389
S214015150DAB20C23FB185B781B07DB0FDBB21343B9
S214015160DAB20C23FB185B78DB06DB0FDBB21343EA
S214015170DAB20C23FB185B789B06DB0FDBB213431A
S214015180DAB20C23FB185B785B06DB0FDBB213434A
S214015190DAB20C23FB185B781B06DB0FDBB213437A
S2140151A0DBB2012B00D092E00B23FA187B681100CA
S2140151B018005E4B984703003B613B69002B00D00B
S2140151C085E00B23FB181B78012B17D002DC002B84
S2140151D005D076E0022B29D0032B48D071E0FB1CCA
S2140151E01B78002B04D11723FB1801221A706EE0DE
S2140151F01723FB18FA1C12781A7068E0FB1C1B7840
S214015200002B04D11723FB1802221A705FE0FB1C47
S2140152101B78012B04D11723FB1802221A7056E0C3
S2140152201723FB18FA1C12781A7050E0FB1C1B7827
S214015230002B04D11723FB1803221A7047E0FB1C2E
S2140152401B78012B04D11723FB1803221A703EE0AA
S214015250FB1C1B78022B04D11723FB1803221A70A0
S21401526035E01723FB18FA1C12781A702FE0FB1C86
S2140152701B78002B04D11723FB1804221A7026E092
S214015280FB1C1B78012B04D11723FB1804221A7070
S2140152901DE0FB1C1B78022B04D11723FB180422EC
S2140152A01A7014E0FB1C1B78032B04D11723FB1880
S2140152B004221A700BE01723FB18FA1C12781A70D6
S2140152C005E01723FB18FA1C12781A70C0463B69D2
S2140152D0002B08D10823FA18786801231121144CF1
S2140152E0A04703003B613B69002B18D11723FB182D
S2140152F01B780F221340DAB20823FB1810011A7824
S2140153000F210A40111C021C0A431A700823FA18BE
S214015310786801231121074CA04703003B613B69D4
S2140153201800BD4607B090BD215801007558010010
S214015330154C01005B4C010090B585B000AF78605C
S2140153400A00FB1C1A700823FA1878680123122138
S214015350124CA0470300FB60FB68002B19D1FB1C15
S2140153601B7801221340DAB20823FB1801210A40F8
S21401537090011A7840218A43111C021C0A431A70B4
S2140153800823FA18786801231221054CA047030068
S214015390FB60FB681800BD4605B090BD154C0100CA
S2140153A05B4C010090B585B000AF78600A00FB1C2D
S2140153B01A700823FA18786801231521124CA047A1
S2140153C00300FB60FB68002B19D1FB1C1B78012234
S2140153D01340DAB20823FB1801210A40D0001A78DC
S2140153E008218A43111C021C0A431A700823FA1862
S2140153F0786801231521054CA0470300FB60FB6874
S2140154001800BD4605B090BD154C01005B4C01006F
S21401541090B585B000AF786039600823FA187868CF
S21401542001231E21084CA0470300FB600823FB183C
S2140154301B78DB07DB0FDBB21A003B681A70FB68D0
S2140154401800BD4605B090BD154C010090B587B05B
S21401545000AF786039600C23FA1878680623282193
S214015460264CA04703007B610C23FB185B781AB21D
S2140154703B681A803B6800229B5E9BB21B029AB275
S2140154800C23FB181B789BB2D3189BB21AB23B684D
S2140154901A803B6802330C22BA18D27812B21A80EC
S2140154A03B6802333A6802320021525E92B212021F
S2140154B091B20C22BA18927892B28A1892B212B2AB
S2140154C01A803B6804330C22BA18527912B21A8039
S2140154D03B6804333A6804320021525E92B21202EB
S2140154E091B20C22BA18127992B28A1892B212B2FA
S2140154F01A807B691800BD4607B090BD154C0100A7
S21401550090B585B000AF78600A00FB1C1A700823BE
S214015510FA18786801230121114CA0470300FB60AB
S214015520FB68002B17D1FB1C1B7803221340DAB251
S2140155300823FB1890011A783F210A40111C021C0F
S2140155400A431A700823FA18786801230121054CCA
S214015550A0470300FB60FB681800BD4605B090BD80
S214015560154C01005B4C010090B585B000AF78602A
S21401557039603A68786801230F21044CA04703007C
S214015580FB60FB681800BD4605B090BD154C0100D8
S21401559090B585B000AF78600A00FB1C1A7008232E
S2140155A0FA18786801231221124CA0470300FB6009
S2140155B0FB68002B19D1FB1C1B7801221340DAB2C1
S2140155C00823FB1801210A4010001A7801218A439A
S2140155D0111C021C0A431A700823FA187868012362
S2140155E01221054CA0470300FB60FB681800BD466E
S2140155F005B090BD154C01005B4C010090B585B01F
S21401560000AF786039600823FA1878680123122100
S214015610084CA0470300FB600823FB181B78DB0738
S214015620DB0FDBB21A003B681A70FB681800BD4638
S21401563005B090BD154C010090B585B000AF7860FF
S2140156400A00FB1C1A700823FA1878680123102137
S214015650124CA0470300FB60FB68002B19D1FB1C12
S2140156601B7801221340DAB20823FB1801210A40F5
S21401567090181A7802218A43111C021C0A431A70D8
S2140156800823FA18786801231021054CA047030067
S214015690FB60FB681800BD4605B090BD154C0100C7
S2140156A05B4C010090B585B000AF78600A00FB1C2A
S2140156B01A700823FA18786801231721254CA04789
S2140156C00300FB60FB68002B3FD1FB1C1B781B090A
S2140156D0DBB21A1C01231340DAB20823FB1801219E
S2140156E00A4090001A7804218A43111C021C0A43BE
S2140156F01A70FB1C1B785B09DBB21A1C01231340D2
S214015700DAB20823FB1801210A4010011A78102189
S2140157108A43111C021C0A431A70FB1C1B780722C1
S2140157201340DAB20823FB1850011A781F210A40E9
S214015730111C021C0A431A700823FA187868012300
S2140157401721054CA0470300FB60FB681800BD4607
S21401575005B090BD154C01005B4C010090B587B0BB
S21401576000AF78600A00FB1C1A700C23FA187868E0
S21401577001231821284CA04703007B617B69002B7D
S2140157801CD1FB1C1B78DB09DBB21A1C012313405E
S214015790DAB20C23FB1801210A4090181A7802216C
S2140157A08A43111C021C0A431A700C23FA187868E3
S2140157B001231821194CA04703007B617B69002B4C
S2140157C008D11023FA18786801236221124CA047E9
S2140157D003007B617B69002B19D1FB1C1B7803221C
S2140157E01340DAB21023FB1803210A40D0001A78BE
S2140157F018218A43111C021C0A431A701023FA1836
S214015800786801236221054CA04703007B617B6910
S2140158101800BD4607B090BD154C01005B4C010059
S21401582090B585B000AF786039607B6802211800BA
S2140158300E4B98470300FB60FB68002B07D13A68C4
S2140158407868022346210A4CA0470300FB60FB68E8
S214015850002B06D17B6800211800044B98470300F3
S214015860FB60FB681800BD4605B090BD0155010000
S214015870154C010090B585B000AF786039607B6843
S21401588002211800214B98470300FB60FB68002BA0
S21401589008D10823FA18786801235F211C4CA04719
S2140158A00300FB60FB68002B2BD10823FB181B7839
S2140158B0DB069B0FDBB2012B0CD002DC002B05D0E4
S2140158C014E0022B0AD0032B0CD00FE03B68002219
S2140158D01A700FE03B6801221A700BE03B68022247
S2140158E01A7007E03B6803221A7003E03B68002247
S2140158F01A70C0467B6800211800044B98470300C5
S214015900FB60FB681800BD4605B090BD015501005F
S214015910154C010080B586B000AFF86008007A60CB
S21401592019000B23FB18021C1A700823FB180A1C0B
S2140159301A8000233B61194B0B22BA1812781A7091
S21401594000237B610AE07B6901337A6979688A18EA
S2140159501178124AD1547B6901337B610823FB1805
S2140159601A887B699A42EEDC0D4B6B221A7008236B
S214015970FB181B8801339AB2094BDA81084B074A98
S2140159805A60074B64211800064B984703003B6199
S2140159903B691800BD4606B080BDC0465048002091
S2140159A090480020294A010080B586B000AFF86013
S2140159B008007A6019000B23FB18021C1A700823D2
S2140159C0FB180A1C1A8000237B61134B6B221A708A
S2140159D0114B0822BA1812889A810F4B7A689A607E
S2140159E00D4B0122DA810D4B0B22BA1812781A7070
S2140159F00A4B00225A70084B084A5A60064B64222A
S214015A0005211800064B984703007B617B69180047
S214015A10BD4606B080BDC0469048002050480020D4
S214015A20014B010080B500AF014B1800BD4680BD9B
S214015A302000002080B582B000AF00237B60234B9E
S214015A4001211800224B984703007B60FA1C1F4B6C
S214015A50110018001F4B984702007B6813437B60B8
S214015A60FB1C1B78002BF1D1184B802118001A4B18
S214015A709847164B01211800184B9847134B0021E5
S214015A801800174B9847114B01211800154B9847E2
S214015A900E4B01211800144B98470C4B002118009F
S214015AA0124B9847094B06211800114B9847074B94
S214015AB0042118000F4B9847044B012118000E4B88
S214015AC098477B681800BD4602B080BD20000020C4
S214015AD091550100FD5501005D5701003953010044
S214015AE0A5530100454D010075500100D94C010038
S214015AF009500100A55601003956010080B582B053
S214015B0000AFFB1C00221A70114B2E221A70104B8C
S214015B10104A5A600E4B0222DA810D4BFA1C9A602B
S214015B200B4B01229A810A4B6422002118000A4B72
S214015B30984703007B607B68002B03D0074B180057
S214015B40074B9847FB1C1B781800BD4602B080BD6A
S214015B50A04800205C680300014B01002069030097
S214015B6055E2010080B584B000AF78600A00FB1CE6
S214015B701A70FB1C1B78002B01D1002326E008239A
S214015B80FB18144A12881A80134B2E221A70124BD5
S214015B900822BA185A60104B0222DA810E4B7A6834
S214015BA09A60FB1C1B789AB20B4B9A810A4B6422B3
S214015BB000211800094B98470300FB60FB68002B87
S214015BC003D0074B1800074B9847FB681800BD46E3
S214015BD004B080BD44690300A0480020014B0100C9
S214015BE02069030055E20100B0B586B000AF05009C
S214015BF00C0010001900FB1D2A1C1A70BB1D221C6C
S214015C001A707B1D021C1A703B1D0A1C1A70082391
S214015C10FB180E221A700823FB1804225A70082358
S214015C20FB1800229A700823FB180022DA7008235A
S214015C30FB187A1D12781A710823FB18BA1D127800
S214015C405A710823FB183A1D12789A71FB1D1B78AE
S214015C509BB21622BA18191C0B1CDB185B18138092
S214015C601623FB181B881B0A9BB2DAB20823FB1803
S214015C709A701623FB181B88DAB20823FB18DA7011
S214015C80094B0822BA185A60074B0722DA81064BDD
S214015C9064211800054B984703003B613B691800D7
S214015CA0BD4606B0B0BDC046A0480020294A010046
S214015CB080B582B000AF3B000A4A12881A800A4BB0
S214015CC03A005A60084B0222DA81074B6421180019
S214015CD0064B984703007B607B681800BD4602B000
S214015CE080BDC04648690300A0480020294A01003B
S214015CF090B587B000AF78609A4B18009A4B9847DA
S214015D009A4B01221A709A4B98479A4B9A48082246
S214015D1000219A4CA047974B994812220021974C94
S214015D20A047944B97481C220021944CA047914BC6
S214015D30954826220021914CA0478C4B1B78012BBD
S214015D4000D107E1022B02D0002B6ED0FEE08F4B74
S214015D5000221A708E4B01221A708E4B1422FF21DC
S214015D6018008D4B98478D4B00221A701723FC188C
S214015D708B4B9847030023701723FB181B780F2BB8
S214015D8003D91723FB1810221A701723FB181B7848
S214015D90002B07D01723FB181A78824B1100180026
S214015DA0814B98477F4B1022002118007A4B984769
S214015DB07E4B1B78D9B27E4B1B78DAB27D4B1B78B3
S214015DC0DBB200207C4CA0477C4B9847FA239B0013
S214015DD018007B4B98470023002200210020764CB8
S214015DE0A047724B1B78D9B2714B1B78DAB2714B54
S214015DF01B78DBB20F20704CA047704B9847FA23F4
S214015E009B0018006E4B98470023002200210F20AC
S214015E10694CA047694B9847FA239B001800684BCA
S214015E209847524B00221A7097E01623FC185C4BD9
S214015E309847030023705B4B102200211800564B35
S214015E4098471623FB181B780F2B03D91623FB182C
S214015E5010221A701623FB181B78002B65D0162308
S214015E60FB181A784F4B110018004F4B9847031E2A
S214015E705BD100233B6150E04A4A3B69D3181B784B
S214015E809B08DBB2002B00DA0733DB10DBB29B008A
S214015E90D9B2444A3B69D3181B789B08DBB2072268
S214015EA01340DAB20F23FB188A181A703D4A3B6971
S214015EB0D3181A780E23FB1803210A401A700E23F2
S214015EC0FB181B78032B0FD1384B1B78D9B2384BF4
S214015ED01B78DAB2374B1B78DCB20F23FB18187825
S214015EE02300354CA04715E00F23FB181878002334
S214015EF000220021304CA047244B1B781900254B6B
S214015F000F22BA1812785A54204B1B780133DAB292
S214015F101E4B1A703B6901333B611623FB181A7836
S214015F203B699A42A8DC254B9847184B1A78184BC0
S214015F301B789A4203D2154B1B78132B0CD9174B9F
S214015F4001221A70094B01221A7005E0074B002244
S214015F501A7002E0C04600E0C0463220184B98474F
S214015F60EBE6C0467069030055E20100E8480020F0
S214015F707D2801000000002084690300212701001C
S214015F808C69030098690300A46903001D060020BC
S214015F901E060020B0480020134E03001F060020F6
S214015FA0FD5A0100D8480020655B01001C06002050
S214015FB02C0000202D000020E95B0100B15C0100EF
S214015FC001C6010090B583B000AF040008001100BF
S214015FD0FB1D221C1A70BB1D021C1A707B1D0A1C9D
S214015FE01A70084BFA1D12781A70074BBA1D1278F0
S214015FF01A70064B7A1D12781A70C046BD4603B059
S21401600090BDC0461C0600202C0000202D0000205C
S21401601080B584B000AF0200FB1D1A700F23FB1879
S214016020FA1D1278D2091A700E23FB18FA1D12787F
S21401603052091A700D4BBB600F23FB181B78002BFF
S2140160400FD10F23FB181B789B0010229446BC44EB
S2140160506344083B1A680E23FB181B78DB01D31830
S21401606000E000231800BD4604B080BD0044004196
S21401607080B582B000AF0200FB1D1A70FB1D1B78B5
S2140160801800034B984703001800BD4602B080BDB8
S2140160901160010080B584B000AF0200FB1D1A70CC
S2140160A0BB1D0A1C1A70FB1D1B7818000D4B984768
S2140160B00300FB60FB1D1B781F22134001229A4040
S2140160C01300BB60BB1D1B78002B03D0FB68BA68AE
S2140160D09A6102E0FB68BA685A61C046BD4604B0E0
S2140160E080BDC0467160010080B500AF024B002242
S2140160F01A70C046BD4680BD3506002080B582B008
S21401610000AF0200FB1D1A70FB1D1B785BB2DB4360
S2140161105BB2064A127852B213405BB2DAB2034B54
S2140161201A70C046BD4602B080BDC0463506002086
S21401613080B582B000AF0200FB1D1A70054B1A78BD
S214016140FB1D1B781343DAB2024B1A70C046BD46DC
S21401615002B080BD3506002080B582B000AF0200D7
S214016160FB1D1A70064B1B78FA1D12781340DBB222
S2140161705A1E9341DBB21800BD4602B080BDC04630
S2140161803506002090B585B000AF786039607B6831
S214016190002B02D03B68002B01D1002313E00F2314
S2140161A0FC1839680A4B002218000A4B984703006E
S2140161B02370074B1800084B98470F23FB181B78D2
S2140161C05A425341DBB21800BD4605B090BDC046E9
S2140161D06808002015DD020015E7020080B59EB0B4
S2140161E000AFF860B960FB1D1A707623FB18012218
S2140161F01A807423FB1800221A806E23FB180022D3
S2140162001A807223FB1800221A802423FB18180018
S21401621041231A000021924B98471823FB181800B7
S21401622009231A0000218E4B98471423FB180022DD
S2140162301A600023BB667123FB1800221A70BB6824
S214016240002B01D1002306E1BA68FB681100180093
S214016250844B984703001A0001235340DBB2002BFE
S21401626001D00123F7E0BB6818007F4B9847030075
S214016270402B01D90023EEE0BB682E2118007B4B92
S21401628098470300BB66BB6E002B52D0BB6E18004E
S214016290754B984702006E23FB181A806E23FB1875
S2140162A01B88072B37D87123FB1801221A70BA6E88
S2140162B01823FB18110018006D4B9847BB6818008F
S2140162C0694B984702006E23FB181B88D31A3C2B98
S2140162D011D97423FB186E22BA1812883C218A1A27
S2140162E01A807423FB181A88B9682423FB1818002F
S2140162F0604B98472AE0BA6EBB68D21A7423FB1823
S2140163001A807423FB181A88B9682423FB1818000E
S214016310584B98471AE07423FB183C221A807423C2
S214016320FB181A88B9682423FB181800514B9847A4
S2140163300CE07423FB183C221A807423FB181A887D
S214016340B9682423FB1818004A4B98477423FB1896
S2140163501B887422BA18591C11801A002423FB18B2
S2140163602D2199547623FB1800221A807223FB18DC
S21401637001221A8010E07223FA187223FB181B8878
S214016380191C8900CB18DB1813807623FB181A8892
S2140163907623FB1801321A807623FB181B88022B02
S2140163A0E9D97623FB1801221A804BE07623FB18E5
S2140163B01A8831491423FB181800304B9847742368
S2140163C0FB181B882422BA18D3181422B9180322E2
S2140163D01800284B98477123FB181B78002B0CD00C
S2140163E07423FB181B8803332422BA18D3181822E7
S2140163F0BA18110018001E4B98472423FA18FB6898
S21401640011001800174B984703001A000123534048
S214016410DBB2002B0FD0FB1D1A78BB6800211800D9
S2140164200F4B98472423FA18BB6811001800104B2D
S214016430984701230FE07623FB181A887623FB186A
S21401644001321A807623FA187223FB1812881B88E9
S2140164509A42ABD300231800BD461EB080BDC0468D
S214016460134E030085610100CB5103002552030042
S2140164707F510300FB510300C4690300D1500300A0
S21401648090B583B002AF0120224B984703001A0053
S21401649001235340DBB2002B05D01F4B190001200E
S2140164A01E4B984732E002201A4B984703001A0009
S2140164B001235340DBB2002B05D0194B19000120F4
S2140164C0164B984722E00420124B9847031E05D02E
S2140164D0144B19000120114B984717E008200D4B6B
S2140164E09847031E05D0104B190001200B4B984707
S2140164F00CE00E4B19000120084B98470C490D483B
S21401650000230093002301220B4CA047BD4601B097
S21401651090BDC04659610100CC69030041E301000A
S214016520F8690300246A0300506A03007C6A0300CA
S214016530A86A03004449002069130300B0B586B079
S21401654000AF786039607B68002B02D03B68002B77
S21401655005D1584B19000120574B9847A6E0082053
S214016560564B984703001A0001235340DBB2002B19
S21401657055D000237B61524B30221A70504B3A2281
S2140165805A70504B7B6102E07B69013B7B617B6902
S2140165901B782F2BF8D17B6918004B4B98470300CB
S2140165A0012B24D97B6901337B617A69474B110042
S2140165B01800474B98474249464B40221800464B25
S2140165C098473F4A454B190001203B4B98471323F8
S2140165D0FC183B493F4B0A221800414B98470300E1
S2140165E023701323FB181B78002B12D008E03D4BB9
S2140165F019000120304B984720203B4B984755E027
S2140166001323FB181A78394B190001202A4B984797
S2140166104CE0374B00221A600820334B98477B68C2
S214016620002B43D00023FB601323FC180C23FB181C
S2140166303A68796827482F4DA8470300237013232B
S214016640FB181B78002B0CD0224B18002A4B9847BE
S2140166502020254B9847294B19000120164B9847B7
S21401666024E0234B1A68FB68D218214B1A60204B92
S2140166701A68234B1B68234901200F4CA0471C4B6B
S2140166801A681F4B1B689A4210D3124B18001A4BFC
S21401669098471D4B19000120074B984700211720EA
S2140166A01A4B98471020104B9847C046BD4606B077
S2140166B0B0BDC046DC6A030041E301005961010038
S2140166C0B4000020D86A0300CB510300B6000020B6
S2140166D07F51030068080020DD610100406B030064
S2140166E015DD0200006B030031610100686B0300D9
S2140166F09008002045E2020015E702009C6B0300AB
S2140167008C080020D86B03000C6C03009560010018
S21401671090B585B000AFF860B9607A60BB68042BAD
S21401672000D977E0BB689A003C4BD3181B689F469C
S2140167303B4B190001203B4B98476BE03A4B190045
S2140167400120384B98470420384B984762E07B6815
S2140167501B881A007B685B6835490120314CA047CD
S2140167607B681B88C82B0DD17B685A68314B1A6031
S214016770314B00221A607B685A6880239B009A423C
S21401678043D803E02020294B984743E07B689A686A
S2140167907B685B6819001000284B98471020234B34
S2140167A0984732E07B685A687B681B6819001000BE
S2140167B0224B98477B681B7A002B28D010201B4B56
S2140167C0984724E07B681A681D4B19000120154B79
S2140167D098477B681B680B331BD10820194B9847D9
S2140167E0031E06D0184B1800184B98470820184B64
S2140167F098470420134B9847031E02D00420144BDD
S2140168009847144B9847C04603E0C04602E0C0468E
S21401681000E0C046BD4605B090BDC046C873030043
S214016820406C030041E30100786C03003161010014
S214016830A46C03008C080020900800203D65010030
S214016840E06C0300596101006808002015E70200AA
S214016850FD6001008164010080B582B000AF3A603E
S214016860FB1D021C1A70BB1D0A1C1A703A68BB1D60
S2140168701978FB1D1B785BB21800034B9847C0467E
S214016880BD4602B080BDC04679100300B0B586B0E3
S21401689004AF786039603B68FF2213401C003B68F8
S2140168A01B0A1A00FF2313403A68120C1100FF223C
S2140168B00A403968090E0D00786809490295019267
S2140168C00093230002000120064CA0473A687B682B
S2140168D011001800044B9847C046BD4602B0B0BD33
S2140168E0106D030041E30100DD11030090B587B090
S2140168F002AF02003960FB1D1A70FB1D1B782C2BA2
S21401690002D0322B3DD06FE03B68FB60FB681B7802
S214016910012B07D1364B19000120364B9847364BD1
S21401692098475EE0FB681B78002B5AD1334B190061
S2140169300120304B98470220314B98470820314BB5
S2140169409847031E06D0304B1800304B9847082056
S2140169502B4B984704202B4B9847031E02D004204C
S214016960274B98472A4B012118002A4B98472A4A59
S2140169702A48FF230093130002220621284CA04731
S2140169802FE03B68BB60BB681B781800BB6801330F
S2140169901B781C00BB6802331B781A00BB680333E4
S2140169A01B78204901930092230002000120114C1C
S2140169B0A04702201C4B98471C4B1B78012B02D189
S2140169C01B4B98470FE01B4A114B110018001A4B3E
S2140169D09847031E07D0194B19000120054B98470D
S2140169E001E0C04600E0C046C046BD4605B090BDC9
S2140169F0406D030041E3010049280200606D030079
S214016A00FD600100596101006808002015E70200D9
S214016A109408002025FD0200846D0300906D03009C
S214016A2075230200986D03003161010034060020D1
S214016A3081640100B0690300F1FB0200C06D030030
S214016A4090B583B000AF294B9847294B1900012018
S214016A50284B9847FC1D0020274B984703002370BE
S214016A60FB1D1B78012B10D1244B19000120214B53
S214016A709847234B190001201E4B9847C04600201B
S214016A80204B98470300022BF9D1FB1D1B78002BE6
S214016A90E0D11D4B19000120164B98478C239A0014
S214016AA01A4B002118001A4B9847BC1D174B1900AA
S214016AB00020184B984703002370BB1D1B780B2B37
S214016AC007D1BB1D1A78144B19000120094B9847B2
S214016AD008E0124B19000120064B98470120104B85
S214016AE09847C046BD4603B090BDC04659F1010067
S214016AF0E46D030041E3010035F601001C6E03005E
S214016B00446E0300A9F10100786E030038060020E8
S214016B10134E0300BDDC02009C6E0300CC6E030026
S214016B203161010080B582B000AF3B1D1800084BF3
S214016B3098473A1D074B11001800074B9847054B1D
S214016B401800064B9847C046BD4602B080BDC046F9
S214016B500D280300EC480020312803001D290300FE
S214016B6080B588B000AF3B001800164B98473B0035
S214016B70802292001A613B00134A5A603B00BC22F5
S214016B80FF321A803B0001229A703A000F4B110027
S214016B9018000F4B98470300FB61FB69002B06DAD0
S214016BA0FA690C4B190001200B4B9847FEE70B4A7C
S214016BB0064B110018000A4B9847C046BD4608B060
S214016BC080BDC046A10E0300EC48002044490020C9
S214016BD0ED0E0300F06E030041E3010011670100B2
S214016BE0D90F030080B582B000AF3A60FB1D021CCE
S214016BF01A70BB1D0A1C1A703A68BB1D1978FB1D5A
S214016C001B785BB21800034B9847C046BD4602B0DE
S214016C1080BDC04699FB020080B582B000AF7860A7
S214016C2039603A687B6811001800034B9847C046E4
S214016C30BD4602B080BDC046CDFB020090B589B00E
S214016C4002AF78601023FB1800221A701023FB187D
S214016C5000225A701023FB1800229A707B685B682A
S214016C605A687B685B689B682A4901202A4CA047C2
S214016C707B681B689B68294904221800284B9847A3
S214016C80031E43D17B681B689B680433FB600023AB
S214016C907B6115E07C69631C7B61FB680C22B9187B
S214016CA00A2218001F4B98470300DAB21023FB187C
S214016CB01A55FB681B782C2B0AD1FB680133FB6045
S214016CC07B69022B05DCFB681B78002BE2D100E018
S214016CD0C0461023FB181B781A001023FB185B789C
S214016CE018001023FB189B780F490093030001201E
S214016CF0094CA0471023FB1818781023FB18597865
S214016D001023FB189B781A00084B9847C046BD46CF
S214016D1007B090BD386F030041E30100406F0300E8
S214016D20D951030085530300486F0300C55F010076
S214016D3090B58BB000AF78600C23FB181422FF21AE
S214016D401800484B98477B681B689B684649092290
S214016D501800464B9847031E66D1454B1900012083
S214016D60444B98477B685B685A687B685B689B689E
S214016D70414901203F4CA0477B681B68DA687B6865
S214016D801B689B683D4901203A4CA04700237B6263
S214016D907B681B689B680933BB6015E07C6A631CD3
S214016DA07B62BB680822B9180A221800344B984740
S214016DB00300DAB20C23FB181A55BB681B782C2B80
S214016DC00AD1BB680133BB607B6A132B05DCBB6849
S214016DD01B78002BE2D100E0C0462A4B19000120A7
S214016DE0244B984700233B620DE00C23FA183B6ABC
S214016DF0D3181B781A00244B190001201D4B984705
S214016E003B6A01333B623B6A132BEEDD0C23FB1816
S214016E1018001E4B98470300012B1ED11C4B19006E
S214016E200120144B984718E01A4B19000120114B0A
S214016E3098477B685B685A687B685B689B680E4905
S214016E4001200C4CA0477B681B68DA687B681B68CE
S214016E509B680A490120074CA047C046BD460BB0B7
S214016E6090BDC046134E03005C6F0300D95103006A
S214016E70686F030041E30100386F0300846F03006D
S214016E80855303008C6F0300A06F03007D3F010054
S214016E90A46F0300C06F030090B583B000AF7860A5
S214016EA0094B19000120094B98477B685B685A68B3
S214016EB07B685B689B6806490120044CA047C04676
S214016EC0BD4603B090BDC046F06F030041E301002C
S214016ED00870030090B583B000AF7860094B1900C5
S214016EE00120094B98477B685B685A687B685B683A
S214016EF09B6806490120044CA047C046BD4603B026
S214016F0090BDC0463470030041E301004C7003009D
S214016F1090B58BB006AFF860B9607A60BB68012B9C
S214016F203BD0052B64D0002B00D067E07B681B6844
S214016F30002B25DB334B19000120334B984733498F
S214016F40334AF86800230593002304930023039330
S214016F5000230293002301932D4B00930B00012184
S214016F602C4CA047031E05D02B4B19000120264BA5
S214016F70984743E0294B19000120234B98473DE0F1
S214016F80274A284B190001201F4B9847244AFB68C3
S214016F9011001800244B984730E07B681B78002BC3
S214016FA01DD1224B2249F8680222224CA047224BCF
S214016FB02249F86802221F4CA047214B2149F86854
S214016FC002221C4CA047204B2049F8680222194C8B
S214016FD0A0471F4B190001200B4B98470EE07B681A
S214016FE01B781A001B4B19000120074B984705E038
S214016FF0194B19000120044B9847C046C046BD46B0
S21401700005B090BD8070030041E301009C70030051
S214017010AC70030039FC0200B8700300E070030096
S214017020B069030000710300F1FB0200316D01003D
S21401703038710300D9FD02003D6C01005C7003004D
S214017040996E01004C710300D56E0100607103005A
S2140170507471030088710300BC71030080B588B0A9
S21401706000AF3B1D18001F4B98473B1D1E4A9A60F8
S2140170703B1D80229200DA603B1D1C4A1A613B1DB3
S214017080802292005A613B1D194A1A803B1D194AFB
S2140170909A803A1D184B11001800184B98470300A8
S2140170A0FB61FB69002B06DAFA69154B1900012012
S2140170B0144B9847FEE7144A0F4B11001800134B68
S2140170C098470300FB61FB69002B06DAFA69104B4F
S2140170D0190001200B4B9847FEE7C046BD4608B095
S2140170E080BDC04631FB0200CC080020CC0A00203F
S2140170F05B070000701700009408002081FA020068
S214017100D071030041E30100116F010071FB020021
S2140171100472030080B584B000AF3B1D18000B4B12
S21401712098473B1D37221A603B1D00225A603B1DC3
S21401713001221A723B1D0222DA723B1D190007203A
S214017140034B9847C046BD4604B080BD696C02003B
S2140171509D6C020080B500AF064B00220721180087
S214017160054B984700210720044B9847C046BD466B
S21401717080BDC0468171010069680200CD680200C9
S214017180B0B500AF0C4B1B685A1C0B4B1A600A4B70
S2140171901B68282B02D9084B01221A60064B1B6874
S2140171A0064A07483F21074CA047074B01221A70A1
S2140171B0C046BD46B0BDC046B000002038720300D0
S2140171C0700000206D500300CC0C002080B500AF8D
S2140171D0154A164B11001800154B9847031E08D088
S2140171E0144B19000120144B984702E00020134B62
S2140171F098470E4B34229B5C002BF7D1104B9847D7
S214017200104B01221A70104A104B11001800104B37
S2140172109847104B9847104B9847104B03221A700B
S214017220C046BD4680BDC046B06903009408002034
S21401723025FD0200C06D030041E301005923020051
S21401724015590200340600208D68010059680100B6
S2140172505D590200C5580200816401002006002025
S21401726090B585B000AF09E000202A4B98472A4B1D
S21401727018002A4B98470520294B98471020294B80
S214017280984703001A0001235340DBB2002B09D0B4
S2140172902020244B984703001A0001235340DBB2F9
S2140172A0002BE1D1204B9847FA239B0018001C4B7A
S2140172B098471E4B00221A703B001D4A13CA13C37F
S2140172C03B0030221A700F23FC183900194B0A2292
S2140172D01800194B9847030023700F23FB181B78DF
S2140172E0002B08D00F23FB181A78144B1900002026
S2140172F0134B984703E0134B1800134B98470D4B5D
S2140173001800124B9847124B00221A70C046BD4611
S21401731005B090BD59230200EC4800204D2A030019
S21401732001C601005961010015590200340600200A
S214017330707203006808002015DD02004C7203001D
S21401734041E301005C72030055E2010015E702000B
S2140173502006002080B500AF184B9847184B984779
S214017360184A194B11001800184B9847184B9847A4
S214017370184B34229B5C01225340DBB2002B0CD00D
S214017380154A144B11001800144B9847031E04D0DD
S214017390134B19000120134B98470E4B34229B5C6C
S2140173A0002B04D0104B190001200E4B98470F4BB1
S2140173B001221A70C046BD4680BDC046155902005E
S2140173C05D700100196C0100E56B01005D5902005A
S2140173D0C558020094080020B0690300F1FB0200C2
S2140173E0C06D030041E301007C720300200600200B
S2140173F080B500AF00200C4B98470C4B18000C4B87
S21401740098470C4B98470C4B98470C4B98470C4B9E
S21401741034229B5C002B04D0094B64211800094BD5
S2140174209847C046BD4680BD59230200EC4800205F
S2140174304D2A03006D75010049740100D5740100E1
S2140174409408002021FE020090B585B002AF184BCB
S2140174501B68390000221800164B98470300012BC1
S21401746021D13B0000229B5E1C003B0002229B5E5A
S21401747019003B0004229B5E0F4A104801930091BD
S21401748023003F210E4CA0470C4B18000D4B98478C
S21401749004000A4A0C490D48002301930123009376
S2140174A023000B4CA047C046BD4603B090BDC04666
S2140174B02C06002055B401009C7203003000002009
S2140174C06D500300CB5103004C710300940800205B
S2140174D06DFD0200B0B586B004AF1A4B1B683900CB
S2140174E000221800184B98470300012B26D13B00B9
S2140174F01A68164B101C984704000D003B005A688A
S214017500124B101C984702000B00114911480292B9
S2140175100393009401950A003F210F4B98470D4BAA
S21401752018000E4B984704000A4A0D490D480023DF
S21401753001930123009323000B4CA047C046BD4690
S21401754002B0B0BD2C06002055B40100814C0300EA
S214017550C0720300300000206D500300CB510300C1
S21401756060710300940800206DFD020090B58BB099
S21401757002AF394B1B680822B91800221800374B96
S21401758098470300012B63D1354B364A03CA03C320
S21401759012881A800023FB612DE00823FA18FB6984
S2140175A0D3181B78FF2B2AD00823FA18FB69D318A7
S2140175B01B782D4A380003212C4CA0473A00284B53
S2140175C0110018002A4B9847FB6901330822BA18A4
S2140175D0D35CFF2B0CD0FB690133132B08DC3B007B
S2140175E02C221A803A001E4B11001800204B984797
S2140175F0FB690133FB61FB69132BCEDD00E0C0465E
S214017600174B18001B4B984703001A00144BD2184F
S214017610194B1000190003231A00184B9847104BFA
S21401762019000120164B9847164B19000120144BE0
S21401763098470B4B18000F4B98470400084A12490D
S214017640124800230193012300932300104CA04706
S214017650C046BD4609B090BD2806002055B40100BD
S214017660300000205C6F0300E87203006D500300D9
S21401767051510300CB510300EC720300DD4D0300B2
S21401768041E30100F0720300F47203009408002045
S2140176906DFD020090B58DB002AF78606420794B25
S2140176A09847794B9847002204210520774B984745
S2140176B00200774B1A60002206210520734B98477B
S2140176C00200744B1A600022142102206F4B984767
S2140176D00200714B1A600022022105206B4B98476D
S2140176E002006E4B1A606A4B1B68002B0BD0694B6D
S2140176F01B68002B07D0684B1B68002B03D0674B19
S2140177001B68002B03D1664B1800664B9847664BE7
S2140177101800644B9847654B9847654B9847654BEF
S2140177209847654B9847654B9847654B98470C2398
S214017730FB18182200211800624B9847624B9847A5
S2140177400C23FB18614A1A602723FC180C23FB182C
S21401775018005F4B9847030023702723FB181B78FC
S2140177605BB2002B09D02723FB1800229A56594BEF
S21401777019000120584B9847FEE7584A584B190004
S2140177800120554B9847574B9847574A574B11007E
S2140177901800574B9847574A5048FF230093130049
S2140177A002220621544CA04706E00020534B98477E
S2140177B0534B1800534B98470220534B98470300EE
S2140177C01A0001235340DBB2002BEED1FA239B00B3
S2140177D018002C4B98474D4B01221A704B4B1B78C7
S2140177E05BB2012B0BD002DC002B05D010E0022B84
S2140177F008D0032B09D00BE0454B98470CE0454BCE
S214017800984709E0444B984706E0444B984703E005
S2140178103E4B00221A70C0460B23FB1800221A703A
S2140178201B4B1B680B22B918002218003C4B9847CB
S2140178300300012B05D10B23FB181B785AB2334BDF
S2140178401A70384B1B78DBB2002B17D0364B18005A
S214017850364B98470400344A35493648002301938D
S214017860012300932300344CA0472F4A334B1900C1
S2140178700120194B98472B4B00221A706420014BAC
S2140178809847ABE701C60100E9600100F5A80100D1
S214017890240600202C0600202806002030060020A2
S2140178A00873030055E2010030730300256B0100E5
S2140178B0616B01005D700100416A010015710100F4
S2140178C055710100134E030065070200ED680100C3
