:10000000486F0020FD6B0000E16B0000E16B000019
:1000100000000000000000000000000000000000E0
:10002000000000000000000000000000352E00006D
:100030000000000000000000112F0000552F0000FC
:10004000E16B0000E16B0000E16B0000B1590000C2
:10005000B5580000E16B0000E16B0000E16B0000AF
:10006000E16B0000D95D0000E95D0000F95D000072
:10007000095E0000195E0000295E0000B16B0000FF
:10008000C16B0000D16B0000791A0000891A0000D2
:10009000991A00000000000000000000E16B000061
:1000A000E16B0000E16B0000E16B0000E16B000020
:1000B0000000000010B5064C2378002B07D1054B3B
:1000C000002B02D0044800E000BF0123237010BDC4
:1000D000000200200000000040AC0000084B10B5FA
:1000E000002B03D00749084800E000BF0748036819
:1000F000002B00D110BD064B002BFBD09847F9E731
:10010000000000000402002040AC000040AC0000F1
:100110000000000001680722CB691A42FCD1704739
:1001200070B5040006683268458B838BED1AADB25A
:10013000838B013B9BB2838313011DD5C37A002BB4
:1001400003D0838B9BB2012B10D0A38B9BB2002BCF
:1001500002D1A37A002B1CD12000124B9847236AAE
:100160005D192823F35CDBB22B7070BD72688023AD
:10017000DB0213437360E8E7C37A002BE5D0838B7F
:100180009BB2002BE1D172688023DB0213437360C2
:10019000DBE72000034B98477268C0239B021343A0
:1001A0007360D9E71501000070B5040005686B8B1A
:1001B0005B0703D51E222523C25470BD468B838B5B
:1001C000F61AB6B2838B013B9BB28383044B9847EC
:1001D000236A9E193378DBB22822AB54EDE7C04680
:1001E0001501000070B505000C0006684B7A002B65
:1001F0001AD17368134A1340736063682B62638873
:10020000AB8300222423EA5405320133EA54223B13
:10021000B375237A002B0BD123885B00627A92039B
:1002200013437362002070BD897A074B9847E0E75B
:1002300023885B00627A92031343802212021343E5
:100240007362EFE7FFFFFBFFF5190000F8B505004B
:100250000C0006684B6803624B88838301222423C9
:10026000C25404320133C25437683F01FF0F4B7A46
:10027000002B17D1002F02D06388012B16D0736892
:10028000204A13407360237A002B15D10323B375E2
:1002900023885B00627A9203134301221343736243
:1002A0000020F8BD897A184B9847E3E772688023ED
:1002B000DB0213437360E6E723885B00627A9203F4
:1002C0001343802212021343736228000F4B984796
:1002D00073680C4A134073600028E2D128000C4B6D
:1002E00098470028DDD10323B37523881B0A7822A1
:1002F00013435B00627A920301210A431343736242
:10030000CFE7C046FFFFFBFFF5190000C919000049
:1003100099190000931C9B00C3185960037E0121AA
:1003200091400B43DBB203767047000010B5838B1E
:100330009BB20522002B01D0100010BD0133837247
:10034000C372024B98470200F6E7C0464D02000018
:1003500010B5838B9BB20522002B01D0100010BD7D
:1003600001338372C372024B98470200F6E7C0461E
:10037000E501000070B58000754BC45825682B68F6
:100380001B01DA0F637E267E1E40638B9BB2002B1F
:1003900003D1A38B9BB2002B23D1638B9BB2002B89
:1003A00008D0A38B9BB2002B04D12533E35C052B33
:1003B00000D16DE0638B9BB2002B24D0A38B9BB24A
:1003C000002B20D06B8B9B0600D581E0002A04D047
:1003D000A38B9BB2012B00D17AE041222523E2546A
:1003E00011E02B7EDB0707D501232B766B8B9B0758
:1003F0002ED541222523E254A38B9BB26383252370
:10040000E35C052B38D0638B9BB2002B07D0A38B0A
:100410009BB2002B03D12533E35C052B64D025234D
:10042000E35C052B13D02523E35C002B0FD00323C3
:100430002B7500236383A3832533E35C412B03D017
:10044000A37A002B00D075E0730700D57BE070BD68
:100450006B8B5B07D0D518222523E2540023A3839E
:10046000A37A002BC8D020003A4B98476A68C02373
:100470009B0213436B60BFE71F33E35C002B03D089
:100480002000354B9847BEE72000344B9847BAE729
:100490001F33E35C002B00D08CE703332B75002364
:1004A000638325330022E254A37A002B07D1012372
:1004B0002B76F307A7D5E36820009847A3E7200031
:1004C000244B98476A68C0239B0213436B60F0E794
:1004D0002423E35C002B03D12000204B984792E7B4
:1004E00020001D4B98478EE71F33E35C012B96D10C
:1004F0002B7E9B0701D502232B7603232B7500232C
:10050000638325330022E254B30703D52423E35C3D
:10051000012B0BD0F30700D481E72423E35C002BED
:1005200000D07CE7E3682000984778E72369200043
:10053000984774E72000074B98476A68E023DB027E
:1005400013436B6080E76369200098477FE7C046EC
:10055000DC4D00201501000021010000A901000070
:10056000BFF34F8F024A034BDA60BFF34F8FFEE7B2
:100570000400FA0500ED00E0F0B587B002900E002F
:100580001F4B984704900F2402AB9C466444210003
:100590001C4B98472378002B07D11B4A3100029847
:1005A0001A4B9847002007B0F0BD0622002100201A
:1005B000174B9847174C210004A8174B9847002366
:1005C000E05E164FB847164D28600223E05EB8473C
:1005D00068600423E05EB847041CA860114F2868D7
:1005E000B8470390201CB84701906868B84700904E
:1005F000039B0D4A31000298044CA047D2E7C04645
:100600000D130000590E00002C970000898E000089
:10061000038D0000380200207D0E00003D0D00001B
:100620001C020020ED72000008970000F8B50600DB
:100630000F00064D1B23064A0F212800054CA0473A
:100640002A0039003000A0470020F8BD2802002011
:1006500098980000898E000010B5024A024B984716
:10066000002010BD40970000898E0000F0B5D646EE
:100670004F4680B583B06648664CA0476648A047A1
:100680006648A0476648A0476648674B98470322DC
:1006900000210120654B9847654B1860002806D162
:1006A00064490330644B98470020644B984700240A
:1006B000634B99465E4B9A4633E0012149425346CB
:1006C0001868604B984701A85D4B98472DE05E483D
:1006D000554B984700245D4B1C705D4B1C705D4D65
:1006E00031225D4928005D4B98473123EC545C4C26
:1006F000594E5C4F642221003000B84705000022AB
:100700006323E2542000484B9847002DF2D1322257
:1007100000215148544CA047642200215048A04772
:10072000002401A8C847431CC7D06B461B790A2B7D
:10073000CDD00D2BCBD0454A1278002A3FD0444A69
:100740001278032A13D8511CC9B241480170474896
:1007500083540129E5D946494448464B9847002827
:100760000BD10023394A1370394A1370D9E700239B
:10077000364A1370364A1370D3E7374C1B223E4972
:1007800020003E4B98472000274B984732220021FB
:100790002000354B984731222E4920002F4B984797
:1007A0002000374B98473124302803D82948344B50
:1007B00098470400E4B228481B4B9847D1E7082B20
:1007C00010D07F2B0ED01B2B1AD0312C03D8224AED
:1007D00013550134E4B200236A46537101A8124B49
:1007E00098479EE7274B1B68009368460E4B984737
:1007F000002C96D0013CE4B20022174B1A5590E72A
:100800000122124B1A700022114B1A7089E7C04660
:10081000A0980000E11A000088980000C09800002D
:10082000B0980000189800001D57000039330000F0
:10083000643800205C980000CD570000994A000001
:10084000A15700001D3E00001CAA00003E0200202F
:100850003F02002078020020440200209D8F00000B
:10086000AC020020251B0000038D00004002002088
:100870007C980000318F000080980000ED8E000011
:100880006D8F00000497000010B5084C0023236012
:10089000074B18682100074B98472368002B03D0AB
:1008A00080225205044B1A6010BDC0461003002080
:1008B00064380020013B000004ED00E010B582B078
:1008C0000A4B00241C7001229A600194084B18689E
:1008D00001A9084B9847084B1C70019B002B03D0C3
:1008E00080225205054B1A6002B010BD140300208F
:1008F00094380020013B00002803002004ED00E0B4
:1009000010B582B00A4B00241C7001229A60019439
:10091000084B186801A9084B9847084B1C70019BAD
:10092000002B03D080225205054B1A6002B010BD87
:100930001403002094380020013B0000280300200D
:1009400004ED00E010B582B00A4B00241C700122B7
:100950005A600194084B186801A9084B9847084B46
:100960001C70019B002B03D080225205054B1A609E
:1009700002B010BD1403002094380020013B000099
:100980002803002004ED00E070B50C4C00220C4957
:1009900020000C4DA847637E0122134363760A4969
:1009A0002000A847637E0222134363760749200094
:1009B000A847637E04221343637670BD6C38002021
:1009C000BD080000150300000109000045090000F2
:1009D00070B58EB001AB64220192334A02920022BC
:1009E00003921A731A7680218903059101214942E5
:1009F000998225315A540B9208315A5401315A5474
:100A000001315A54D7321A86284A0892284A099244
:100A1000FA229200DA820324264D274E01AA2749A2
:100A20002800B047002806D02248254B9847013CB3
:100A3000E4B2002CF2D11F4B1C680722E3691A4272
:100A4000FCD123680222134323601A4D28681D4BF2
:100A500098471F2318401E3B83401B4A1360E888B9
:100A600000231021628B0A4204D101338342F9D35F
:100A700010236383154B98470120154B9847154C5D
:100A80002060032200210120134B9847134B18606C
:100A90002368002B04D00023002802D1063300E095
:100AA000062318000EB070BD480D000002000800BB
:100AB000020009006C3800202916000000080042DE
:100AC00021190000A95D000000E100E08909000093
:100AD0009D3700006838002039330000943800202A
:100AE00010B5002812D04368002B12D00A490278B2
:100AF0000A804B60C3894B800848094B9847002304
:100B0000002801D1180010BD063BFBE708235B421B
:100B1000F8E708235B42F5E7983800206C3800209E
:100B20005103000010B5002813D04368002B13D0E8
:100B30000B4903780B8083684B6083894B8009489D
:100B4000094B98470023002801D1180010BD063B2F
:100B5000FBE708235B42F8E708235B42F5E7C04662
:100B6000983800206C3800202D03000010B5084B89
:100B70001B78002B08D1074B1868002300220021A6
:100B8000054CA047002010BD14204042FBE7C046A2
:100B900014030020683800207534000070B501256A
:100BA0006D42074E29003068064CA0473068290086
:100BB000A0470023012801D1180070BD1D3BFBE7B1
:100BC000683800201D3E000070B505000C000800CC
:100BD0000F4B9847002800D070BD0E4B1E682800B0
:100BE0000D4B9847002805D1210030000B4B98474A
:100BF000012802D00A4B9847EEE70A4B1B78002BDE
:100C000003D00022074B1A70F4E7054B9847E3E73F
:100C10009D0B000094380020E10A00001D3E0000FA
:100C20006D0B00002803002030B583B00190140044
:100C30001000134B9847002801D003B030BD114B72
:100C40001D680198104B9847002805D12100280005
:100C50000E4B9847012802D00D4B9847EDE70D4BFE
:100C60001B78002B03D000220A4B1A70F4E701A86E
:100C7000054B98470400064B98472043DDE7C046E4
:100C80009D0B000094380020250B00001D3E000045
:100C90006D0B00002803002010B50E480170838101
:100CA000147884605C1CC4810B480170002B07DD44
:100CB0000A49CB1810780870013201319942F9D1F4
:100CC0000448054B4360012252423221044B9847AD
:100CD00010BDC046E4380020A4380020A53800200C
:100CE000290C000070B50B480170002B07DD0A4885
:100CF000C5181478047001320130A842F9D10748B0
:100D000001700133C381034B436001214942044B0D
:100D1000984770BDA4380020A5380020E438002092
:100D2000C90B000070B5856844682800A04770BDF5
:100D300070B5856804682800A04770BD10B5034BE6
:100D400098470349034B984710BDC0462D730000D8
:100D500023DB793DAD70000070B582B004000D005A
:100D6000012301AA10210A4EB047002801D002B089
:100D700070BD01AA032129408B0011780C308143FA
:100D800019431170012310212000024CA047EEE707
:100D9000250D0000310D000070B582B004000D007B
:100DA000012301AA11210A4EB047002801D002B048
:100DB00070BD01AA072129404B0011780E308143F4
:100DC00019431170012311212000024CA047EEE7C6
:100DD000250D0000310D000070B582B004000D003B
:100DE000012301AA12210A4EB047002801D002B007
:100DF00070BD01AA012129408B0111784030814347
:100E000019431170012312212000024CA047EEE784
:100E1000250D0000310D000070B582B004000D00FA
:100E2000012301AA15210A4EB047002801D002B0C3
:100E300070BD01AA01212940CB00117808308143FF
:100E400019431170012315212000024CA047EEE741
:100E5000250D0000310D000070B582B00D0001AC11
:100E6000012322001E21044EB0472378DB07DB0F4D
:100E70002B7002B070BDC046250D000030B583B0A8
:100E80000C0006236A4628210A4DA8476B465A786B
:100E900012021B789B1823806B46DA7812029B782B
:100EA0009B1863806B465A7912021B799B18A380AA
:100EB00003B030BD250D000070B582B004000D00F8
:100EC000012301AA0121094EB047002801D002B038
:100ED00070BD01AAAD0113783F211940294311705B
:100EE000012301212000024CA047F0E7250D00005E
:100EF000310D000010B50A0001230F21014CA0475D
:100F000010BDC046250D000070B582B004000E0073
:100F1000012301AA1221094DA847002801D002B0DF
:100F200070BD01AA01210E4011780123994331437C
:100F3000117012212000024CA047F0E7250D00009F
:100F4000310D000070B582B00D0001AC012322000C
:100F50001221044EB0472378DB07DB0F2B7002B061
:100F600070BDC046250D000070B582B004000D00B4
:100F7000012301AA10210A4EB047002801D002B077
:100F800070BD01AA012129404B0011780230814334
:100F900019431170012310212000024CA047EEE7F5
:100FA000250D0000310D000070B582B004000D0069
:100FB000012301AA1721104EB047002801D002B02A
:100FC00070BD01AA2B0901210B409800137804265B
:100FD000B3436E09314009010343102083436D017F
:100FE0000B431F210B401D431570012308392000BE
:100FF000024CA047E3E7C046250D0000310D00007C
:1010000070B582B004000D0001236A461821164E07
:10101000B047002801D002B070BDEA0952006B460B
:101020001B7802218B4313436A4613700123163148
:1010300020000E4EB0470028EDD1012301AA622105
:101040002000094EB0470028E5D101AA032129401C
:10105000CB001178183081431943117001236221AC
:101060002000024CA047D6E7250D0000310D0000FE
:1010700070B504000D000221084B9847002800D0ED
:1010800070BD02232A0046212000054DA8470028F4
:10109000F6D100212000014B9847F1E7B90E00007E
:1010A000250D000070B582B004000D000221174B21
:1010B0009847002801D002B070BD012301AA5F212A
:1010C0002000134EB0470028F5D101AB1B78DB069A
:1010D0009B0FDAB2012A0FD0002A06D0022A0ED0C6
:1010E000032A0FD000232B7001E000232B70002176
:1010F0002000064B9847DEE701232B70F7E7022319
:101100002B70F4E703232B70F1E7C046B90E000003
:10111000250D000070B582B004000D0001A9384B08
:101120009847002842D101A90A78D00793071843AD
:101130005307034310070343D0061843930618438D
:1011400053060343DB0FD20913434A78D107C90F73
:101150000B439107C90F0B435107C90F0B431107ED
:10116000C90F0B43D106C90F0B439106C90F0B439F
:101170005106C90F0B43D2091343DBB2012B17D021
:1011800001236A46102120001E4EB04700280DD1D1
:101190002B016A4612780F2515401D436B461D70C2
:1011A00001236A4610212000174CA04702B070BDF1
:1011B0006B46D91C2000154B98470028F6D16B468A
:1011C00003331B78012B0FD0002B09D0022B11D039
:1011D000032BD5D12B1C032D00D80423DDB2CFE780
:1011E000002DCDD10125CBE72B1C012D00D80223EA
:1011F000DDB2C5E72B1C022D00D80323DDB2BFE70B
:1012000071100000250D0000310D0000A510000038
:1012100070B582B004000D0001A9384B9847002832
:1012200042D101A90A78D007930718435307034313
:1012300010070343D006184393061843530603438D
:10124000DB0FD20913434A78D107C90F0B4391072B
:10125000C90F0B435107C90F0B431107C90F0B43AC
:10126000D106C90F0B439106C90F0B435106C90F95
:101270000B43D2091343DBB2012B17D001236A467B
:10128000112120001E4EB04700280DD12B016A46C7
:1012900012780F2515401D436B461D7001236A46C9
:1012A00011212000174CA04702B070BD6B46D91C1D
:1012B0002000154B98470028F6D16B4603331B7866
:1012C000012B0FD0002B09D0022B11D0032BD5D12D
:1012D0002B1C032D00D80423DDB2CFE7002DCDD188
:1012E0000125CBE72B1C012D00D80223DDB2C5E779
:1012F0002B1C022D00D80323DDB2BFE771100000C4
:10130000250D0000310D0000A510000000487047B9
:1013100000000020F0B583B001211B481B4B98470B
:1013200004006B46DD1D184E194F29003000B847E8
:1013300004432B78002BF8D1134D80212800154B46
:10134000984701212800144B984700212800134B8F
:10135000984701212800124B984701212800114B82
:10136000984700212800104B9847062128000F4B72
:101370009847042128000E4B9847012128000D4B67
:101380009847200003B0F0BD00000020090F0000C6
:10139000450F000001100000D90D0000190E0000DB
:1013A0001511000011120000590D0000990D0000E8
:1013B000A90F0000690F000010B582B001242300BE
:1013C0008B400F211940490001231A400A4301AB09
:1013D000102119705C709870DA7006482E22027025
:1013E00043600423C381002383815431024B984717
:1013F00002B010BDF4380020C90B000030B583B036
:101400000E246D462C700A3C6C702A716971AB71A8
:101410004300C018030AAB70E87004484560072316
:10142000C3816421024B984703B030BDF4380020DB
:10143000C90B000000B583B001AB064A92881A8040
:10144000054843600223C3816421044B984703B0DD
:1014500000BDC046D0980000F4380020C90B000041
:10146000F0B5CE4600B584B04B482E2303704B4BED
:1014700043600223C38103AB836001238381642221
:101480000021474B984700280DD103AB1B78552B03
:101490004FD04448444B984701230193019804B02E
:1014A00004BC9146F0BD41483F4B98473A48404BF9
:1014B00043600323C38164213E4B984700283CD1FD
:1014C00035483D4B43600323C3816421394B984722
:1014D000002836D13048394B43600423C38164214E
:1014E000344B9847019000282FD1FF23FF22FF2182
:1014F0000F20334EB047334CA047C8204000324B3A
:1015000098470023002200210F20B047A04722481F
:101510002E2303702D4B43600323C381002383815B
:101520006421244B9847002813D100260327284D17
:1015300016E028481C4B9847B8E727481A4B9847AD
:10154000BEE72648184B9847C4E72548164B9847EE
:10155000CBE72448144B9847E7E70136102E9DD07F
:10156000F2173C001440A419A410E400920FB31821
:101570003B409B1AE418E4B2012239002000A8473E
:101580008146012202212000A8474B460343E4D0B4
:101590001448054B9847E0E7F4380020BC99000058
:1015A000290C0000F89800001D570000D898000092
:1015B000C8990000C90B0000CC990000C499000034
:1015C000FD13000035140000F9480000C099000028
:1015D000B913000004990000189900003899000020
:1015E000649900009899000070B50848084B984726
:1015F0000022084B1A70084D1C001E003220A8471C
:101600002378022BFAD900233370F7E7D099000032
:101610001D57000004390020F94800000168072226
:10162000CB691A42FCD17047F0B5D6464F464646C4
:10163000C0B58AB006000F00140031600800A04B4E
:101640009847A04A116A851C0123AB400B431362E3
:1016500009A9237B0B701430C5B228009A4B984718
:1016600028009A4B9847207B0021994B98473B686C
:101670001C209B0705D50AB01CBC90469946A24683
:10168000F0BD3B681738DB07F5D430688C4B9946C2
:10169000984705008F49904B9847AD008F4BEE500F
:1016A00000233376737600257383B3832522B554E4
:1016B000336214333B60336898461800C84781464C
:1016C000802308AA1370557001239370D570E069C8
:1016D000276A002800D1AFE008AB1870022308AADF
:1016E0005370000CC0B211007D4B9847002F00D101
:1016F000A7E008AB1F70022308AA53703F0CF8B292
:101700001100774B9847A38AF380E38A3381237EC5
:101710008022002B04D1734B9B789B07DB0FDA01EF
:10172000A16823690B4313432422A25C002A02D040
:101730008022D2051343A26A13432C22A25C002A02
:1017400003D180229204914202D1802212051343D8
:101750002D22A25C002A02D08022120413432E22E2
:10176000A25C002A02D08022D203134342461268B0
:1017700013434246136080235B0053604846143095
:10178000C0B2594B98470790FA239B0022685A43EE
:10179000914663689A46554DA847009001914B4683
:1017A0005800A84702900391208EA8470490059105
:1017B0004F4F504A504B00980199B84702000B0018
:1017C00004980599B8474D4E00224D4BB047049000
:1017D00005914846A84702000B0004980599B847B0
:1017E00002000B00474D00980199A847029A039BFD
:1017F000B0470022444BA847029A039B434DA84799
:10180000434B9847050080239B04A2689A421ED050
:1018100003004020FF2D00D92DE700240020FF25E4
:101820001D40240625430004FF231B0418400543E4
:101830004346DD6000201EE700214046354B9847B7
:101840004AE701214046334B9847070051E7FA2603
:10185000B60053465E430098019902000B00274CE6
:10186000A047009001913000204B984700222A4B5E
:10187000B84702000B0000980199244CA0470022B1
:10188000214B204CA047224B9847041E0CD031001E
:101890000798224B98470238001B2B00FF2D0CD8CD
:1018A000FF28BCD94020E6E67100481E079B9C46F5
:1018B00060441A4B98470138EFE74020DBE6C0460A
:1018C000315D000000040040DD6900005169000046
:1018D0006D5B0000750300006D5D0000DC4D0020B5
:1018E000056B000000200041F9690000E98B000051
:1018F0005580000095D626E80B2E113ECD730000D2
:1019000000002440558500000000F03FED79000004
:10191000818B0000B95B000000000840416F0000AF
:10192000F8B5CE46474680B5040003689946144E84
:10193000B04725682800134B984698471F23184046
:1019400001273900814061330F4AD1502000B04750
:1019500083232B752B762B68022293432B600B4B32
:1019600098472068C0470A4B98470A4B9847200081
:10197000B0474B461F600CBC90469946F8BDC04628
:101980001D160000A95D000000E100E00D580000F8
:101990002D6A00004D58000003681A7E920707D593
:1019A00002221A765B8B9B074120DB171840704799
:1019B0005A8B520706D55968C02292020A435A60D0
:1019C0001820F4E70020F2E730B502680023012474
:1019D0000225117E21420BD1117E294206D101330D
:1019E0009BB201899942F4D8122002E0002000E065
:1019F000002030BD10B5046862688023DB02134309
:101A000063606162024B98470123237610BDC04694
:101A1000C919000070B58000164BC45823689D7B1F
:101A2000227E637E13401D40EB0706D4AB070BD428
:101A3000EB0610D4AB0615D470BD2000A368984700
:101A4000012322689373F1E72000E368984702239B
:101A500022689373ECE720002369984710232268DB
:101A60009373E7E7200063699847236820229A73FD
:101A7000E2E7C0460839002010B50020014B984726
:101A800010BDC046151A000010B50120014B984743
:101A900010BDC046151A000010B50220014B984732
:101AA00010BDC046151A000070B50A00094B1B682E
:101AB000002B0AD0074C25682B685968064B9847BD
:101AC00068682060431E984170BD0449014B19604D
:101AD000F0E7C046300300209D8F0000100000207A
:101AE00070B5051E06D008200A4B9847041E03D186
:101AF00072B6FEE772B6FEE7074B984725600023F3
:101B00006360064B1A6854601C60054B98470120BF
:101B100070BDC046852F0000C12E00000C000020C3
:101B2000D92E0000F0B5DE4657464E464546E0B594
:101B300083B0060000910192394B1B68002B11D035
:101B40001B689B683200019900989847002802D1D1
:101B50000022334B1A6003B03CBC90469946A24623
:101B6000AB46F0BD2F4C2E4B1C602F4B99462023CB
:101B700098462E4B9B462A4B9A460AE002002900C3
:101B80003000D84700280DD0646853461C60002CF4
:101B90003ED027683D682800C847335C42469343DF
:101BA000F2D1EBE73F7B7FB2002F2DDB3378002BA8
:101BB00028D0320000250021012408E001290AD0A4
:101BC00001356DB2210001321378002B05D0202B96
:101BD000F4D00100F7E72100F5E701290FD0104B01
:101BE0001B68002B14D0AF42AAD0019A104900986C
:101BF000104B984700220A4B1A600020ABE7013DCA
:101C00006DB2ECE70025EAE7054B1B68002B97D186
:101C1000019A09490098074B984700209BE7C04666
:101C20002C030020100000206D8F00007B8F00002F
:101C3000E49900009D8F00003C9A000010B5014B14
:101C4000984710BD7541000010B5024B984780B20F
:101C500010BDC046C54D000010B5024B9847000CA2
:101C600010BDC046C54D000070B504000D00044B0A
:101C70009847010C090429432000024B984770BD86
:101C8000C54D0000D14D000070B504000D00054B9E
:101C900098470104090C2D0429432000024B984762
:101CA00070BDC046C54D0000D14D000010B5024BBF
:101CB000984780B210BDC0466D41000010B5024B80
:101CC0009847000C10BDC0466D41000070B504007F
:101CD0000D00044B9847010C090429432000024BD6
:101CE000984770BD6D4100007141000070B504005F
:101CF0000D00054B98470104090C2D0429432000D1
:101D0000024B984770BDC0466D4100007141000014
:101D100010B5014B984710BDD94D000010B5040017
:101D2000094B9847012C04D0022C05D0002C07D178
:101D300010BD064B9847FBE70548064B9847F7E769
:101D40000548044B9847F3E7411F0000212D000090
:101D5000F89D000019210000389E000010B52F4B9F
:101D60001B680922DA65013264215A5401315A5440
:101D700001315A54053201315A54623968201954DC
:101D800001301954013019540130195401301954DB
:101D90006B315A5401315A5401315A5401315A5459
:101DA00001315A5401315A5401315A5401315A54B3
:101DB00001315A5468396D329954013299540132C3
:101DC00099546B3A13301A54112401301C540130C9
:101DD000195472315A5401315A5401315A54002164
:101DE00075329952A03102329952A0310232995281
:101DF000A031023299520A490232995209490232FB
:101E000099520949023299520849023299525F3176
:101E100002329952064A1A6610BDC04634030020A9
:101E2000FD02000052030000A203000001040000B4
:101E3000BF040000174B00225A821A800A329A828D
:101E40005A800A32DA829A800A321A83DA800F3292
:101E50005A831A8105329A835A810532DA839A812C
:101E600005321A84DA8105325A841A82383A9A8401
:101E70000A32DA840A321A850F325A8505329A8577
:101E80000532DA8505321A8605325A8605329A8677
:101E90007047C04650030020082813D880000B4B21
:101EA0001B589F460A4810E00A480EE00A480CE01A
:101EB0000A480AE00A4808E00A4806E00A4804E03E
:101EC0000A4802E00A4800E00A487047D49A000035
:101ED000409B0000889B0000DC9B0000289C0000C9
:101EE000749C0000C09C0000149D00006C9D0000CC
:101EF000C89D0000F89A000010B5002A0DD00B789C
:101F000003700B78002B08D0002301339A4204D0D1
:101F1000CC5CC454CC5C002CF7D110BD10B5064B82
:101F20001B68002B01D000221A63044B1B68002B96
:101F300000D0984710BDC04634030020FC030020A9
:101F4000F8B5DE4657464E464546E0B5514B1B6850
:101F5000002B00D199E01B78012B00D18FE04E4B74
:101F60001A684E4B1A604B4C4D4D2A0000212068D8
:101F70004C4B984723684C4A9A8105229A73002259
:101F8000DA731D61C82149009961484959659A650C
:101F90005A63474B98472068464A474BC250C8226D
:101FA00092000433C250454B0122C250444A91234F
:101FB0001B01C250434B9C46604450224249434B54
:101FC000984723684249434A99500A21424A995402
:101FD0000131424A99540131414A99540131414AEF
:101FE000995401326431995472253F4A9D547326A5
:101FF0003E4A9E5474273E4A9F54F12290463D4AE1
:1020000041469954F22291463B4A49469954F3225B
:1020100092463A4A51469954F4229346384A5946D0
:102020009954384B984723685A46DA7252469A7246
:102030004A465A7242461A72DF719E715D71712270
:102040001A710422DA70032322689370013B22681C
:102050005370236801221A702B4B196800290ED087
:102060000C4C2368174A9446634418005022174BBF
:10207000984722680121254BD150254B98473CBCFD
:1020800090469946A246AB46F8BD224A014B1A60DB
:1020900065E7C0463403002018E000E0CC4800208B
:1020A000B80F0000038D0000A11A0000F0F0F0F05E
:1020B0005D1D0000F1F1F1F15C0500006405000018
:1020C000F2F2F2F21409000038A00000F91E00003C
:1020D000F3F3F3F364090000AC0F0000AD0F000050
:1020E000AE0F0000AF0F0000B10F0000B20F0000F4
:1020F000B30F0000B40F0000B50F0000B60F0000D2
:10210000B70F0000351E0000EC0300200C09000092
:102110001D1F00001439002010B504000E4B1B6871
:10212000002B01D00D4B98470D4B1B68002B00D0A6
:1021300010BD0B4B1C60084B18680028F8D0094BE9
:102140009C46604450222100074B9847024B1A6876
:102150000121064BD150EBE7340300201D1F000086
:10216000EC03002014090000F91E00000C09000017
:1021700010B50B4B1868036B002B0FD0C36990226E
:10218000FF32934205D89B00064A94466344C01828
:1021900010BD0548054B98470020F9E70020F7E7F8
:1021A00034030020680900004CA000001921000041
:1021B000F0B5C64600B5002806D007000025002867
:1021C00005D0234B98460AE02248234B984704BC8D
:1021D0009046F0BD012A20D00135BD42F7D24346DA
:1021E0001C68E369EB189E00A2191C498C466244E6
:1021F000127811006731C9B20E29EBD86832D2B219
:10220000D318A1698B42E7D2013292006346F018DD
:1022100020180021124B9847DEE70133A269934250
:1022200007D20E4BF0182018082200210C4B9847BB
:10223000D2E70A4BE01804220021094B9847074BCC
:10224000F018201804220021054B9847C4E7C04627
:10225000340300206C9E0000192100006809000072
:10226000038D000010B50B4B1B681A6B002A10D0B1
:102270005A6901325A61DA690132DA619021FF311B
:102280008A4203D901221A620022DA610120024B3C
:10229000984710BD34030020B121000070B5040040
:1022A0000D00FF2802D00D4B984203D1AC4205D35C
:1022B000280070BD0A480B4B9847F9E70A4B98472E
:1022C000002809D0012303702B00A3431A0A42708F
:1022D0001B0C4380054B98472540E9E7FFFF0000B2
:1022E000709F00001921000071210000652200008C
:1022F00010B5082914D8002817D00E4B1A685318A7
:1023000064331B78834210D353187C331B78013815
:1023100058434031490051180B89C01880B208E079
:102320000548064B9847002003E00548034B9847B3
:10233000002010BD3403002000A600001921000079
:1023400040A6000010B50B0001001800044B984790
:10235000044B1B6818189C300123037010BDC04645
:10236000F12200003403002070B5040008001500BD
:10237000082C13D80D4B1B681B1964331B788B4238
:1023800010D321000A4B9847084B1B681C19703466
:1023900022781B189B189D331D7070BD0548064B95
:1023A0009847FAE70548044B9847F6E734030020BE
:1023B000F122000088A1000019210000D4A1000032
:1023C00010B504000800082C13D80F4B1B681B190C
:1023D00064331B788B4211D321000C4B98470A4B76
:1023E0001B681C19703422781B189B189D331878B1
:1023F00010BD0748074B98470020F9E70648054BF2
:1024000098470020F4E7C04634030020F122000082
:10241000AC9F000019210000F89F000070B5040077
:1024200008001500082C13D80D4B1B681B196433CA
:102430001B788B4210D321000A4B9847084B1B682E
:102440001C19703422781B189B189C331D7070BDAA
:102450000548064B9847FAE70548044B9847F6E7C6
:1024600034030020F122000008A10000192100001F
:102470004CA1000010B50B4B1A686723D35C834254
:102480000CD30321084B9847064B1B6873229A5CB8
:102490001B189B189C3300221A7010BD0348044B74
:1024A0009847FAE734030020F122000014A200004C
:1024B0001921000070B52D4B1B68002B46D0082851
:1024C00049D8EFF31084012383F31088284A136856
:1024D00001331360274A43009B5AD21848321278BE
:1024E000002A0AD12349CD1848355A1C060008365F
:1024F000760089194988521A2A7001001031490062
:102500001C4A521892889A422AD31A49CA18483249
:10251000127801339BB245006B52050008356D00FF
:102520004D196D885B1B050018356D004919C98868
:102530008B4203DD0F494819DBB2C3800C490B689D
:10254000013B0B6084F31088100070BD0A480B4BF0
:1025500098470022F8E70A48084B98470022F3E71B
:10256000084B9847054B98470022E7E734030020C3
:10257000E40300205003002004A7000019210000FC
:10258000289F0000991E000070B504000800151E69
:1025900012D0082C14D8002916D0164B1B681B1912
:1025A00064331B788B4213D32100134B9847134B92
:1025B0001B68002B12D070BD1148124B9847FAE7E8
:1025C0001148104B9847F6E710480E4B9847F2E732
:1025D00020000F4B98470B4B9847ECE7054B1B68C7
:1025E0001C19703422789C3018182900094B984720
:1025F000E1E7C04634030020F1220000EC03002094
:1026000074A0000019210000A8A00000D8A00000BC
:10261000991E0000F91E000070B51E4B1B68012BAF
:102620002BD01D4B19681D4B1B680131C91A1C4B5F
:102630001B681C4A1468E243DA4224D41A4A14681C
:10264000A142A44164421C1900281FD0124D2B68DE
:1026500001339B0863431A00144E33602D68013523
:1026600003232B4063435B189B089B1833600C4A81
:10267000146003600C4B196070BD0028FCD00B4B3C
:102680001B680360F8E7A342DED1D7E7044B1C6068
:10269000F0E7C046F003002014E000E018E000E09E
:1026A0004C030020F80300204403002048030020CE
:1026B000F0B583B0050000230193FF2802D0394B09
:1026C000984235D1384B1C68636A002B05D1374BD3
:1026D0001B68002B31D09B08636201A8344B9847DC
:1026E000019B344A11685C1A13602F4A1668776A96
:1026F000002F32D0BC422CD9390020002E4B9847F5
:10270000F36A9C466044F062390020002B4B9847E6
:10271000B36A9C466144B162234B1B689A6A596A4A
:102720008A421BD3D86A0130D862521A9A6215E0E5
:102730002348244B9847002014E0234B1A68234B6E
:102740001B689A42C9D00020214B984780086062DC
:10275000C3E7B36A1B19B362DEE7B362AC4203D8C6
:102760002000284003B0F0BD1A4B98470028F7D04E
:102770000C4B9D4207D0FF2D0CD01748114B9847AA
:10278000164B9847ECE7A9230370230C43800023E2
:102790004370F5E7A8230370230A4380230E437098
:1027A000EEE7C046FFFF000034030020E8030020EE
:1027B00019260000E0030020416F00004D7000006A
:1027C000C49E00001921000018E000E0CC48002061
:1027D000C568000071210000049F00006522000010
:1027E00070B5041E1DD01B4B1B68002B19D00F2881
:1027F00018D8194B1B68002B18D1EFF31085012353
:1028000083F31088144A136801331360134B1B6859
:102810001B6B002B0ED1104A1368013B136085F32C
:10282000108870BD0E480F4B9847FAE70E480D4BC5
:102830009847F6E70D480E4B984706000D4B984712
:102840000028E8D002230370468044700A4B984762
:10285000E1E7C04624000020E40300203403002008
:1028600004A500001921000044A50000FFFF00009E
:10287000B12600007121000065220000F0B583B090
:1028800000900C00284B1B68002B1DD0D317D618C6
:102890005E40EFF31085012383F3108823490B6812
:1028A00001330B60002C04D0214B19688C46624424
:1028B0001A601D4B1B681B6B002B07D11B4A13684A
:1028C000013B136085F3108803B0F0BDFF20194B66
:1028D0009847019031001848184B98470600184B4C
:1028E0009847071EEAD06B461B794370002303709C
:1028F0004680144B984721000F48104B984706001C
:102900000F4B98470028D9D04680002343706B4670
:102910001C78631C03703C700A4B9847024B1B6881
:10292000034A12681A65C9E734030020E403002053
:102930003C030020B1260000FFFF00009D220000A4
:102940007121000065220000F8B505001400FE2882
:1029500025D8082927D8214B1B68591864310B78D2
:10296000934224D31E4B1B68002B24D11D4B1B7894
:10297000002B13D0EFF31086012383F31088184A3D
:10298000136801331360154B1B681B6B002B16D1AA
:10299000134A1368013B136086F31088F8BD124890
:1029A000124B9847FAE71248104B9847F6E7114840
:1029B0000E4B9847F2E710480C4B9847EEE70F484C
:1029C0000F4B984707000F4B98470028E0D04780EF
:1029D000057044700C4B9847DAE7C046340300207A
:1029E000E4030020380300205CA20000192100004D
:1029F00094A20000DCA2000024A30000FFFF00005E
:102A0000B12600007121000065220000F0B5C64625
:102A100000B5060014001D00FE2827D8082929D873
:102A2000244B1B68591864310B78934226D3224BF0
:102A30001B68002B26D1EFF31088012383F3108845
:102A40001D4A1368013313601A4B1B681B6B002B64
:102A500003D01A4B1B78002B18D1174A1368013B7F
:102A6000136088F3108804BC9046F0BD1448154BE1
:102A70009847F8E71448134B9847F4E71348114B6D
:102A80009847F0E712480F4B9847ECE7FF20114BAF
:102A9000984707002900FF200F4B984705000F4B70
:102AA00098470028D9D0C7700670447085700C4BC9
:102AB0009847D2E734030020E403002038030020C5
:102AC000ECA30000192100002CA400007CA400004D
:102AD000CCA40000B12600009D220000712100005E
:102AE00065220000F8B504000D00FE281CD81C4B20
:102AF0001B68002B1CD1EFF31086012383F3108891
:102B0000174A136801331360164B1B681B6B002BAD
:102B100003D0154B1B78002B0ED1114A1368013BD3
:102B2000136086F31088F8BD1048114B9847FAE7F8
:102B300010480F4B9847F6E7FF200F4B98470700C8
:102B400029000E480E4B984705000E4B9847002869
:102B5000E3D04770047045800B4B9847DDE7C046D3
:102B6000E403002034030020380300205CA30000AD
:102B700019210000B4A30000B1260000FFFF0000EF
:102B80009D2200007121000065220000F8B50400BC
:102B90000F2818D8EFF31085012383F31088264AF5
:102BA000136801331360254B1B78834204D0244BF8
:102BB0001B681B6B002B0AD11F4A1368013B136073
:102BC00085F31088F8BD1F481F4B9847FAE700228D
:102BD0001E4B1A601E481F4B98470700174B1C706E
:102BE0001D4B9847061EE7D0144B1878144B1A68F3
:102BF0006723D35C83420FD30321184B9847104BB4
:102C00001B6873229A5C1B189B189C331B78012B42
:102C100005D10633337004E011480B4B9847062367
:102C2000337077807470054B1978012203200D4BA7
:102C300098470D4B9847BFE7E40300203803002076
:102C4000340300207CA5000019210000400300206F
:102C5000FFFF0000B126000071210000F1220000FA
:102C6000C4A500001D2400006522000070B5204BA3
:102C70001B68002B0AD0186B012806D01D4B1B685F
:102C8000002B08D01A4B1B68186B70BD1A481B4BE1
:102C900098470020F9E7EFF31085012282F31088AE
:102CA00017490B6801330B60114B1B681A63154BF6
:102CB0009847154B9847C4B2002C09D02000134BFD
:102CC00098470F4A1368013B136085F31088D9E7D2
:102CD00003200F4B9847060004000E4A0100032012
:102CE0000D4B98470022310003200C4B9847E5E735
:102CF00034030020EC03002080A60000192100000E
:102D0000E4030020111D0000491C00008D2B000071
:102D1000B5240000C4A60000892500006923000036
:102D200010B5014B984710BD6D2C0000030008330F
:102D30004360012252428260C3600361002303604A
:102D4000704700230361704743684B609A688A604C
:102D50009A685160996008610368013303607047A5
:102D600030B50C6802000832631C02D1026904E02D
:102D70001A0053681D68AC42FAD253684B609960E0
:102D80008A605160086103680133036030BD0369E4
:102D90004268816891608268416851605A689042D7
:102DA00006D0002202611A68013A1A60186870475A
:102DB00082685A60F5E7000082B000230193064B59
:102DC0001B68013301D072B6FEE772B6019B002B7F
:102DD000FCD002B07047C046280000200000000070
:102DE0000B4A13681868203080F30988022080F3AA
:102DF0001488BFF36F8F3FBCAE4608BC04BC62B6FC
:102E00001847C046C046C046C046C046C046C04639
:102E1000D036002010B5031F802464041C60043BDE
:102E20001960043B02491960143B1A60403810BD18
:102E3000B92D00007047000070B5134B1968FF22D0
:102E400012040A431A601968FF2212060A431A6024
:102E50000E4D00242C600E4B1C6000200D4B98473B
:102E6000FA2189000C4B984701380C4B1860072356
:102E70002B600B4B1C600B4B98470B4B98470B4B35
:102E80009847002070BDC04620ED00E010E000E053
:102E900018E000E0C5680000416F000014E000E0A9
:102EA00028000020E12D000099490000B92D000004
:102EB00080225205014B1A607047C04604ED00E0C5
:102EC00072B6044A136801331360BFF34F8FBFF328
:102ED0006F8F704728000020064B1B68002B01D124
:102EE00072B6FEE7013B034A1360002B00D162B6C5
:102EF0007047C04628000020EFF3108072B670477C
:102F000080F31088704700000000000000000000FF
:102F1000EFF309800E4B1A6820381060F0C0444669
:102F20004D4656465F46F0C008B572B601F034FD16
:102F300062B60CBC116808681030F0C8A046A946FB
:102F4000B246BB4680F309882038F0C81847C0460F
:102F5000D036002010B5074B98470400064B984721
:102F6000002803D080225205044B1A602000044B35
:102F7000984710BDF92E00004146000004ED00E026
:102F8000012F000070B50400430702D007239C43C3
:102F90000834184B9847184B1B68002B17D0174B59
:102FA0001A68A31816498B4218D89A4216D21249A9
:102FB0000D68AD18114A1360002D0FD022002900B2
:102FC0009420104B9847104B9847280070BD07225B
:102FD0000E4B08339343084A1360E0E722000021B8
:102FE000E820084B9847084B9847094B984700251D
:102FF000EBE7C0462546000000040020CC36002048
:10300000BF3200007D280000CD47000004040020EE
:10301000196F0000002801D072B6FEE7704700006B
:10302000024B1B68CB208001C01A7047CC360020B1
:1030300010B50400034B9847A46B034B98476042BC
:10304000604110BDC12E0000D92E000070B50400F3
:103050001600856B026C002A0BD100202368834286
:1030600004D16068164B9847002363600135A5635F
:1030700070BD002E0ED18068124B9847A368226C59
:1030800094466344A360002062689342EED32368B1
:10309000A360EBE7C0680B4B9847236C5B42E26888
:1030A000D218E26021688A4203D26268944663447F
:1030B000E3600020022ED9D18542D7D0013DD5E76B
:1030C0001D4F0000F18C0000F0B5CE46474680B59C
:1030D00083B001900091846C002C05D0A26BE36B4F
:1030E0009A4203D372B6FEE772B6FEE7A26B0026E1
:1030F000934205D8300003B00CBC90469946F0BD11
:103100004523E55C6DB22C4B98472C4B98472C4BD4
:103110001B8803421ED020002A4B9847284B1B884F
:10312000034217D02536009B002B06D12000264BEA
:103130009847264B1E5C2036F6B22000224B98475B
:10314000224B1F5C2000224B9847C2B2390030004E
:10315000204B984720001C4FB8471C4E335C9846C4
:1031600020001B4B9847C3B299462000B847335CF8
:10317000022B19D0A26B0132D2B249464046164BFF
:103180009847009A01A92000144B984706006B1C31
:103190000CD1636A002BADD020002430104B98472F
:1031A0000028A7D00126A5E70022E6E701356DB289
:1031B0004523E5549EE7C046111D0000591C000040
:1031C00020000020BD1C00003D1C00001800002055
:1031D000AD1C0000492900001D2400004D300000F6
:1031E0007D4C000010B50C00026C002A0BD0C368A7
:1031F0009B18C36041688B4201D30368C360C168F8
:103200002000014B984710BDF18C0000F8B5070075
:10321000254B98474523FC5C64B2002C1CDD234EF3
:10322000234D0BE07B6A002B16D038002430A847D2
:1032300000280ED1013C64B2002C0DD0BB6C002BD9
:10324000F0D000213800B0470028F3D0194B984740
:10325000F0E7184B9847EDE7FF224523FA54164B49
:103260009847114B98474423FC5C64B2002C14DD52
:103270003B69002B11D03D0010350D4E06E0013C9E
:1032800064B2002C09D03B69002B06D02800B0475F
:103290000028F4D0074B9847F1E7FF224423FA5463
:1032A000054B9847F8BDC046C12E0000C93000004C
:1032B0007D4C0000B94D0000D92E000070B504000F
:1032C0000D00002821D0174B98472268216CE36B32
:1032D0004B43D01860600020A063A2605B1AD31833
:1032E000E360FF234422A3540132A354002D11D1E3
:1032F0002369002B05D0200010300B4B9847002885
:1033000005D10A4B9847012070BD72B6FEE7084B05
:103310009847F6E720001030064DA84720002430DB
:10332000A847EEE7C12E00007D4C0000D92E00001A
:10333000B12E00002D2D0000F8B506000D0017007D
:10334000002801D172B6FEE7080070435430384BB4
:103350009847041E5BD0002D3BD12060E6632564B6
:1033600001212000334B98475023E7540023A364E6
:103370002000314EB047314D285C314B984781B227
:103380002000304B9847304B198820002F4B98472E
:103390002000B0472D5C20002D4B9847C1B228007B
:1033A0002C4B98472C4B98472C4B98472C4B1B8801
:1033B000034212D12000204B9847204B1D5C200077
:1033C000234B9847C1B200222800264B9847200083
:1033D000F8BD030054330360C0E72000224B984738
:1033E0001F4B1B880342E5D02000134FB847134EF4
:1033F000355C1835EDB22000B847365C2000144B20
:103400009847C2B231002800184B9847D2E7124BB8
:103410009847124B9847124B1B880342D7D0074B53
:10342000D85D4030C0B20021114B9847CFE7C0466D
:10343000852F0000BD3200003D1C00001800002058
:10344000B5240000CD1C00001E000020ED1C000073
:10345000AD1C000045230000111D0000591C000098
:10346000200000201D240000BD1C00004929000090
:10347000E52A0000F0B5CE46474680B585B0040089
:10348000009101921D0000280DD0009B002B0CD054
:10349000022D0FD0AB4B9847002810D1019B002B79
:1034A00010D072B6FEE772B6FEE7036C002BEFD0C9
:1034B00072B6FEE7E36B012BECD072B6FEE7002795
:1034C000A14EBCE00027FBE7A04B9847A04B9847D4
:1034D000A04B1B8803421DD020009F4B98479D4B5B
:1034E0001B88034216D02527002D06D120009B4BB8
:1034F00098479B4B1F5C2037FFB22000974B9847A3
:10350000974B1E5C2000974B9847C2B231003800A1
:10351000954B98472000914EB047914F3B5C9846A1
:103520002000904B9847C3B299462000B0473B5CBF
:10353000022B1FD0A26B0132D2B2494640468B4BC0
:1035400098472A0000992000894B9847A36C002BCC
:1035500012D029002000874B9847002801D0864BC5
:103560009847864B98470123180005B00CBC90463D
:103570009946F0BD0022E0E7636A002B08D02000E6
:1035800024307F4B98470028EBD07B4B9847E8E7E7
:103590000028E6D0784B9847E3E7784B98476B4B89
:1035A00098476B4B98476B4B1A8800230242DBD03D
:1035B0002000694B9847674B1A8800230242D3D0FA
:1035C0004D26002D06D12000644B9847644B1E5CAD
:1035D0004836F6B22000614B9847614B1D5C2000D5
:1035E000604B9847C2B2290030005F4B98470023D8
:1035F000BAE7624B984701A902A8624B9847002896
:103600006ED1514B9847A36B9946E76B5B4B98473C
:10361000B9455FD14D4B98474D4B98474D4B1B8853
:10362000034234D1200010300199574B98472000B5
:10363000564B9847564B9847002848D00127B0472B
:10364000A36BE26B934200D23EE7022D00D13BE731
:10365000019B002BA1D0002F02D102A84D4B98470F
:10366000464B98474C4B9847374B98474423E35C6D
:103670005BB2013302D100224423E2544523E35CD0
:103680005BB20133B5D100224523E254B1E72000FB
:10369000314B98472F4B1B880342C3D07527002D11
:1036A00006D120002D4B98472D4B1F5C7037FFB281
:1036B00020002A4B98472A4B1B5C99462000294B37
:1036C0009847C2B249463800274B9847AAE72A4B89
:1036D0009847B3E720002D4B98472D4B9847ADE70F
:1036E00020002A4B98472A4B9847184B9847184B6D
:1036F0009847184B1A880023024200D134E7200073
:10370000154B9847134B1A880023024200D12BE730
:103710004D26002D06D12000104B9847104B1E5C03
:103720004836F6B220000D4B98470D4B1D5C20002B
:103730000C4B9847C2B2290030000B4B984700232E
:1037400012E7C046E54D0000C12E0000111D00002B
:10375000591C000020000020BD1C00003D1C000082
:1037600018000020AD1C0000492900001D240000A5
:103770004D300000C9300000B12E0000D92E0000ED
:103780007D4C0000494D0000B54B00000D3200009B
:10379000CD470000314D00002546000070B5020005
:1037A00000210120064B9847041E07D000234360E8
:1037B0000360C36000220021024DA847200070BDB5
:1037C0003933000075340000F0B5DE46474680B559
:1037D00083B00400019116001F0000282DD0019B2A
:1037E000002B2CD0022F2FD0594B98470090A36B61
:1037F000E26B9A425AD82000564B9847564B1B888A
:103800000025034200D19AE05D35002F06D120004B
:10381000524B9847524B1D5C5835EDB220004F4B30
:1038200098474F4B1F5C20004E4B9847C2B239005F
:1038300028004D4B9847002581E072B6FEE7036CE7
:10384000002BCFD072B6FEE7E36B012B27D072B608
:10385000FEE7636A0125002B71D020002430434B22
:10386000984700286BD0002E0AD00123336066E011
:1038700001356DB24523E554012560E001255EE088
:1038800001255CE04523E55C6DB22000314B984793
:10389000314B1B8803422DD0352398461CE02C4B1E
:1038A00098470090A36BE26B9A42EBD94523E55C05
:1038B0006DB22000274B9847274B1B88034219D035
:1038C00035239846002F07D12000244B9847244BDE
:1038D0001B5C3033DBB298462000204B9847204BCE
:1038E0001B5C9B4620001F4B9847C2B2594640467E
:1038F0001D4B98472000194B9847194B1B5C984665
:103900002000184B9847A26B0132D2B2C1B2404698
:10391000174B98473A0001992000164B98476B1CAB
:10392000A6D1A36C002B94D039002000124B9847ED
:103930000235002803D0002EA0D001233360009868
:103940000E4B9847280003B00CBC90469B46F0BD38
:10395000F92E0000BD1C0000200000203D1C0000CE
:1039600018000020AD1C0000492900007D4C00001B
:103970001D2400004D300000C9300000012F000060
:10398000F0B5D646474680B583B004000F00160058
:10399000002804D0036C002B03D072B6FEE772B689
:1039A000FEE70368002B55D04A4B98470190A36B64
:1039B0009846E36B984567D24523E55C6DB22000DD
:1039C000454B9847454B1B88034218D035239A46F0
:1039D000002E07D12000424B9847424B1B5C3033EE
:1039E000DBB29A4620003E4B98473E4B1E5C2000BF
:1039F0003D4B9847C2B2310050463C4B984720009F
:103A0000374B9847374B1E5C2000374B9847A26BCB
:103A10000132D2B2C1B23000354B98474346013330
:103A2000A3636B1C2AD1A36C002B18D000212000AB
:103A3000304B98470235002803D0002F45D0012392
:103A40003B6001982C4B9847280003B00CBC904673
:103A50009A46F0BD4368002BA6D072B6FEE7636AB3
:103A60000125002BEDD020002430244B984700285E
:103A7000E7D0002F2BD001233B60E2E701356DB288
:103A80004523E5540125DCE72000134B9847134BF1
:103A90001B8800250342D4D05D35002E06D12000BE
:103AA0000F4B98470F4B1D5C5835EDB220000C4B67
:103AB00098470C4B1F5C20000B4B9847C2B2390053
:103AC00028000A4B98470025BBE70125B9E70125E7
:103AD000B7E7C046F92E0000BD1C00002000002002
:103AE0003D1C000018000020AD1C0000492900000A
:103AF0001D240000C9300000012F00007D4C000093
:103B000010B50022014B984710BDC0468139000016
:103B1000F0B5CE46474680B585B0041E00910192AF
:103B20000BD0009B002B0AD0A44B984700280BD148
:103B3000019B002B0CD072B6FEE772B6FEE7036C59
:103B4000002BF1D072B6FEE700259D4B9846B4E0FD
:103B50000025FAE7009920009A4B98479A4B98471E
:103B60009A4B98479A4B1B88034219D02000994BD7
:103B70009847974B1B88034212D02000964B9846DB
:103B80009847964F3D5C2835EDB22000C0473F5C1A
:103B90002000934B9847C2B239002800914B9847B8
:103BA00020008D4FB8478D4D2B5C994620008C4BE3
:103BB0009847C3B298462000B8472B5C022B1ED111
:103BC000814B9847884B9847C2B241464846874B3D
:103BD0009847013EA6632369002B07D020001030D0
:103BE000834B9847002801D0824B9847824B9847D7
:103BF0000123180005B00CBC90469946F0BDA26B9D
:103C0000013AD2B2E1E77C4B98476F4B98476F4B34
:103C100098476F4B1A8800230242EAD020006D4B70
:103C200098476B4B1A8800230242E2D020006A4F6B
:103C3000B8476A4E355C5035EDB22000B847365C67
:103C40002000674B9847C2B231002800654B984767
:103C50000023CEE702A8694B984738E000224423AE
:103C6000E2543FE000224523E25440E02000594B5B
:103C70009847574B1B8803424ED02000564FB847F9
:103C8000564E355C6835EDB22000B847365C2000F2
:103C9000534B9847C2B231002800524B98473BE043
:103CA000200024300199564B98472000554B9847E7
:103CB000554B9847002846D00125C047A66B002EDB
:103CC00000D047E7019B002B9DD0002DC2D04A4B6E
:103CD00098474E4B98473A4B98474423E35C5BB276
:103CE0000133BBD04523E35C5BB20133BAD0424B16
:103CF000984701A902A8464B984700282CD12000DC
:103D0000444B9847002821D02F4B98472F4B98477A
:103D10002F4B1B880342A9D120002F4B98472F4BD4
:103D20001B5C022BBCD0284B9847284B9847284B4C
:103D30001B880342B4D0244B98472B4B9847C0B202
:103D4000354B9847ACE72B4B9847B5E720002D4BF8
:103D500098472D4B9847AFE720002A4B98472A4BAE
:103D6000984720002B4B98470028A5D0164B984722
:103D7000164B9847164B1A880023024200D138E7A9
:103D80002000144B9847124B1A880023024200D19E
:103D90002FE72000104FB847104E355C5035EDB27C
:103DA0002000B847365C20000D4B9847C2B2310066
:103DB00028000C4B984700231BE7C046E54D000048
:103DC000C12E0000E5310000111D0000591C00004B
:103DD00020000020BD1C00003D1C00001800002039
:103DE000AD1C000049290000491C00001D240000F2
:103DF0007D4C0000B12E0000D92E0000314D000096
:103E0000B54B00000D320000CD47000025460000F4
:103E1000494D00003130000075240000F0B5CE4659
:103E2000474680B585B0041E019104D0036C002B79
:103E300003D072B6FEE772B6FEE7B24B9847002891
:103E400004D1019B002B06D072B6FEE700250027A7
:103E5000AD4B9846BDE000250027F9E7AB4B9847EE
:103E6000AB4B9847AB4B1B88034219D02000AA4BA1
:103E70009847A84B1B88034212D02000A74B9846B6
:103E80009847A74F3D5C2835EDB22000C0473F5C06
:103E90002000A44B9847C2B239002800A24B984793
:103EA00020009E4FB8479E4D2B5C994620009D4BAD
:103EB0009847C3B298462000B8472B5C022B24D108
:103EC000924B9847994B9847C2B241464846984B07
:103ED0009847013EA6632368002B02D1954B984773
:103EE00060602369002B07D020001030924B984768
:103EF000002801D0914B9847914B98470125280005
:103F000005B00CBC90469946F0BDA26B013AD2B206
:103F1000DBE7002D01D072B6FEE7894B98477B4B5B
:103F200098477B4B98477B4B1B880342E7D0200088
:103F3000794B9847774B1B880342E0D02000774BA2
:103F400098469847764F3E5C5036F6B22000C04700
:103F50003F5C2000734B9847C2B239003000724B6F
:103F60009847CCE702A8774B98473CE000224423CF
:103F7000E25443E000224523E25444E02000664B33
:103F80009847644B1B88034252D02000634B9946EC
:103F90009847634F3E5C6836F6B22000C8473F5CE6
:103FA0002000604B9847C2B2390030005E4B984702
:103FB0003EE02368002B52D0200024300199624B50
:103FC00098472000614B9847614B984700284FD095
:103FD0000127C047A66B002E00D03FE7019B002BB6
:103FE00097D0002FBED0564B98475A4B9847464B18
:103FF00098474423E35C5BB20133B7D04523E35CCD
:104000005BB20133B6D04E4B984701A902A8524B80
:104010009847002835D12000504B984700282AD0D7
:104020003A4B98473A4B98473A4B1B880342A5D1E5
:1040300020003A4B98473A4B1B5C022BB9D0334BCC
:104040009847334B9847334B1B880342B1D02F4BD3
:104050009847364B9847C0B2414B9847A9E72A4B3F
:10406000984760683F4B98470500354B9847A3E752
:10407000324B9847ACE72000344B9847344B984775
:10408000A6E72000314B9847314B98472000334B2F
:10409000984700289CD0002D0ED01B4B9847636A90
:1040A0000021002B03D0236B1B680531C91A6068FF
:1040B0002D4B9847224B9847144B9847144B9847E1
:1040C000144B1B880025034200D118E72000124B37
:1040D0009847104B1B88034200D110E720000F4F78
:1040E000B8470F4E355C5035EDB22000B847365C0E
:1040F00020000C4B9847C2B2310028000A4B984769
:104100000025FCE6E54D0000C12E0000111D000059
:10411000591C000020000020BD1C00003D1C0000B8
:1041200018000020AD1C000049290000491C0000B7
:104130001D240000155100007D4C0000B12E000030
:10414000D92E0000314D0000B54B00000D320000AB
:10415000CD47000025460000494D000031300000E9
:1041600075240000054E000011500000C06C70471F
:10417000C16470475023C05C7047000070B50400F4
:104180000D001600114B98474423E35C5BB20133EA
:104190000DD04523E35C5BB201330CD00C4B984748
:1041A000A36B002B0BD020000A4B984770BD002258
:1041B0004423E254EDE700224523E254EEE72000D9
:1041C000243032002900044B9847ECE7C12E000050
:1041D000D92E00000D320000E14B0000084B1B6897
:1041E0001B68002B07D0064B1B68DB68DB685A682E
:1041F000044B1A60704701225242024B1A60F9E7E1
:10420000D436002084370020F0B5D6464F464646C7
:10421000C0B5144B9946144B9846144F144B9A460C
:104220004B461B68002B16D0C047FB68DD68281D75
:10423000D047104A1368013B13600A4C2368013BC6
:1042400023600D4B9847286B0C4EB0472800B047B1
:104250002368002BE8D10A4B1B68012BE0D9094BDE
:104260009847DDE744370020C12E0000B837002012
:104270008F2D000040370020D92E0000153000009F
:10428000DC360020B12E000070B504000D00174B85
:104290001E68174B18680430164B9847631C13D0E0
:1042A0003419134B1B685C60A64216D8124B186871
:1042B0000F4B19680431114B9847114B1B689C42F6
:1042C00012D20F4B1C600FE0002DE9D0084B19688B
:1042D00004310C480C4B984706E00C4B1868044B13
:1042E00019680431054B984770BDC046CC37002093
:1042F000D03600208F2D0000D4360020612D000024
:1043000084370020A4370020492D0000D836002033
:10431000F0B5C64600B584B001900D000293970039
:104320003800814B9847061E00D1B6E054207E4BE2
:104330009847041E00D1ADE006633A00A521300085
:104340007A4B98473A1F236B9C46624407239A4353
:1043500090462A782D33E2542B78002B0DD001356E
:104360002300353320003C302A781A702A78002A3E
:1043700003D0013501338342F6D100223B23E254BE
:104380000A9F042F00D90427E76267640026A66409
:10439000231D03931800664DA84720001830A84736
:1043A00024610523DB1BA3616462E6645023E654A9
:1043B000029A019940465F4B984720600B9B002B67
:1043C00000D01C605C4B98475C4A13680133136053
:1043D0005B4B1B68002B63D05A4B1B68002B07D12B
:1043E000574B1B68DB6AE26A934201D8544B1C604E
:1043F000554A136801331360E3630320534B984716
:1044000081B22000524B9847524B19882000524BE2
:1044100098472000514EB04722003432C1B20320E9
:104420004F4B98472000B0472C23E3181A78C1B2AD
:1044300003204C4B98474C4B98474C4B98474C4B60
:104440001B88034254D12000484B9847484B1B8897
:1044500003425DD1E36A474A1268934201D9454A53
:1044600013609800C0188000434B18180399434B01
:104470009847434B9847334B1B680120002B05D0CE
:104480002F4B1B68DA6AE36A9A4248D304B004BC33
:104490009046F0BD30003B4B984701204042F5E785
:1044A000274B1C601368012BA2D1334F3800364EC6
:1044B000B04738001430B04738002830B0473800D3
:1044C0003C30B04738005030B047304B9846180069
:1044D000B0472F4F3800B0472E48B0472E48B0475E
:1044E0002E48B0472E4B42461A602E4B1F607FE786
:1044F00020001E4B98471E4B1B880342A3D0200070
:10450000164B9847C2B203211B20274B98479AE7C6
:104510002000124B9847C0B2244B98479AE7244B8F
:1045200098470120B2E7C046852F0000038D0000A8
:10453000432D0000152E0000C12E00004037002042
:10454000D0360020A037002050370020B5240000CE
:10455000691C00001E000020891C0000491C00008E
:104560008925000069230000111D0000591C00006E
:104570002000002054370020DC360020492D0000A8
:10458000D92E0000153000002D2D000058370020D6
:104590006C3700208C370020B8370020A43700206B
:1045A000D4360020D836002049290000E127000039
:1045B000B12E000010B582B0114B0193002300937F
:1045C000FA2252000F491048104CA047012803D08E
:1045D000431C13D002B010BD0D4B98470128F7D1F2
:1045E00072B6012252420B4B1A6002320A4B1A6019
:1045F00000220A4B1A600A4B9847EBE772B6FEE7B7
:104600008037002048A70000094200001143000045
:10461000D951000084370020A0370020CC3700207B
:10462000392E0000024A1368013313607047C046F8
:104630004C370020014B18687047C046CC3700202B
:10464000F0B583B04C4B1B68012B03D04B4B1B6860
:10465000002B06D14A4A1368013313600020494BEE
:104660009847454B1B68002B10D0434B1B68002B11
:1046700075D1454B1E6801361E60002E19D1434B83
:104680001B681B68002B08D072B6FEE73E4B19680A
:10469000013103203E4B9847E7E73C4A11683D4B08
:1046A0001868106019603C4A1368013313603B4B73
:1046B00098473B4B1B6800259E423AD30025334F59
:1046C0003B681B68002B30D0304B1B68DB68DC6814
:1046D00063689E4239D3231D01931800314B9847DC
:1046E000A36A002B03D0200018302E4B98472000DF
:1046F0002D4B98472D4B1B88034229D1E36A2C4A46
:104700001268934201D92A4A13609800C0188000A9
:10471000284B18180199284B9847284B1B68E26AC8
:10472000DB6A9A42CCD30125CAE7012252421C4BD4
:104730001A60224B1B68DA6A93009B189B001D4A83
:104740009B58012B10D901250EE0154A1360F0E7A4
:1047500020001B4B9847C0B21A4B9847CEE7074A38
:104760001368013313600025174B1B68002B00D022
:104770000125280003B0F0BD4C3700204837002049
:10478000F803002019260000CC370020D436002082
:10479000E52A0000D836002088370020DD410000DF
:1047A000843700208F2D0000591C000020000020BD
:1047B00054370020DC360020492D0000D036002080
:1047C000491C0000E1270000D0370020F8B5374B26
:1047D0001B68002B01D172B6FEE7354B9847334B6F
:1047E0001A68013A1A601B680024002B03D1314B70
:1047F0001B68002B36D1304B98472000F8BDE36A88
:104800002E4A1268934201D92C4A13609800C018AE
:1048100080002B4B181831002A4B98472A4B1B68F5
:10482000DB6AE26A9A4202D30122284B1A602B68A3
:10483000002B1AD0FB68DC6820001830244B984706
:10484000261D3000224B98472000224B9847224BD0
:104850001B880342D3D02000204B9847C0B2204B86
:104860009847CCE71F4D2F00E1E7002C01D01E4BED
:1048700098471E4B1C68002C0ED01D4F134E01256F
:1048800002E0013C002C04D0B8470028F9D0356084
:10489000F7E70022154B1A600C4B1B680024002B15
:1048A000A9D0144B98470134A5E7C0464C370020E7
:1048B000C12E000040370020D92E000054370020C0
:1048C000DC360020492D0000D0360020D0370020F3
:1048D0008F2D0000591C000020000020491C000002
:1048E000E12700008C370020DD4100004837002020
:1048F00041460000B12E000010B5041E31D01A4B05
:104900001B68002B01D072B6FEE7184B9847184B76
:104910001868184B9847184B1B8803420AD021008F
:104920008920164B9847124B1868154B9847C0B210
:10493000144B9847144B98470E4B98470E4B1B88C7
:10494000034206D0104B98470D4B9847C0B20D4B11
:104950009847002120000D4B98470D4B98470028A1
:1049600001D10C4B984710BD4C3700202546000064
:10497000D0360020591C000020000020E52A00004D
:10498000491C000075240000111D00008942000030
:10499000CD470000B12E000010B5334B1B68002B33
:1049A00025D10022314B1A60314B1A681B681268FE
:1049B0001B6B9A4205D82E4B1868196834312D4B61
:1049C00098472D4B1B689A00D21892002B495258D9
:1049D000002A10D1002B08D0013B9A00D218920077
:1049E0005258002A07D1002BF6D172B6FEE70122F9
:1049F0001E4B1A6010BD21489A00D1188900411839
:104A00004C6864684C60D218920008328218944254
:104A100019D09A00D218920018498A185268D168A1
:104A2000134A1160144A13600122154B1A60154B8A
:104A30009847154B9847154B1B8803420BD1022210
:104A40000F4B1A60D6E760689A00D21892000B49A3
:104A50008A185060DDE70B4B98470D4B9847C0B262
:104A60000C4B9847EBE7C0464C370020D03700206E
:104A7000D03600202D6F000054370020DC36002097
:104A8000F4030020111D0000591C0000200000202C
:104A9000491C00008D2B000070B50500334B984772
:104AA0002C1E2BD0324B9847324B9847324B1B88E9
:104AB000034226D12000314B9847C0B2304B984773
:104AC000251D28002F4B9847A36A002B03D02000F8
:104AD00018302C4B984729002B482C4B98475023D3
:104AE000E35C012B1DD02A4B98472A4B1B68002BF7
:104AF0001BD1294B1B689C421ED070BD264B1C68E5
:104B0000D0E720001B4B98471B4B1B880342D1D09A
:104B100020001A4B9847C2B203218A201F4B9847A6
:104B2000C8E700224F33E254DDE7104B98471C4B97
:104B30009847174B9847DCE7164B1B68002B08D0AB
:104B4000184B1B68002B01D072B6FEE7164B984736
:104B5000D3E70D4B1A68154B1B689A4202D0144BD1
:104B60009847CAE700220C4B1A60C6E7C12E000026
:104B7000111D0000591C000020000020491C0000ED
:104B8000752400008F2D0000A4370020492D00005F
:104B9000D92E0000A0370020D0360020492900007F
:104BA000DD4100004C370020B12E000040370020CE
:104BB0009949000010B50C00002801D172B6FEE73B
:104BC000044B19681831044B984701212000034B0E
:104BD000984710BDD0360020612D000089420000AA
:104BE00070B50C001500002831D01A4B1968183127
:104BF000194B9847002D01D001246442154B1868C9
:104C0000164B9847164B1B8803420CD0154B19685E
:104C100061188820144B98470E4B1868134B98471F
:104C2000C0B2134B9847134B98470C4B98470C4B0B
:104C30001B88034206D00F4B98470C4B9847C0B2D5
:104C40000B4B9847290020000B4B984770BD72B65C
:104C5000FEE7C046D0360020492D0000591C000058
:104C600020000020CC370020E52A0000491C00006D
:104C700075240000111D00008942000070B5C36852
:104C8000DC68002C2ED02500183528001C4B9847D6
:104C90001C4B1B68002B2ED1251D2800184B984754
:104CA0002000194B9847194B1B8803421CD1E36A1B
:104CB000174A1268934201D9154A13609800C01828
:104CC0008000144B18182900134B9847134B1B688E
:104CD000E26ADB6A00209A4203D90122104B1A6073
:104CE000013070BD72B6FEE720000E4B9847C0B28F
:104CF0000D4B9847DBE729000C48074B9847E5E741
:104D00008F2D00004C370020591C0000200000208F
:104D100054370020DC360020492D0000D03600201A
:104D2000D0370020491C0000E12700008C3700200C
:104D3000034B1B680360034B1B6843607047C0460E
:104D400088370020CC37002070B506000D00002801
:104D50001BD000291BD0134B9847134B1A6871685E
:104D60002B68581C1CD0114800683468844202D05B
:104D700001248A4205D2521A9A420AD300232B6098
:104D800001240B4B9847200070BD72B6FEE772B647
:104D9000FEE79B1A2B603000064B98470024F0E793
:104DA0000024EEE7C12E0000CC3700208837002019
:104DB000D92E0000314D00000122014B1A607047CE
:104DC000D0370020002801D0006C70470020FCE79D
:104DD000002800D001647047014B18687047C04636
:104DE000D0360020054B1B680120002B04D0044B5B
:104DF00018684342584140007047C046A037002021
:104E00004C37002070B5041E00D16DE0C26A374BEC
:104E10001B68DB6A9A425FD28369002B05DB334B48
:104E20001B68D96A05235B1A836193009B189B005A
:104E30002F4AD31862699A4228D02C4B1B68DB6A30
:104E4000E36220002B4B984703002B4A1288012075
:104E50001A4248D02000294DA84706002000A84744
:104E6000C1B20320264B98470300F2B203218E20E3
:104E7000244EB0472000A8471C4B1B68DA6AD2B208
:104E8000C1B20320204B984701202CE0251D2800AB
:104E90001E4B9847154B1B68DB6AE3622000154BDD
:104EA0009847154B1B8803420FD1E36A184A1268D2
:104EB000934201D9164A13609800C01880000C4B29
:104EC00018182900134B9847BBE720000B4B984755
:104ED000C0B2114B9847E8E7044B1B68406CDB6A93
:104EE00098428041404270BD0020FCE7D03600204F
:104EF000DC360020591C000020000020491C000066
:104F0000C12300000D2A0000692300008F2D00003E
:104F100054370020492D0000E1270000F8B5041E99
:104F20005AD02F4B1B68984201D072B6FEE7836CB3
:104F3000002B01D172B6FEE7013B8364C26A416C6B
:104F40008A424BD00020002B45D1251D2800254B3F
:104F500098472000244B9847244B1B88034218D0C5
:104F60002000234EB04707002000B047C1B2032005
:104F7000204B98470300FAB203218F201E4FB847F9
:104F80002000B0474423E3181A78C1B203201B4B1A
:104F90009847626CE26205239B1AA3612000124BC2
:104FA0009847124B1B88034205D02000104B9847AE
:104FB000C0B2134B9847E36A124A1268934201D970
:104FC000104A13609800C01880000F4B1818290071
:104FD0000E4B98470120F8BD0020FCE70020FAE7BF
:104FE000D03600208F2D0000591C0000200000202A
:104FF000491C0000C12300000D2A000069230000A5
:10500000E127000054370020DC360020492D000045
:10501000F8B5041E0DD0836C002B01D172B6FEE7EB
:10502000456C8D4200D20D00E26AAA4201D0012BEC
:1050300000D0F8BD2B4B1B689C4201D172B6FEE735
:105040002000294B9847294B1B88034218D0200089
:10505000274EB04707002000B047C1B20320254BC0
:1050600098470300FAB203218F20234FB84720004E
:10507000B0474423E3181A78C1B203201F4B984766
:10508000E16AE562A369002B02DB0522551BA561DD
:105090008B005B189B001A4AD31862699A42C8D1E8
:1050A000251D2800174B984720000F4B98470F4BA2
:1050B0001B88034205D020000D4B9847C0B2124B0D
:1050C0009847E36A114A1268934201D90F4A136064
:1050D0009800C01880000A4B181829000C4B9847FC
:1050E000A7E7C046D0360020591C00002000002051
:1050F000491C0000C12300000D2A000069230000A4
:10510000DC3600208F2D0000E127000054370020FE
:10511000492D0000054B1B68002B04D0034B1A6877
:10512000936C01339364014B18687047D0360020AC
:1051300010B54160006191420BD8D21A01248369F5
:105140009A4211D2011D094B1868094B9847002457
:105150000AE09A4202D20124994205D2011D054B70
:105160001868034B98470024200010BDD837002052
:10517000612D0000D437002070B50E4B98470E4BC0
:105180001B68002B02D00D4B984770BD0C4D2800BA
:105190000C4EB0470C4C2000B0470C4B1D600C4B24
:1051A0001C6000220C2102200A4B9847024B186019
:1051B000E9E7C046C12E000008380020D92E0000C3
:1051C000DC3700202D2D0000F0370020D4370020E0
:1051D000D83700203933000010B582B00A4B984709
:1051E0000A4B1B68002B0DD0094B0193022300933F
:1051F0000023802207490848084CA047002801D016
:1052000002B010BD72B6FEE77951000008380020E8
:105210000C38002078A7000045530000114300001F
:1052200030B585B004001D00002814D0134B186859
:10523000002821D0019102920394052915DC104B1E
:105240009847022809D00D4B18680023002201A9B5
:105250000C4CA0470EE072B6FEE7084B186800231E
:10526000089A01A9074CA04704E000232A0001A9DD
:10527000054CA04705B030BD0020FBE708380020F2
:10528000E54D000075340000C9370000F0B5D64682
:105290004F464646C0B582B08046234B984782466B
:1052A000224B1B68984217D30023424613601F4BC2
:1052B00052461A60504602B01CBC90469946A2461F
:1052C000F0BD002300933A0000212000184CA047B5
:1052D000002804D172B6FEE7164D174B99462B688D
:1052E0001A68002A17D0DB681F68DC68261D3000AA
:1052F000C8472000636A9847E369012BEFD1A3698F
:10530000FB189F42DDD2636024610A4B18683100AC
:105310000A4B9847E3E70A4A064910680860136099
:10532000012342461360C2E73546000004380020DE
:1053300021520000D43700208F2D0000612D000085
:10534000D8370020F0B589B0534B9847534F544B92
:105350001B681A68002A0ED0DB681C68514B9847FE
:1053600005A8514B98470500059B002B5FD184424F
:1053700036D900220FE04B4B984705A84A4B984777
:105380000500059B002B52D1484B1B681B685A42F5
:105390005A41D2B20024611B454B1868454B9847CF
:1053A000454B984700283FD0414D444C002205A969
:1053B0002868A0470028CAD0059B0393002BF5DB83
:1053C000079E7369002B01D0301DB84704A8364BE7
:1053D0009847059B092BE9D89B00394AD3589F462B
:1053E000354B98472E4B1B68DB68DE68301D2B4B16
:1053F0009847F369012B03D0736A30009847D3E7CD
:10540000B369E11823002A0030002E4DA847002878
:10541000F2D0002300932200002130002A4CA04744
:105420000028E9D172B6FEE7284B9847BCE7224B2B
:105430009847B9E7069BB269944663441900069BF6
:10544000020030001F4CA0470028AED03000736A25
:105450009847F369012BA8D1069BB1698C46634438
:105460001A000023009300213000174CA0470028A9
:105470009BD172B6FEE70699B161002906D04118AA
:105480000300020030000F4CA0478EE772B6FEE723
:1054900030000F4B984788E7916D00008F2D00007A
:1054A000D4370020254600008D520000D837002058
:1054B000083800207D410000CD470000113B00006E
:1054C00050A700003151000021520000B12E000011
:1054D0001530000010B50400037C002B05D0836854
:1054E000581CE168074B9847A1606368581CE16845
:1054F000044B98476160A368591A4A424A41227492
:1055000010BDC0464D70000070B505000C001420A1
:10551000044B98470560C4600023436083600374B4
:1055200070BDC046DD8C000010B503684268995418
:10553000014B984710BDC046D5540000027C0023A3
:10554000002A05D1436880681B1A58424341DBB2E8
:105550001800704770B504000D000A4B98470028EA
:105560000DD12368A2689B5C2B7000232374A36871
:10557000581CE168044B9847A160002070BD0120D1
:105580004042FBE73D5500004D70000010B5064B52
:1055900018680649064B9847431C04D0012203496A
:1055A0000448054B984710BD904D00208C4D0020BD
:1055B00055550000504900202162000010B5074CED
:1055C0002178074B1868074B9847012221000648AD
:1055D000064B9847064B984710BDC04688490020A7
:1055E00084490020295500005049002041620000F4
:1055F0008908000030B591B08025AD0029003648FB
:10560000364CA047364B186029003648A047364B29
:1056100018608023DB05009300230193FF22694675
:105620000A8100228B72CB72012124206C46215406
:105630000130215425316354013163540A930531FB
:1056400063540131635405932382E37622762277F3
:1056500062761323A3766277E1235B020893C42367
:105660009B03039301235B420C930D931F4B0E93FB
:105670001F4B0F931F4D204C6A4620492800A0471E
:105680000028F9D11B4D2C6820001D4B98471F2383
:1056900018401E3B83401B4A13602A68D369002BC5
:1056A000FCD12368022213432360124C00221649C6
:1056B0002000164DA847012215492000A847312295
:1056C000A35C03210B43A354303A12492000124B30
:1056D000984711B030BDC0468C4B002009550000E2
:1056E000844900208C490020904D002003002A00AE
:1056F00003002B0050490020395E000000180042D2
:10570000A95D000000E100E08D5500000962000085
:10571000BD5500008849002041620000F0B5C64632
:1057200000B50500144B98470024002D12D0134EED
:10573000134F144B984603E0295D3868C047013485
:105740002800B0478442F7D301210F480F4B9847F8
:10575000002804D00E4B984704BC9046F0BD0D4C79
:10576000074B186821000C4B98470122210006487E
:105770000A4B9847EEE7C046254600006D8F0000B3
:10578000904D002029550000504900206162000022
:10579000CD4700008C4D00205555000021620000CF
:1057A00010B50400054B9847054B18682100054BC0
:1057B00098470400044B9847200010BD2546000080
:1057C0008449002055550000CD4700000EB430B587
:1057D00082B00A4B1B78834204D902B030BC08BCAB
:1057E00003B0184706AB0193054C059A7F212000B2
:1057F000044DA8472000044B9847EEE710380020DE
:10580000D04800201D9000001D5700000C4B1B6865
:10581000002B06D1EFF31083002B07D00022094B99
:105820001A70074A136801331360704772B6BFF3EA
:105830005F8F0022044B1A700132024B1A70F0E79E
:1058400014380020183800202C000020084B1A685B
:10585000013A1A601B68002B09D1064B1B78002BFC
:1058600005D00122044B1A70BFF35F8F62B67047F8
:1058700014380020183800202C000020F0B583B028
:1058800001AC012565700027A77025702100172045
:10589000064EB04780221204054B9A61277065704E
:1058A00021003720B04703B0F0BDC0468D5900003D
:1058B0000044004170B50022104B1A7000231049BB
:1058C0001F25104E0D4C0AE00D4908E023780133E6
:1058D000DBB223700F2B10D800211F2BF4D9280026
:1058E00018400122824008691042EFD00A619B00F3
:1058F0009B59002BEAD09847E8E770BD944D0020F3
:1059000000180040984D0020044A137802210B43F0
:10591000137053785BB2002BFBDB7047001800401C
:1059200000B583B0124A936940210B43936101A9EA
:1059300000230B7005200F4B984705200E4B98470E
:105940000E4A137801210B43137053785BB2002B7E
:10595000FBDB0B4B19004031002204C39942FCD100
:105960001022084B1A60084B984703B000BDC04690
:1059700000040040DD69000051690000001800408B
:10598000984D002000E100E00959000000B583B007
:1059900001AB80221A700A785A704A789A708A7815
:1059A000DA701900014B984703B000BD056B000089
:1059B00010B50F4B1A681468518A138A1940207A5F
:1059C000E379034058B2002806DBDB0703D5CB0799
:1059D0000AD40123237210BD8B0702D480232372C3
:1059E000F9E7D3689847F9E793689847F1E7C04625
:1059F000D84D0020F0B5DE4657464E464546E0B548
:105A000087B08046049116001F0000220023002169
:105A10008B463F2401202100009601975C460394A9
:105A20004446059413E02024641A0500E540A84686
:105A300014E0009C019D121BAB415C464D462C437B
:105A4000A346039C45462C430394013925D32024C7
:105A500064420C19E7D40500A540A84604008C4018
:105A6000A14692185B4114001D00059E4F463E4022
:105A7000B446049E47463E40B246664657463E43BD
:105A800003D00600264332002B00009C019D9D425E
:105A9000DBD8CED19442D8D8CBE7039B5846190027
:105AA00007B03CBC90469946A246AB46F0BD10B547
:105AB000490840230024814202D2180010BD1C0076
:105AC000091A631C9BB28842F9D94023FF2CF4D8F1
:105AD00014800023F1E70000F0B583B00F0016003A
